{
	"contracts/LaxmiChitFund.sol": {
		"LaxmichitFundBank": {
			"abi": [
				{
					"inputs": [],
					"name": "_id",
					"outputs": [
						{
							"internalType": "uint256",
							"name": "",
							"type": "uint256"
						}
					],
					"stateMutability": "view",
					"type": "function"
				},
				{
					"inputs": [
						{
							"internalType": "string",
							"name": "_name",
							"type": "string"
						},
						{
							"internalType": "uint256",
							"name": "_balance",
							"type": "uint256"
						}
					],
					"name": "createAccount",
					"outputs": [],
					"stateMutability": "nonpayable",
					"type": "function"
				},
				{
					"inputs": [
						{
							"internalType": "uint256",
							"name": "id",
							"type": "uint256"
						},
						{
							"internalType": "uint256",
							"name": "depositedMoney",
							"type": "uint256"
						}
					],
					"name": "depositMoney",
					"outputs": [],
					"stateMutability": "nonpayable",
					"type": "function"
				},
				{
					"inputs": [
						{
							"internalType": "uint256",
							"name": "",
							"type": "uint256"
						}
					],
					"name": "userDatabase",
					"outputs": [
						{
							"internalType": "uint256",
							"name": "id",
							"type": "uint256"
						},
						{
							"internalType": "string",
							"name": "name",
							"type": "string"
						},
						{
							"internalType": "uint256",
							"name": "balance",
							"type": "uint256"
						}
					],
					"stateMutability": "view",
					"type": "function"
				}
			],
			"devdoc": {
				"kind": "dev",
				"methods": {},
				"version": 1
			},
			"evm": {
				"assembly": "    /* \"contracts/LaxmiChitFund.sol\":67:504  contract LaxmichitFundBank{\r... */\n  mstore(0x40, 0x80)\n    /* \"contracts/LaxmiChitFund.sol\":209:210  1 */\n  0x01\n    /* \"contracts/LaxmiChitFund.sol\":193:210  uint public _id=1 */\n  dup1\n  sstore\n    /* \"contracts/LaxmiChitFund.sol\":67:504  contract LaxmichitFundBank{\r... */\n  callvalue\n  dup1\n  iszero\n  tag_1\n  jumpi\n  0x00\n  dup1\n  revert\ntag_1:\n  pop\n  dataSize(sub_0)\n  dup1\n  dataOffset(sub_0)\n  0x00\n  codecopy\n  0x00\n  return\nstop\n\nsub_0: assembly {\n        /* \"contracts/LaxmiChitFund.sol\":67:504  contract LaxmichitFundBank{\r... */\n      mstore(0x40, 0x80)\n      callvalue\n      dup1\n      iszero\n      tag_1\n      jumpi\n      0x00\n      dup1\n      revert\n    tag_1:\n      pop\n      jumpi(tag_2, lt(calldatasize, 0x04))\n      shr(0xe0, calldataload(0x00))\n      dup1\n      0x05180237\n      eq\n      tag_3\n      jumpi\n      dup1\n      0x36828b3c\n      eq\n      tag_4\n      jumpi\n      dup1\n      0x6586ace6\n      eq\n      tag_5\n      jumpi\n      dup1\n      0x94111360\n      eq\n      tag_6\n      jumpi\n    tag_2:\n      0x00\n      dup1\n      revert\n        /* \"contracts/LaxmiChitFund.sol\":193:210  uint public _id=1 */\n    tag_3:\n      tag_7\n      tag_8\n      jump\t// in\n    tag_7:\n      mload(0x40)\n      tag_9\n      swap2\n      swap1\n      tag_10\n      jump\t// in\n    tag_9:\n      mload(0x40)\n      dup1\n      swap2\n      sub\n      swap1\n      return\n        /* \"contracts/LaxmiChitFund.sol\":390:499  function depositMoney(uint id, uint depositedMoney )public{\r... */\n    tag_4:\n      tag_11\n      0x04\n      dup1\n      calldatasize\n      sub\n      dup2\n      add\n      swap1\n      tag_12\n      swap2\n      swap1\n      tag_13\n      jump\t// in\n    tag_12:\n      tag_14\n      jump\t// in\n    tag_11:\n      stop\n        /* \"contracts/LaxmiChitFund.sol\":213:388  function createAccount(string memory _name,uint _balance )public{\r... */\n    tag_5:\n      tag_15\n      0x04\n      dup1\n      calldatasize\n      sub\n      dup2\n      add\n      swap1\n      tag_16\n      swap2\n      swap1\n      tag_17\n      jump\t// in\n    tag_16:\n      tag_18\n      jump\t// in\n    tag_15:\n      stop\n        /* \"contracts/LaxmiChitFund.sol\":152:190  mapping(uint=>User)public userDatabase */\n    tag_6:\n      tag_19\n      0x04\n      dup1\n      calldatasize\n      sub\n      dup2\n      add\n      swap1\n      tag_20\n      swap2\n      swap1\n      tag_21\n      jump\t// in\n    tag_20:\n      tag_22\n      jump\t// in\n    tag_19:\n      mload(0x40)\n      tag_23\n      swap4\n      swap3\n      swap2\n      swap1\n      tag_24\n      jump\t// in\n    tag_23:\n      mload(0x40)\n      dup1\n      swap2\n      sub\n      swap1\n      return\n        /* \"contracts/LaxmiChitFund.sol\":193:210  uint public _id=1 */\n    tag_8:\n      sload(0x01)\n      dup2\n      jump\t// out\n        /* \"contracts/LaxmiChitFund.sol\":390:499  function depositMoney(uint id, uint depositedMoney )public{\r... */\n    tag_14:\n        /* \"contracts/LaxmiChitFund.sol\":480:494  depositedMoney */\n      dup1\n        /* \"contracts/LaxmiChitFund.sol\":454:466  userDatabase */\n      0x00\n        /* \"contracts/LaxmiChitFund.sol\":454:470  userDatabase[id] */\n      dup1\n        /* \"contracts/LaxmiChitFund.sol\":467:469  id */\n      dup5\n        /* \"contracts/LaxmiChitFund.sol\":454:470  userDatabase[id] */\n      dup2\n      mstore\n      0x20\n      add\n      swap1\n      dup2\n      mstore\n      0x20\n      add\n      0x00\n      keccak256\n        /* \"contracts/LaxmiChitFund.sol\":454:478  userDatabase[id].balance */\n      0x02\n      add\n      0x00\n        /* \"contracts/LaxmiChitFund.sol\":454:494  userDatabase[id].balance+=depositedMoney */\n      dup3\n      dup3\n      sload\n      tag_26\n      swap2\n      swap1\n      tag_27\n      jump\t// in\n    tag_26:\n      swap3\n      pop\n      pop\n      dup2\n      swap1\n      sstore\n      pop\n        /* \"contracts/LaxmiChitFund.sol\":390:499  function depositMoney(uint id, uint depositedMoney )public{\r... */\n      pop\n      pop\n      jump\t// out\n        /* \"contracts/LaxmiChitFund.sol\":213:388  function createAccount(string memory _name,uint _balance )public{\r... */\n    tag_18:\n        /* \"contracts/LaxmiChitFund.sol\":301:304  _id */\n      sload(0x01)\n        /* \"contracts/LaxmiChitFund.sol\":280:292  userDatabase */\n      0x00\n        /* \"contracts/LaxmiChitFund.sol\":280:297  userDatabase[_id] */\n      dup1\n        /* \"contracts/LaxmiChitFund.sol\":293:296  _id */\n      sload(0x01)\n        /* \"contracts/LaxmiChitFund.sol\":280:297  userDatabase[_id] */\n      dup2\n      mstore\n      0x20\n      add\n      swap1\n      dup2\n      mstore\n      0x20\n      add\n      0x00\n      keccak256\n        /* \"contracts/LaxmiChitFund.sol\":280:300  userDatabase[_id].id */\n      0x00\n      add\n        /* \"contracts/LaxmiChitFund.sol\":280:304  userDatabase[_id].id=_id */\n      dup2\n      swap1\n      sstore\n      pop\n        /* \"contracts/LaxmiChitFund.sol\":330:335  _name */\n      dup2\n        /* \"contracts/LaxmiChitFund.sol\":307:319  userDatabase */\n      0x00\n        /* \"contracts/LaxmiChitFund.sol\":307:324  userDatabase[_id] */\n      dup1\n        /* \"contracts/LaxmiChitFund.sol\":320:323  _id */\n      sload(0x01)\n        /* \"contracts/LaxmiChitFund.sol\":307:324  userDatabase[_id] */\n      dup2\n      mstore\n      0x20\n      add\n      swap1\n      dup2\n      mstore\n      0x20\n      add\n      0x00\n      keccak256\n        /* \"contracts/LaxmiChitFund.sol\":307:329  userDatabase[_id].name */\n      0x01\n      add\n        /* \"contracts/LaxmiChitFund.sol\":307:335  userDatabase[_id].name=_name */\n      swap1\n      dup1\n      mload\n      swap1\n      0x20\n      add\n      swap1\n      tag_29\n      swap3\n      swap2\n      swap1\n      tag_30\n      jump\t// in\n    tag_29:\n      pop\n        /* \"contracts/LaxmiChitFund.sol\":364:372  _balance */\n      dup1\n        /* \"contracts/LaxmiChitFund.sol\":338:350  userDatabase */\n      0x00\n        /* \"contracts/LaxmiChitFund.sol\":338:355  userDatabase[_id] */\n      dup1\n        /* \"contracts/LaxmiChitFund.sol\":351:354  _id */\n      sload(0x01)\n        /* \"contracts/LaxmiChitFund.sol\":338:355  userDatabase[_id] */\n      dup2\n      mstore\n      0x20\n      add\n      swap1\n      dup2\n      mstore\n      0x20\n      add\n      0x00\n      keccak256\n        /* \"contracts/LaxmiChitFund.sol\":338:363  userDatabase[_id].balance */\n      0x02\n      add\n        /* \"contracts/LaxmiChitFund.sol\":338:372  userDatabase[_id].balance=_balance */\n      dup2\n      swap1\n      sstore\n      pop\n        /* \"contracts/LaxmiChitFund.sol\":383:384  1 */\n      0x01\n        /* \"contracts/LaxmiChitFund.sol\":379:382  _id */\n      dup1\n      sload\n        /* \"contracts/LaxmiChitFund.sol\":379:384  _id+1 */\n      tag_31\n      swap2\n      swap1\n      tag_27\n      jump\t// in\n    tag_31:\n        /* \"contracts/LaxmiChitFund.sol\":375:378  _id */\n      0x01\n        /* \"contracts/LaxmiChitFund.sol\":375:384  _id=_id+1 */\n      dup2\n      swap1\n      sstore\n      pop\n        /* \"contracts/LaxmiChitFund.sol\":213:388  function createAccount(string memory _name,uint _balance )public{\r... */\n      pop\n      pop\n      jump\t// out\n        /* \"contracts/LaxmiChitFund.sol\":152:190  mapping(uint=>User)public userDatabase */\n    tag_22:\n      mstore(0x20, 0x00)\n      dup1\n      0x00\n      mstore\n      keccak256(0x00, 0x40)\n      0x00\n      swap2\n      pop\n      swap1\n      pop\n      dup1\n      0x00\n      add\n      sload\n      swap1\n      dup1\n      0x01\n      add\n      dup1\n      sload\n      tag_32\n      swap1\n      tag_33\n      jump\t// in\n    tag_32:\n      dup1\n      0x1f\n      add\n      0x20\n      dup1\n      swap2\n      div\n      mul\n      0x20\n      add\n      mload(0x40)\n      swap1\n      dup2\n      add\n      0x40\n      mstore\n      dup1\n      swap3\n      swap2\n      swap1\n      dup2\n      dup2\n      mstore\n      0x20\n      add\n      dup3\n      dup1\n      sload\n      tag_34\n      swap1\n      tag_33\n      jump\t// in\n    tag_34:\n      dup1\n      iszero\n      tag_35\n      jumpi\n      dup1\n      0x1f\n      lt\n      tag_36\n      jumpi\n      0x0100\n      dup1\n      dup4\n      sload\n      div\n      mul\n      dup4\n      mstore\n      swap2\n      0x20\n      add\n      swap2\n      jump(tag_35)\n    tag_36:\n      dup3\n      add\n      swap2\n      swap1\n      0x00\n      mstore\n      keccak256(0x00, 0x20)\n      swap1\n    tag_37:\n      dup2\n      sload\n      dup2\n      mstore\n      swap1\n      0x01\n      add\n      swap1\n      0x20\n      add\n      dup1\n      dup4\n      gt\n      tag_37\n      jumpi\n      dup3\n      swap1\n      sub\n      0x1f\n      and\n      dup3\n      add\n      swap2\n    tag_35:\n      pop\n      pop\n      pop\n      pop\n      pop\n      swap1\n      dup1\n      0x02\n      add\n      sload\n      swap1\n      pop\n      dup4\n      jump\t// out\n    tag_30:\n      dup3\n      dup1\n      sload\n      tag_38\n      swap1\n      tag_33\n      jump\t// in\n    tag_38:\n      swap1\n      0x00\n      mstore\n      keccak256(0x00, 0x20)\n      swap1\n      0x1f\n      add\n      0x20\n      swap1\n      div\n      dup2\n      add\n      swap3\n      dup3\n      tag_40\n      jumpi\n      0x00\n      dup6\n      sstore\n      jump(tag_39)\n    tag_40:\n      dup3\n      0x1f\n      lt\n      tag_41\n      jumpi\n      dup1\n      mload\n      not(0xff)\n      and\n      dup4\n      dup1\n      add\n      or\n      dup6\n      sstore\n      jump(tag_39)\n    tag_41:\n      dup3\n      dup1\n      add\n      0x01\n      add\n      dup6\n      sstore\n      dup3\n      iszero\n      tag_39\n      jumpi\n      swap2\n      dup3\n      add\n    tag_42:\n      dup3\n      dup2\n      gt\n      iszero\n      tag_43\n      jumpi\n      dup3\n      mload\n      dup3\n      sstore\n      swap2\n      0x20\n      add\n      swap2\n      swap1\n      0x01\n      add\n      swap1\n      jump(tag_42)\n    tag_43:\n    tag_39:\n      pop\n      swap1\n      pop\n      tag_44\n      swap2\n      swap1\n      tag_45\n      jump\t// in\n    tag_44:\n      pop\n      swap1\n      jump\t// out\n    tag_45:\n    tag_46:\n      dup1\n      dup3\n      gt\n      iszero\n      tag_47\n      jumpi\n      0x00\n      dup2\n      0x00\n      swap1\n      sstore\n      pop\n      0x01\n      add\n      jump(tag_46)\n    tag_47:\n      pop\n      swap1\n      jump\t// out\n        /* \"#utility.yul\":7:419   */\n    tag_49:\n        /* \"#utility.yul\":85:90   */\n      0x00\n        /* \"#utility.yul\":110:176   */\n      tag_51\n        /* \"#utility.yul\":126:175   */\n      tag_52\n        /* \"#utility.yul\":168:174   */\n      dup5\n        /* \"#utility.yul\":126:175   */\n      tag_53\n      jump\t// in\n    tag_52:\n        /* \"#utility.yul\":110:176   */\n      tag_54\n      jump\t// in\n    tag_51:\n        /* \"#utility.yul\":101:176   */\n      swap1\n      pop\n        /* \"#utility.yul\":199:205   */\n      dup3\n        /* \"#utility.yul\":192:197   */\n      dup2\n        /* \"#utility.yul\":185:206   */\n      mstore\n        /* \"#utility.yul\":237:241   */\n      0x20\n        /* \"#utility.yul\":230:235   */\n      dup2\n        /* \"#utility.yul\":226:242   */\n      add\n        /* \"#utility.yul\":275:278   */\n      dup5\n        /* \"#utility.yul\":266:272   */\n      dup5\n        /* \"#utility.yul\":261:264   */\n      dup5\n        /* \"#utility.yul\":257:273   */\n      add\n        /* \"#utility.yul\":254:279   */\n      gt\n        /* \"#utility.yul\":251:363   */\n      iszero\n      tag_55\n      jumpi\n        /* \"#utility.yul\":282:361   */\n      tag_56\n      tag_57\n      jump\t// in\n    tag_56:\n        /* \"#utility.yul\":251:363   */\n    tag_55:\n        /* \"#utility.yul\":372:413   */\n      tag_58\n        /* \"#utility.yul\":406:412   */\n      dup5\n        /* \"#utility.yul\":401:404   */\n      dup3\n        /* \"#utility.yul\":396:399   */\n      dup6\n        /* \"#utility.yul\":372:413   */\n      tag_59\n      jump\t// in\n    tag_58:\n        /* \"#utility.yul\":91:419   */\n      pop\n        /* \"#utility.yul\":7:419   */\n      swap4\n      swap3\n      pop\n      pop\n      pop\n      jump\t// out\n        /* \"#utility.yul\":439:779   */\n    tag_60:\n        /* \"#utility.yul\":495:500   */\n      0x00\n        /* \"#utility.yul\":544:547   */\n      dup3\n        /* \"#utility.yul\":537:541   */\n      0x1f\n        /* \"#utility.yul\":529:535   */\n      dup4\n        /* \"#utility.yul\":525:542   */\n      add\n        /* \"#utility.yul\":521:548   */\n      slt\n        /* \"#utility.yul\":511:633   */\n      tag_62\n      jumpi\n        /* \"#utility.yul\":552:631   */\n      tag_63\n      tag_64\n      jump\t// in\n    tag_63:\n        /* \"#utility.yul\":511:633   */\n    tag_62:\n        /* \"#utility.yul\":669:675   */\n      dup2\n        /* \"#utility.yul\":656:676   */\n      calldataload\n        /* \"#utility.yul\":694:773   */\n      tag_65\n        /* \"#utility.yul\":769:772   */\n      dup5\n        /* \"#utility.yul\":761:767   */\n      dup3\n        /* \"#utility.yul\":754:758   */\n      0x20\n        /* \"#utility.yul\":746:752   */\n      dup7\n        /* \"#utility.yul\":742:759   */\n      add\n        /* \"#utility.yul\":694:773   */\n      tag_49\n      jump\t// in\n    tag_65:\n        /* \"#utility.yul\":685:773   */\n      swap2\n      pop\n        /* \"#utility.yul\":501:779   */\n      pop\n        /* \"#utility.yul\":439:779   */\n      swap3\n      swap2\n      pop\n      pop\n      jump\t// out\n        /* \"#utility.yul\":785:924   */\n    tag_66:\n        /* \"#utility.yul\":831:836   */\n      0x00\n        /* \"#utility.yul\":869:875   */\n      dup2\n        /* \"#utility.yul\":856:876   */\n      calldataload\n        /* \"#utility.yul\":847:876   */\n      swap1\n      pop\n        /* \"#utility.yul\":885:918   */\n      tag_68\n        /* \"#utility.yul\":912:917   */\n      dup2\n        /* \"#utility.yul\":885:918   */\n      tag_69\n      jump\t// in\n    tag_68:\n        /* \"#utility.yul\":785:924   */\n      swap3\n      swap2\n      pop\n      pop\n      jump\t// out\n        /* \"#utility.yul\":930:1584   */\n    tag_17:\n        /* \"#utility.yul\":1008:1014   */\n      0x00\n        /* \"#utility.yul\":1016:1022   */\n      dup1\n        /* \"#utility.yul\":1065:1067   */\n      0x40\n        /* \"#utility.yul\":1053:1062   */\n      dup4\n        /* \"#utility.yul\":1044:1051   */\n      dup6\n        /* \"#utility.yul\":1040:1063   */\n      sub\n        /* \"#utility.yul\":1036:1068   */\n      slt\n        /* \"#utility.yul\":1033:1152   */\n      iszero\n      tag_71\n      jumpi\n        /* \"#utility.yul\":1071:1150   */\n      tag_72\n      tag_73\n      jump\t// in\n    tag_72:\n        /* \"#utility.yul\":1033:1152   */\n    tag_71:\n        /* \"#utility.yul\":1219:1220   */\n      0x00\n        /* \"#utility.yul\":1208:1217   */\n      dup4\n        /* \"#utility.yul\":1204:1221   */\n      add\n        /* \"#utility.yul\":1191:1222   */\n      calldataload\n        /* \"#utility.yul\":1249:1267   */\n      0xffffffffffffffff\n        /* \"#utility.yul\":1241:1247   */\n      dup2\n        /* \"#utility.yul\":1238:1268   */\n      gt\n        /* \"#utility.yul\":1235:1352   */\n      iszero\n      tag_74\n      jumpi\n        /* \"#utility.yul\":1271:1350   */\n      tag_75\n      tag_76\n      jump\t// in\n    tag_75:\n        /* \"#utility.yul\":1235:1352   */\n    tag_74:\n        /* \"#utility.yul\":1376:1439   */\n      tag_77\n        /* \"#utility.yul\":1431:1438   */\n      dup6\n        /* \"#utility.yul\":1422:1428   */\n      dup3\n        /* \"#utility.yul\":1411:1420   */\n      dup7\n        /* \"#utility.yul\":1407:1429   */\n      add\n        /* \"#utility.yul\":1376:1439   */\n      tag_60\n      jump\t// in\n    tag_77:\n        /* \"#utility.yul\":1366:1439   */\n      swap3\n      pop\n        /* \"#utility.yul\":1162:1449   */\n      pop\n        /* \"#utility.yul\":1488:1490   */\n      0x20\n        /* \"#utility.yul\":1514:1567   */\n      tag_78\n        /* \"#utility.yul\":1559:1566   */\n      dup6\n        /* \"#utility.yul\":1550:1556   */\n      dup3\n        /* \"#utility.yul\":1539:1548   */\n      dup7\n        /* \"#utility.yul\":1535:1557   */\n      add\n        /* \"#utility.yul\":1514:1567   */\n      tag_66\n      jump\t// in\n    tag_78:\n        /* \"#utility.yul\":1504:1567   */\n      swap2\n      pop\n        /* \"#utility.yul\":1459:1577   */\n      pop\n        /* \"#utility.yul\":930:1584   */\n      swap3\n      pop\n      swap3\n      swap1\n      pop\n      jump\t// out\n        /* \"#utility.yul\":1590:1919   */\n    tag_21:\n        /* \"#utility.yul\":1649:1655   */\n      0x00\n        /* \"#utility.yul\":1698:1700   */\n      0x20\n        /* \"#utility.yul\":1686:1695   */\n      dup3\n        /* \"#utility.yul\":1677:1684   */\n      dup5\n        /* \"#utility.yul\":1673:1696   */\n      sub\n        /* \"#utility.yul\":1669:1701   */\n      slt\n        /* \"#utility.yul\":1666:1785   */\n      iszero\n      tag_80\n      jumpi\n        /* \"#utility.yul\":1704:1783   */\n      tag_81\n      tag_73\n      jump\t// in\n    tag_81:\n        /* \"#utility.yul\":1666:1785   */\n    tag_80:\n        /* \"#utility.yul\":1824:1825   */\n      0x00\n        /* \"#utility.yul\":1849:1902   */\n      tag_82\n        /* \"#utility.yul\":1894:1901   */\n      dup5\n        /* \"#utility.yul\":1885:1891   */\n      dup3\n        /* \"#utility.yul\":1874:1883   */\n      dup6\n        /* \"#utility.yul\":1870:1892   */\n      add\n        /* \"#utility.yul\":1849:1902   */\n      tag_66\n      jump\t// in\n    tag_82:\n        /* \"#utility.yul\":1839:1902   */\n      swap2\n      pop\n        /* \"#utility.yul\":1795:1912   */\n      pop\n        /* \"#utility.yul\":1590:1919   */\n      swap3\n      swap2\n      pop\n      pop\n      jump\t// out\n        /* \"#utility.yul\":1925:2399   */\n    tag_13:\n        /* \"#utility.yul\":1993:1999   */\n      0x00\n        /* \"#utility.yul\":2001:2007   */\n      dup1\n        /* \"#utility.yul\":2050:2052   */\n      0x40\n        /* \"#utility.yul\":2038:2047   */\n      dup4\n        /* \"#utility.yul\":2029:2036   */\n      dup6\n        /* \"#utility.yul\":2025:2048   */\n      sub\n        /* \"#utility.yul\":2021:2053   */\n      slt\n        /* \"#utility.yul\":2018:2137   */\n      iszero\n      tag_84\n      jumpi\n        /* \"#utility.yul\":2056:2135   */\n      tag_85\n      tag_73\n      jump\t// in\n    tag_85:\n        /* \"#utility.yul\":2018:2137   */\n    tag_84:\n        /* \"#utility.yul\":2176:2177   */\n      0x00\n        /* \"#utility.yul\":2201:2254   */\n      tag_86\n        /* \"#utility.yul\":2246:2253   */\n      dup6\n        /* \"#utility.yul\":2237:2243   */\n      dup3\n        /* \"#utility.yul\":2226:2235   */\n      dup7\n        /* \"#utility.yul\":2222:2244   */\n      add\n        /* \"#utility.yul\":2201:2254   */\n      tag_66\n      jump\t// in\n    tag_86:\n        /* \"#utility.yul\":2191:2254   */\n      swap3\n      pop\n        /* \"#utility.yul\":2147:2264   */\n      pop\n        /* \"#utility.yul\":2303:2305   */\n      0x20\n        /* \"#utility.yul\":2329:2382   */\n      tag_87\n        /* \"#utility.yul\":2374:2381   */\n      dup6\n        /* \"#utility.yul\":2365:2371   */\n      dup3\n        /* \"#utility.yul\":2354:2363   */\n      dup7\n        /* \"#utility.yul\":2350:2372   */\n      add\n        /* \"#utility.yul\":2329:2382   */\n      tag_66\n      jump\t// in\n    tag_87:\n        /* \"#utility.yul\":2319:2382   */\n      swap2\n      pop\n        /* \"#utility.yul\":2274:2392   */\n      pop\n        /* \"#utility.yul\":1925:2399   */\n      swap3\n      pop\n      swap3\n      swap1\n      pop\n      jump\t// out\n        /* \"#utility.yul\":2405:2769   */\n    tag_88:\n        /* \"#utility.yul\":2493:2496   */\n      0x00\n        /* \"#utility.yul\":2521:2560   */\n      tag_90\n        /* \"#utility.yul\":2554:2559   */\n      dup3\n        /* \"#utility.yul\":2521:2560   */\n      tag_91\n      jump\t// in\n    tag_90:\n        /* \"#utility.yul\":2576:2647   */\n      tag_92\n        /* \"#utility.yul\":2640:2646   */\n      dup2\n        /* \"#utility.yul\":2635:2638   */\n      dup6\n        /* \"#utility.yul\":2576:2647   */\n      tag_93\n      jump\t// in\n    tag_92:\n        /* \"#utility.yul\":2569:2647   */\n      swap4\n      pop\n        /* \"#utility.yul\":2656:2708   */\n      tag_94\n        /* \"#utility.yul\":2701:2707   */\n      dup2\n        /* \"#utility.yul\":2696:2699   */\n      dup6\n        /* \"#utility.yul\":2689:2693   */\n      0x20\n        /* \"#utility.yul\":2682:2687   */\n      dup7\n        /* \"#utility.yul\":2678:2694   */\n      add\n        /* \"#utility.yul\":2656:2708   */\n      tag_95\n      jump\t// in\n    tag_94:\n        /* \"#utility.yul\":2733:2762   */\n      tag_96\n        /* \"#utility.yul\":2755:2761   */\n      dup2\n        /* \"#utility.yul\":2733:2762   */\n      tag_97\n      jump\t// in\n    tag_96:\n        /* \"#utility.yul\":2728:2731   */\n      dup5\n        /* \"#utility.yul\":2724:2763   */\n      add\n        /* \"#utility.yul\":2717:2763   */\n      swap2\n      pop\n        /* \"#utility.yul\":2497:2769   */\n      pop\n        /* \"#utility.yul\":2405:2769   */\n      swap3\n      swap2\n      pop\n      pop\n      jump\t// out\n        /* \"#utility.yul\":2775:2893   */\n    tag_98:\n        /* \"#utility.yul\":2862:2886   */\n      tag_100\n        /* \"#utility.yul\":2880:2885   */\n      dup2\n        /* \"#utility.yul\":2862:2886   */\n      tag_101\n      jump\t// in\n    tag_100:\n        /* \"#utility.yul\":2857:2860   */\n      dup3\n        /* \"#utility.yul\":2850:2887   */\n      mstore\n        /* \"#utility.yul\":2775:2893   */\n      pop\n      pop\n      jump\t// out\n        /* \"#utility.yul\":2899:3121   */\n    tag_10:\n        /* \"#utility.yul\":2992:2996   */\n      0x00\n        /* \"#utility.yul\":3030:3032   */\n      0x20\n        /* \"#utility.yul\":3019:3028   */\n      dup3\n        /* \"#utility.yul\":3015:3033   */\n      add\n        /* \"#utility.yul\":3007:3033   */\n      swap1\n      pop\n        /* \"#utility.yul\":3043:3114   */\n      tag_103\n        /* \"#utility.yul\":3111:3112   */\n      0x00\n        /* \"#utility.yul\":3100:3109   */\n      dup4\n        /* \"#utility.yul\":3096:3113   */\n      add\n        /* \"#utility.yul\":3087:3093   */\n      dup5\n        /* \"#utility.yul\":3043:3114   */\n      tag_98\n      jump\t// in\n    tag_103:\n        /* \"#utility.yul\":2899:3121   */\n      swap3\n      swap2\n      pop\n      pop\n      jump\t// out\n        /* \"#utility.yul\":3127:3660   */\n    tag_24:\n        /* \"#utility.yul\":3296:3300   */\n      0x00\n        /* \"#utility.yul\":3334:3336   */\n      0x60\n        /* \"#utility.yul\":3323:3332   */\n      dup3\n        /* \"#utility.yul\":3319:3337   */\n      add\n        /* \"#utility.yul\":3311:3337   */\n      swap1\n      pop\n        /* \"#utility.yul\":3347:3418   */\n      tag_105\n        /* \"#utility.yul\":3415:3416   */\n      0x00\n        /* \"#utility.yul\":3404:3413   */\n      dup4\n        /* \"#utility.yul\":3400:3417   */\n      add\n        /* \"#utility.yul\":3391:3397   */\n      dup7\n        /* \"#utility.yul\":3347:3418   */\n      tag_98\n      jump\t// in\n    tag_105:\n        /* \"#utility.yul\":3465:3474   */\n      dup2\n        /* \"#utility.yul\":3459:3463   */\n      dup2\n        /* \"#utility.yul\":3455:3475   */\n      sub\n        /* \"#utility.yul\":3450:3452   */\n      0x20\n        /* \"#utility.yul\":3439:3448   */\n      dup4\n        /* \"#utility.yul\":3435:3453   */\n      add\n        /* \"#utility.yul\":3428:3476   */\n      mstore\n        /* \"#utility.yul\":3493:3571   */\n      tag_106\n        /* \"#utility.yul\":3566:3570   */\n      dup2\n        /* \"#utility.yul\":3557:3563   */\n      dup6\n        /* \"#utility.yul\":3493:3571   */\n      tag_88\n      jump\t// in\n    tag_106:\n        /* \"#utility.yul\":3485:3571   */\n      swap1\n      pop\n        /* \"#utility.yul\":3581:3653   */\n      tag_107\n        /* \"#utility.yul\":3649:3651   */\n      0x40\n        /* \"#utility.yul\":3638:3647   */\n      dup4\n        /* \"#utility.yul\":3634:3652   */\n      add\n        /* \"#utility.yul\":3625:3631   */\n      dup5\n        /* \"#utility.yul\":3581:3653   */\n      tag_98\n      jump\t// in\n    tag_107:\n        /* \"#utility.yul\":3127:3660   */\n      swap5\n      swap4\n      pop\n      pop\n      pop\n      pop\n      jump\t// out\n        /* \"#utility.yul\":3666:3795   */\n    tag_54:\n        /* \"#utility.yul\":3700:3706   */\n      0x00\n        /* \"#utility.yul\":3727:3747   */\n      tag_109\n      tag_110\n      jump\t// in\n    tag_109:\n        /* \"#utility.yul\":3717:3747   */\n      swap1\n      pop\n        /* \"#utility.yul\":3756:3789   */\n      tag_111\n        /* \"#utility.yul\":3784:3788   */\n      dup3\n        /* \"#utility.yul\":3776:3782   */\n      dup3\n        /* \"#utility.yul\":3756:3789   */\n      tag_112\n      jump\t// in\n    tag_111:\n        /* \"#utility.yul\":3666:3795   */\n      swap2\n      swap1\n      pop\n      jump\t// out\n        /* \"#utility.yul\":3801:3876   */\n    tag_110:\n        /* \"#utility.yul\":3834:3840   */\n      0x00\n        /* \"#utility.yul\":3867:3869   */\n      0x40\n        /* \"#utility.yul\":3861:3870   */\n      mload\n        /* \"#utility.yul\":3851:3870   */\n      swap1\n      pop\n        /* \"#utility.yul\":3801:3876   */\n      swap1\n      jump\t// out\n        /* \"#utility.yul\":3882:4190   */\n    tag_53:\n        /* \"#utility.yul\":3944:3948   */\n      0x00\n        /* \"#utility.yul\":4034:4052   */\n      0xffffffffffffffff\n        /* \"#utility.yul\":4026:4032   */\n      dup3\n        /* \"#utility.yul\":4023:4053   */\n      gt\n        /* \"#utility.yul\":4020:4076   */\n      iszero\n      tag_115\n      jumpi\n        /* \"#utility.yul\":4056:4074   */\n      tag_116\n      tag_117\n      jump\t// in\n    tag_116:\n        /* \"#utility.yul\":4020:4076   */\n    tag_115:\n        /* \"#utility.yul\":4094:4123   */\n      tag_118\n        /* \"#utility.yul\":4116:4122   */\n      dup3\n        /* \"#utility.yul\":4094:4123   */\n      tag_97\n      jump\t// in\n    tag_118:\n        /* \"#utility.yul\":4086:4123   */\n      swap1\n      pop\n        /* \"#utility.yul\":4178:4182   */\n      0x20\n        /* \"#utility.yul\":4172:4176   */\n      dup2\n        /* \"#utility.yul\":4168:4183   */\n      add\n        /* \"#utility.yul\":4160:4183   */\n      swap1\n      pop\n        /* \"#utility.yul\":3882:4190   */\n      swap2\n      swap1\n      pop\n      jump\t// out\n        /* \"#utility.yul\":4196:4295   */\n    tag_91:\n        /* \"#utility.yul\":4248:4254   */\n      0x00\n        /* \"#utility.yul\":4282:4287   */\n      dup2\n        /* \"#utility.yul\":4276:4288   */\n      mload\n        /* \"#utility.yul\":4266:4288   */\n      swap1\n      pop\n        /* \"#utility.yul\":4196:4295   */\n      swap2\n      swap1\n      pop\n      jump\t// out\n        /* \"#utility.yul\":4301:4470   */\n    tag_93:\n        /* \"#utility.yul\":4385:4396   */\n      0x00\n        /* \"#utility.yul\":4419:4425   */\n      dup3\n        /* \"#utility.yul\":4414:4417   */\n      dup3\n        /* \"#utility.yul\":4407:4426   */\n      mstore\n        /* \"#utility.yul\":4459:4463   */\n      0x20\n        /* \"#utility.yul\":4454:4457   */\n      dup3\n        /* \"#utility.yul\":4450:4464   */\n      add\n        /* \"#utility.yul\":4435:4464   */\n      swap1\n      pop\n        /* \"#utility.yul\":4301:4470   */\n      swap3\n      swap2\n      pop\n      pop\n      jump\t// out\n        /* \"#utility.yul\":4476:4781   */\n    tag_27:\n        /* \"#utility.yul\":4516:4519   */\n      0x00\n        /* \"#utility.yul\":4535:4555   */\n      tag_122\n        /* \"#utility.yul\":4553:4554   */\n      dup3\n        /* \"#utility.yul\":4535:4555   */\n      tag_101\n      jump\t// in\n    tag_122:\n        /* \"#utility.yul\":4530:4555   */\n      swap2\n      pop\n        /* \"#utility.yul\":4569:4589   */\n      tag_123\n        /* \"#utility.yul\":4587:4588   */\n      dup4\n        /* \"#utility.yul\":4569:4589   */\n      tag_101\n      jump\t// in\n    tag_123:\n        /* \"#utility.yul\":4564:4589   */\n      swap3\n      pop\n        /* \"#utility.yul\":4723:4724   */\n      dup3\n        /* \"#utility.yul\":4655:4721   */\n      0xffffffffffffffffffffffffffffffffffffffffffffffffffffffffffffffff\n        /* \"#utility.yul\":4651:4725   */\n      sub\n        /* \"#utility.yul\":4648:4649   */\n      dup3\n        /* \"#utility.yul\":4645:4726   */\n      gt\n        /* \"#utility.yul\":4642:4749   */\n      iszero\n      tag_124\n      jumpi\n        /* \"#utility.yul\":4729:4747   */\n      tag_125\n      tag_126\n      jump\t// in\n    tag_125:\n        /* \"#utility.yul\":4642:4749   */\n    tag_124:\n        /* \"#utility.yul\":4773:4774   */\n      dup3\n        /* \"#utility.yul\":4770:4771   */\n      dup3\n        /* \"#utility.yul\":4766:4775   */\n      add\n        /* \"#utility.yul\":4759:4775   */\n      swap1\n      pop\n        /* \"#utility.yul\":4476:4781   */\n      swap3\n      swap2\n      pop\n      pop\n      jump\t// out\n        /* \"#utility.yul\":4787:4864   */\n    tag_101:\n        /* \"#utility.yul\":4824:4831   */\n      0x00\n        /* \"#utility.yul\":4853:4858   */\n      dup2\n        /* \"#utility.yul\":4842:4858   */\n      swap1\n      pop\n        /* \"#utility.yul\":4787:4864   */\n      swap2\n      swap1\n      pop\n      jump\t// out\n        /* \"#utility.yul\":4870:5024   */\n    tag_59:\n        /* \"#utility.yul\":4954:4960   */\n      dup3\n        /* \"#utility.yul\":4949:4952   */\n      dup2\n        /* \"#utility.yul\":4944:4947   */\n      dup4\n        /* \"#utility.yul\":4931:4961   */\n      calldatacopy\n        /* \"#utility.yul\":5016:5017   */\n      0x00\n        /* \"#utility.yul\":5007:5013   */\n      dup4\n        /* \"#utility.yul\":5002:5005   */\n      dup4\n        /* \"#utility.yul\":4998:5014   */\n      add\n        /* \"#utility.yul\":4991:5018   */\n      mstore\n        /* \"#utility.yul\":4870:5024   */\n      pop\n      pop\n      pop\n      jump\t// out\n        /* \"#utility.yul\":5030:5337   */\n    tag_95:\n        /* \"#utility.yul\":5098:5099   */\n      0x00\n        /* \"#utility.yul\":5108:5221   */\n    tag_130:\n        /* \"#utility.yul\":5122:5128   */\n      dup4\n        /* \"#utility.yul\":5119:5120   */\n      dup2\n        /* \"#utility.yul\":5116:5129   */\n      lt\n        /* \"#utility.yul\":5108:5221   */\n      iszero\n      tag_132\n      jumpi\n        /* \"#utility.yul\":5207:5208   */\n      dup1\n        /* \"#utility.yul\":5202:5205   */\n      dup3\n        /* \"#utility.yul\":5198:5209   */\n      add\n        /* \"#utility.yul\":5192:5210   */\n      mload\n        /* \"#utility.yul\":5188:5189   */\n      dup2\n        /* \"#utility.yul\":5183:5186   */\n      dup5\n        /* \"#utility.yul\":5179:5190   */\n      add\n        /* \"#utility.yul\":5172:5211   */\n      mstore\n        /* \"#utility.yul\":5144:5146   */\n      0x20\n        /* \"#utility.yul\":5141:5142   */\n      dup2\n        /* \"#utility.yul\":5137:5147   */\n      add\n        /* \"#utility.yul\":5132:5147   */\n      swap1\n      pop\n        /* \"#utility.yul\":5108:5221   */\n      jump(tag_130)\n    tag_132:\n        /* \"#utility.yul\":5239:5245   */\n      dup4\n        /* \"#utility.yul\":5236:5237   */\n      dup2\n        /* \"#utility.yul\":5233:5246   */\n      gt\n        /* \"#utility.yul\":5230:5331   */\n      iszero\n      tag_133\n      jumpi\n        /* \"#utility.yul\":5319:5320   */\n      0x00\n        /* \"#utility.yul\":5310:5316   */\n      dup5\n        /* \"#utility.yul\":5305:5308   */\n      dup5\n        /* \"#utility.yul\":5301:5317   */\n      add\n        /* \"#utility.yul\":5294:5321   */\n      mstore\n        /* \"#utility.yul\":5230:5331   */\n    tag_133:\n        /* \"#utility.yul\":5079:5337   */\n      pop\n        /* \"#utility.yul\":5030:5337   */\n      pop\n      pop\n      pop\n      jump\t// out\n        /* \"#utility.yul\":5343:5663   */\n    tag_33:\n        /* \"#utility.yul\":5387:5393   */\n      0x00\n        /* \"#utility.yul\":5424:5425   */\n      0x02\n        /* \"#utility.yul\":5418:5422   */\n      dup3\n        /* \"#utility.yul\":5414:5426   */\n      div\n        /* \"#utility.yul\":5404:5426   */\n      swap1\n      pop\n        /* \"#utility.yul\":5471:5472   */\n      0x01\n        /* \"#utility.yul\":5465:5469   */\n      dup3\n        /* \"#utility.yul\":5461:5473   */\n      and\n        /* \"#utility.yul\":5492:5510   */\n      dup1\n        /* \"#utility.yul\":5482:5563   */\n      tag_135\n      jumpi\n        /* \"#utility.yul\":5548:5552   */\n      0x7f\n        /* \"#utility.yul\":5540:5546   */\n      dup3\n        /* \"#utility.yul\":5536:5553   */\n      and\n        /* \"#utility.yul\":5526:5553   */\n      swap2\n      pop\n        /* \"#utility.yul\":5482:5563   */\n    tag_135:\n        /* \"#utility.yul\":5610:5612   */\n      0x20\n        /* \"#utility.yul\":5602:5608   */\n      dup3\n        /* \"#utility.yul\":5599:5613   */\n      lt\n        /* \"#utility.yul\":5579:5597   */\n      dup2\n        /* \"#utility.yul\":5576:5614   */\n      eq\n        /* \"#utility.yul\":5573:5657   */\n      iszero\n      tag_136\n      jumpi\n        /* \"#utility.yul\":5629:5647   */\n      tag_137\n      tag_138\n      jump\t// in\n    tag_137:\n        /* \"#utility.yul\":5573:5657   */\n    tag_136:\n        /* \"#utility.yul\":5394:5663   */\n      pop\n        /* \"#utility.yul\":5343:5663   */\n      swap2\n      swap1\n      pop\n      jump\t// out\n        /* \"#utility.yul\":5669:5950   */\n    tag_112:\n        /* \"#utility.yul\":5752:5779   */\n      tag_140\n        /* \"#utility.yul\":5774:5778   */\n      dup3\n        /* \"#utility.yul\":5752:5779   */\n      tag_97\n      jump\t// in\n    tag_140:\n        /* \"#utility.yul\":5744:5750   */\n      dup2\n        /* \"#utility.yul\":5740:5780   */\n      add\n        /* \"#utility.yul\":5882:5888   */\n      dup2\n        /* \"#utility.yul\":5870:5880   */\n      dup2\n        /* \"#utility.yul\":5867:5889   */\n      lt\n        /* \"#utility.yul\":5846:5864   */\n      0xffffffffffffffff\n        /* \"#utility.yul\":5834:5844   */\n      dup3\n        /* \"#utility.yul\":5831:5865   */\n      gt\n        /* \"#utility.yul\":5828:5890   */\n      or\n        /* \"#utility.yul\":5825:5913   */\n      iszero\n      tag_141\n      jumpi\n        /* \"#utility.yul\":5893:5911   */\n      tag_142\n      tag_117\n      jump\t// in\n    tag_142:\n        /* \"#utility.yul\":5825:5913   */\n    tag_141:\n        /* \"#utility.yul\":5933:5943   */\n      dup1\n        /* \"#utility.yul\":5929:5931   */\n      0x40\n        /* \"#utility.yul\":5922:5944   */\n      mstore\n        /* \"#utility.yul\":5712:5950   */\n      pop\n        /* \"#utility.yul\":5669:5950   */\n      pop\n      pop\n      jump\t// out\n        /* \"#utility.yul\":5956:6136   */\n    tag_126:\n        /* \"#utility.yul\":6004:6081   */\n      0x4e487b7100000000000000000000000000000000000000000000000000000000\n        /* \"#utility.yul\":6001:6002   */\n      0x00\n        /* \"#utility.yul\":5994:6082   */\n      mstore\n        /* \"#utility.yul\":6101:6105   */\n      0x11\n        /* \"#utility.yul\":6098:6099   */\n      0x04\n        /* \"#utility.yul\":6091:6106   */\n      mstore\n        /* \"#utility.yul\":6125:6129   */\n      0x24\n        /* \"#utility.yul\":6122:6123   */\n      0x00\n        /* \"#utility.yul\":6115:6130   */\n      revert\n        /* \"#utility.yul\":6142:6322   */\n    tag_138:\n        /* \"#utility.yul\":6190:6267   */\n      0x4e487b7100000000000000000000000000000000000000000000000000000000\n        /* \"#utility.yul\":6187:6188   */\n      0x00\n        /* \"#utility.yul\":6180:6268   */\n      mstore\n        /* \"#utility.yul\":6287:6291   */\n      0x22\n        /* \"#utility.yul\":6284:6285   */\n      0x04\n        /* \"#utility.yul\":6277:6292   */\n      mstore\n        /* \"#utility.yul\":6311:6315   */\n      0x24\n        /* \"#utility.yul\":6308:6309   */\n      0x00\n        /* \"#utility.yul\":6301:6316   */\n      revert\n        /* \"#utility.yul\":6328:6508   */\n    tag_117:\n        /* \"#utility.yul\":6376:6453   */\n      0x4e487b7100000000000000000000000000000000000000000000000000000000\n        /* \"#utility.yul\":6373:6374   */\n      0x00\n        /* \"#utility.yul\":6366:6454   */\n      mstore\n        /* \"#utility.yul\":6473:6477   */\n      0x41\n        /* \"#utility.yul\":6470:6471   */\n      0x04\n        /* \"#utility.yul\":6463:6478   */\n      mstore\n        /* \"#utility.yul\":6497:6501   */\n      0x24\n        /* \"#utility.yul\":6494:6495   */\n      0x00\n        /* \"#utility.yul\":6487:6502   */\n      revert\n        /* \"#utility.yul\":6514:6631   */\n    tag_64:\n        /* \"#utility.yul\":6623:6624   */\n      0x00\n        /* \"#utility.yul\":6620:6621   */\n      dup1\n        /* \"#utility.yul\":6613:6625   */\n      revert\n        /* \"#utility.yul\":6637:6754   */\n    tag_57:\n        /* \"#utility.yul\":6746:6747   */\n      0x00\n        /* \"#utility.yul\":6743:6744   */\n      dup1\n        /* \"#utility.yul\":6736:6748   */\n      revert\n        /* \"#utility.yul\":6760:6877   */\n    tag_76:\n        /* \"#utility.yul\":6869:6870   */\n      0x00\n        /* \"#utility.yul\":6866:6867   */\n      dup1\n        /* \"#utility.yul\":6859:6871   */\n      revert\n        /* \"#utility.yul\":6883:7000   */\n    tag_73:\n        /* \"#utility.yul\":6992:6993   */\n      0x00\n        /* \"#utility.yul\":6989:6990   */\n      dup1\n        /* \"#utility.yul\":6982:6994   */\n      revert\n        /* \"#utility.yul\":7006:7108   */\n    tag_97:\n        /* \"#utility.yul\":7047:7053   */\n      0x00\n        /* \"#utility.yul\":7098:7100   */\n      0x1f\n        /* \"#utility.yul\":7094:7101   */\n      not\n        /* \"#utility.yul\":7089:7091   */\n      0x1f\n        /* \"#utility.yul\":7082:7087   */\n      dup4\n        /* \"#utility.yul\":7078:7092   */\n      add\n        /* \"#utility.yul\":7074:7102   */\n      and\n        /* \"#utility.yul\":7064:7102   */\n      swap1\n      pop\n        /* \"#utility.yul\":7006:7108   */\n      swap2\n      swap1\n      pop\n      jump\t// out\n        /* \"#utility.yul\":7114:7236   */\n    tag_69:\n        /* \"#utility.yul\":7187:7211   */\n      tag_152\n        /* \"#utility.yul\":7205:7210   */\n      dup2\n        /* \"#utility.yul\":7187:7211   */\n      tag_101\n      jump\t// in\n    tag_152:\n        /* \"#utility.yul\":7180:7185   */\n      dup2\n        /* \"#utility.yul\":7177:7212   */\n      eq\n        /* \"#utility.yul\":7167:7230   */\n      tag_153\n      jumpi\n        /* \"#utility.yul\":7226:7227   */\n      0x00\n        /* \"#utility.yul\":7223:7224   */\n      dup1\n        /* \"#utility.yul\":7216:7228   */\n      revert\n        /* \"#utility.yul\":7167:7230   */\n    tag_153:\n        /* \"#utility.yul\":7114:7236   */\n      pop\n      jump\t// out\n\n    auxdata: 0xa264697066735822122085c389358371b3b7e3eee899f3e8218aece2d649e64068b578e8aff524f92e9164736f6c63430008070033\n}\n",
				"bytecode": {
					"linkReferences": {},
					"object": "60806040526001805534801561001457600080fd5b50610747806100246000396000f3fe608060405234801561001057600080fd5b506004361061004c5760003560e01c8063051802371461005157806336828b3c1461006f5780636586ace61461008b57806394111360146100a7575b600080fd5b6100596100d9565b6040516100669190610478565b60405180910390f35b610089600480360381019061008491906103f0565b6100df565b005b6100a560048036038101906100a09190610367565b61010f565b005b6100c160048036038101906100bc91906103c3565b61018d565b6040516100d093929190610493565b60405180910390f35b60015481565b8060008084815260200190815260200160002060020160008282546101049190610543565b925050819055505050565b600154600080600154815260200190815260200160002060000181905550816000806001548152602001908152602001600020600101908051906020019061015892919061023f565b5080600080600154815260200190815260200160002060020181905550600180546101839190610543565b6001819055505050565b60006020528060005260406000206000915090508060000154908060010180546101b6906105e5565b80601f01602080910402602001604051908101604052809291908181526020018280546101e2906105e5565b801561022f5780601f106102045761010080835404028352916020019161022f565b820191906000526020600020905b81548152906001019060200180831161021257829003601f168201915b5050505050908060020154905083565b82805461024b906105e5565b90600052602060002090601f01602090048101928261026d57600085556102b4565b82601f1061028657805160ff19168380011785556102b4565b828001600101855582156102b4579182015b828111156102b3578251825591602001919060010190610298565b5b5090506102c191906102c5565b5090565b5b808211156102de5760008160009055506001016102c6565b5090565b60006102f56102f0846104f6565b6104d1565b905082815260208101848484011115610311576103106106da565b5b61031c8482856105a3565b509392505050565b600082601f830112610339576103386106d5565b5b81356103498482602086016102e2565b91505092915050565b600081359050610361816106fa565b92915050565b6000806040838503121561037e5761037d6106e4565b5b600083013567ffffffffffffffff81111561039c5761039b6106df565b5b6103a885828601610324565b92505060206103b985828601610352565b9150509250929050565b6000602082840312156103d9576103d86106e4565b5b60006103e784828501610352565b91505092915050565b60008060408385031215610407576104066106e4565b5b600061041585828601610352565b925050602061042685828601610352565b9150509250929050565b600061043b82610527565b6104458185610532565b93506104558185602086016105b2565b61045e816106e9565b840191505092915050565b61047281610599565b82525050565b600060208201905061048d6000830184610469565b92915050565b60006060820190506104a86000830186610469565b81810360208301526104ba8185610430565b90506104c96040830184610469565b949350505050565b60006104db6104ec565b90506104e78282610617565b919050565b6000604051905090565b600067ffffffffffffffff821115610511576105106106a6565b5b61051a826106e9565b9050602081019050919050565b600081519050919050565b600082825260208201905092915050565b600061054e82610599565b915061055983610599565b9250827fffffffffffffffffffffffffffffffffffffffffffffffffffffffffffffffff0382111561058e5761058d610648565b5b828201905092915050565b6000819050919050565b82818337600083830152505050565b60005b838110156105d05780820151818401526020810190506105b5565b838111156105df576000848401525b50505050565b600060028204905060018216806105fd57607f821691505b6020821081141561061157610610610677565b5b50919050565b610620826106e9565b810181811067ffffffffffffffff8211171561063f5761063e6106a6565b5b80604052505050565b7f4e487b7100000000000000000000000000000000000000000000000000000000600052601160045260246000fd5b7f4e487b7100000000000000000000000000000000000000000000000000000000600052602260045260246000fd5b7f4e487b7100000000000000000000000000000000000000000000000000000000600052604160045260246000fd5b600080fd5b600080fd5b600080fd5b600080fd5b6000601f19601f8301169050919050565b61070381610599565b811461070e57600080fd5b5056fea264697066735822122085c389358371b3b7e3eee899f3e8218aece2d649e64068b578e8aff524f92e9164736f6c63430008070033",
					"opcodes": "PUSH1 0x80 PUSH1 0x40 MSTORE PUSH1 0x1 DUP1 SSTORE CALLVALUE DUP1 ISZERO PUSH2 0x14 JUMPI PUSH1 0x0 DUP1 REVERT JUMPDEST POP PUSH2 0x747 DUP1 PUSH2 0x24 PUSH1 0x0 CODECOPY PUSH1 0x0 RETURN INVALID PUSH1 0x80 PUSH1 0x40 MSTORE CALLVALUE DUP1 ISZERO PUSH2 0x10 JUMPI PUSH1 0x0 DUP1 REVERT JUMPDEST POP PUSH1 0x4 CALLDATASIZE LT PUSH2 0x4C JUMPI PUSH1 0x0 CALLDATALOAD PUSH1 0xE0 SHR DUP1 PUSH4 0x5180237 EQ PUSH2 0x51 JUMPI DUP1 PUSH4 0x36828B3C EQ PUSH2 0x6F JUMPI DUP1 PUSH4 0x6586ACE6 EQ PUSH2 0x8B JUMPI DUP1 PUSH4 0x94111360 EQ PUSH2 0xA7 JUMPI JUMPDEST PUSH1 0x0 DUP1 REVERT JUMPDEST PUSH2 0x59 PUSH2 0xD9 JUMP JUMPDEST PUSH1 0x40 MLOAD PUSH2 0x66 SWAP2 SWAP1 PUSH2 0x478 JUMP JUMPDEST PUSH1 0x40 MLOAD DUP1 SWAP2 SUB SWAP1 RETURN JUMPDEST PUSH2 0x89 PUSH1 0x4 DUP1 CALLDATASIZE SUB DUP2 ADD SWAP1 PUSH2 0x84 SWAP2 SWAP1 PUSH2 0x3F0 JUMP JUMPDEST PUSH2 0xDF JUMP JUMPDEST STOP JUMPDEST PUSH2 0xA5 PUSH1 0x4 DUP1 CALLDATASIZE SUB DUP2 ADD SWAP1 PUSH2 0xA0 SWAP2 SWAP1 PUSH2 0x367 JUMP JUMPDEST PUSH2 0x10F JUMP JUMPDEST STOP JUMPDEST PUSH2 0xC1 PUSH1 0x4 DUP1 CALLDATASIZE SUB DUP2 ADD SWAP1 PUSH2 0xBC SWAP2 SWAP1 PUSH2 0x3C3 JUMP JUMPDEST PUSH2 0x18D JUMP JUMPDEST PUSH1 0x40 MLOAD PUSH2 0xD0 SWAP4 SWAP3 SWAP2 SWAP1 PUSH2 0x493 JUMP JUMPDEST PUSH1 0x40 MLOAD DUP1 SWAP2 SUB SWAP1 RETURN JUMPDEST PUSH1 0x1 SLOAD DUP2 JUMP JUMPDEST DUP1 PUSH1 0x0 DUP1 DUP5 DUP2 MSTORE PUSH1 0x20 ADD SWAP1 DUP2 MSTORE PUSH1 0x20 ADD PUSH1 0x0 KECCAK256 PUSH1 0x2 ADD PUSH1 0x0 DUP3 DUP3 SLOAD PUSH2 0x104 SWAP2 SWAP1 PUSH2 0x543 JUMP JUMPDEST SWAP3 POP POP DUP2 SWAP1 SSTORE POP POP POP JUMP JUMPDEST PUSH1 0x1 SLOAD PUSH1 0x0 DUP1 PUSH1 0x1 SLOAD DUP2 MSTORE PUSH1 0x20 ADD SWAP1 DUP2 MSTORE PUSH1 0x20 ADD PUSH1 0x0 KECCAK256 PUSH1 0x0 ADD DUP2 SWAP1 SSTORE POP DUP2 PUSH1 0x0 DUP1 PUSH1 0x1 SLOAD DUP2 MSTORE PUSH1 0x20 ADD SWAP1 DUP2 MSTORE PUSH1 0x20 ADD PUSH1 0x0 KECCAK256 PUSH1 0x1 ADD SWAP1 DUP1 MLOAD SWAP1 PUSH1 0x20 ADD SWAP1 PUSH2 0x158 SWAP3 SWAP2 SWAP1 PUSH2 0x23F JUMP JUMPDEST POP DUP1 PUSH1 0x0 DUP1 PUSH1 0x1 SLOAD DUP2 MSTORE PUSH1 0x20 ADD SWAP1 DUP2 MSTORE PUSH1 0x20 ADD PUSH1 0x0 KECCAK256 PUSH1 0x2 ADD DUP2 SWAP1 SSTORE POP PUSH1 0x1 DUP1 SLOAD PUSH2 0x183 SWAP2 SWAP1 PUSH2 0x543 JUMP JUMPDEST PUSH1 0x1 DUP2 SWAP1 SSTORE POP POP POP JUMP JUMPDEST PUSH1 0x0 PUSH1 0x20 MSTORE DUP1 PUSH1 0x0 MSTORE PUSH1 0x40 PUSH1 0x0 KECCAK256 PUSH1 0x0 SWAP2 POP SWAP1 POP DUP1 PUSH1 0x0 ADD SLOAD SWAP1 DUP1 PUSH1 0x1 ADD DUP1 SLOAD PUSH2 0x1B6 SWAP1 PUSH2 0x5E5 JUMP JUMPDEST DUP1 PUSH1 0x1F ADD PUSH1 0x20 DUP1 SWAP2 DIV MUL PUSH1 0x20 ADD PUSH1 0x40 MLOAD SWAP1 DUP2 ADD PUSH1 0x40 MSTORE DUP1 SWAP3 SWAP2 SWAP1 DUP2 DUP2 MSTORE PUSH1 0x20 ADD DUP3 DUP1 SLOAD PUSH2 0x1E2 SWAP1 PUSH2 0x5E5 JUMP JUMPDEST DUP1 ISZERO PUSH2 0x22F JUMPI DUP1 PUSH1 0x1F LT PUSH2 0x204 JUMPI PUSH2 0x100 DUP1 DUP4 SLOAD DIV MUL DUP4 MSTORE SWAP2 PUSH1 0x20 ADD SWAP2 PUSH2 0x22F JUMP JUMPDEST DUP3 ADD SWAP2 SWAP1 PUSH1 0x0 MSTORE PUSH1 0x20 PUSH1 0x0 KECCAK256 SWAP1 JUMPDEST DUP2 SLOAD DUP2 MSTORE SWAP1 PUSH1 0x1 ADD SWAP1 PUSH1 0x20 ADD DUP1 DUP4 GT PUSH2 0x212 JUMPI DUP3 SWAP1 SUB PUSH1 0x1F AND DUP3 ADD SWAP2 JUMPDEST POP POP POP POP POP SWAP1 DUP1 PUSH1 0x2 ADD SLOAD SWAP1 POP DUP4 JUMP JUMPDEST DUP3 DUP1 SLOAD PUSH2 0x24B SWAP1 PUSH2 0x5E5 JUMP JUMPDEST SWAP1 PUSH1 0x0 MSTORE PUSH1 0x20 PUSH1 0x0 KECCAK256 SWAP1 PUSH1 0x1F ADD PUSH1 0x20 SWAP1 DIV DUP2 ADD SWAP3 DUP3 PUSH2 0x26D JUMPI PUSH1 0x0 DUP6 SSTORE PUSH2 0x2B4 JUMP JUMPDEST DUP3 PUSH1 0x1F LT PUSH2 0x286 JUMPI DUP1 MLOAD PUSH1 0xFF NOT AND DUP4 DUP1 ADD OR DUP6 SSTORE PUSH2 0x2B4 JUMP JUMPDEST DUP3 DUP1 ADD PUSH1 0x1 ADD DUP6 SSTORE DUP3 ISZERO PUSH2 0x2B4 JUMPI SWAP2 DUP3 ADD JUMPDEST DUP3 DUP2 GT ISZERO PUSH2 0x2B3 JUMPI DUP3 MLOAD DUP3 SSTORE SWAP2 PUSH1 0x20 ADD SWAP2 SWAP1 PUSH1 0x1 ADD SWAP1 PUSH2 0x298 JUMP JUMPDEST JUMPDEST POP SWAP1 POP PUSH2 0x2C1 SWAP2 SWAP1 PUSH2 0x2C5 JUMP JUMPDEST POP SWAP1 JUMP JUMPDEST JUMPDEST DUP1 DUP3 GT ISZERO PUSH2 0x2DE JUMPI PUSH1 0x0 DUP2 PUSH1 0x0 SWAP1 SSTORE POP PUSH1 0x1 ADD PUSH2 0x2C6 JUMP JUMPDEST POP SWAP1 JUMP JUMPDEST PUSH1 0x0 PUSH2 0x2F5 PUSH2 0x2F0 DUP5 PUSH2 0x4F6 JUMP JUMPDEST PUSH2 0x4D1 JUMP JUMPDEST SWAP1 POP DUP3 DUP2 MSTORE PUSH1 0x20 DUP2 ADD DUP5 DUP5 DUP5 ADD GT ISZERO PUSH2 0x311 JUMPI PUSH2 0x310 PUSH2 0x6DA JUMP JUMPDEST JUMPDEST PUSH2 0x31C DUP5 DUP3 DUP6 PUSH2 0x5A3 JUMP JUMPDEST POP SWAP4 SWAP3 POP POP POP JUMP JUMPDEST PUSH1 0x0 DUP3 PUSH1 0x1F DUP4 ADD SLT PUSH2 0x339 JUMPI PUSH2 0x338 PUSH2 0x6D5 JUMP JUMPDEST JUMPDEST DUP2 CALLDATALOAD PUSH2 0x349 DUP5 DUP3 PUSH1 0x20 DUP7 ADD PUSH2 0x2E2 JUMP JUMPDEST SWAP2 POP POP SWAP3 SWAP2 POP POP JUMP JUMPDEST PUSH1 0x0 DUP2 CALLDATALOAD SWAP1 POP PUSH2 0x361 DUP2 PUSH2 0x6FA JUMP JUMPDEST SWAP3 SWAP2 POP POP JUMP JUMPDEST PUSH1 0x0 DUP1 PUSH1 0x40 DUP4 DUP6 SUB SLT ISZERO PUSH2 0x37E JUMPI PUSH2 0x37D PUSH2 0x6E4 JUMP JUMPDEST JUMPDEST PUSH1 0x0 DUP4 ADD CALLDATALOAD PUSH8 0xFFFFFFFFFFFFFFFF DUP2 GT ISZERO PUSH2 0x39C JUMPI PUSH2 0x39B PUSH2 0x6DF JUMP JUMPDEST JUMPDEST PUSH2 0x3A8 DUP6 DUP3 DUP7 ADD PUSH2 0x324 JUMP JUMPDEST SWAP3 POP POP PUSH1 0x20 PUSH2 0x3B9 DUP6 DUP3 DUP7 ADD PUSH2 0x352 JUMP JUMPDEST SWAP2 POP POP SWAP3 POP SWAP3 SWAP1 POP JUMP JUMPDEST PUSH1 0x0 PUSH1 0x20 DUP3 DUP5 SUB SLT ISZERO PUSH2 0x3D9 JUMPI PUSH2 0x3D8 PUSH2 0x6E4 JUMP JUMPDEST JUMPDEST PUSH1 0x0 PUSH2 0x3E7 DUP5 DUP3 DUP6 ADD PUSH2 0x352 JUMP JUMPDEST SWAP2 POP POP SWAP3 SWAP2 POP POP JUMP JUMPDEST PUSH1 0x0 DUP1 PUSH1 0x40 DUP4 DUP6 SUB SLT ISZERO PUSH2 0x407 JUMPI PUSH2 0x406 PUSH2 0x6E4 JUMP JUMPDEST JUMPDEST PUSH1 0x0 PUSH2 0x415 DUP6 DUP3 DUP7 ADD PUSH2 0x352 JUMP JUMPDEST SWAP3 POP POP PUSH1 0x20 PUSH2 0x426 DUP6 DUP3 DUP7 ADD PUSH2 0x352 JUMP JUMPDEST SWAP2 POP POP SWAP3 POP SWAP3 SWAP1 POP JUMP JUMPDEST PUSH1 0x0 PUSH2 0x43B DUP3 PUSH2 0x527 JUMP JUMPDEST PUSH2 0x445 DUP2 DUP6 PUSH2 0x532 JUMP JUMPDEST SWAP4 POP PUSH2 0x455 DUP2 DUP6 PUSH1 0x20 DUP7 ADD PUSH2 0x5B2 JUMP JUMPDEST PUSH2 0x45E DUP2 PUSH2 0x6E9 JUMP JUMPDEST DUP5 ADD SWAP2 POP POP SWAP3 SWAP2 POP POP JUMP JUMPDEST PUSH2 0x472 DUP2 PUSH2 0x599 JUMP JUMPDEST DUP3 MSTORE POP POP JUMP JUMPDEST PUSH1 0x0 PUSH1 0x20 DUP3 ADD SWAP1 POP PUSH2 0x48D PUSH1 0x0 DUP4 ADD DUP5 PUSH2 0x469 JUMP JUMPDEST SWAP3 SWAP2 POP POP JUMP JUMPDEST PUSH1 0x0 PUSH1 0x60 DUP3 ADD SWAP1 POP PUSH2 0x4A8 PUSH1 0x0 DUP4 ADD DUP7 PUSH2 0x469 JUMP JUMPDEST DUP2 DUP2 SUB PUSH1 0x20 DUP4 ADD MSTORE PUSH2 0x4BA DUP2 DUP6 PUSH2 0x430 JUMP JUMPDEST SWAP1 POP PUSH2 0x4C9 PUSH1 0x40 DUP4 ADD DUP5 PUSH2 0x469 JUMP JUMPDEST SWAP5 SWAP4 POP POP POP POP JUMP JUMPDEST PUSH1 0x0 PUSH2 0x4DB PUSH2 0x4EC JUMP JUMPDEST SWAP1 POP PUSH2 0x4E7 DUP3 DUP3 PUSH2 0x617 JUMP JUMPDEST SWAP2 SWAP1 POP JUMP JUMPDEST PUSH1 0x0 PUSH1 0x40 MLOAD SWAP1 POP SWAP1 JUMP JUMPDEST PUSH1 0x0 PUSH8 0xFFFFFFFFFFFFFFFF DUP3 GT ISZERO PUSH2 0x511 JUMPI PUSH2 0x510 PUSH2 0x6A6 JUMP JUMPDEST JUMPDEST PUSH2 0x51A DUP3 PUSH2 0x6E9 JUMP JUMPDEST SWAP1 POP PUSH1 0x20 DUP2 ADD SWAP1 POP SWAP2 SWAP1 POP JUMP JUMPDEST PUSH1 0x0 DUP2 MLOAD SWAP1 POP SWAP2 SWAP1 POP JUMP JUMPDEST PUSH1 0x0 DUP3 DUP3 MSTORE PUSH1 0x20 DUP3 ADD SWAP1 POP SWAP3 SWAP2 POP POP JUMP JUMPDEST PUSH1 0x0 PUSH2 0x54E DUP3 PUSH2 0x599 JUMP JUMPDEST SWAP2 POP PUSH2 0x559 DUP4 PUSH2 0x599 JUMP JUMPDEST SWAP3 POP DUP3 PUSH32 0xFFFFFFFFFFFFFFFFFFFFFFFFFFFFFFFFFFFFFFFFFFFFFFFFFFFFFFFFFFFFFFFF SUB DUP3 GT ISZERO PUSH2 0x58E JUMPI PUSH2 0x58D PUSH2 0x648 JUMP JUMPDEST JUMPDEST DUP3 DUP3 ADD SWAP1 POP SWAP3 SWAP2 POP POP JUMP JUMPDEST PUSH1 0x0 DUP2 SWAP1 POP SWAP2 SWAP1 POP JUMP JUMPDEST DUP3 DUP2 DUP4 CALLDATACOPY PUSH1 0x0 DUP4 DUP4 ADD MSTORE POP POP POP JUMP JUMPDEST PUSH1 0x0 JUMPDEST DUP4 DUP2 LT ISZERO PUSH2 0x5D0 JUMPI DUP1 DUP3 ADD MLOAD DUP2 DUP5 ADD MSTORE PUSH1 0x20 DUP2 ADD SWAP1 POP PUSH2 0x5B5 JUMP JUMPDEST DUP4 DUP2 GT ISZERO PUSH2 0x5DF JUMPI PUSH1 0x0 DUP5 DUP5 ADD MSTORE JUMPDEST POP POP POP POP JUMP JUMPDEST PUSH1 0x0 PUSH1 0x2 DUP3 DIV SWAP1 POP PUSH1 0x1 DUP3 AND DUP1 PUSH2 0x5FD JUMPI PUSH1 0x7F DUP3 AND SWAP2 POP JUMPDEST PUSH1 0x20 DUP3 LT DUP2 EQ ISZERO PUSH2 0x611 JUMPI PUSH2 0x610 PUSH2 0x677 JUMP JUMPDEST JUMPDEST POP SWAP2 SWAP1 POP JUMP JUMPDEST PUSH2 0x620 DUP3 PUSH2 0x6E9 JUMP JUMPDEST DUP2 ADD DUP2 DUP2 LT PUSH8 0xFFFFFFFFFFFFFFFF DUP3 GT OR ISZERO PUSH2 0x63F JUMPI PUSH2 0x63E PUSH2 0x6A6 JUMP JUMPDEST JUMPDEST DUP1 PUSH1 0x40 MSTORE POP POP POP JUMP JUMPDEST PUSH32 0x4E487B7100000000000000000000000000000000000000000000000000000000 PUSH1 0x0 MSTORE PUSH1 0x11 PUSH1 0x4 MSTORE PUSH1 0x24 PUSH1 0x0 REVERT JUMPDEST PUSH32 0x4E487B7100000000000000000000000000000000000000000000000000000000 PUSH1 0x0 MSTORE PUSH1 0x22 PUSH1 0x4 MSTORE PUSH1 0x24 PUSH1 0x0 REVERT JUMPDEST PUSH32 0x4E487B7100000000000000000000000000000000000000000000000000000000 PUSH1 0x0 MSTORE PUSH1 0x41 PUSH1 0x4 MSTORE PUSH1 0x24 PUSH1 0x0 REVERT JUMPDEST PUSH1 0x0 DUP1 REVERT JUMPDEST PUSH1 0x0 DUP1 REVERT JUMPDEST PUSH1 0x0 DUP1 REVERT JUMPDEST PUSH1 0x0 DUP1 REVERT JUMPDEST PUSH1 0x0 PUSH1 0x1F NOT PUSH1 0x1F DUP4 ADD AND SWAP1 POP SWAP2 SWAP1 POP JUMP JUMPDEST PUSH2 0x703 DUP2 PUSH2 0x599 JUMP JUMPDEST DUP2 EQ PUSH2 0x70E JUMPI PUSH1 0x0 DUP1 REVERT JUMPDEST POP JUMP INVALID LOG2 PUSH5 0x6970667358 0x22 SLT KECCAK256 DUP6 0xC3 DUP10 CALLDATALOAD DUP4 PUSH18 0xB3B7E3EEE899F3E8218AECE2D649E64068B5 PUSH25 0xE8AFF524F92E9164736F6C6343000807003300000000000000 "
				},
				"gasEstimates": {
					"creation": {
						"codeDepositCost": "372600",
						"executionCost": "22517",
						"totalCost": "395117"
					},
					"external": {
						"_id()": "2407",
						"createAccount(string,uint256)": "infinite",
						"depositMoney(uint256,uint256)": "infinite",
						"userDatabase(uint256)": "infinite"
					}
				},
				"methodIdentifiers": {
					"_id()": "05180237",
					"createAccount(string,uint256)": "6586ace6",
					"depositMoney(uint256,uint256)": "36828b3c",
					"userDatabase(uint256)": "94111360"
				}
			},
			"storageLayout": {
				"storage": [
					{
						"astId": 13,
						"contract": "contracts/LaxmiChitFund.sol:LaxmichitFundBank",
						"label": "userDatabase",
						"offset": 0,
						"slot": "0",
						"type": "t_mapping(t_uint256,t_struct(User)8_storage)"
					},
					{
						"astId": 16,
						"contract": "contracts/LaxmiChitFund.sol:LaxmichitFundBank",
						"label": "_id",
						"offset": 0,
						"slot": "1",
						"type": "t_uint256"
					}
				],
				"types": {
					"t_mapping(t_uint256,t_struct(User)8_storage)": {
						"encoding": "mapping",
						"key": "t_uint256",
						"label": "mapping(uint256 => struct LaxmichitFundBank.User)",
						"numberOfBytes": "32",
						"value": "t_struct(User)8_storage"
					},
					"t_string_storage": {
						"encoding": "bytes",
						"label": "string",
						"numberOfBytes": "32"
					},
					"t_struct(User)8_storage": {
						"encoding": "inplace",
						"label": "struct LaxmichitFundBank.User",
						"members": [
							{
								"astId": 3,
								"contract": "contracts/LaxmiChitFund.sol:LaxmichitFundBank",
								"label": "id",
								"offset": 0,
								"slot": "0",
								"type": "t_uint256"
							},
							{
								"astId": 5,
								"contract": "contracts/LaxmiChitFund.sol:LaxmichitFundBank",
								"label": "name",
								"offset": 0,
								"slot": "1",
								"type": "t_string_storage"
							},
							{
								"astId": 7,
								"contract": "contracts/LaxmiChitFund.sol:LaxmichitFundBank",
								"label": "balance",
								"offset": 0,
								"slot": "2",
								"type": "t_uint256"
							}
						],
						"numberOfBytes": "96"
					},
					"t_uint256": {
						"encoding": "inplace",
						"label": "uint256",
						"numberOfBytes": "32"
					}
				}
			},
			"userdoc": {
				"kind": "user",
				"methods": {},
				"version": 1
			}
		}
	}
}