{
	"contracts/Bank2.sol": {
		"Bank": {
			"abi": [
				{
					"anonymous": false,
					"inputs": [
						{
							"indexed": false,
							"internalType": "address",
							"name": "owner",
							"type": "address"
						},
						{
							"indexed": false,
							"internalType": "uint256",
							"name": "balance",
							"type": "uint256"
						},
						{
							"indexed": false,
							"internalType": "uint256",
							"name": "timestamp",
							"type": "uint256"
						}
					],
					"name": "balanceAdded",
					"type": "event"
				},
				{
					"anonymous": false,
					"inputs": [
						{
							"indexed": false,
							"internalType": "address",
							"name": "owner",
							"type": "address"
						},
						{
							"indexed": false,
							"internalType": "uint256",
							"name": "balance",
							"type": "uint256"
						},
						{
							"indexed": false,
							"internalType": "uint256",
							"name": "timestamp",
							"type": "uint256"
						}
					],
					"name": "withdrawlDone",
					"type": "event"
				},
				{
					"inputs": [],
					"name": "accountCreated",
					"outputs": [],
					"stateMutability": "payable",
					"type": "function"
				},
				{
					"inputs": [],
					"name": "balanceDeposited",
					"outputs": [],
					"stateMutability": "payable",
					"type": "function"
				},
				{
					"inputs": [
						{
							"internalType": "address",
							"name": "",
							"type": "address"
						}
					],
					"name": "bankDatabase",
					"outputs": [
						{
							"internalType": "address",
							"name": "owner",
							"type": "address"
						},
						{
							"internalType": "uint256",
							"name": "timecreated",
							"type": "uint256"
						},
						{
							"internalType": "uint256",
							"name": "balance",
							"type": "uint256"
						}
					],
					"stateMutability": "view",
					"type": "function"
				},
				{
					"inputs": [
						{
							"internalType": "address",
							"name": "reciever",
							"type": "address"
						}
					],
					"name": "transfarmoney",
					"outputs": [],
					"stateMutability": "payable",
					"type": "function"
				},
				{
					"inputs": [],
					"name": "withDrawl",
					"outputs": [],
					"stateMutability": "payable",
					"type": "function"
				}
			],
			"devdoc": {
				"kind": "dev",
				"methods": {},
				"version": 1
			},
			"evm": {
				"assembly": "    /* \"contracts/Bank2.sol\":67:1144  contract Bank{\r... */\n  mstore(0x40, 0x80)\n  callvalue\n  dup1\n  iszero\n  tag_1\n  jumpi\n  0x00\n  dup1\n  revert\ntag_1:\n  pop\n  dataSize(sub_0)\n  dup1\n  dataOffset(sub_0)\n  0x00\n  codecopy\n  0x00\n  return\nstop\n\nsub_0: assembly {\n        /* \"contracts/Bank2.sol\":67:1144  contract Bank{\r... */\n      mstore(0x40, 0x80)\n      jumpi(tag_1, lt(calldatasize, 0x04))\n      shr(0xe0, calldataload(0x00))\n      dup1\n      0x05832bc9\n      eq\n      tag_2\n      jumpi\n      dup1\n      0x70fb9196\n      eq\n      tag_3\n      jumpi\n      dup1\n      0x90111e26\n      eq\n      tag_4\n      jumpi\n      dup1\n      0xd7b8c4b5\n      eq\n      tag_5\n      jumpi\n      dup1\n      0xfa209fea\n      eq\n      tag_6\n      jumpi\n    tag_1:\n      0x00\n      dup1\n      revert\n        /* \"contracts/Bank2.sol\":985:1141  function transfarmoney(address reciever)public payable{\r... */\n    tag_2:\n      tag_7\n      0x04\n      dup1\n      calldatasize\n      sub\n      dup2\n      add\n      swap1\n      tag_8\n      swap2\n      swap1\n      tag_9\n      jump\t// in\n    tag_8:\n      tag_10\n      jump\t// in\n    tag_7:\n      stop\n        /* \"contracts/Bank2.sol\":164:206  mapping (address=>User)public bankDatabase */\n    tag_3:\n      callvalue\n      dup1\n      iszero\n      tag_11\n      jumpi\n      0x00\n      dup1\n      revert\n    tag_11:\n      pop\n      tag_12\n      0x04\n      dup1\n      calldatasize\n      sub\n      dup2\n      add\n      swap1\n      tag_13\n      swap2\n      swap1\n      tag_9\n      jump\t// in\n    tag_13:\n      tag_14\n      jump\t// in\n    tag_12:\n      mload(0x40)\n      tag_15\n      swap4\n      swap3\n      swap2\n      swap1\n      tag_16\n      jump\t// in\n    tag_15:\n      mload(0x40)\n      dup1\n      swap2\n      sub\n      swap1\n      return\n        /* \"contracts/Bank2.sol\":894:983  function withDrawl()public payable {\r... */\n    tag_4:\n      tag_17\n      tag_18\n      jump\t// in\n    tag_17:\n      stop\n        /* \"contracts/Bank2.sol\":738:892  function balanceDeposited()public payable {\r... */\n    tag_5:\n      tag_19\n      tag_20\n      jump\t// in\n    tag_19:\n      stop\n        /* \"contracts/Bank2.sol\":460:714  function accountCreated() public payable minimum{\r... */\n    tag_6:\n      tag_21\n      tag_22\n      jump\t// in\n    tag_21:\n      stop\n        /* \"contracts/Bank2.sol\":985:1141  function transfarmoney(address reciever)public payable{\r... */\n    tag_10:\n        /* \"contracts/Bank2.sol\":1080:1089  msg.value */\n      callvalue\n        /* \"contracts/Bank2.sol\":1046:1058  bankDatabase */\n      0x00\n        /* \"contracts/Bank2.sol\":1046:1070  bankDatabase[msg.sender] */\n      dup1\n        /* \"contracts/Bank2.sol\":1059:1069  msg.sender */\n      caller\n        /* \"contracts/Bank2.sol\":1046:1070  bankDatabase[msg.sender] */\n      0xffffffffffffffffffffffffffffffffffffffff\n      and\n      0xffffffffffffffffffffffffffffffffffffffff\n      and\n      dup2\n      mstore\n      0x20\n      add\n      swap1\n      dup2\n      mstore\n      0x20\n      add\n      0x00\n      keccak256\n        /* \"contracts/Bank2.sol\":1046:1078  bankDatabase[msg.sender].balance */\n      0x02\n      add\n      0x00\n        /* \"contracts/Bank2.sol\":1046:1089  bankDatabase[msg.sender].balance-=msg.value */\n      dup3\n      dup3\n      sload\n      tag_24\n      swap2\n      swap1\n      tag_25\n      jump\t// in\n    tag_24:\n      swap3\n      pop\n      pop\n      dup2\n      swap1\n      sstore\n      pop\n        /* \"contracts/Bank2.sol\":1128:1137  msg.value */\n      callvalue\n        /* \"contracts/Bank2.sol\":1096:1108  bankDatabase */\n      0x00\n        /* \"contracts/Bank2.sol\":1096:1118  bankDatabase[reciever] */\n      dup1\n        /* \"contracts/Bank2.sol\":1109:1117  reciever */\n      dup4\n        /* \"contracts/Bank2.sol\":1096:1118  bankDatabase[reciever] */\n      0xffffffffffffffffffffffffffffffffffffffff\n      and\n      0xffffffffffffffffffffffffffffffffffffffff\n      and\n      dup2\n      mstore\n      0x20\n      add\n      swap1\n      dup2\n      mstore\n      0x20\n      add\n      0x00\n      keccak256\n        /* \"contracts/Bank2.sol\":1096:1126  bankDatabase[reciever].balance */\n      0x02\n      add\n      0x00\n        /* \"contracts/Bank2.sol\":1096:1137  bankDatabase[reciever].balance+=msg.value */\n      dup3\n      dup3\n      sload\n      tag_26\n      swap2\n      swap1\n      tag_27\n      jump\t// in\n    tag_26:\n      swap3\n      pop\n      pop\n      dup2\n      swap1\n      sstore\n      pop\n        /* \"contracts/Bank2.sol\":985:1141  function transfarmoney(address reciever)public payable{\r... */\n      pop\n      jump\t// out\n        /* \"contracts/Bank2.sol\":164:206  mapping (address=>User)public bankDatabase */\n    tag_14:\n      mstore(0x20, 0x00)\n      dup1\n      0x00\n      mstore\n      keccak256(0x00, 0x40)\n      0x00\n      swap2\n      pop\n      swap1\n      pop\n      dup1\n      0x00\n      add\n      0x00\n      swap1\n      sload\n      swap1\n      0x0100\n      exp\n      swap1\n      div\n      0xffffffffffffffffffffffffffffffffffffffff\n      and\n      swap1\n      dup1\n      0x01\n      add\n      sload\n      swap1\n      dup1\n      0x02\n      add\n      sload\n      swap1\n      pop\n      dup4\n      jump\t// out\n        /* \"contracts/Bank2.sol\":894:983  function withDrawl()public payable {\r... */\n    tag_18:\n        /* \"contracts/Bank2.sol\":967:976  msg.value */\n      callvalue\n        /* \"contracts/Bank2.sol\":933:945  bankDatabase */\n      0x00\n        /* \"contracts/Bank2.sol\":933:957  bankDatabase[msg.sender] */\n      dup1\n        /* \"contracts/Bank2.sol\":946:956  msg.sender */\n      caller\n        /* \"contracts/Bank2.sol\":933:957  bankDatabase[msg.sender] */\n      0xffffffffffffffffffffffffffffffffffffffff\n      and\n      0xffffffffffffffffffffffffffffffffffffffff\n      and\n      dup2\n      mstore\n      0x20\n      add\n      swap1\n      dup2\n      mstore\n      0x20\n      add\n      0x00\n      keccak256\n        /* \"contracts/Bank2.sol\":933:965  bankDatabase[msg.sender].balance */\n      0x02\n      add\n      0x00\n        /* \"contracts/Bank2.sol\":933:976  bankDatabase[msg.sender].balance-=msg.value */\n      dup3\n      dup3\n      sload\n      tag_29\n      swap2\n      swap1\n      tag_25\n      jump\t// in\n    tag_29:\n      swap3\n      pop\n      pop\n      dup2\n      swap1\n      sstore\n      pop\n        /* \"contracts/Bank2.sol\":894:983  function withDrawl()public payable {\r... */\n      jump\t// out\n        /* \"contracts/Bank2.sol\":738:892  function balanceDeposited()public payable {\r... */\n    tag_20:\n        /* \"contracts/Bank2.sol\":818:827  msg.value */\n      callvalue\n        /* \"contracts/Bank2.sol\":784:796  bankDatabase */\n      0x00\n        /* \"contracts/Bank2.sol\":784:808  bankDatabase[msg.sender] */\n      dup1\n        /* \"contracts/Bank2.sol\":797:807  msg.sender */\n      caller\n        /* \"contracts/Bank2.sol\":784:808  bankDatabase[msg.sender] */\n      0xffffffffffffffffffffffffffffffffffffffff\n      and\n      0xffffffffffffffffffffffffffffffffffffffff\n      and\n      dup2\n      mstore\n      0x20\n      add\n      swap1\n      dup2\n      mstore\n      0x20\n      add\n      0x00\n      keccak256\n        /* \"contracts/Bank2.sol\":784:816  bankDatabase[msg.sender].balance */\n      0x02\n      add\n      0x00\n        /* \"contracts/Bank2.sol\":784:827  bankDatabase[msg.sender].balance+=msg.value */\n      dup3\n      dup3\n      sload\n      tag_31\n      swap2\n      swap1\n      tag_27\n      jump\t// in\n    tag_31:\n      swap3\n      pop\n      pop\n      dup2\n      swap1\n      sstore\n      pop\n        /* \"contracts/Bank2.sol\":838:888  balanceAdded(msg.sender,msg.value,block.timestamp) */\n      0x2f8a6ec2d4b44b9eb188e85756710017b4b7d1d8c493867f691bf6046f05fa2e\n        /* \"contracts/Bank2.sol\":851:861  msg.sender */\n      caller\n        /* \"contracts/Bank2.sol\":862:871  msg.value */\n      callvalue\n        /* \"contracts/Bank2.sol\":872:887  block.timestamp */\n      timestamp\n        /* \"contracts/Bank2.sol\":838:888  balanceAdded(msg.sender,msg.value,block.timestamp) */\n      mload(0x40)\n      tag_32\n      swap4\n      swap3\n      swap2\n      swap1\n      tag_16\n      jump\t// in\n    tag_32:\n      mload(0x40)\n      dup1\n      swap2\n      sub\n      swap1\n      log1\n        /* \"contracts/Bank2.sol\":738:892  function balanceDeposited()public payable {\r... */\n      jump\t// out\n        /* \"contracts/Bank2.sol\":460:714  function accountCreated() public payable minimum{\r... */\n    tag_22:\n        /* \"contracts/Bank2.sol\":381:388  1 ether */\n      0x0de0b6b3a7640000\n        /* \"contracts/Bank2.sol\":370:379  msg.value */\n      callvalue\n        /* \"contracts/Bank2.sol\":370:388  msg.value>=1 ether */\n      lt\n      iszero\n        /* \"contracts/Bank2.sol\":362:423  require(msg.value>=1 ether,\"doesn't follow minimum criterai\") */\n      tag_34\n      jumpi\n      mload(0x40)\n      0x08c379a000000000000000000000000000000000000000000000000000000000\n      dup2\n      mstore\n      0x04\n      add\n      tag_35\n      swap1\n      tag_36\n      jump\t// in\n    tag_35:\n      mload(0x40)\n      dup1\n      swap2\n      sub\n      swap1\n      revert\n    tag_34:\n        /* \"contracts/Bank2.sol\":542:552  msg.sender */\n      caller\n        /* \"contracts/Bank2.sol\":511:523  bankDatabase */\n      0x00\n        /* \"contracts/Bank2.sol\":511:535  bankDatabase[msg.sender] */\n      dup1\n        /* \"contracts/Bank2.sol\":524:534  msg.sender */\n      caller\n        /* \"contracts/Bank2.sol\":511:535  bankDatabase[msg.sender] */\n      0xffffffffffffffffffffffffffffffffffffffff\n      and\n      0xffffffffffffffffffffffffffffffffffffffff\n      and\n      dup2\n      mstore\n      0x20\n      add\n      swap1\n      dup2\n      mstore\n      0x20\n      add\n      0x00\n      keccak256\n        /* \"contracts/Bank2.sol\":511:541  bankDatabase[msg.sender].owner */\n      0x00\n      add\n      0x00\n        /* \"contracts/Bank2.sol\":511:552  bankDatabase[msg.sender].owner=msg.sender */\n      0x0100\n      exp\n      dup2\n      sload\n      dup2\n      0xffffffffffffffffffffffffffffffffffffffff\n      mul\n      not\n      and\n      swap1\n      dup4\n      0xffffffffffffffffffffffffffffffffffffffff\n      and\n      mul\n      or\n      swap1\n      sstore\n      pop\n        /* \"contracts/Bank2.sol\":588:597  msg.value */\n      callvalue\n        /* \"contracts/Bank2.sol\":555:567  bankDatabase */\n      0x00\n        /* \"contracts/Bank2.sol\":555:579  bankDatabase[msg.sender] */\n      dup1\n        /* \"contracts/Bank2.sol\":568:578  msg.sender */\n      caller\n        /* \"contracts/Bank2.sol\":555:579  bankDatabase[msg.sender] */\n      0xffffffffffffffffffffffffffffffffffffffff\n      and\n      0xffffffffffffffffffffffffffffffffffffffff\n      and\n      dup2\n      mstore\n      0x20\n      add\n      swap1\n      dup2\n      mstore\n      0x20\n      add\n      0x00\n      keccak256\n        /* \"contracts/Bank2.sol\":555:587  bankDatabase[msg.sender].balance */\n      0x02\n      add\n        /* \"contracts/Bank2.sol\":555:597  bankDatabase[msg.sender].balance=msg.value */\n      dup2\n      swap1\n      sstore\n      pop\n        /* \"contracts/Bank2.sol\":637:652  block.timestamp */\n      timestamp\n        /* \"contracts/Bank2.sol\":600:612  bankDatabase */\n      0x00\n        /* \"contracts/Bank2.sol\":600:624  bankDatabase[msg.sender] */\n      dup1\n        /* \"contracts/Bank2.sol\":613:623  msg.sender */\n      caller\n        /* \"contracts/Bank2.sol\":600:624  bankDatabase[msg.sender] */\n      0xffffffffffffffffffffffffffffffffffffffff\n      and\n      0xffffffffffffffffffffffffffffffffffffffff\n      and\n      dup2\n      mstore\n      0x20\n      add\n      swap1\n      dup2\n      mstore\n      0x20\n      add\n      0x00\n      keccak256\n        /* \"contracts/Bank2.sol\":600:636  bankDatabase[msg.sender].timecreated */\n      0x01\n      add\n        /* \"contracts/Bank2.sol\":600:652  bankDatabase[msg.sender].timecreated=block.timestamp */\n      dup2\n      swap1\n      sstore\n      pop\n        /* \"contracts/Bank2.sol\":660:710  balanceAdded(msg.sender,msg.value,block.timestamp) */\n      0x2f8a6ec2d4b44b9eb188e85756710017b4b7d1d8c493867f691bf6046f05fa2e\n        /* \"contracts/Bank2.sol\":673:683  msg.sender */\n      caller\n        /* \"contracts/Bank2.sol\":684:693  msg.value */\n      callvalue\n        /* \"contracts/Bank2.sol\":694:709  block.timestamp */\n      timestamp\n        /* \"contracts/Bank2.sol\":660:710  balanceAdded(msg.sender,msg.value,block.timestamp) */\n      mload(0x40)\n      tag_38\n      swap4\n      swap3\n      swap2\n      swap1\n      tag_16\n      jump\t// in\n    tag_38:\n      mload(0x40)\n      dup1\n      swap2\n      sub\n      swap1\n      log1\n        /* \"contracts/Bank2.sol\":460:714  function accountCreated() public payable minimum{\r... */\n      jump\t// out\n        /* \"#utility.yul\":7:146   */\n    tag_40:\n        /* \"#utility.yul\":53:58   */\n      0x00\n        /* \"#utility.yul\":91:97   */\n      dup2\n        /* \"#utility.yul\":78:98   */\n      calldataload\n        /* \"#utility.yul\":69:98   */\n      swap1\n      pop\n        /* \"#utility.yul\":107:140   */\n      tag_42\n        /* \"#utility.yul\":134:139   */\n      dup2\n        /* \"#utility.yul\":107:140   */\n      tag_43\n      jump\t// in\n    tag_42:\n        /* \"#utility.yul\":7:146   */\n      swap3\n      swap2\n      pop\n      pop\n      jump\t// out\n        /* \"#utility.yul\":152:481   */\n    tag_9:\n        /* \"#utility.yul\":211:217   */\n      0x00\n        /* \"#utility.yul\":260:262   */\n      0x20\n        /* \"#utility.yul\":248:257   */\n      dup3\n        /* \"#utility.yul\":239:246   */\n      dup5\n        /* \"#utility.yul\":235:258   */\n      sub\n        /* \"#utility.yul\":231:263   */\n      slt\n        /* \"#utility.yul\":228:347   */\n      iszero\n      tag_45\n      jumpi\n        /* \"#utility.yul\":266:345   */\n      tag_46\n      tag_47\n      jump\t// in\n    tag_46:\n        /* \"#utility.yul\":228:347   */\n    tag_45:\n        /* \"#utility.yul\":386:387   */\n      0x00\n        /* \"#utility.yul\":411:464   */\n      tag_48\n        /* \"#utility.yul\":456:463   */\n      dup5\n        /* \"#utility.yul\":447:453   */\n      dup3\n        /* \"#utility.yul\":436:445   */\n      dup6\n        /* \"#utility.yul\":432:454   */\n      add\n        /* \"#utility.yul\":411:464   */\n      tag_40\n      jump\t// in\n    tag_48:\n        /* \"#utility.yul\":401:464   */\n      swap2\n      pop\n        /* \"#utility.yul\":357:474   */\n      pop\n        /* \"#utility.yul\":152:481   */\n      swap3\n      swap2\n      pop\n      pop\n      jump\t// out\n        /* \"#utility.yul\":487:605   */\n    tag_49:\n        /* \"#utility.yul\":574:598   */\n      tag_51\n        /* \"#utility.yul\":592:597   */\n      dup2\n        /* \"#utility.yul\":574:598   */\n      tag_52\n      jump\t// in\n    tag_51:\n        /* \"#utility.yul\":569:572   */\n      dup3\n        /* \"#utility.yul\":562:599   */\n      mstore\n        /* \"#utility.yul\":487:605   */\n      pop\n      pop\n      jump\t// out\n        /* \"#utility.yul\":611:977   */\n    tag_53:\n        /* \"#utility.yul\":753:756   */\n      0x00\n        /* \"#utility.yul\":774:841   */\n      tag_55\n        /* \"#utility.yul\":838:840   */\n      0x1f\n        /* \"#utility.yul\":833:836   */\n      dup4\n        /* \"#utility.yul\":774:841   */\n      tag_56\n      jump\t// in\n    tag_55:\n        /* \"#utility.yul\":767:841   */\n      swap2\n      pop\n        /* \"#utility.yul\":850:943   */\n      tag_57\n        /* \"#utility.yul\":939:942   */\n      dup3\n        /* \"#utility.yul\":850:943   */\n      tag_58\n      jump\t// in\n    tag_57:\n        /* \"#utility.yul\":968:970   */\n      0x20\n        /* \"#utility.yul\":963:966   */\n      dup3\n        /* \"#utility.yul\":959:971   */\n      add\n        /* \"#utility.yul\":952:971   */\n      swap1\n      pop\n        /* \"#utility.yul\":611:977   */\n      swap2\n      swap1\n      pop\n      jump\t// out\n        /* \"#utility.yul\":983:1101   */\n    tag_59:\n        /* \"#utility.yul\":1070:1094   */\n      tag_61\n        /* \"#utility.yul\":1088:1093   */\n      dup2\n        /* \"#utility.yul\":1070:1094   */\n      tag_62\n      jump\t// in\n    tag_61:\n        /* \"#utility.yul\":1065:1068   */\n      dup3\n        /* \"#utility.yul\":1058:1095   */\n      mstore\n        /* \"#utility.yul\":983:1101   */\n      pop\n      pop\n      jump\t// out\n        /* \"#utility.yul\":1107:1549   */\n    tag_16:\n        /* \"#utility.yul\":1256:1260   */\n      0x00\n        /* \"#utility.yul\":1294:1296   */\n      0x60\n        /* \"#utility.yul\":1283:1292   */\n      dup3\n        /* \"#utility.yul\":1279:1297   */\n      add\n        /* \"#utility.yul\":1271:1297   */\n      swap1\n      pop\n        /* \"#utility.yul\":1307:1378   */\n      tag_64\n        /* \"#utility.yul\":1375:1376   */\n      0x00\n        /* \"#utility.yul\":1364:1373   */\n      dup4\n        /* \"#utility.yul\":1360:1377   */\n      add\n        /* \"#utility.yul\":1351:1357   */\n      dup7\n        /* \"#utility.yul\":1307:1378   */\n      tag_49\n      jump\t// in\n    tag_64:\n        /* \"#utility.yul\":1388:1460   */\n      tag_65\n        /* \"#utility.yul\":1456:1458   */\n      0x20\n        /* \"#utility.yul\":1445:1454   */\n      dup4\n        /* \"#utility.yul\":1441:1459   */\n      add\n        /* \"#utility.yul\":1432:1438   */\n      dup6\n        /* \"#utility.yul\":1388:1460   */\n      tag_59\n      jump\t// in\n    tag_65:\n        /* \"#utility.yul\":1470:1542   */\n      tag_66\n        /* \"#utility.yul\":1538:1540   */\n      0x40\n        /* \"#utility.yul\":1527:1536   */\n      dup4\n        /* \"#utility.yul\":1523:1541   */\n      add\n        /* \"#utility.yul\":1514:1520   */\n      dup5\n        /* \"#utility.yul\":1470:1542   */\n      tag_59\n      jump\t// in\n    tag_66:\n        /* \"#utility.yul\":1107:1549   */\n      swap5\n      swap4\n      pop\n      pop\n      pop\n      pop\n      jump\t// out\n        /* \"#utility.yul\":1555:1974   */\n    tag_36:\n        /* \"#utility.yul\":1721:1725   */\n      0x00\n        /* \"#utility.yul\":1759:1761   */\n      0x20\n        /* \"#utility.yul\":1748:1757   */\n      dup3\n        /* \"#utility.yul\":1744:1762   */\n      add\n        /* \"#utility.yul\":1736:1762   */\n      swap1\n      pop\n        /* \"#utility.yul\":1808:1817   */\n      dup2\n        /* \"#utility.yul\":1802:1806   */\n      dup2\n        /* \"#utility.yul\":1798:1818   */\n      sub\n        /* \"#utility.yul\":1794:1795   */\n      0x00\n        /* \"#utility.yul\":1783:1792   */\n      dup4\n        /* \"#utility.yul\":1779:1796   */\n      add\n        /* \"#utility.yul\":1772:1819   */\n      mstore\n        /* \"#utility.yul\":1836:1967   */\n      tag_68\n        /* \"#utility.yul\":1962:1966   */\n      dup2\n        /* \"#utility.yul\":1836:1967   */\n      tag_53\n      jump\t// in\n    tag_68:\n        /* \"#utility.yul\":1828:1967   */\n      swap1\n      pop\n        /* \"#utility.yul\":1555:1974   */\n      swap2\n      swap1\n      pop\n      jump\t// out\n        /* \"#utility.yul\":2061:2230   */\n    tag_56:\n        /* \"#utility.yul\":2145:2156   */\n      0x00\n        /* \"#utility.yul\":2179:2185   */\n      dup3\n        /* \"#utility.yul\":2174:2177   */\n      dup3\n        /* \"#utility.yul\":2167:2186   */\n      mstore\n        /* \"#utility.yul\":2219:2223   */\n      0x20\n        /* \"#utility.yul\":2214:2217   */\n      dup3\n        /* \"#utility.yul\":2210:2224   */\n      add\n        /* \"#utility.yul\":2195:2224   */\n      swap1\n      pop\n        /* \"#utility.yul\":2061:2230   */\n      swap3\n      swap2\n      pop\n      pop\n      jump\t// out\n        /* \"#utility.yul\":2236:2541   */\n    tag_27:\n        /* \"#utility.yul\":2276:2279   */\n      0x00\n        /* \"#utility.yul\":2295:2315   */\n      tag_73\n        /* \"#utility.yul\":2313:2314   */\n      dup3\n        /* \"#utility.yul\":2295:2315   */\n      tag_62\n      jump\t// in\n    tag_73:\n        /* \"#utility.yul\":2290:2315   */\n      swap2\n      pop\n        /* \"#utility.yul\":2329:2349   */\n      tag_74\n        /* \"#utility.yul\":2347:2348   */\n      dup4\n        /* \"#utility.yul\":2329:2349   */\n      tag_62\n      jump\t// in\n    tag_74:\n        /* \"#utility.yul\":2324:2349   */\n      swap3\n      pop\n        /* \"#utility.yul\":2483:2484   */\n      dup3\n        /* \"#utility.yul\":2415:2481   */\n      0xffffffffffffffffffffffffffffffffffffffffffffffffffffffffffffffff\n        /* \"#utility.yul\":2411:2485   */\n      sub\n        /* \"#utility.yul\":2408:2409   */\n      dup3\n        /* \"#utility.yul\":2405:2486   */\n      gt\n        /* \"#utility.yul\":2402:2509   */\n      iszero\n      tag_75\n      jumpi\n        /* \"#utility.yul\":2489:2507   */\n      tag_76\n      tag_77\n      jump\t// in\n    tag_76:\n        /* \"#utility.yul\":2402:2509   */\n    tag_75:\n        /* \"#utility.yul\":2533:2534   */\n      dup3\n        /* \"#utility.yul\":2530:2531   */\n      dup3\n        /* \"#utility.yul\":2526:2535   */\n      add\n        /* \"#utility.yul\":2519:2535   */\n      swap1\n      pop\n        /* \"#utility.yul\":2236:2541   */\n      swap3\n      swap2\n      pop\n      pop\n      jump\t// out\n        /* \"#utility.yul\":2547:2738   */\n    tag_25:\n        /* \"#utility.yul\":2587:2591   */\n      0x00\n        /* \"#utility.yul\":2607:2627   */\n      tag_79\n        /* \"#utility.yul\":2625:2626   */\n      dup3\n        /* \"#utility.yul\":2607:2627   */\n      tag_62\n      jump\t// in\n    tag_79:\n        /* \"#utility.yul\":2602:2627   */\n      swap2\n      pop\n        /* \"#utility.yul\":2641:2661   */\n      tag_80\n        /* \"#utility.yul\":2659:2660   */\n      dup4\n        /* \"#utility.yul\":2641:2661   */\n      tag_62\n      jump\t// in\n    tag_80:\n        /* \"#utility.yul\":2636:2661   */\n      swap3\n      pop\n        /* \"#utility.yul\":2680:2681   */\n      dup3\n        /* \"#utility.yul\":2677:2678   */\n      dup3\n        /* \"#utility.yul\":2674:2682   */\n      lt\n        /* \"#utility.yul\":2671:2705   */\n      iszero\n      tag_81\n      jumpi\n        /* \"#utility.yul\":2685:2703   */\n      tag_82\n      tag_77\n      jump\t// in\n    tag_82:\n        /* \"#utility.yul\":2671:2705   */\n    tag_81:\n        /* \"#utility.yul\":2730:2731   */\n      dup3\n        /* \"#utility.yul\":2727:2728   */\n      dup3\n        /* \"#utility.yul\":2723:2732   */\n      sub\n        /* \"#utility.yul\":2715:2732   */\n      swap1\n      pop\n        /* \"#utility.yul\":2547:2738   */\n      swap3\n      swap2\n      pop\n      pop\n      jump\t// out\n        /* \"#utility.yul\":2744:2840   */\n    tag_52:\n        /* \"#utility.yul\":2781:2788   */\n      0x00\n        /* \"#utility.yul\":2810:2834   */\n      tag_84\n        /* \"#utility.yul\":2828:2833   */\n      dup3\n        /* \"#utility.yul\":2810:2834   */\n      tag_85\n      jump\t// in\n    tag_84:\n        /* \"#utility.yul\":2799:2834   */\n      swap1\n      pop\n        /* \"#utility.yul\":2744:2840   */\n      swap2\n      swap1\n      pop\n      jump\t// out\n        /* \"#utility.yul\":2846:2972   */\n    tag_85:\n        /* \"#utility.yul\":2883:2890   */\n      0x00\n        /* \"#utility.yul\":2923:2965   */\n      0xffffffffffffffffffffffffffffffffffffffff\n        /* \"#utility.yul\":2916:2921   */\n      dup3\n        /* \"#utility.yul\":2912:2966   */\n      and\n        /* \"#utility.yul\":2901:2966   */\n      swap1\n      pop\n        /* \"#utility.yul\":2846:2972   */\n      swap2\n      swap1\n      pop\n      jump\t// out\n        /* \"#utility.yul\":2978:3055   */\n    tag_62:\n        /* \"#utility.yul\":3015:3022   */\n      0x00\n        /* \"#utility.yul\":3044:3049   */\n      dup2\n        /* \"#utility.yul\":3033:3049   */\n      swap1\n      pop\n        /* \"#utility.yul\":2978:3055   */\n      swap2\n      swap1\n      pop\n      jump\t// out\n        /* \"#utility.yul\":3061:3241   */\n    tag_77:\n        /* \"#utility.yul\":3109:3186   */\n      0x4e487b7100000000000000000000000000000000000000000000000000000000\n        /* \"#utility.yul\":3106:3107   */\n      0x00\n        /* \"#utility.yul\":3099:3187   */\n      mstore\n        /* \"#utility.yul\":3206:3210   */\n      0x11\n        /* \"#utility.yul\":3203:3204   */\n      0x04\n        /* \"#utility.yul\":3196:3211   */\n      mstore\n        /* \"#utility.yul\":3230:3234   */\n      0x24\n        /* \"#utility.yul\":3227:3228   */\n      0x00\n        /* \"#utility.yul\":3220:3235   */\n      revert\n        /* \"#utility.yul\":3370:3487   */\n    tag_47:\n        /* \"#utility.yul\":3479:3480   */\n      0x00\n        /* \"#utility.yul\":3476:3477   */\n      dup1\n        /* \"#utility.yul\":3469:3481   */\n      revert\n        /* \"#utility.yul\":3493:3674   */\n    tag_58:\n        /* \"#utility.yul\":3633:3666   */\n      0x646f65736e277420666f6c6c6f77206d696e696d756d20637269746572616900\n        /* \"#utility.yul\":3629:3630   */\n      0x00\n        /* \"#utility.yul\":3621:3627   */\n      dup3\n        /* \"#utility.yul\":3617:3631   */\n      add\n        /* \"#utility.yul\":3610:3667   */\n      mstore\n        /* \"#utility.yul\":3493:3674   */\n      pop\n      jump\t// out\n        /* \"#utility.yul\":3680:3802   */\n    tag_43:\n        /* \"#utility.yul\":3753:3777   */\n      tag_94\n        /* \"#utility.yul\":3771:3776   */\n      dup2\n        /* \"#utility.yul\":3753:3777   */\n      tag_52\n      jump\t// in\n    tag_94:\n        /* \"#utility.yul\":3746:3751   */\n      dup2\n        /* \"#utility.yul\":3743:3778   */\n      eq\n        /* \"#utility.yul\":3733:3796   */\n      tag_95\n      jumpi\n        /* \"#utility.yul\":3792:3793   */\n      0x00\n        /* \"#utility.yul\":3789:3790   */\n      dup1\n        /* \"#utility.yul\":3782:3794   */\n      revert\n        /* \"#utility.yul\":3733:3796   */\n    tag_95:\n        /* \"#utility.yul\":3680:3802   */\n      pop\n      jump\t// out\n\n    auxdata: 0xa2646970667358221220ba08e3fbc28d56a4c080b41564106660d0199e4d8b0b398081be0ab70df84ff664736f6c63430008070033\n}\n",
				"bytecode": {
					"linkReferences": {},
					"object": "608060405234801561001057600080fd5b506106a3806100206000396000f3fe60806040526004361061004a5760003560e01c806305832bc91461004f57806370fb91961461006b57806390111e26146100aa578063d7b8c4b5146100b4578063fa209fea146100be575b600080fd5b6100696004803603810190610064919061045d565b6100c8565b005b34801561007757600080fd5b50610092600480360381019061008d919061045d565b61017b565b6040516100a1939291906104cb565b60405180910390f35b6100b26101c5565b005b6100bc61021f565b005b6100c66102b4565b005b346000803373ffffffffffffffffffffffffffffffffffffffff1673ffffffffffffffffffffffffffffffffffffffff16815260200190815260200160002060020160008282546101199190610589565b92505081905550346000808373ffffffffffffffffffffffffffffffffffffffff1673ffffffffffffffffffffffffffffffffffffffff16815260200190815260200160002060020160008282546101719190610533565b9250508190555050565b60006020528060005260406000206000915090508060000160009054906101000a900473ffffffffffffffffffffffffffffffffffffffff16908060010154908060020154905083565b346000803373ffffffffffffffffffffffffffffffffffffffff1673ffffffffffffffffffffffffffffffffffffffff16815260200190815260200160002060020160008282546102169190610589565b92505081905550565b346000803373ffffffffffffffffffffffffffffffffffffffff1673ffffffffffffffffffffffffffffffffffffffff16815260200190815260200160002060020160008282546102709190610533565b925050819055507f2f8a6ec2d4b44b9eb188e85756710017b4b7d1d8c493867f691bf6046f05fa2e3334426040516102aa939291906104cb565b60405180910390a1565b670de0b6b3a76400003410156102ff576040517f08c379a00000000000000000000000000000000000000000000000000000000081526004016102f690610502565b60405180910390fd5b336000803373ffffffffffffffffffffffffffffffffffffffff1673ffffffffffffffffffffffffffffffffffffffff16815260200190815260200160002060000160006101000a81548173ffffffffffffffffffffffffffffffffffffffff021916908373ffffffffffffffffffffffffffffffffffffffff160217905550346000803373ffffffffffffffffffffffffffffffffffffffff1673ffffffffffffffffffffffffffffffffffffffff16815260200190815260200160002060020181905550426000803373ffffffffffffffffffffffffffffffffffffffff1673ffffffffffffffffffffffffffffffffffffffff168152602001908152602001600020600101819055507f2f8a6ec2d4b44b9eb188e85756710017b4b7d1d8c493867f691bf6046f05fa2e33344260405161043e939291906104cb565b60405180910390a1565b60008135905061045781610656565b92915050565b60006020828403121561047357610472610628565b5b600061048184828501610448565b91505092915050565b610493816105bd565b82525050565b60006104a6601f83610522565b91506104b18261062d565b602082019050919050565b6104c5816105ef565b82525050565b60006060820190506104e0600083018661048a565b6104ed60208301856104bc565b6104fa60408301846104bc565b949350505050565b6000602082019050818103600083015261051b81610499565b9050919050565b600082825260208201905092915050565b600061053e826105ef565b9150610549836105ef565b9250827fffffffffffffffffffffffffffffffffffffffffffffffffffffffffffffffff0382111561057e5761057d6105f9565b5b828201905092915050565b6000610594826105ef565b915061059f836105ef565b9250828210156105b2576105b16105f9565b5b828203905092915050565b60006105c8826105cf565b9050919050565b600073ffffffffffffffffffffffffffffffffffffffff82169050919050565b6000819050919050565b7f4e487b7100000000000000000000000000000000000000000000000000000000600052601160045260246000fd5b600080fd5b7f646f65736e277420666f6c6c6f77206d696e696d756d20637269746572616900600082015250565b61065f816105bd565b811461066a57600080fd5b5056fea2646970667358221220ba08e3fbc28d56a4c080b41564106660d0199e4d8b0b398081be0ab70df84ff664736f6c63430008070033",
					"opcodes": "PUSH1 0x80 PUSH1 0x40 MSTORE CALLVALUE DUP1 ISZERO PUSH2 0x10 JUMPI PUSH1 0x0 DUP1 REVERT JUMPDEST POP PUSH2 0x6A3 DUP1 PUSH2 0x20 PUSH1 0x0 CODECOPY PUSH1 0x0 RETURN INVALID PUSH1 0x80 PUSH1 0x40 MSTORE PUSH1 0x4 CALLDATASIZE LT PUSH2 0x4A JUMPI PUSH1 0x0 CALLDATALOAD PUSH1 0xE0 SHR DUP1 PUSH4 0x5832BC9 EQ PUSH2 0x4F JUMPI DUP1 PUSH4 0x70FB9196 EQ PUSH2 0x6B JUMPI DUP1 PUSH4 0x90111E26 EQ PUSH2 0xAA JUMPI DUP1 PUSH4 0xD7B8C4B5 EQ PUSH2 0xB4 JUMPI DUP1 PUSH4 0xFA209FEA EQ PUSH2 0xBE JUMPI JUMPDEST PUSH1 0x0 DUP1 REVERT JUMPDEST PUSH2 0x69 PUSH1 0x4 DUP1 CALLDATASIZE SUB DUP2 ADD SWAP1 PUSH2 0x64 SWAP2 SWAP1 PUSH2 0x45D JUMP JUMPDEST PUSH2 0xC8 JUMP JUMPDEST STOP JUMPDEST CALLVALUE DUP1 ISZERO PUSH2 0x77 JUMPI PUSH1 0x0 DUP1 REVERT JUMPDEST POP PUSH2 0x92 PUSH1 0x4 DUP1 CALLDATASIZE SUB DUP2 ADD SWAP1 PUSH2 0x8D SWAP2 SWAP1 PUSH2 0x45D JUMP JUMPDEST PUSH2 0x17B JUMP JUMPDEST PUSH1 0x40 MLOAD PUSH2 0xA1 SWAP4 SWAP3 SWAP2 SWAP1 PUSH2 0x4CB JUMP JUMPDEST PUSH1 0x40 MLOAD DUP1 SWAP2 SUB SWAP1 RETURN JUMPDEST PUSH2 0xB2 PUSH2 0x1C5 JUMP JUMPDEST STOP JUMPDEST PUSH2 0xBC PUSH2 0x21F JUMP JUMPDEST STOP JUMPDEST PUSH2 0xC6 PUSH2 0x2B4 JUMP JUMPDEST STOP JUMPDEST CALLVALUE PUSH1 0x0 DUP1 CALLER PUSH20 0xFFFFFFFFFFFFFFFFFFFFFFFFFFFFFFFFFFFFFFFF AND PUSH20 0xFFFFFFFFFFFFFFFFFFFFFFFFFFFFFFFFFFFFFFFF AND DUP2 MSTORE PUSH1 0x20 ADD SWAP1 DUP2 MSTORE PUSH1 0x20 ADD PUSH1 0x0 KECCAK256 PUSH1 0x2 ADD PUSH1 0x0 DUP3 DUP3 SLOAD PUSH2 0x119 SWAP2 SWAP1 PUSH2 0x589 JUMP JUMPDEST SWAP3 POP POP DUP2 SWAP1 SSTORE POP CALLVALUE PUSH1 0x0 DUP1 DUP4 PUSH20 0xFFFFFFFFFFFFFFFFFFFFFFFFFFFFFFFFFFFFFFFF AND PUSH20 0xFFFFFFFFFFFFFFFFFFFFFFFFFFFFFFFFFFFFFFFF AND DUP2 MSTORE PUSH1 0x20 ADD SWAP1 DUP2 MSTORE PUSH1 0x20 ADD PUSH1 0x0 KECCAK256 PUSH1 0x2 ADD PUSH1 0x0 DUP3 DUP3 SLOAD PUSH2 0x171 SWAP2 SWAP1 PUSH2 0x533 JUMP JUMPDEST SWAP3 POP POP DUP2 SWAP1 SSTORE POP POP JUMP JUMPDEST PUSH1 0x0 PUSH1 0x20 MSTORE DUP1 PUSH1 0x0 MSTORE PUSH1 0x40 PUSH1 0x0 KECCAK256 PUSH1 0x0 SWAP2 POP SWAP1 POP DUP1 PUSH1 0x0 ADD PUSH1 0x0 SWAP1 SLOAD SWAP1 PUSH2 0x100 EXP SWAP1 DIV PUSH20 0xFFFFFFFFFFFFFFFFFFFFFFFFFFFFFFFFFFFFFFFF AND SWAP1 DUP1 PUSH1 0x1 ADD SLOAD SWAP1 DUP1 PUSH1 0x2 ADD SLOAD SWAP1 POP DUP4 JUMP JUMPDEST CALLVALUE PUSH1 0x0 DUP1 CALLER PUSH20 0xFFFFFFFFFFFFFFFFFFFFFFFFFFFFFFFFFFFFFFFF AND PUSH20 0xFFFFFFFFFFFFFFFFFFFFFFFFFFFFFFFFFFFFFFFF AND DUP2 MSTORE PUSH1 0x20 ADD SWAP1 DUP2 MSTORE PUSH1 0x20 ADD PUSH1 0x0 KECCAK256 PUSH1 0x2 ADD PUSH1 0x0 DUP3 DUP3 SLOAD PUSH2 0x216 SWAP2 SWAP1 PUSH2 0x589 JUMP JUMPDEST SWAP3 POP POP DUP2 SWAP1 SSTORE POP JUMP JUMPDEST CALLVALUE PUSH1 0x0 DUP1 CALLER PUSH20 0xFFFFFFFFFFFFFFFFFFFFFFFFFFFFFFFFFFFFFFFF AND PUSH20 0xFFFFFFFFFFFFFFFFFFFFFFFFFFFFFFFFFFFFFFFF AND DUP2 MSTORE PUSH1 0x20 ADD SWAP1 DUP2 MSTORE PUSH1 0x20 ADD PUSH1 0x0 KECCAK256 PUSH1 0x2 ADD PUSH1 0x0 DUP3 DUP3 SLOAD PUSH2 0x270 SWAP2 SWAP1 PUSH2 0x533 JUMP JUMPDEST SWAP3 POP POP DUP2 SWAP1 SSTORE POP PUSH32 0x2F8A6EC2D4B44B9EB188E85756710017B4B7D1D8C493867F691BF6046F05FA2E CALLER CALLVALUE TIMESTAMP PUSH1 0x40 MLOAD PUSH2 0x2AA SWAP4 SWAP3 SWAP2 SWAP1 PUSH2 0x4CB JUMP JUMPDEST PUSH1 0x40 MLOAD DUP1 SWAP2 SUB SWAP1 LOG1 JUMP JUMPDEST PUSH8 0xDE0B6B3A7640000 CALLVALUE LT ISZERO PUSH2 0x2FF JUMPI PUSH1 0x40 MLOAD PUSH32 0x8C379A000000000000000000000000000000000000000000000000000000000 DUP2 MSTORE PUSH1 0x4 ADD PUSH2 0x2F6 SWAP1 PUSH2 0x502 JUMP JUMPDEST PUSH1 0x40 MLOAD DUP1 SWAP2 SUB SWAP1 REVERT JUMPDEST CALLER PUSH1 0x0 DUP1 CALLER PUSH20 0xFFFFFFFFFFFFFFFFFFFFFFFFFFFFFFFFFFFFFFFF AND PUSH20 0xFFFFFFFFFFFFFFFFFFFFFFFFFFFFFFFFFFFFFFFF AND DUP2 MSTORE PUSH1 0x20 ADD SWAP1 DUP2 MSTORE PUSH1 0x20 ADD PUSH1 0x0 KECCAK256 PUSH1 0x0 ADD PUSH1 0x0 PUSH2 0x100 EXP DUP2 SLOAD DUP2 PUSH20 0xFFFFFFFFFFFFFFFFFFFFFFFFFFFFFFFFFFFFFFFF MUL NOT AND SWAP1 DUP4 PUSH20 0xFFFFFFFFFFFFFFFFFFFFFFFFFFFFFFFFFFFFFFFF AND MUL OR SWAP1 SSTORE POP CALLVALUE PUSH1 0x0 DUP1 CALLER PUSH20 0xFFFFFFFFFFFFFFFFFFFFFFFFFFFFFFFFFFFFFFFF AND PUSH20 0xFFFFFFFFFFFFFFFFFFFFFFFFFFFFFFFFFFFFFFFF AND DUP2 MSTORE PUSH1 0x20 ADD SWAP1 DUP2 MSTORE PUSH1 0x20 ADD PUSH1 0x0 KECCAK256 PUSH1 0x2 ADD DUP2 SWAP1 SSTORE POP TIMESTAMP PUSH1 0x0 DUP1 CALLER PUSH20 0xFFFFFFFFFFFFFFFFFFFFFFFFFFFFFFFFFFFFFFFF AND PUSH20 0xFFFFFFFFFFFFFFFFFFFFFFFFFFFFFFFFFFFFFFFF AND DUP2 MSTORE PUSH1 0x20 ADD SWAP1 DUP2 MSTORE PUSH1 0x20 ADD PUSH1 0x0 KECCAK256 PUSH1 0x1 ADD DUP2 SWAP1 SSTORE POP PUSH32 0x2F8A6EC2D4B44B9EB188E85756710017B4B7D1D8C493867F691BF6046F05FA2E CALLER CALLVALUE TIMESTAMP PUSH1 0x40 MLOAD PUSH2 0x43E SWAP4 SWAP3 SWAP2 SWAP1 PUSH2 0x4CB JUMP JUMPDEST PUSH1 0x40 MLOAD DUP1 SWAP2 SUB SWAP1 LOG1 JUMP JUMPDEST PUSH1 0x0 DUP2 CALLDATALOAD SWAP1 POP PUSH2 0x457 DUP2 PUSH2 0x656 JUMP JUMPDEST SWAP3 SWAP2 POP POP JUMP JUMPDEST PUSH1 0x0 PUSH1 0x20 DUP3 DUP5 SUB SLT ISZERO PUSH2 0x473 JUMPI PUSH2 0x472 PUSH2 0x628 JUMP JUMPDEST JUMPDEST PUSH1 0x0 PUSH2 0x481 DUP5 DUP3 DUP6 ADD PUSH2 0x448 JUMP JUMPDEST SWAP2 POP POP SWAP3 SWAP2 POP POP JUMP JUMPDEST PUSH2 0x493 DUP2 PUSH2 0x5BD JUMP JUMPDEST DUP3 MSTORE POP POP JUMP JUMPDEST PUSH1 0x0 PUSH2 0x4A6 PUSH1 0x1F DUP4 PUSH2 0x522 JUMP JUMPDEST SWAP2 POP PUSH2 0x4B1 DUP3 PUSH2 0x62D JUMP JUMPDEST PUSH1 0x20 DUP3 ADD SWAP1 POP SWAP2 SWAP1 POP JUMP JUMPDEST PUSH2 0x4C5 DUP2 PUSH2 0x5EF JUMP JUMPDEST DUP3 MSTORE POP POP JUMP JUMPDEST PUSH1 0x0 PUSH1 0x60 DUP3 ADD SWAP1 POP PUSH2 0x4E0 PUSH1 0x0 DUP4 ADD DUP7 PUSH2 0x48A JUMP JUMPDEST PUSH2 0x4ED PUSH1 0x20 DUP4 ADD DUP6 PUSH2 0x4BC JUMP JUMPDEST PUSH2 0x4FA PUSH1 0x40 DUP4 ADD DUP5 PUSH2 0x4BC JUMP JUMPDEST SWAP5 SWAP4 POP POP POP POP JUMP JUMPDEST PUSH1 0x0 PUSH1 0x20 DUP3 ADD SWAP1 POP DUP2 DUP2 SUB PUSH1 0x0 DUP4 ADD MSTORE PUSH2 0x51B DUP2 PUSH2 0x499 JUMP JUMPDEST SWAP1 POP SWAP2 SWAP1 POP JUMP JUMPDEST PUSH1 0x0 DUP3 DUP3 MSTORE PUSH1 0x20 DUP3 ADD SWAP1 POP SWAP3 SWAP2 POP POP JUMP JUMPDEST PUSH1 0x0 PUSH2 0x53E DUP3 PUSH2 0x5EF JUMP JUMPDEST SWAP2 POP PUSH2 0x549 DUP4 PUSH2 0x5EF JUMP JUMPDEST SWAP3 POP DUP3 PUSH32 0xFFFFFFFFFFFFFFFFFFFFFFFFFFFFFFFFFFFFFFFFFFFFFFFFFFFFFFFFFFFFFFFF SUB DUP3 GT ISZERO PUSH2 0x57E JUMPI PUSH2 0x57D PUSH2 0x5F9 JUMP JUMPDEST JUMPDEST DUP3 DUP3 ADD SWAP1 POP SWAP3 SWAP2 POP POP JUMP JUMPDEST PUSH1 0x0 PUSH2 0x594 DUP3 PUSH2 0x5EF JUMP JUMPDEST SWAP2 POP PUSH2 0x59F DUP4 PUSH2 0x5EF JUMP JUMPDEST SWAP3 POP DUP3 DUP3 LT ISZERO PUSH2 0x5B2 JUMPI PUSH2 0x5B1 PUSH2 0x5F9 JUMP JUMPDEST JUMPDEST DUP3 DUP3 SUB SWAP1 POP SWAP3 SWAP2 POP POP JUMP JUMPDEST PUSH1 0x0 PUSH2 0x5C8 DUP3 PUSH2 0x5CF JUMP JUMPDEST SWAP1 POP SWAP2 SWAP1 POP JUMP JUMPDEST PUSH1 0x0 PUSH20 0xFFFFFFFFFFFFFFFFFFFFFFFFFFFFFFFFFFFFFFFF DUP3 AND SWAP1 POP SWAP2 SWAP1 POP JUMP JUMPDEST PUSH1 0x0 DUP2 SWAP1 POP SWAP2 SWAP1 POP JUMP JUMPDEST PUSH32 0x4E487B7100000000000000000000000000000000000000000000000000000000 PUSH1 0x0 MSTORE PUSH1 0x11 PUSH1 0x4 MSTORE PUSH1 0x24 PUSH1 0x0 REVERT JUMPDEST PUSH1 0x0 DUP1 REVERT JUMPDEST PUSH32 0x646F65736E277420666F6C6C6F77206D696E696D756D20637269746572616900 PUSH1 0x0 DUP3 ADD MSTORE POP JUMP JUMPDEST PUSH2 0x65F DUP2 PUSH2 0x5BD JUMP JUMPDEST DUP2 EQ PUSH2 0x66A JUMPI PUSH1 0x0 DUP1 REVERT JUMPDEST POP JUMP INVALID LOG2 PUSH5 0x6970667358 0x22 SLT KECCAK256 0xBA ADDMOD 0xE3 0xFB 0xC2 DUP14 JUMP LOG4 0xC0 DUP1 0xB4 ISZERO PUSH5 0x106660D019 SWAP15 0x4D DUP12 SIGNEXTEND CODECOPY DUP1 DUP2 0xBE EXP 0xB7 0xD 0xF8 0x4F 0xF6 PUSH5 0x736F6C6343 STOP ADDMOD SMOD STOP CALLER "
				},
				"gasEstimates": {
					"creation": {
						"codeDepositCost": "339800",
						"executionCost": "380",
						"totalCost": "340180"
					},
					"external": {
						"accountCreated()": "infinite",
						"balanceDeposited()": "infinite",
						"bankDatabase(address)": "infinite",
						"transfarmoney(address)": "infinite",
						"withDrawl()": "infinite"
					}
				},
				"methodIdentifiers": {
					"accountCreated()": "fa209fea",
					"balanceDeposited()": "d7b8c4b5",
					"bankDatabase(address)": "70fb9196",
					"transfarmoney(address)": "05832bc9",
					"withDrawl()": "90111e26"
				}
			},
			"storageLayout": {
				"storage": [
					{
						"astId": 13,
						"contract": "contracts/Bank2.sol:Bank",
						"label": "bankDatabase",
						"offset": 0,
						"slot": "0",
						"type": "t_mapping(t_address,t_struct(User)8_storage)"
					}
				],
				"types": {
					"t_address": {
						"encoding": "inplace",
						"label": "address",
						"numberOfBytes": "20"
					},
					"t_mapping(t_address,t_struct(User)8_storage)": {
						"encoding": "mapping",
						"key": "t_address",
						"label": "mapping(address => struct Bank.User)",
						"numberOfBytes": "32",
						"value": "t_struct(User)8_storage"
					},
					"t_struct(User)8_storage": {
						"encoding": "inplace",
						"label": "struct Bank.User",
						"members": [
							{
								"astId": 3,
								"contract": "contracts/Bank2.sol:Bank",
								"label": "owner",
								"offset": 0,
								"slot": "0",
								"type": "t_address"
							},
							{
								"astId": 5,
								"contract": "contracts/Bank2.sol:Bank",
								"label": "timecreated",
								"offset": 0,
								"slot": "1",
								"type": "t_uint256"
							},
							{
								"astId": 7,
								"contract": "contracts/Bank2.sol:Bank",
								"label": "balance",
								"offset": 0,
								"slot": "2",
								"type": "t_uint256"
							}
						],
						"numberOfBytes": "96"
					},
					"t_uint256": {
						"encoding": "inplace",
						"label": "uint256",
						"numberOfBytes": "32"
					}
				}
			},
			"userdoc": {
				"kind": "user",
				"methods": {},
				"version": 1
			}
		}
	}
}