{
	"contracts/Bank2.sol": {
		"Bank": {
			"abi": [
				{
					"anonymous": false,
					"inputs": [
						{
							"indexed": false,
							"internalType": "address",
							"name": "owner",
							"type": "address"
						},
						{
							"indexed": false,
							"internalType": "uint256",
							"name": "balance",
							"type": "uint256"
						},
						{
							"indexed": false,
							"internalType": "uint256",
							"name": "timestamp",
							"type": "uint256"
						}
					],
					"name": "balanceAdded",
					"type": "event"
				},
				{
					"anonymous": false,
					"inputs": [
						{
							"indexed": false,
							"internalType": "address",
							"name": "owner",
							"type": "address"
						},
						{
							"indexed": false,
							"internalType": "uint256",
							"name": "balance",
							"type": "uint256"
						},
						{
							"indexed": false,
							"internalType": "uint256",
							"name": "timestamp",
							"type": "uint256"
						}
					],
					"name": "withdrawlDone",
					"type": "event"
				},
				{
					"inputs": [],
					"name": "accountCreated",
					"outputs": [],
					"stateMutability": "payable",
					"type": "function"
				},
				{
					"inputs": [
						{
							"internalType": "address",
							"name": "",
							"type": "address"
						}
					],
					"name": "bankDatabase",
					"outputs": [
						{
							"internalType": "address",
							"name": "owner",
							"type": "address"
						},
						{
							"internalType": "uint256",
							"name": "timecreated",
							"type": "uint256"
						},
						{
							"internalType": "uint256",
							"name": "balance",
							"type": "uint256"
						}
					],
					"stateMutability": "view",
					"type": "function"
				}
			],
			"devdoc": {
				"kind": "dev",
				"methods": {},
				"version": 1
			},
			"evm": {
				"assembly": "    /* \"contracts/Bank2.sol\":67:739  contract Bank{\r... */\n  mstore(0x40, 0x80)\n  callvalue\n  dup1\n  iszero\n  tag_1\n  jumpi\n  0x00\n  dup1\n  revert\ntag_1:\n  pop\n  dataSize(sub_0)\n  dup1\n  dataOffset(sub_0)\n  0x00\n  codecopy\n  0x00\n  return\nstop\n\nsub_0: assembly {\n        /* \"contracts/Bank2.sol\":67:739  contract Bank{\r... */\n      mstore(0x40, 0x80)\n      jumpi(tag_1, lt(calldatasize, 0x04))\n      shr(0xe0, calldataload(0x00))\n      dup1\n      0x70fb9196\n      eq\n      tag_2\n      jumpi\n      dup1\n      0xfa209fea\n      eq\n      tag_3\n      jumpi\n    tag_1:\n      0x00\n      dup1\n      revert\n        /* \"contracts/Bank2.sol\":164:206  mapping (address=>User)public bankDatabase */\n    tag_2:\n      callvalue\n      dup1\n      iszero\n      tag_4\n      jumpi\n      0x00\n      dup1\n      revert\n    tag_4:\n      pop\n      tag_5\n      0x04\n      dup1\n      calldatasize\n      sub\n      dup2\n      add\n      swap1\n      tag_6\n      swap2\n      swap1\n      tag_7\n      jump\t// in\n    tag_6:\n      tag_8\n      jump\t// in\n    tag_5:\n      mload(0x40)\n      tag_9\n      swap4\n      swap3\n      swap2\n      swap1\n      tag_10\n      jump\t// in\n    tag_9:\n      mload(0x40)\n      dup1\n      swap2\n      sub\n      swap1\n      return\n        /* \"contracts/Bank2.sol\":460:714  function accountCreated() public payable minimum{\r... */\n    tag_3:\n      tag_11\n      tag_12\n      jump\t// in\n    tag_11:\n      stop\n        /* \"contracts/Bank2.sol\":164:206  mapping (address=>User)public bankDatabase */\n    tag_8:\n      mstore(0x20, 0x00)\n      dup1\n      0x00\n      mstore\n      keccak256(0x00, 0x40)\n      0x00\n      swap2\n      pop\n      swap1\n      pop\n      dup1\n      0x00\n      add\n      0x00\n      swap1\n      sload\n      swap1\n      0x0100\n      exp\n      swap1\n      div\n      0xffffffffffffffffffffffffffffffffffffffff\n      and\n      swap1\n      dup1\n      0x01\n      add\n      sload\n      swap1\n      dup1\n      0x02\n      add\n      sload\n      swap1\n      pop\n      dup4\n      jump\t// out\n        /* \"contracts/Bank2.sol\":460:714  function accountCreated() public payable minimum{\r... */\n    tag_12:\n        /* \"contracts/Bank2.sol\":381:388  1 ether */\n      0x0de0b6b3a7640000\n        /* \"contracts/Bank2.sol\":370:379  msg.value */\n      callvalue\n        /* \"contracts/Bank2.sol\":370:388  msg.value>=1 ether */\n      lt\n      iszero\n        /* \"contracts/Bank2.sol\":362:423  require(msg.value>=1 ether,\"doesn't follow minimum criterai\") */\n      tag_14\n      jumpi\n      mload(0x40)\n      0x08c379a000000000000000000000000000000000000000000000000000000000\n      dup2\n      mstore\n      0x04\n      add\n      tag_15\n      swap1\n      tag_16\n      jump\t// in\n    tag_15:\n      mload(0x40)\n      dup1\n      swap2\n      sub\n      swap1\n      revert\n    tag_14:\n        /* \"contracts/Bank2.sol\":542:552  msg.sender */\n      caller\n        /* \"contracts/Bank2.sol\":511:523  bankDatabase */\n      0x00\n        /* \"contracts/Bank2.sol\":511:535  bankDatabase[msg.sender] */\n      dup1\n        /* \"contracts/Bank2.sol\":524:534  msg.sender */\n      caller\n        /* \"contracts/Bank2.sol\":511:535  bankDatabase[msg.sender] */\n      0xffffffffffffffffffffffffffffffffffffffff\n      and\n      0xffffffffffffffffffffffffffffffffffffffff\n      and\n      dup2\n      mstore\n      0x20\n      add\n      swap1\n      dup2\n      mstore\n      0x20\n      add\n      0x00\n      keccak256\n        /* \"contracts/Bank2.sol\":511:541  bankDatabase[msg.sender].owner */\n      0x00\n      add\n      0x00\n        /* \"contracts/Bank2.sol\":511:552  bankDatabase[msg.sender].owner=msg.sender */\n      0x0100\n      exp\n      dup2\n      sload\n      dup2\n      0xffffffffffffffffffffffffffffffffffffffff\n      mul\n      not\n      and\n      swap1\n      dup4\n      0xffffffffffffffffffffffffffffffffffffffff\n      and\n      mul\n      or\n      swap1\n      sstore\n      pop\n        /* \"contracts/Bank2.sol\":588:597  msg.value */\n      callvalue\n        /* \"contracts/Bank2.sol\":555:567  bankDatabase */\n      0x00\n        /* \"contracts/Bank2.sol\":555:579  bankDatabase[msg.sender] */\n      dup1\n        /* \"contracts/Bank2.sol\":568:578  msg.sender */\n      caller\n        /* \"contracts/Bank2.sol\":555:579  bankDatabase[msg.sender] */\n      0xffffffffffffffffffffffffffffffffffffffff\n      and\n      0xffffffffffffffffffffffffffffffffffffffff\n      and\n      dup2\n      mstore\n      0x20\n      add\n      swap1\n      dup2\n      mstore\n      0x20\n      add\n      0x00\n      keccak256\n        /* \"contracts/Bank2.sol\":555:587  bankDatabase[msg.sender].balance */\n      0x02\n      add\n        /* \"contracts/Bank2.sol\":555:597  bankDatabase[msg.sender].balance=msg.value */\n      dup2\n      swap1\n      sstore\n      pop\n        /* \"contracts/Bank2.sol\":637:652  block.timestamp */\n      timestamp\n        /* \"contracts/Bank2.sol\":600:612  bankDatabase */\n      0x00\n        /* \"contracts/Bank2.sol\":600:624  bankDatabase[msg.sender] */\n      dup1\n        /* \"contracts/Bank2.sol\":613:623  msg.sender */\n      caller\n        /* \"contracts/Bank2.sol\":600:624  bankDatabase[msg.sender] */\n      0xffffffffffffffffffffffffffffffffffffffff\n      and\n      0xffffffffffffffffffffffffffffffffffffffff\n      and\n      dup2\n      mstore\n      0x20\n      add\n      swap1\n      dup2\n      mstore\n      0x20\n      add\n      0x00\n      keccak256\n        /* \"contracts/Bank2.sol\":600:636  bankDatabase[msg.sender].timecreated */\n      0x01\n      add\n        /* \"contracts/Bank2.sol\":600:652  bankDatabase[msg.sender].timecreated=block.timestamp */\n      dup2\n      swap1\n      sstore\n      pop\n        /* \"contracts/Bank2.sol\":660:710  balanceAdded(msg.sender,msg.value,block.timestamp) */\n      0x2f8a6ec2d4b44b9eb188e85756710017b4b7d1d8c493867f691bf6046f05fa2e\n        /* \"contracts/Bank2.sol\":673:683  msg.sender */\n      caller\n        /* \"contracts/Bank2.sol\":684:693  msg.value */\n      callvalue\n        /* \"contracts/Bank2.sol\":694:709  block.timestamp */\n      timestamp\n        /* \"contracts/Bank2.sol\":660:710  balanceAdded(msg.sender,msg.value,block.timestamp) */\n      mload(0x40)\n      tag_18\n      swap4\n      swap3\n      swap2\n      swap1\n      tag_10\n      jump\t// in\n    tag_18:\n      mload(0x40)\n      dup1\n      swap2\n      sub\n      swap1\n      log1\n        /* \"contracts/Bank2.sol\":460:714  function accountCreated() public payable minimum{\r... */\n      jump\t// out\n        /* \"#utility.yul\":7:146   */\n    tag_20:\n        /* \"#utility.yul\":53:58   */\n      0x00\n        /* \"#utility.yul\":91:97   */\n      dup2\n        /* \"#utility.yul\":78:98   */\n      calldataload\n        /* \"#utility.yul\":69:98   */\n      swap1\n      pop\n        /* \"#utility.yul\":107:140   */\n      tag_22\n        /* \"#utility.yul\":134:139   */\n      dup2\n        /* \"#utility.yul\":107:140   */\n      tag_23\n      jump\t// in\n    tag_22:\n        /* \"#utility.yul\":7:146   */\n      swap3\n      swap2\n      pop\n      pop\n      jump\t// out\n        /* \"#utility.yul\":152:481   */\n    tag_7:\n        /* \"#utility.yul\":211:217   */\n      0x00\n        /* \"#utility.yul\":260:262   */\n      0x20\n        /* \"#utility.yul\":248:257   */\n      dup3\n        /* \"#utility.yul\":239:246   */\n      dup5\n        /* \"#utility.yul\":235:258   */\n      sub\n        /* \"#utility.yul\":231:263   */\n      slt\n        /* \"#utility.yul\":228:347   */\n      iszero\n      tag_25\n      jumpi\n        /* \"#utility.yul\":266:345   */\n      tag_26\n      tag_27\n      jump\t// in\n    tag_26:\n        /* \"#utility.yul\":228:347   */\n    tag_25:\n        /* \"#utility.yul\":386:387   */\n      0x00\n        /* \"#utility.yul\":411:464   */\n      tag_28\n        /* \"#utility.yul\":456:463   */\n      dup5\n        /* \"#utility.yul\":447:453   */\n      dup3\n        /* \"#utility.yul\":436:445   */\n      dup6\n        /* \"#utility.yul\":432:454   */\n      add\n        /* \"#utility.yul\":411:464   */\n      tag_20\n      jump\t// in\n    tag_28:\n        /* \"#utility.yul\":401:464   */\n      swap2\n      pop\n        /* \"#utility.yul\":357:474   */\n      pop\n        /* \"#utility.yul\":152:481   */\n      swap3\n      swap2\n      pop\n      pop\n      jump\t// out\n        /* \"#utility.yul\":487:605   */\n    tag_29:\n        /* \"#utility.yul\":574:598   */\n      tag_31\n        /* \"#utility.yul\":592:597   */\n      dup2\n        /* \"#utility.yul\":574:598   */\n      tag_32\n      jump\t// in\n    tag_31:\n        /* \"#utility.yul\":569:572   */\n      dup3\n        /* \"#utility.yul\":562:599   */\n      mstore\n        /* \"#utility.yul\":487:605   */\n      pop\n      pop\n      jump\t// out\n        /* \"#utility.yul\":611:977   */\n    tag_33:\n        /* \"#utility.yul\":753:756   */\n      0x00\n        /* \"#utility.yul\":774:841   */\n      tag_35\n        /* \"#utility.yul\":838:840   */\n      0x1f\n        /* \"#utility.yul\":833:836   */\n      dup4\n        /* \"#utility.yul\":774:841   */\n      tag_36\n      jump\t// in\n    tag_35:\n        /* \"#utility.yul\":767:841   */\n      swap2\n      pop\n        /* \"#utility.yul\":850:943   */\n      tag_37\n        /* \"#utility.yul\":939:942   */\n      dup3\n        /* \"#utility.yul\":850:943   */\n      tag_38\n      jump\t// in\n    tag_37:\n        /* \"#utility.yul\":968:970   */\n      0x20\n        /* \"#utility.yul\":963:966   */\n      dup3\n        /* \"#utility.yul\":959:971   */\n      add\n        /* \"#utility.yul\":952:971   */\n      swap1\n      pop\n        /* \"#utility.yul\":611:977   */\n      swap2\n      swap1\n      pop\n      jump\t// out\n        /* \"#utility.yul\":983:1101   */\n    tag_39:\n        /* \"#utility.yul\":1070:1094   */\n      tag_41\n        /* \"#utility.yul\":1088:1093   */\n      dup2\n        /* \"#utility.yul\":1070:1094   */\n      tag_42\n      jump\t// in\n    tag_41:\n        /* \"#utility.yul\":1065:1068   */\n      dup3\n        /* \"#utility.yul\":1058:1095   */\n      mstore\n        /* \"#utility.yul\":983:1101   */\n      pop\n      pop\n      jump\t// out\n        /* \"#utility.yul\":1107:1549   */\n    tag_10:\n        /* \"#utility.yul\":1256:1260   */\n      0x00\n        /* \"#utility.yul\":1294:1296   */\n      0x60\n        /* \"#utility.yul\":1283:1292   */\n      dup3\n        /* \"#utility.yul\":1279:1297   */\n      add\n        /* \"#utility.yul\":1271:1297   */\n      swap1\n      pop\n        /* \"#utility.yul\":1307:1378   */\n      tag_44\n        /* \"#utility.yul\":1375:1376   */\n      0x00\n        /* \"#utility.yul\":1364:1373   */\n      dup4\n        /* \"#utility.yul\":1360:1377   */\n      add\n        /* \"#utility.yul\":1351:1357   */\n      dup7\n        /* \"#utility.yul\":1307:1378   */\n      tag_29\n      jump\t// in\n    tag_44:\n        /* \"#utility.yul\":1388:1460   */\n      tag_45\n        /* \"#utility.yul\":1456:1458   */\n      0x20\n        /* \"#utility.yul\":1445:1454   */\n      dup4\n        /* \"#utility.yul\":1441:1459   */\n      add\n        /* \"#utility.yul\":1432:1438   */\n      dup6\n        /* \"#utility.yul\":1388:1460   */\n      tag_39\n      jump\t// in\n    tag_45:\n        /* \"#utility.yul\":1470:1542   */\n      tag_46\n        /* \"#utility.yul\":1538:1540   */\n      0x40\n        /* \"#utility.yul\":1527:1536   */\n      dup4\n        /* \"#utility.yul\":1523:1541   */\n      add\n        /* \"#utility.yul\":1514:1520   */\n      dup5\n        /* \"#utility.yul\":1470:1542   */\n      tag_39\n      jump\t// in\n    tag_46:\n        /* \"#utility.yul\":1107:1549   */\n      swap5\n      swap4\n      pop\n      pop\n      pop\n      pop\n      jump\t// out\n        /* \"#utility.yul\":1555:1974   */\n    tag_16:\n        /* \"#utility.yul\":1721:1725   */\n      0x00\n        /* \"#utility.yul\":1759:1761   */\n      0x20\n        /* \"#utility.yul\":1748:1757   */\n      dup3\n        /* \"#utility.yul\":1744:1762   */\n      add\n        /* \"#utility.yul\":1736:1762   */\n      swap1\n      pop\n        /* \"#utility.yul\":1808:1817   */\n      dup2\n        /* \"#utility.yul\":1802:1806   */\n      dup2\n        /* \"#utility.yul\":1798:1818   */\n      sub\n        /* \"#utility.yul\":1794:1795   */\n      0x00\n        /* \"#utility.yul\":1783:1792   */\n      dup4\n        /* \"#utility.yul\":1779:1796   */\n      add\n        /* \"#utility.yul\":1772:1819   */\n      mstore\n        /* \"#utility.yul\":1836:1967   */\n      tag_48\n        /* \"#utility.yul\":1962:1966   */\n      dup2\n        /* \"#utility.yul\":1836:1967   */\n      tag_33\n      jump\t// in\n    tag_48:\n        /* \"#utility.yul\":1828:1967   */\n      swap1\n      pop\n        /* \"#utility.yul\":1555:1974   */\n      swap2\n      swap1\n      pop\n      jump\t// out\n        /* \"#utility.yul\":2061:2230   */\n    tag_36:\n        /* \"#utility.yul\":2145:2156   */\n      0x00\n        /* \"#utility.yul\":2179:2185   */\n      dup3\n        /* \"#utility.yul\":2174:2177   */\n      dup3\n        /* \"#utility.yul\":2167:2186   */\n      mstore\n        /* \"#utility.yul\":2219:2223   */\n      0x20\n        /* \"#utility.yul\":2214:2217   */\n      dup3\n        /* \"#utility.yul\":2210:2224   */\n      add\n        /* \"#utility.yul\":2195:2224   */\n      swap1\n      pop\n        /* \"#utility.yul\":2061:2230   */\n      swap3\n      swap2\n      pop\n      pop\n      jump\t// out\n        /* \"#utility.yul\":2236:2332   */\n    tag_32:\n        /* \"#utility.yul\":2273:2280   */\n      0x00\n        /* \"#utility.yul\":2302:2326   */\n      tag_53\n        /* \"#utility.yul\":2320:2325   */\n      dup3\n        /* \"#utility.yul\":2302:2326   */\n      tag_54\n      jump\t// in\n    tag_53:\n        /* \"#utility.yul\":2291:2326   */\n      swap1\n      pop\n        /* \"#utility.yul\":2236:2332   */\n      swap2\n      swap1\n      pop\n      jump\t// out\n        /* \"#utility.yul\":2338:2464   */\n    tag_54:\n        /* \"#utility.yul\":2375:2382   */\n      0x00\n        /* \"#utility.yul\":2415:2457   */\n      0xffffffffffffffffffffffffffffffffffffffff\n        /* \"#utility.yul\":2408:2413   */\n      dup3\n        /* \"#utility.yul\":2404:2458   */\n      and\n        /* \"#utility.yul\":2393:2458   */\n      swap1\n      pop\n        /* \"#utility.yul\":2338:2464   */\n      swap2\n      swap1\n      pop\n      jump\t// out\n        /* \"#utility.yul\":2470:2547   */\n    tag_42:\n        /* \"#utility.yul\":2507:2514   */\n      0x00\n        /* \"#utility.yul\":2536:2541   */\n      dup2\n        /* \"#utility.yul\":2525:2541   */\n      swap1\n      pop\n        /* \"#utility.yul\":2470:2547   */\n      swap2\n      swap1\n      pop\n      jump\t// out\n        /* \"#utility.yul\":2676:2793   */\n    tag_27:\n        /* \"#utility.yul\":2785:2786   */\n      0x00\n        /* \"#utility.yul\":2782:2783   */\n      dup1\n        /* \"#utility.yul\":2775:2787   */\n      revert\n        /* \"#utility.yul\":2799:2980   */\n    tag_38:\n        /* \"#utility.yul\":2939:2972   */\n      0x646f65736e277420666f6c6c6f77206d696e696d756d20637269746572616900\n        /* \"#utility.yul\":2935:2936   */\n      0x00\n        /* \"#utility.yul\":2927:2933   */\n      dup3\n        /* \"#utility.yul\":2923:2937   */\n      add\n        /* \"#utility.yul\":2916:2973   */\n      mstore\n        /* \"#utility.yul\":2799:2980   */\n      pop\n      jump\t// out\n        /* \"#utility.yul\":2986:3108   */\n    tag_23:\n        /* \"#utility.yul\":3059:3083   */\n      tag_62\n        /* \"#utility.yul\":3077:3082   */\n      dup2\n        /* \"#utility.yul\":3059:3083   */\n      tag_32\n      jump\t// in\n    tag_62:\n        /* \"#utility.yul\":3052:3057   */\n      dup2\n        /* \"#utility.yul\":3049:3084   */\n      eq\n        /* \"#utility.yul\":3039:3102   */\n      tag_63\n      jumpi\n        /* \"#utility.yul\":3098:3099   */\n      0x00\n        /* \"#utility.yul\":3095:3096   */\n      dup1\n        /* \"#utility.yul\":3088:3100   */\n      revert\n        /* \"#utility.yul\":3039:3102   */\n    tag_63:\n        /* \"#utility.yul\":2986:3108   */\n      pop\n      jump\t// out\n\n    auxdata: 0xa264697066735822122081b9b421503dabcc52ffbf42b1918510e1910b8aae6684d58c0ff3320d47804d64736f6c63430008070033\n}\n",
				"bytecode": {
					"linkReferences": {},
					"object": "608060405234801561001057600080fd5b506103f7806100206000396000f3fe6080604052600436106100295760003560e01c806370fb91961461002e578063fa209fea1461006d575b600080fd5b34801561003a57600080fd5b506100556004803603810190610050919061026a565b610077565b604051610064939291906102d8565b60405180910390f35b6100756100c1565b005b60006020528060005260406000206000915090508060000160009054906101000a900473ffffffffffffffffffffffffffffffffffffffff16908060010154908060020154905083565b670de0b6b3a764000034101561010c576040517f08c379a00000000000000000000000000000000000000000000000000000000081526004016101039061030f565b60405180910390fd5b336000803373ffffffffffffffffffffffffffffffffffffffff1673ffffffffffffffffffffffffffffffffffffffff16815260200190815260200160002060000160006101000a81548173ffffffffffffffffffffffffffffffffffffffff021916908373ffffffffffffffffffffffffffffffffffffffff160217905550346000803373ffffffffffffffffffffffffffffffffffffffff1673ffffffffffffffffffffffffffffffffffffffff16815260200190815260200160002060020181905550426000803373ffffffffffffffffffffffffffffffffffffffff1673ffffffffffffffffffffffffffffffffffffffff168152602001908152602001600020600101819055507f2f8a6ec2d4b44b9eb188e85756710017b4b7d1d8c493867f691bf6046f05fa2e33344260405161024b939291906102d8565b60405180910390a1565b600081359050610264816103aa565b92915050565b6000602082840312156102805761027f61037c565b5b600061028e84828501610255565b91505092915050565b6102a081610340565b82525050565b60006102b3601f8361032f565b91506102be82610381565b602082019050919050565b6102d281610372565b82525050565b60006060820190506102ed6000830186610297565b6102fa60208301856102c9565b61030760408301846102c9565b949350505050565b60006020820190508181036000830152610328816102a6565b9050919050565b600082825260208201905092915050565b600061034b82610352565b9050919050565b600073ffffffffffffffffffffffffffffffffffffffff82169050919050565b6000819050919050565b600080fd5b7f646f65736e277420666f6c6c6f77206d696e696d756d20637269746572616900600082015250565b6103b381610340565b81146103be57600080fd5b5056fea264697066735822122081b9b421503dabcc52ffbf42b1918510e1910b8aae6684d58c0ff3320d47804d64736f6c63430008070033",
					"opcodes": "PUSH1 0x80 PUSH1 0x40 MSTORE CALLVALUE DUP1 ISZERO PUSH2 0x10 JUMPI PUSH1 0x0 DUP1 REVERT JUMPDEST POP PUSH2 0x3F7 DUP1 PUSH2 0x20 PUSH1 0x0 CODECOPY PUSH1 0x0 RETURN INVALID PUSH1 0x80 PUSH1 0x40 MSTORE PUSH1 0x4 CALLDATASIZE LT PUSH2 0x29 JUMPI PUSH1 0x0 CALLDATALOAD PUSH1 0xE0 SHR DUP1 PUSH4 0x70FB9196 EQ PUSH2 0x2E JUMPI DUP1 PUSH4 0xFA209FEA EQ PUSH2 0x6D JUMPI JUMPDEST PUSH1 0x0 DUP1 REVERT JUMPDEST CALLVALUE DUP1 ISZERO PUSH2 0x3A JUMPI PUSH1 0x0 DUP1 REVERT JUMPDEST POP PUSH2 0x55 PUSH1 0x4 DUP1 CALLDATASIZE SUB DUP2 ADD SWAP1 PUSH2 0x50 SWAP2 SWAP1 PUSH2 0x26A JUMP JUMPDEST PUSH2 0x77 JUMP JUMPDEST PUSH1 0x40 MLOAD PUSH2 0x64 SWAP4 SWAP3 SWAP2 SWAP1 PUSH2 0x2D8 JUMP JUMPDEST PUSH1 0x40 MLOAD DUP1 SWAP2 SUB SWAP1 RETURN JUMPDEST PUSH2 0x75 PUSH2 0xC1 JUMP JUMPDEST STOP JUMPDEST PUSH1 0x0 PUSH1 0x20 MSTORE DUP1 PUSH1 0x0 MSTORE PUSH1 0x40 PUSH1 0x0 KECCAK256 PUSH1 0x0 SWAP2 POP SWAP1 POP DUP1 PUSH1 0x0 ADD PUSH1 0x0 SWAP1 SLOAD SWAP1 PUSH2 0x100 EXP SWAP1 DIV PUSH20 0xFFFFFFFFFFFFFFFFFFFFFFFFFFFFFFFFFFFFFFFF AND SWAP1 DUP1 PUSH1 0x1 ADD SLOAD SWAP1 DUP1 PUSH1 0x2 ADD SLOAD SWAP1 POP DUP4 JUMP JUMPDEST PUSH8 0xDE0B6B3A7640000 CALLVALUE LT ISZERO PUSH2 0x10C JUMPI PUSH1 0x40 MLOAD PUSH32 0x8C379A000000000000000000000000000000000000000000000000000000000 DUP2 MSTORE PUSH1 0x4 ADD PUSH2 0x103 SWAP1 PUSH2 0x30F JUMP JUMPDEST PUSH1 0x40 MLOAD DUP1 SWAP2 SUB SWAP1 REVERT JUMPDEST CALLER PUSH1 0x0 DUP1 CALLER PUSH20 0xFFFFFFFFFFFFFFFFFFFFFFFFFFFFFFFFFFFFFFFF AND PUSH20 0xFFFFFFFFFFFFFFFFFFFFFFFFFFFFFFFFFFFFFFFF AND DUP2 MSTORE PUSH1 0x20 ADD SWAP1 DUP2 MSTORE PUSH1 0x20 ADD PUSH1 0x0 KECCAK256 PUSH1 0x0 ADD PUSH1 0x0 PUSH2 0x100 EXP DUP2 SLOAD DUP2 PUSH20 0xFFFFFFFFFFFFFFFFFFFFFFFFFFFFFFFFFFFFFFFF MUL NOT AND SWAP1 DUP4 PUSH20 0xFFFFFFFFFFFFFFFFFFFFFFFFFFFFFFFFFFFFFFFF AND MUL OR SWAP1 SSTORE POP CALLVALUE PUSH1 0x0 DUP1 CALLER PUSH20 0xFFFFFFFFFFFFFFFFFFFFFFFFFFFFFFFFFFFFFFFF AND PUSH20 0xFFFFFFFFFFFFFFFFFFFFFFFFFFFFFFFFFFFFFFFF AND DUP2 MSTORE PUSH1 0x20 ADD SWAP1 DUP2 MSTORE PUSH1 0x20 ADD PUSH1 0x0 KECCAK256 PUSH1 0x2 ADD DUP2 SWAP1 SSTORE POP TIMESTAMP PUSH1 0x0 DUP1 CALLER PUSH20 0xFFFFFFFFFFFFFFFFFFFFFFFFFFFFFFFFFFFFFFFF AND PUSH20 0xFFFFFFFFFFFFFFFFFFFFFFFFFFFFFFFFFFFFFFFF AND DUP2 MSTORE PUSH1 0x20 ADD SWAP1 DUP2 MSTORE PUSH1 0x20 ADD PUSH1 0x0 KECCAK256 PUSH1 0x1 ADD DUP2 SWAP1 SSTORE POP PUSH32 0x2F8A6EC2D4B44B9EB188E85756710017B4B7D1D8C493867F691BF6046F05FA2E CALLER CALLVALUE TIMESTAMP PUSH1 0x40 MLOAD PUSH2 0x24B SWAP4 SWAP3 SWAP2 SWAP1 PUSH2 0x2D8 JUMP JUMPDEST PUSH1 0x40 MLOAD DUP1 SWAP2 SUB SWAP1 LOG1 JUMP JUMPDEST PUSH1 0x0 DUP2 CALLDATALOAD SWAP1 POP PUSH2 0x264 DUP2 PUSH2 0x3AA JUMP JUMPDEST SWAP3 SWAP2 POP POP JUMP JUMPDEST PUSH1 0x0 PUSH1 0x20 DUP3 DUP5 SUB SLT ISZERO PUSH2 0x280 JUMPI PUSH2 0x27F PUSH2 0x37C JUMP JUMPDEST JUMPDEST PUSH1 0x0 PUSH2 0x28E DUP5 DUP3 DUP6 ADD PUSH2 0x255 JUMP JUMPDEST SWAP2 POP POP SWAP3 SWAP2 POP POP JUMP JUMPDEST PUSH2 0x2A0 DUP2 PUSH2 0x340 JUMP JUMPDEST DUP3 MSTORE POP POP JUMP JUMPDEST PUSH1 0x0 PUSH2 0x2B3 PUSH1 0x1F DUP4 PUSH2 0x32F JUMP JUMPDEST SWAP2 POP PUSH2 0x2BE DUP3 PUSH2 0x381 JUMP JUMPDEST PUSH1 0x20 DUP3 ADD SWAP1 POP SWAP2 SWAP1 POP JUMP JUMPDEST PUSH2 0x2D2 DUP2 PUSH2 0x372 JUMP JUMPDEST DUP3 MSTORE POP POP JUMP JUMPDEST PUSH1 0x0 PUSH1 0x60 DUP3 ADD SWAP1 POP PUSH2 0x2ED PUSH1 0x0 DUP4 ADD DUP7 PUSH2 0x297 JUMP JUMPDEST PUSH2 0x2FA PUSH1 0x20 DUP4 ADD DUP6 PUSH2 0x2C9 JUMP JUMPDEST PUSH2 0x307 PUSH1 0x40 DUP4 ADD DUP5 PUSH2 0x2C9 JUMP JUMPDEST SWAP5 SWAP4 POP POP POP POP JUMP JUMPDEST PUSH1 0x0 PUSH1 0x20 DUP3 ADD SWAP1 POP DUP2 DUP2 SUB PUSH1 0x0 DUP4 ADD MSTORE PUSH2 0x328 DUP2 PUSH2 0x2A6 JUMP JUMPDEST SWAP1 POP SWAP2 SWAP1 POP JUMP JUMPDEST PUSH1 0x0 DUP3 DUP3 MSTORE PUSH1 0x20 DUP3 ADD SWAP1 POP SWAP3 SWAP2 POP POP JUMP JUMPDEST PUSH1 0x0 PUSH2 0x34B DUP3 PUSH2 0x352 JUMP JUMPDEST SWAP1 POP SWAP2 SWAP1 POP JUMP JUMPDEST PUSH1 0x0 PUSH20 0xFFFFFFFFFFFFFFFFFFFFFFFFFFFFFFFFFFFFFFFF DUP3 AND SWAP1 POP SWAP2 SWAP1 POP JUMP JUMPDEST PUSH1 0x0 DUP2 SWAP1 POP SWAP2 SWAP1 POP JUMP JUMPDEST PUSH1 0x0 DUP1 REVERT JUMPDEST PUSH32 0x646F65736E277420666F6C6C6F77206D696E696D756D20637269746572616900 PUSH1 0x0 DUP3 ADD MSTORE POP JUMP JUMPDEST PUSH2 0x3B3 DUP2 PUSH2 0x340 JUMP JUMPDEST DUP2 EQ PUSH2 0x3BE JUMPI PUSH1 0x0 DUP1 REVERT JUMPDEST POP JUMP INVALID LOG2 PUSH5 0x6970667358 0x22 SLT KECCAK256 DUP2 0xB9 0xB4 0x21 POP RETURNDATASIZE 0xAB 0xCC MSTORE SELFDESTRUCT 0xBF TIMESTAMP 0xB1 SWAP2 DUP6 LT 0xE1 SWAP2 SIGNEXTEND DUP11 0xAE PUSH7 0x84D58C0FF3320D SELFBALANCE DUP1 0x4D PUSH5 0x736F6C6343 STOP ADDMOD SMOD STOP CALLER "
				},
				"gasEstimates": {
					"creation": {
						"codeDepositCost": "203000",
						"executionCost": "245",
						"totalCost": "203245"
					},
					"external": {
						"accountCreated()": "infinite",
						"bankDatabase(address)": "infinite"
					}
				},
				"methodIdentifiers": {
					"accountCreated()": "fa209fea",
					"bankDatabase(address)": "70fb9196"
				}
			},
			"storageLayout": {
				"storage": [
					{
						"astId": 13,
						"contract": "contracts/Bank2.sol:Bank",
						"label": "bankDatabase",
						"offset": 0,
						"slot": "0",
						"type": "t_mapping(t_address,t_struct(User)8_storage)"
					}
				],
				"types": {
					"t_address": {
						"encoding": "inplace",
						"label": "address",
						"numberOfBytes": "20"
					},
					"t_mapping(t_address,t_struct(User)8_storage)": {
						"encoding": "mapping",
						"key": "t_address",
						"label": "mapping(address => struct Bank.User)",
						"numberOfBytes": "32",
						"value": "t_struct(User)8_storage"
					},
					"t_struct(User)8_storage": {
						"encoding": "inplace",
						"label": "struct Bank.User",
						"members": [
							{
								"astId": 3,
								"contract": "contracts/Bank2.sol:Bank",
								"label": "owner",
								"offset": 0,
								"slot": "0",
								"type": "t_address"
							},
							{
								"astId": 5,
								"contract": "contracts/Bank2.sol:Bank",
								"label": "timecreated",
								"offset": 0,
								"slot": "1",
								"type": "t_uint256"
							},
							{
								"astId": 7,
								"contract": "contracts/Bank2.sol:Bank",
								"label": "balance",
								"offset": 0,
								"slot": "2",
								"type": "t_uint256"
							}
						],
						"numberOfBytes": "96"
					},
					"t_uint256": {
						"encoding": "inplace",
						"label": "uint256",
						"numberOfBytes": "32"
					}
				}
			},
			"userdoc": {
				"kind": "user",
				"methods": {},
				"version": 1
			}
		}
	}
}