{
	"contracts/LaxmiChitFund.sol": {
		"LaxmichitFundBank": {
			"abi": [
				{
					"inputs": [],
					"name": "_id",
					"outputs": [
						{
							"internalType": "uint256",
							"name": "",
							"type": "uint256"
						}
					],
					"stateMutability": "view",
					"type": "function"
				},
				{
					"inputs": [
						{
							"internalType": "string",
							"name": "_name",
							"type": "string"
						},
						{
							"internalType": "uint256",
							"name": "_balance",
							"type": "uint256"
						}
					],
					"name": "createAccount",
					"outputs": [],
					"stateMutability": "nonpayable",
					"type": "function"
				},
				{
					"inputs": [
						{
							"internalType": "uint256",
							"name": "id",
							"type": "uint256"
						},
						{
							"internalType": "uint256",
							"name": "depositedMoney",
							"type": "uint256"
						}
					],
					"name": "depositMoney",
					"outputs": [],
					"stateMutability": "nonpayable",
					"type": "function"
				},
				{
					"inputs": [
						{
							"internalType": "uint256",
							"name": "senderId",
							"type": "uint256"
						},
						{
							"internalType": "uint256",
							"name": "money",
							"type": "uint256"
						},
						{
							"internalType": "uint256",
							"name": "reciverId",
							"type": "uint256"
						}
					],
					"name": "transfarmoney",
					"outputs": [],
					"stateMutability": "nonpayable",
					"type": "function"
				},
				{
					"inputs": [
						{
							"internalType": "uint256",
							"name": "",
							"type": "uint256"
						}
					],
					"name": "userDatabase",
					"outputs": [
						{
							"internalType": "uint256",
							"name": "id",
							"type": "uint256"
						},
						{
							"internalType": "string",
							"name": "name",
							"type": "string"
						},
						{
							"internalType": "uint256",
							"name": "balance",
							"type": "uint256"
						}
					],
					"stateMutability": "view",
					"type": "function"
				}
			],
			"devdoc": {
				"kind": "dev",
				"methods": {},
				"version": 1
			},
			"evm": {
				"assembly": "    /* \"contracts/LaxmiChitFund.sol\":67:663  contract LaxmichitFundBank{\r... */\n  mstore(0x40, 0x80)\n    /* \"contracts/LaxmiChitFund.sol\":209:210  1 */\n  0x01\n    /* \"contracts/LaxmiChitFund.sol\":193:210  uint public _id=1 */\n  dup1\n  sstore\n    /* \"contracts/LaxmiChitFund.sol\":67:663  contract LaxmichitFundBank{\r... */\n  callvalue\n  dup1\n  iszero\n  tag_1\n  jumpi\n  0x00\n  dup1\n  revert\ntag_1:\n  pop\n  dataSize(sub_0)\n  dup1\n  dataOffset(sub_0)\n  0x00\n  codecopy\n  0x00\n  return\nstop\n\nsub_0: assembly {\n        /* \"contracts/LaxmiChitFund.sol\":67:663  contract LaxmichitFundBank{\r... */\n      mstore(0x40, 0x80)\n      callvalue\n      dup1\n      iszero\n      tag_1\n      jumpi\n      0x00\n      dup1\n      revert\n    tag_1:\n      pop\n      jumpi(tag_2, lt(calldatasize, 0x04))\n      shr(0xe0, calldataload(0x00))\n      dup1\n      0x05180237\n      eq\n      tag_3\n      jumpi\n      dup1\n      0x36828b3c\n      eq\n      tag_4\n      jumpi\n      dup1\n      0x6586ace6\n      eq\n      tag_5\n      jumpi\n      dup1\n      0x94111360\n      eq\n      tag_6\n      jumpi\n      dup1\n      0xd0e1375c\n      eq\n      tag_7\n      jumpi\n    tag_2:\n      0x00\n      dup1\n      revert\n        /* \"contracts/LaxmiChitFund.sol\":193:210  uint public _id=1 */\n    tag_3:\n      tag_8\n      tag_9\n      jump\t// in\n    tag_8:\n      mload(0x40)\n      tag_10\n      swap2\n      swap1\n      tag_11\n      jump\t// in\n    tag_10:\n      mload(0x40)\n      dup1\n      swap2\n      sub\n      swap1\n      return\n        /* \"contracts/LaxmiChitFund.sol\":390:499  function depositMoney(uint id, uint depositedMoney )public{\r... */\n    tag_4:\n      tag_12\n      0x04\n      dup1\n      calldatasize\n      sub\n      dup2\n      add\n      swap1\n      tag_13\n      swap2\n      swap1\n      tag_14\n      jump\t// in\n    tag_13:\n      tag_15\n      jump\t// in\n    tag_12:\n      stop\n        /* \"contracts/LaxmiChitFund.sol\":213:388  function createAccount(string memory _name,uint _balance )public{\r... */\n    tag_5:\n      tag_16\n      0x04\n      dup1\n      calldatasize\n      sub\n      dup2\n      add\n      swap1\n      tag_17\n      swap2\n      swap1\n      tag_18\n      jump\t// in\n    tag_17:\n      tag_19\n      jump\t// in\n    tag_16:\n      stop\n        /* \"contracts/LaxmiChitFund.sol\":152:190  mapping(uint=>User)public userDatabase */\n    tag_6:\n      tag_20\n      0x04\n      dup1\n      calldatasize\n      sub\n      dup2\n      add\n      swap1\n      tag_21\n      swap2\n      swap1\n      tag_22\n      jump\t// in\n    tag_21:\n      tag_23\n      jump\t// in\n    tag_20:\n      mload(0x40)\n      tag_24\n      swap4\n      swap3\n      swap2\n      swap1\n      tag_25\n      jump\t// in\n    tag_24:\n      mload(0x40)\n      dup1\n      swap2\n      sub\n      swap1\n      return\n        /* \"contracts/LaxmiChitFund.sol\":501:658  function transfarmoney(uint senderId,uint money,uint reciverId)public {\r... */\n    tag_7:\n      tag_26\n      0x04\n      dup1\n      calldatasize\n      sub\n      dup2\n      add\n      swap1\n      tag_27\n      swap2\n      swap1\n      tag_28\n      jump\t// in\n    tag_27:\n      tag_29\n      jump\t// in\n    tag_26:\n      stop\n        /* \"contracts/LaxmiChitFund.sol\":193:210  uint public _id=1 */\n    tag_9:\n      sload(0x01)\n      dup2\n      jump\t// out\n        /* \"contracts/LaxmiChitFund.sol\":390:499  function depositMoney(uint id, uint depositedMoney )public{\r... */\n    tag_15:\n        /* \"contracts/LaxmiChitFund.sol\":480:494  depositedMoney */\n      dup1\n        /* \"contracts/LaxmiChitFund.sol\":454:466  userDatabase */\n      0x00\n        /* \"contracts/LaxmiChitFund.sol\":454:470  userDatabase[id] */\n      dup1\n        /* \"contracts/LaxmiChitFund.sol\":467:469  id */\n      dup5\n        /* \"contracts/LaxmiChitFund.sol\":454:470  userDatabase[id] */\n      dup2\n      mstore\n      0x20\n      add\n      swap1\n      dup2\n      mstore\n      0x20\n      add\n      0x00\n      keccak256\n        /* \"contracts/LaxmiChitFund.sol\":454:478  userDatabase[id].balance */\n      0x02\n      add\n      0x00\n        /* \"contracts/LaxmiChitFund.sol\":454:494  userDatabase[id].balance+=depositedMoney */\n      dup3\n      dup3\n      sload\n      tag_31\n      swap2\n      swap1\n      tag_32\n      jump\t// in\n    tag_31:\n      swap3\n      pop\n      pop\n      dup2\n      swap1\n      sstore\n      pop\n        /* \"contracts/LaxmiChitFund.sol\":390:499  function depositMoney(uint id, uint depositedMoney )public{\r... */\n      pop\n      pop\n      jump\t// out\n        /* \"contracts/LaxmiChitFund.sol\":213:388  function createAccount(string memory _name,uint _balance )public{\r... */\n    tag_19:\n        /* \"contracts/LaxmiChitFund.sol\":301:304  _id */\n      sload(0x01)\n        /* \"contracts/LaxmiChitFund.sol\":280:292  userDatabase */\n      0x00\n        /* \"contracts/LaxmiChitFund.sol\":280:297  userDatabase[_id] */\n      dup1\n        /* \"contracts/LaxmiChitFund.sol\":293:296  _id */\n      sload(0x01)\n        /* \"contracts/LaxmiChitFund.sol\":280:297  userDatabase[_id] */\n      dup2\n      mstore\n      0x20\n      add\n      swap1\n      dup2\n      mstore\n      0x20\n      add\n      0x00\n      keccak256\n        /* \"contracts/LaxmiChitFund.sol\":280:300  userDatabase[_id].id */\n      0x00\n      add\n        /* \"contracts/LaxmiChitFund.sol\":280:304  userDatabase[_id].id=_id */\n      dup2\n      swap1\n      sstore\n      pop\n        /* \"contracts/LaxmiChitFund.sol\":330:335  _name */\n      dup2\n        /* \"contracts/LaxmiChitFund.sol\":307:319  userDatabase */\n      0x00\n        /* \"contracts/LaxmiChitFund.sol\":307:324  userDatabase[_id] */\n      dup1\n        /* \"contracts/LaxmiChitFund.sol\":320:323  _id */\n      sload(0x01)\n        /* \"contracts/LaxmiChitFund.sol\":307:324  userDatabase[_id] */\n      dup2\n      mstore\n      0x20\n      add\n      swap1\n      dup2\n      mstore\n      0x20\n      add\n      0x00\n      keccak256\n        /* \"contracts/LaxmiChitFund.sol\":307:329  userDatabase[_id].name */\n      0x01\n      add\n        /* \"contracts/LaxmiChitFund.sol\":307:335  userDatabase[_id].name=_name */\n      swap1\n      dup1\n      mload\n      swap1\n      0x20\n      add\n      swap1\n      tag_34\n      swap3\n      swap2\n      swap1\n      tag_35\n      jump\t// in\n    tag_34:\n      pop\n        /* \"contracts/LaxmiChitFund.sol\":364:372  _balance */\n      dup1\n        /* \"contracts/LaxmiChitFund.sol\":338:350  userDatabase */\n      0x00\n        /* \"contracts/LaxmiChitFund.sol\":338:355  userDatabase[_id] */\n      dup1\n        /* \"contracts/LaxmiChitFund.sol\":351:354  _id */\n      sload(0x01)\n        /* \"contracts/LaxmiChitFund.sol\":338:355  userDatabase[_id] */\n      dup2\n      mstore\n      0x20\n      add\n      swap1\n      dup2\n      mstore\n      0x20\n      add\n      0x00\n      keccak256\n        /* \"contracts/LaxmiChitFund.sol\":338:363  userDatabase[_id].balance */\n      0x02\n      add\n        /* \"contracts/LaxmiChitFund.sol\":338:372  userDatabase[_id].balance=_balance */\n      dup2\n      swap1\n      sstore\n      pop\n        /* \"contracts/LaxmiChitFund.sol\":383:384  1 */\n      0x01\n        /* \"contracts/LaxmiChitFund.sol\":379:382  _id */\n      dup1\n      sload\n        /* \"contracts/LaxmiChitFund.sol\":379:384  _id+1 */\n      tag_36\n      swap2\n      swap1\n      tag_32\n      jump\t// in\n    tag_36:\n        /* \"contracts/LaxmiChitFund.sol\":375:378  _id */\n      0x01\n        /* \"contracts/LaxmiChitFund.sol\":375:384  _id=_id+1 */\n      dup2\n      swap1\n      sstore\n      pop\n        /* \"contracts/LaxmiChitFund.sol\":213:388  function createAccount(string memory _name,uint _balance )public{\r... */\n      pop\n      pop\n      jump\t// out\n        /* \"contracts/LaxmiChitFund.sol\":152:190  mapping(uint=>User)public userDatabase */\n    tag_23:\n      mstore(0x20, 0x00)\n      dup1\n      0x00\n      mstore\n      keccak256(0x00, 0x40)\n      0x00\n      swap2\n      pop\n      swap1\n      pop\n      dup1\n      0x00\n      add\n      sload\n      swap1\n      dup1\n      0x01\n      add\n      dup1\n      sload\n      tag_37\n      swap1\n      tag_38\n      jump\t// in\n    tag_37:\n      dup1\n      0x1f\n      add\n      0x20\n      dup1\n      swap2\n      div\n      mul\n      0x20\n      add\n      mload(0x40)\n      swap1\n      dup2\n      add\n      0x40\n      mstore\n      dup1\n      swap3\n      swap2\n      swap1\n      dup2\n      dup2\n      mstore\n      0x20\n      add\n      dup3\n      dup1\n      sload\n      tag_39\n      swap1\n      tag_38\n      jump\t// in\n    tag_39:\n      dup1\n      iszero\n      tag_40\n      jumpi\n      dup1\n      0x1f\n      lt\n      tag_41\n      jumpi\n      0x0100\n      dup1\n      dup4\n      sload\n      div\n      mul\n      dup4\n      mstore\n      swap2\n      0x20\n      add\n      swap2\n      jump(tag_40)\n    tag_41:\n      dup3\n      add\n      swap2\n      swap1\n      0x00\n      mstore\n      keccak256(0x00, 0x20)\n      swap1\n    tag_42:\n      dup2\n      sload\n      dup2\n      mstore\n      swap1\n      0x01\n      add\n      swap1\n      0x20\n      add\n      dup1\n      dup4\n      gt\n      tag_42\n      jumpi\n      dup3\n      swap1\n      sub\n      0x1f\n      and\n      dup3\n      add\n      swap2\n    tag_40:\n      pop\n      pop\n      pop\n      pop\n      pop\n      swap1\n      dup1\n      0x02\n      add\n      sload\n      swap1\n      pop\n      dup4\n      jump\t// out\n        /* \"contracts/LaxmiChitFund.sol\":501:658  function transfarmoney(uint senderId,uint money,uint reciverId)public {\r... */\n    tag_29:\n        /* \"contracts/LaxmiChitFund.sol\":607:612  money */\n      dup2\n        /* \"contracts/LaxmiChitFund.sol\":575:587  userDatabase */\n      0x00\n        /* \"contracts/LaxmiChitFund.sol\":575:597  userDatabase[senderId] */\n      dup1\n        /* \"contracts/LaxmiChitFund.sol\":588:596  senderId */\n      dup6\n        /* \"contracts/LaxmiChitFund.sol\":575:597  userDatabase[senderId] */\n      dup2\n      mstore\n      0x20\n      add\n      swap1\n      dup2\n      mstore\n      0x20\n      add\n      0x00\n      keccak256\n        /* \"contracts/LaxmiChitFund.sol\":575:605  userDatabase[senderId].balance */\n      0x02\n      add\n      0x00\n        /* \"contracts/LaxmiChitFund.sol\":575:612  userDatabase[senderId].balance-=money */\n      dup3\n      dup3\n      sload\n      tag_44\n      swap2\n      swap1\n      tag_45\n      jump\t// in\n    tag_44:\n      swap3\n      pop\n      pop\n      dup2\n      swap1\n      sstore\n      pop\n        /* \"contracts/LaxmiChitFund.sol\":649:654  money */\n      dup2\n        /* \"contracts/LaxmiChitFund.sol\":616:628  userDatabase */\n      0x00\n        /* \"contracts/LaxmiChitFund.sol\":616:639  userDatabase[reciverId] */\n      dup1\n        /* \"contracts/LaxmiChitFund.sol\":629:638  reciverId */\n      dup4\n        /* \"contracts/LaxmiChitFund.sol\":616:639  userDatabase[reciverId] */\n      dup2\n      mstore\n      0x20\n      add\n      swap1\n      dup2\n      mstore\n      0x20\n      add\n      0x00\n      keccak256\n        /* \"contracts/LaxmiChitFund.sol\":616:647  userDatabase[reciverId].balance */\n      0x02\n      add\n      0x00\n        /* \"contracts/LaxmiChitFund.sol\":616:654  userDatabase[reciverId].balance+=money */\n      dup3\n      dup3\n      sload\n      tag_46\n      swap2\n      swap1\n      tag_32\n      jump\t// in\n    tag_46:\n      swap3\n      pop\n      pop\n      dup2\n      swap1\n      sstore\n      pop\n        /* \"contracts/LaxmiChitFund.sol\":501:658  function transfarmoney(uint senderId,uint money,uint reciverId)public {\r... */\n      pop\n      pop\n      pop\n      jump\t// out\n    tag_35:\n      dup3\n      dup1\n      sload\n      tag_47\n      swap1\n      tag_38\n      jump\t// in\n    tag_47:\n      swap1\n      0x00\n      mstore\n      keccak256(0x00, 0x20)\n      swap1\n      0x1f\n      add\n      0x20\n      swap1\n      div\n      dup2\n      add\n      swap3\n      dup3\n      tag_49\n      jumpi\n      0x00\n      dup6\n      sstore\n      jump(tag_48)\n    tag_49:\n      dup3\n      0x1f\n      lt\n      tag_50\n      jumpi\n      dup1\n      mload\n      not(0xff)\n      and\n      dup4\n      dup1\n      add\n      or\n      dup6\n      sstore\n      jump(tag_48)\n    tag_50:\n      dup3\n      dup1\n      add\n      0x01\n      add\n      dup6\n      sstore\n      dup3\n      iszero\n      tag_48\n      jumpi\n      swap2\n      dup3\n      add\n    tag_51:\n      dup3\n      dup2\n      gt\n      iszero\n      tag_52\n      jumpi\n      dup3\n      mload\n      dup3\n      sstore\n      swap2\n      0x20\n      add\n      swap2\n      swap1\n      0x01\n      add\n      swap1\n      jump(tag_51)\n    tag_52:\n    tag_48:\n      pop\n      swap1\n      pop\n      tag_53\n      swap2\n      swap1\n      tag_54\n      jump\t// in\n    tag_53:\n      pop\n      swap1\n      jump\t// out\n    tag_54:\n    tag_55:\n      dup1\n      dup3\n      gt\n      iszero\n      tag_56\n      jumpi\n      0x00\n      dup2\n      0x00\n      swap1\n      sstore\n      pop\n      0x01\n      add\n      jump(tag_55)\n    tag_56:\n      pop\n      swap1\n      jump\t// out\n        /* \"#utility.yul\":7:419   */\n    tag_58:\n        /* \"#utility.yul\":85:90   */\n      0x00\n        /* \"#utility.yul\":110:176   */\n      tag_60\n        /* \"#utility.yul\":126:175   */\n      tag_61\n        /* \"#utility.yul\":168:174   */\n      dup5\n        /* \"#utility.yul\":126:175   */\n      tag_62\n      jump\t// in\n    tag_61:\n        /* \"#utility.yul\":110:176   */\n      tag_63\n      jump\t// in\n    tag_60:\n        /* \"#utility.yul\":101:176   */\n      swap1\n      pop\n        /* \"#utility.yul\":199:205   */\n      dup3\n        /* \"#utility.yul\":192:197   */\n      dup2\n        /* \"#utility.yul\":185:206   */\n      mstore\n        /* \"#utility.yul\":237:241   */\n      0x20\n        /* \"#utility.yul\":230:235   */\n      dup2\n        /* \"#utility.yul\":226:242   */\n      add\n        /* \"#utility.yul\":275:278   */\n      dup5\n        /* \"#utility.yul\":266:272   */\n      dup5\n        /* \"#utility.yul\":261:264   */\n      dup5\n        /* \"#utility.yul\":257:273   */\n      add\n        /* \"#utility.yul\":254:279   */\n      gt\n        /* \"#utility.yul\":251:363   */\n      iszero\n      tag_64\n      jumpi\n        /* \"#utility.yul\":282:361   */\n      tag_65\n      tag_66\n      jump\t// in\n    tag_65:\n        /* \"#utility.yul\":251:363   */\n    tag_64:\n        /* \"#utility.yul\":372:413   */\n      tag_67\n        /* \"#utility.yul\":406:412   */\n      dup5\n        /* \"#utility.yul\":401:404   */\n      dup3\n        /* \"#utility.yul\":396:399   */\n      dup6\n        /* \"#utility.yul\":372:413   */\n      tag_68\n      jump\t// in\n    tag_67:\n        /* \"#utility.yul\":91:419   */\n      pop\n        /* \"#utility.yul\":7:419   */\n      swap4\n      swap3\n      pop\n      pop\n      pop\n      jump\t// out\n        /* \"#utility.yul\":439:779   */\n    tag_69:\n        /* \"#utility.yul\":495:500   */\n      0x00\n        /* \"#utility.yul\":544:547   */\n      dup3\n        /* \"#utility.yul\":537:541   */\n      0x1f\n        /* \"#utility.yul\":529:535   */\n      dup4\n        /* \"#utility.yul\":525:542   */\n      add\n        /* \"#utility.yul\":521:548   */\n      slt\n        /* \"#utility.yul\":511:633   */\n      tag_71\n      jumpi\n        /* \"#utility.yul\":552:631   */\n      tag_72\n      tag_73\n      jump\t// in\n    tag_72:\n        /* \"#utility.yul\":511:633   */\n    tag_71:\n        /* \"#utility.yul\":669:675   */\n      dup2\n        /* \"#utility.yul\":656:676   */\n      calldataload\n        /* \"#utility.yul\":694:773   */\n      tag_74\n        /* \"#utility.yul\":769:772   */\n      dup5\n        /* \"#utility.yul\":761:767   */\n      dup3\n        /* \"#utility.yul\":754:758   */\n      0x20\n        /* \"#utility.yul\":746:752   */\n      dup7\n        /* \"#utility.yul\":742:759   */\n      add\n        /* \"#utility.yul\":694:773   */\n      tag_58\n      jump\t// in\n    tag_74:\n        /* \"#utility.yul\":685:773   */\n      swap2\n      pop\n        /* \"#utility.yul\":501:779   */\n      pop\n        /* \"#utility.yul\":439:779   */\n      swap3\n      swap2\n      pop\n      pop\n      jump\t// out\n        /* \"#utility.yul\":785:924   */\n    tag_75:\n        /* \"#utility.yul\":831:836   */\n      0x00\n        /* \"#utility.yul\":869:875   */\n      dup2\n        /* \"#utility.yul\":856:876   */\n      calldataload\n        /* \"#utility.yul\":847:876   */\n      swap1\n      pop\n        /* \"#utility.yul\":885:918   */\n      tag_77\n        /* \"#utility.yul\":912:917   */\n      dup2\n        /* \"#utility.yul\":885:918   */\n      tag_78\n      jump\t// in\n    tag_77:\n        /* \"#utility.yul\":785:924   */\n      swap3\n      swap2\n      pop\n      pop\n      jump\t// out\n        /* \"#utility.yul\":930:1584   */\n    tag_18:\n        /* \"#utility.yul\":1008:1014   */\n      0x00\n        /* \"#utility.yul\":1016:1022   */\n      dup1\n        /* \"#utility.yul\":1065:1067   */\n      0x40\n        /* \"#utility.yul\":1053:1062   */\n      dup4\n        /* \"#utility.yul\":1044:1051   */\n      dup6\n        /* \"#utility.yul\":1040:1063   */\n      sub\n        /* \"#utility.yul\":1036:1068   */\n      slt\n        /* \"#utility.yul\":1033:1152   */\n      iszero\n      tag_80\n      jumpi\n        /* \"#utility.yul\":1071:1150   */\n      tag_81\n      tag_82\n      jump\t// in\n    tag_81:\n        /* \"#utility.yul\":1033:1152   */\n    tag_80:\n        /* \"#utility.yul\":1219:1220   */\n      0x00\n        /* \"#utility.yul\":1208:1217   */\n      dup4\n        /* \"#utility.yul\":1204:1221   */\n      add\n        /* \"#utility.yul\":1191:1222   */\n      calldataload\n        /* \"#utility.yul\":1249:1267   */\n      0xffffffffffffffff\n        /* \"#utility.yul\":1241:1247   */\n      dup2\n        /* \"#utility.yul\":1238:1268   */\n      gt\n        /* \"#utility.yul\":1235:1352   */\n      iszero\n      tag_83\n      jumpi\n        /* \"#utility.yul\":1271:1350   */\n      tag_84\n      tag_85\n      jump\t// in\n    tag_84:\n        /* \"#utility.yul\":1235:1352   */\n    tag_83:\n        /* \"#utility.yul\":1376:1439   */\n      tag_86\n        /* \"#utility.yul\":1431:1438   */\n      dup6\n        /* \"#utility.yul\":1422:1428   */\n      dup3\n        /* \"#utility.yul\":1411:1420   */\n      dup7\n        /* \"#utility.yul\":1407:1429   */\n      add\n        /* \"#utility.yul\":1376:1439   */\n      tag_69\n      jump\t// in\n    tag_86:\n        /* \"#utility.yul\":1366:1439   */\n      swap3\n      pop\n        /* \"#utility.yul\":1162:1449   */\n      pop\n        /* \"#utility.yul\":1488:1490   */\n      0x20\n        /* \"#utility.yul\":1514:1567   */\n      tag_87\n        /* \"#utility.yul\":1559:1566   */\n      dup6\n        /* \"#utility.yul\":1550:1556   */\n      dup3\n        /* \"#utility.yul\":1539:1548   */\n      dup7\n        /* \"#utility.yul\":1535:1557   */\n      add\n        /* \"#utility.yul\":1514:1567   */\n      tag_75\n      jump\t// in\n    tag_87:\n        /* \"#utility.yul\":1504:1567   */\n      swap2\n      pop\n        /* \"#utility.yul\":1459:1577   */\n      pop\n        /* \"#utility.yul\":930:1584   */\n      swap3\n      pop\n      swap3\n      swap1\n      pop\n      jump\t// out\n        /* \"#utility.yul\":1590:1919   */\n    tag_22:\n        /* \"#utility.yul\":1649:1655   */\n      0x00\n        /* \"#utility.yul\":1698:1700   */\n      0x20\n        /* \"#utility.yul\":1686:1695   */\n      dup3\n        /* \"#utility.yul\":1677:1684   */\n      dup5\n        /* \"#utility.yul\":1673:1696   */\n      sub\n        /* \"#utility.yul\":1669:1701   */\n      slt\n        /* \"#utility.yul\":1666:1785   */\n      iszero\n      tag_89\n      jumpi\n        /* \"#utility.yul\":1704:1783   */\n      tag_90\n      tag_82\n      jump\t// in\n    tag_90:\n        /* \"#utility.yul\":1666:1785   */\n    tag_89:\n        /* \"#utility.yul\":1824:1825   */\n      0x00\n        /* \"#utility.yul\":1849:1902   */\n      tag_91\n        /* \"#utility.yul\":1894:1901   */\n      dup5\n        /* \"#utility.yul\":1885:1891   */\n      dup3\n        /* \"#utility.yul\":1874:1883   */\n      dup6\n        /* \"#utility.yul\":1870:1892   */\n      add\n        /* \"#utility.yul\":1849:1902   */\n      tag_75\n      jump\t// in\n    tag_91:\n        /* \"#utility.yul\":1839:1902   */\n      swap2\n      pop\n        /* \"#utility.yul\":1795:1912   */\n      pop\n        /* \"#utility.yul\":1590:1919   */\n      swap3\n      swap2\n      pop\n      pop\n      jump\t// out\n        /* \"#utility.yul\":1925:2399   */\n    tag_14:\n        /* \"#utility.yul\":1993:1999   */\n      0x00\n        /* \"#utility.yul\":2001:2007   */\n      dup1\n        /* \"#utility.yul\":2050:2052   */\n      0x40\n        /* \"#utility.yul\":2038:2047   */\n      dup4\n        /* \"#utility.yul\":2029:2036   */\n      dup6\n        /* \"#utility.yul\":2025:2048   */\n      sub\n        /* \"#utility.yul\":2021:2053   */\n      slt\n        /* \"#utility.yul\":2018:2137   */\n      iszero\n      tag_93\n      jumpi\n        /* \"#utility.yul\":2056:2135   */\n      tag_94\n      tag_82\n      jump\t// in\n    tag_94:\n        /* \"#utility.yul\":2018:2137   */\n    tag_93:\n        /* \"#utility.yul\":2176:2177   */\n      0x00\n        /* \"#utility.yul\":2201:2254   */\n      tag_95\n        /* \"#utility.yul\":2246:2253   */\n      dup6\n        /* \"#utility.yul\":2237:2243   */\n      dup3\n        /* \"#utility.yul\":2226:2235   */\n      dup7\n        /* \"#utility.yul\":2222:2244   */\n      add\n        /* \"#utility.yul\":2201:2254   */\n      tag_75\n      jump\t// in\n    tag_95:\n        /* \"#utility.yul\":2191:2254   */\n      swap3\n      pop\n        /* \"#utility.yul\":2147:2264   */\n      pop\n        /* \"#utility.yul\":2303:2305   */\n      0x20\n        /* \"#utility.yul\":2329:2382   */\n      tag_96\n        /* \"#utility.yul\":2374:2381   */\n      dup6\n        /* \"#utility.yul\":2365:2371   */\n      dup3\n        /* \"#utility.yul\":2354:2363   */\n      dup7\n        /* \"#utility.yul\":2350:2372   */\n      add\n        /* \"#utility.yul\":2329:2382   */\n      tag_75\n      jump\t// in\n    tag_96:\n        /* \"#utility.yul\":2319:2382   */\n      swap2\n      pop\n        /* \"#utility.yul\":2274:2392   */\n      pop\n        /* \"#utility.yul\":1925:2399   */\n      swap3\n      pop\n      swap3\n      swap1\n      pop\n      jump\t// out\n        /* \"#utility.yul\":2405:3024   */\n    tag_28:\n        /* \"#utility.yul\":2482:2488   */\n      0x00\n        /* \"#utility.yul\":2490:2496   */\n      dup1\n        /* \"#utility.yul\":2498:2504   */\n      0x00\n        /* \"#utility.yul\":2547:2549   */\n      0x60\n        /* \"#utility.yul\":2535:2544   */\n      dup5\n        /* \"#utility.yul\":2526:2533   */\n      dup7\n        /* \"#utility.yul\":2522:2545   */\n      sub\n        /* \"#utility.yul\":2518:2550   */\n      slt\n        /* \"#utility.yul\":2515:2634   */\n      iszero\n      tag_98\n      jumpi\n        /* \"#utility.yul\":2553:2632   */\n      tag_99\n      tag_82\n      jump\t// in\n    tag_99:\n        /* \"#utility.yul\":2515:2634   */\n    tag_98:\n        /* \"#utility.yul\":2673:2674   */\n      0x00\n        /* \"#utility.yul\":2698:2751   */\n      tag_100\n        /* \"#utility.yul\":2743:2750   */\n      dup7\n        /* \"#utility.yul\":2734:2740   */\n      dup3\n        /* \"#utility.yul\":2723:2732   */\n      dup8\n        /* \"#utility.yul\":2719:2741   */\n      add\n        /* \"#utility.yul\":2698:2751   */\n      tag_75\n      jump\t// in\n    tag_100:\n        /* \"#utility.yul\":2688:2751   */\n      swap4\n      pop\n        /* \"#utility.yul\":2644:2761   */\n      pop\n        /* \"#utility.yul\":2800:2802   */\n      0x20\n        /* \"#utility.yul\":2826:2879   */\n      tag_101\n        /* \"#utility.yul\":2871:2878   */\n      dup7\n        /* \"#utility.yul\":2862:2868   */\n      dup3\n        /* \"#utility.yul\":2851:2860   */\n      dup8\n        /* \"#utility.yul\":2847:2869   */\n      add\n        /* \"#utility.yul\":2826:2879   */\n      tag_75\n      jump\t// in\n    tag_101:\n        /* \"#utility.yul\":2816:2879   */\n      swap3\n      pop\n        /* \"#utility.yul\":2771:2889   */\n      pop\n        /* \"#utility.yul\":2928:2930   */\n      0x40\n        /* \"#utility.yul\":2954:3007   */\n      tag_102\n        /* \"#utility.yul\":2999:3006   */\n      dup7\n        /* \"#utility.yul\":2990:2996   */\n      dup3\n        /* \"#utility.yul\":2979:2988   */\n      dup8\n        /* \"#utility.yul\":2975:2997   */\n      add\n        /* \"#utility.yul\":2954:3007   */\n      tag_75\n      jump\t// in\n    tag_102:\n        /* \"#utility.yul\":2944:3007   */\n      swap2\n      pop\n        /* \"#utility.yul\":2899:3017   */\n      pop\n        /* \"#utility.yul\":2405:3024   */\n      swap3\n      pop\n      swap3\n      pop\n      swap3\n      jump\t// out\n        /* \"#utility.yul\":3030:3394   */\n    tag_103:\n        /* \"#utility.yul\":3118:3121   */\n      0x00\n        /* \"#utility.yul\":3146:3185   */\n      tag_105\n        /* \"#utility.yul\":3179:3184   */\n      dup3\n        /* \"#utility.yul\":3146:3185   */\n      tag_106\n      jump\t// in\n    tag_105:\n        /* \"#utility.yul\":3201:3272   */\n      tag_107\n        /* \"#utility.yul\":3265:3271   */\n      dup2\n        /* \"#utility.yul\":3260:3263   */\n      dup6\n        /* \"#utility.yul\":3201:3272   */\n      tag_108\n      jump\t// in\n    tag_107:\n        /* \"#utility.yul\":3194:3272   */\n      swap4\n      pop\n        /* \"#utility.yul\":3281:3333   */\n      tag_109\n        /* \"#utility.yul\":3326:3332   */\n      dup2\n        /* \"#utility.yul\":3321:3324   */\n      dup6\n        /* \"#utility.yul\":3314:3318   */\n      0x20\n        /* \"#utility.yul\":3307:3312   */\n      dup7\n        /* \"#utility.yul\":3303:3319   */\n      add\n        /* \"#utility.yul\":3281:3333   */\n      tag_110\n      jump\t// in\n    tag_109:\n        /* \"#utility.yul\":3358:3387   */\n      tag_111\n        /* \"#utility.yul\":3380:3386   */\n      dup2\n        /* \"#utility.yul\":3358:3387   */\n      tag_112\n      jump\t// in\n    tag_111:\n        /* \"#utility.yul\":3353:3356   */\n      dup5\n        /* \"#utility.yul\":3349:3388   */\n      add\n        /* \"#utility.yul\":3342:3388   */\n      swap2\n      pop\n        /* \"#utility.yul\":3122:3394   */\n      pop\n        /* \"#utility.yul\":3030:3394   */\n      swap3\n      swap2\n      pop\n      pop\n      jump\t// out\n        /* \"#utility.yul\":3400:3518   */\n    tag_113:\n        /* \"#utility.yul\":3487:3511   */\n      tag_115\n        /* \"#utility.yul\":3505:3510   */\n      dup2\n        /* \"#utility.yul\":3487:3511   */\n      tag_116\n      jump\t// in\n    tag_115:\n        /* \"#utility.yul\":3482:3485   */\n      dup3\n        /* \"#utility.yul\":3475:3512   */\n      mstore\n        /* \"#utility.yul\":3400:3518   */\n      pop\n      pop\n      jump\t// out\n        /* \"#utility.yul\":3524:3746   */\n    tag_11:\n        /* \"#utility.yul\":3617:3621   */\n      0x00\n        /* \"#utility.yul\":3655:3657   */\n      0x20\n        /* \"#utility.yul\":3644:3653   */\n      dup3\n        /* \"#utility.yul\":3640:3658   */\n      add\n        /* \"#utility.yul\":3632:3658   */\n      swap1\n      pop\n        /* \"#utility.yul\":3668:3739   */\n      tag_118\n        /* \"#utility.yul\":3736:3737   */\n      0x00\n        /* \"#utility.yul\":3725:3734   */\n      dup4\n        /* \"#utility.yul\":3721:3738   */\n      add\n        /* \"#utility.yul\":3712:3718   */\n      dup5\n        /* \"#utility.yul\":3668:3739   */\n      tag_113\n      jump\t// in\n    tag_118:\n        /* \"#utility.yul\":3524:3746   */\n      swap3\n      swap2\n      pop\n      pop\n      jump\t// out\n        /* \"#utility.yul\":3752:4285   */\n    tag_25:\n        /* \"#utility.yul\":3921:3925   */\n      0x00\n        /* \"#utility.yul\":3959:3961   */\n      0x60\n        /* \"#utility.yul\":3948:3957   */\n      dup3\n        /* \"#utility.yul\":3944:3962   */\n      add\n        /* \"#utility.yul\":3936:3962   */\n      swap1\n      pop\n        /* \"#utility.yul\":3972:4043   */\n      tag_120\n        /* \"#utility.yul\":4040:4041   */\n      0x00\n        /* \"#utility.yul\":4029:4038   */\n      dup4\n        /* \"#utility.yul\":4025:4042   */\n      add\n        /* \"#utility.yul\":4016:4022   */\n      dup7\n        /* \"#utility.yul\":3972:4043   */\n      tag_113\n      jump\t// in\n    tag_120:\n        /* \"#utility.yul\":4090:4099   */\n      dup2\n        /* \"#utility.yul\":4084:4088   */\n      dup2\n        /* \"#utility.yul\":4080:4100   */\n      sub\n        /* \"#utility.yul\":4075:4077   */\n      0x20\n        /* \"#utility.yul\":4064:4073   */\n      dup4\n        /* \"#utility.yul\":4060:4078   */\n      add\n        /* \"#utility.yul\":4053:4101   */\n      mstore\n        /* \"#utility.yul\":4118:4196   */\n      tag_121\n        /* \"#utility.yul\":4191:4195   */\n      dup2\n        /* \"#utility.yul\":4182:4188   */\n      dup6\n        /* \"#utility.yul\":4118:4196   */\n      tag_103\n      jump\t// in\n    tag_121:\n        /* \"#utility.yul\":4110:4196   */\n      swap1\n      pop\n        /* \"#utility.yul\":4206:4278   */\n      tag_122\n        /* \"#utility.yul\":4274:4276   */\n      0x40\n        /* \"#utility.yul\":4263:4272   */\n      dup4\n        /* \"#utility.yul\":4259:4277   */\n      add\n        /* \"#utility.yul\":4250:4256   */\n      dup5\n        /* \"#utility.yul\":4206:4278   */\n      tag_113\n      jump\t// in\n    tag_122:\n        /* \"#utility.yul\":3752:4285   */\n      swap5\n      swap4\n      pop\n      pop\n      pop\n      pop\n      jump\t// out\n        /* \"#utility.yul\":4291:4420   */\n    tag_63:\n        /* \"#utility.yul\":4325:4331   */\n      0x00\n        /* \"#utility.yul\":4352:4372   */\n      tag_124\n      tag_125\n      jump\t// in\n    tag_124:\n        /* \"#utility.yul\":4342:4372   */\n      swap1\n      pop\n        /* \"#utility.yul\":4381:4414   */\n      tag_126\n        /* \"#utility.yul\":4409:4413   */\n      dup3\n        /* \"#utility.yul\":4401:4407   */\n      dup3\n        /* \"#utility.yul\":4381:4414   */\n      tag_127\n      jump\t// in\n    tag_126:\n        /* \"#utility.yul\":4291:4420   */\n      swap2\n      swap1\n      pop\n      jump\t// out\n        /* \"#utility.yul\":4426:4501   */\n    tag_125:\n        /* \"#utility.yul\":4459:4465   */\n      0x00\n        /* \"#utility.yul\":4492:4494   */\n      0x40\n        /* \"#utility.yul\":4486:4495   */\n      mload\n        /* \"#utility.yul\":4476:4495   */\n      swap1\n      pop\n        /* \"#utility.yul\":4426:4501   */\n      swap1\n      jump\t// out\n        /* \"#utility.yul\":4507:4815   */\n    tag_62:\n        /* \"#utility.yul\":4569:4573   */\n      0x00\n        /* \"#utility.yul\":4659:4677   */\n      0xffffffffffffffff\n        /* \"#utility.yul\":4651:4657   */\n      dup3\n        /* \"#utility.yul\":4648:4678   */\n      gt\n        /* \"#utility.yul\":4645:4701   */\n      iszero\n      tag_130\n      jumpi\n        /* \"#utility.yul\":4681:4699   */\n      tag_131\n      tag_132\n      jump\t// in\n    tag_131:\n        /* \"#utility.yul\":4645:4701   */\n    tag_130:\n        /* \"#utility.yul\":4719:4748   */\n      tag_133\n        /* \"#utility.yul\":4741:4747   */\n      dup3\n        /* \"#utility.yul\":4719:4748   */\n      tag_112\n      jump\t// in\n    tag_133:\n        /* \"#utility.yul\":4711:4748   */\n      swap1\n      pop\n        /* \"#utility.yul\":4803:4807   */\n      0x20\n        /* \"#utility.yul\":4797:4801   */\n      dup2\n        /* \"#utility.yul\":4793:4808   */\n      add\n        /* \"#utility.yul\":4785:4808   */\n      swap1\n      pop\n        /* \"#utility.yul\":4507:4815   */\n      swap2\n      swap1\n      pop\n      jump\t// out\n        /* \"#utility.yul\":4821:4920   */\n    tag_106:\n        /* \"#utility.yul\":4873:4879   */\n      0x00\n        /* \"#utility.yul\":4907:4912   */\n      dup2\n        /* \"#utility.yul\":4901:4913   */\n      mload\n        /* \"#utility.yul\":4891:4913   */\n      swap1\n      pop\n        /* \"#utility.yul\":4821:4920   */\n      swap2\n      swap1\n      pop\n      jump\t// out\n        /* \"#utility.yul\":4926:5095   */\n    tag_108:\n        /* \"#utility.yul\":5010:5021   */\n      0x00\n        /* \"#utility.yul\":5044:5050   */\n      dup3\n        /* \"#utility.yul\":5039:5042   */\n      dup3\n        /* \"#utility.yul\":5032:5051   */\n      mstore\n        /* \"#utility.yul\":5084:5088   */\n      0x20\n        /* \"#utility.yul\":5079:5082   */\n      dup3\n        /* \"#utility.yul\":5075:5089   */\n      add\n        /* \"#utility.yul\":5060:5089   */\n      swap1\n      pop\n        /* \"#utility.yul\":4926:5095   */\n      swap3\n      swap2\n      pop\n      pop\n      jump\t// out\n        /* \"#utility.yul\":5101:5406   */\n    tag_32:\n        /* \"#utility.yul\":5141:5144   */\n      0x00\n        /* \"#utility.yul\":5160:5180   */\n      tag_137\n        /* \"#utility.yul\":5178:5179   */\n      dup3\n        /* \"#utility.yul\":5160:5180   */\n      tag_116\n      jump\t// in\n    tag_137:\n        /* \"#utility.yul\":5155:5180   */\n      swap2\n      pop\n        /* \"#utility.yul\":5194:5214   */\n      tag_138\n        /* \"#utility.yul\":5212:5213   */\n      dup4\n        /* \"#utility.yul\":5194:5214   */\n      tag_116\n      jump\t// in\n    tag_138:\n        /* \"#utility.yul\":5189:5214   */\n      swap3\n      pop\n        /* \"#utility.yul\":5348:5349   */\n      dup3\n        /* \"#utility.yul\":5280:5346   */\n      0xffffffffffffffffffffffffffffffffffffffffffffffffffffffffffffffff\n        /* \"#utility.yul\":5276:5350   */\n      sub\n        /* \"#utility.yul\":5273:5274   */\n      dup3\n        /* \"#utility.yul\":5270:5351   */\n      gt\n        /* \"#utility.yul\":5267:5374   */\n      iszero\n      tag_139\n      jumpi\n        /* \"#utility.yul\":5354:5372   */\n      tag_140\n      tag_141\n      jump\t// in\n    tag_140:\n        /* \"#utility.yul\":5267:5374   */\n    tag_139:\n        /* \"#utility.yul\":5398:5399   */\n      dup3\n        /* \"#utility.yul\":5395:5396   */\n      dup3\n        /* \"#utility.yul\":5391:5400   */\n      add\n        /* \"#utility.yul\":5384:5400   */\n      swap1\n      pop\n        /* \"#utility.yul\":5101:5406   */\n      swap3\n      swap2\n      pop\n      pop\n      jump\t// out\n        /* \"#utility.yul\":5412:5603   */\n    tag_45:\n        /* \"#utility.yul\":5452:5456   */\n      0x00\n        /* \"#utility.yul\":5472:5492   */\n      tag_143\n        /* \"#utility.yul\":5490:5491   */\n      dup3\n        /* \"#utility.yul\":5472:5492   */\n      tag_116\n      jump\t// in\n    tag_143:\n        /* \"#utility.yul\":5467:5492   */\n      swap2\n      pop\n        /* \"#utility.yul\":5506:5526   */\n      tag_144\n        /* \"#utility.yul\":5524:5525   */\n      dup4\n        /* \"#utility.yul\":5506:5526   */\n      tag_116\n      jump\t// in\n    tag_144:\n        /* \"#utility.yul\":5501:5526   */\n      swap3\n      pop\n        /* \"#utility.yul\":5545:5546   */\n      dup3\n        /* \"#utility.yul\":5542:5543   */\n      dup3\n        /* \"#utility.yul\":5539:5547   */\n      lt\n        /* \"#utility.yul\":5536:5570   */\n      iszero\n      tag_145\n      jumpi\n        /* \"#utility.yul\":5550:5568   */\n      tag_146\n      tag_141\n      jump\t// in\n    tag_146:\n        /* \"#utility.yul\":5536:5570   */\n    tag_145:\n        /* \"#utility.yul\":5595:5596   */\n      dup3\n        /* \"#utility.yul\":5592:5593   */\n      dup3\n        /* \"#utility.yul\":5588:5597   */\n      sub\n        /* \"#utility.yul\":5580:5597   */\n      swap1\n      pop\n        /* \"#utility.yul\":5412:5603   */\n      swap3\n      swap2\n      pop\n      pop\n      jump\t// out\n        /* \"#utility.yul\":5609:5686   */\n    tag_116:\n        /* \"#utility.yul\":5646:5653   */\n      0x00\n        /* \"#utility.yul\":5675:5680   */\n      dup2\n        /* \"#utility.yul\":5664:5680   */\n      swap1\n      pop\n        /* \"#utility.yul\":5609:5686   */\n      swap2\n      swap1\n      pop\n      jump\t// out\n        /* \"#utility.yul\":5692:5846   */\n    tag_68:\n        /* \"#utility.yul\":5776:5782   */\n      dup3\n        /* \"#utility.yul\":5771:5774   */\n      dup2\n        /* \"#utility.yul\":5766:5769   */\n      dup4\n        /* \"#utility.yul\":5753:5783   */\n      calldatacopy\n        /* \"#utility.yul\":5838:5839   */\n      0x00\n        /* \"#utility.yul\":5829:5835   */\n      dup4\n        /* \"#utility.yul\":5824:5827   */\n      dup4\n        /* \"#utility.yul\":5820:5836   */\n      add\n        /* \"#utility.yul\":5813:5840   */\n      mstore\n        /* \"#utility.yul\":5692:5846   */\n      pop\n      pop\n      pop\n      jump\t// out\n        /* \"#utility.yul\":5852:6159   */\n    tag_110:\n        /* \"#utility.yul\":5920:5921   */\n      0x00\n        /* \"#utility.yul\":5930:6043   */\n    tag_150:\n        /* \"#utility.yul\":5944:5950   */\n      dup4\n        /* \"#utility.yul\":5941:5942   */\n      dup2\n        /* \"#utility.yul\":5938:5951   */\n      lt\n        /* \"#utility.yul\":5930:6043   */\n      iszero\n      tag_152\n      jumpi\n        /* \"#utility.yul\":6029:6030   */\n      dup1\n        /* \"#utility.yul\":6024:6027   */\n      dup3\n        /* \"#utility.yul\":6020:6031   */\n      add\n        /* \"#utility.yul\":6014:6032   */\n      mload\n        /* \"#utility.yul\":6010:6011   */\n      dup2\n        /* \"#utility.yul\":6005:6008   */\n      dup5\n        /* \"#utility.yul\":6001:6012   */\n      add\n        /* \"#utility.yul\":5994:6033   */\n      mstore\n        /* \"#utility.yul\":5966:5968   */\n      0x20\n        /* \"#utility.yul\":5963:5964   */\n      dup2\n        /* \"#utility.yul\":5959:5969   */\n      add\n        /* \"#utility.yul\":5954:5969   */\n      swap1\n      pop\n        /* \"#utility.yul\":5930:6043   */\n      jump(tag_150)\n    tag_152:\n        /* \"#utility.yul\":6061:6067   */\n      dup4\n        /* \"#utility.yul\":6058:6059   */\n      dup2\n        /* \"#utility.yul\":6055:6068   */\n      gt\n        /* \"#utility.yul\":6052:6153   */\n      iszero\n      tag_153\n      jumpi\n        /* \"#utility.yul\":6141:6142   */\n      0x00\n        /* \"#utility.yul\":6132:6138   */\n      dup5\n        /* \"#utility.yul\":6127:6130   */\n      dup5\n        /* \"#utility.yul\":6123:6139   */\n      add\n        /* \"#utility.yul\":6116:6143   */\n      mstore\n        /* \"#utility.yul\":6052:6153   */\n    tag_153:\n        /* \"#utility.yul\":5901:6159   */\n      pop\n        /* \"#utility.yul\":5852:6159   */\n      pop\n      pop\n      pop\n      jump\t// out\n        /* \"#utility.yul\":6165:6485   */\n    tag_38:\n        /* \"#utility.yul\":6209:6215   */\n      0x00\n        /* \"#utility.yul\":6246:6247   */\n      0x02\n        /* \"#utility.yul\":6240:6244   */\n      dup3\n        /* \"#utility.yul\":6236:6248   */\n      div\n        /* \"#utility.yul\":6226:6248   */\n      swap1\n      pop\n        /* \"#utility.yul\":6293:6294   */\n      0x01\n        /* \"#utility.yul\":6287:6291   */\n      dup3\n        /* \"#utility.yul\":6283:6295   */\n      and\n        /* \"#utility.yul\":6314:6332   */\n      dup1\n        /* \"#utility.yul\":6304:6385   */\n      tag_155\n      jumpi\n        /* \"#utility.yul\":6370:6374   */\n      0x7f\n        /* \"#utility.yul\":6362:6368   */\n      dup3\n        /* \"#utility.yul\":6358:6375   */\n      and\n        /* \"#utility.yul\":6348:6375   */\n      swap2\n      pop\n        /* \"#utility.yul\":6304:6385   */\n    tag_155:\n        /* \"#utility.yul\":6432:6434   */\n      0x20\n        /* \"#utility.yul\":6424:6430   */\n      dup3\n        /* \"#utility.yul\":6421:6435   */\n      lt\n        /* \"#utility.yul\":6401:6419   */\n      dup2\n        /* \"#utility.yul\":6398:6436   */\n      eq\n        /* \"#utility.yul\":6395:6479   */\n      iszero\n      tag_156\n      jumpi\n        /* \"#utility.yul\":6451:6469   */\n      tag_157\n      tag_158\n      jump\t// in\n    tag_157:\n        /* \"#utility.yul\":6395:6479   */\n    tag_156:\n        /* \"#utility.yul\":6216:6485   */\n      pop\n        /* \"#utility.yul\":6165:6485   */\n      swap2\n      swap1\n      pop\n      jump\t// out\n        /* \"#utility.yul\":6491:6772   */\n    tag_127:\n        /* \"#utility.yul\":6574:6601   */\n      tag_160\n        /* \"#utility.yul\":6596:6600   */\n      dup3\n        /* \"#utility.yul\":6574:6601   */\n      tag_112\n      jump\t// in\n    tag_160:\n        /* \"#utility.yul\":6566:6572   */\n      dup2\n        /* \"#utility.yul\":6562:6602   */\n      add\n        /* \"#utility.yul\":6704:6710   */\n      dup2\n        /* \"#utility.yul\":6692:6702   */\n      dup2\n        /* \"#utility.yul\":6689:6711   */\n      lt\n        /* \"#utility.yul\":6668:6686   */\n      0xffffffffffffffff\n        /* \"#utility.yul\":6656:6666   */\n      dup3\n        /* \"#utility.yul\":6653:6687   */\n      gt\n        /* \"#utility.yul\":6650:6712   */\n      or\n        /* \"#utility.yul\":6647:6735   */\n      iszero\n      tag_161\n      jumpi\n        /* \"#utility.yul\":6715:6733   */\n      tag_162\n      tag_132\n      jump\t// in\n    tag_162:\n        /* \"#utility.yul\":6647:6735   */\n    tag_161:\n        /* \"#utility.yul\":6755:6765   */\n      dup1\n        /* \"#utility.yul\":6751:6753   */\n      0x40\n        /* \"#utility.yul\":6744:6766   */\n      mstore\n        /* \"#utility.yul\":6534:6772   */\n      pop\n        /* \"#utility.yul\":6491:6772   */\n      pop\n      pop\n      jump\t// out\n        /* \"#utility.yul\":6778:6958   */\n    tag_141:\n        /* \"#utility.yul\":6826:6903   */\n      0x4e487b7100000000000000000000000000000000000000000000000000000000\n        /* \"#utility.yul\":6823:6824   */\n      0x00\n        /* \"#utility.yul\":6816:6904   */\n      mstore\n        /* \"#utility.yul\":6923:6927   */\n      0x11\n        /* \"#utility.yul\":6920:6921   */\n      0x04\n        /* \"#utility.yul\":6913:6928   */\n      mstore\n        /* \"#utility.yul\":6947:6951   */\n      0x24\n        /* \"#utility.yul\":6944:6945   */\n      0x00\n        /* \"#utility.yul\":6937:6952   */\n      revert\n        /* \"#utility.yul\":6964:7144   */\n    tag_158:\n        /* \"#utility.yul\":7012:7089   */\n      0x4e487b7100000000000000000000000000000000000000000000000000000000\n        /* \"#utility.yul\":7009:7010   */\n      0x00\n        /* \"#utility.yul\":7002:7090   */\n      mstore\n        /* \"#utility.yul\":7109:7113   */\n      0x22\n        /* \"#utility.yul\":7106:7107   */\n      0x04\n        /* \"#utility.yul\":7099:7114   */\n      mstore\n        /* \"#utility.yul\":7133:7137   */\n      0x24\n        /* \"#utility.yul\":7130:7131   */\n      0x00\n        /* \"#utility.yul\":7123:7138   */\n      revert\n        /* \"#utility.yul\":7150:7330   */\n    tag_132:\n        /* \"#utility.yul\":7198:7275   */\n      0x4e487b7100000000000000000000000000000000000000000000000000000000\n        /* \"#utility.yul\":7195:7196   */\n      0x00\n        /* \"#utility.yul\":7188:7276   */\n      mstore\n        /* \"#utility.yul\":7295:7299   */\n      0x41\n        /* \"#utility.yul\":7292:7293   */\n      0x04\n        /* \"#utility.yul\":7285:7300   */\n      mstore\n        /* \"#utility.yul\":7319:7323   */\n      0x24\n        /* \"#utility.yul\":7316:7317   */\n      0x00\n        /* \"#utility.yul\":7309:7324   */\n      revert\n        /* \"#utility.yul\":7336:7453   */\n    tag_73:\n        /* \"#utility.yul\":7445:7446   */\n      0x00\n        /* \"#utility.yul\":7442:7443   */\n      dup1\n        /* \"#utility.yul\":7435:7447   */\n      revert\n        /* \"#utility.yul\":7459:7576   */\n    tag_66:\n        /* \"#utility.yul\":7568:7569   */\n      0x00\n        /* \"#utility.yul\":7565:7566   */\n      dup1\n        /* \"#utility.yul\":7558:7570   */\n      revert\n        /* \"#utility.yul\":7582:7699   */\n    tag_85:\n        /* \"#utility.yul\":7691:7692   */\n      0x00\n        /* \"#utility.yul\":7688:7689   */\n      dup1\n        /* \"#utility.yul\":7681:7693   */\n      revert\n        /* \"#utility.yul\":7705:7822   */\n    tag_82:\n        /* \"#utility.yul\":7814:7815   */\n      0x00\n        /* \"#utility.yul\":7811:7812   */\n      dup1\n        /* \"#utility.yul\":7804:7816   */\n      revert\n        /* \"#utility.yul\":7828:7930   */\n    tag_112:\n        /* \"#utility.yul\":7869:7875   */\n      0x00\n        /* \"#utility.yul\":7920:7922   */\n      0x1f\n        /* \"#utility.yul\":7916:7923   */\n      not\n        /* \"#utility.yul\":7911:7913   */\n      0x1f\n        /* \"#utility.yul\":7904:7909   */\n      dup4\n        /* \"#utility.yul\":7900:7914   */\n      add\n        /* \"#utility.yul\":7896:7924   */\n      and\n        /* \"#utility.yul\":7886:7924   */\n      swap1\n      pop\n        /* \"#utility.yul\":7828:7930   */\n      swap2\n      swap1\n      pop\n      jump\t// out\n        /* \"#utility.yul\":7936:8058   */\n    tag_78:\n        /* \"#utility.yul\":8009:8033   */\n      tag_172\n        /* \"#utility.yul\":8027:8032   */\n      dup2\n        /* \"#utility.yul\":8009:8033   */\n      tag_116\n      jump\t// in\n    tag_172:\n        /* \"#utility.yul\":8002:8007   */\n      dup2\n        /* \"#utility.yul\":7999:8034   */\n      eq\n        /* \"#utility.yul\":7989:8052   */\n      tag_173\n      jumpi\n        /* \"#utility.yul\":8048:8049   */\n      0x00\n        /* \"#utility.yul\":8045:8046   */\n      dup1\n        /* \"#utility.yul\":8038:8050   */\n      revert\n        /* \"#utility.yul\":7989:8052   */\n    tag_173:\n        /* \"#utility.yul\":7936:8058   */\n      pop\n      jump\t// out\n\n    auxdata: 0xa26469706673582212209e050d83891c6f1c8f0cfdaeed23e1f99ead17649091da6181d5b0dccc22932f64736f6c63430008070033\n}\n",
				"bytecode": {
					"linkReferences": {},
					"object": "60806040526001805534801561001457600080fd5b50610852806100246000396000f3fe608060405234801561001057600080fd5b50600436106100575760003560e01c8063051802371461005c57806336828b3c1461007a5780636586ace61461009657806394111360146100b2578063d0e1375c146100e4575b600080fd5b610064610100565b604051610071919061054f565b60405180910390f35b610094600480360381019061008f9190610474565b610106565b005b6100b060048036038101906100ab91906103eb565b610136565b005b6100cc60048036038101906100c79190610447565b6101b4565b6040516100db9392919061056a565b60405180910390f35b6100fe60048036038101906100f991906104b4565b610266565b005b60015481565b80600080848152602001908152602001600020600201600082825461012b919061061a565b925050819055505050565b600154600080600154815260200190815260200160002060000181905550816000806001548152602001908152602001600020600101908051906020019061017f9291906102c3565b5080600080600154815260200190815260200160002060020181905550600180546101aa919061061a565b6001819055505050565b60006020528060005260406000206000915090508060000154908060010180546101dd906106f0565b80601f0160208091040260200160405190810160405280929190818152602001828054610209906106f0565b80156102565780601f1061022b57610100808354040283529160200191610256565b820191906000526020600020905b81548152906001019060200180831161023957829003601f168201915b5050505050908060020154905083565b81600080858152602001908152602001600020600201600082825461028b9190610670565b925050819055508160008083815260200190815260200160002060020160008282546102b7919061061a565b92505081905550505050565b8280546102cf906106f0565b90600052602060002090601f0160209004810192826102f15760008555610338565b82601f1061030a57805160ff1916838001178555610338565b82800160010185558215610338579182015b8281111561033757825182559160200191906001019061031c565b5b5090506103459190610349565b5090565b5b8082111561036257600081600090555060010161034a565b5090565b6000610379610374846105cd565b6105a8565b905082815260208101848484011115610395576103946107e5565b5b6103a08482856106ae565b509392505050565b600082601f8301126103bd576103bc6107e0565b5b81356103cd848260208601610366565b91505092915050565b6000813590506103e581610805565b92915050565b60008060408385031215610402576104016107ef565b5b600083013567ffffffffffffffff8111156104205761041f6107ea565b5b61042c858286016103a8565b925050602061043d858286016103d6565b9150509250929050565b60006020828403121561045d5761045c6107ef565b5b600061046b848285016103d6565b91505092915050565b6000806040838503121561048b5761048a6107ef565b5b6000610499858286016103d6565b92505060206104aa858286016103d6565b9150509250929050565b6000806000606084860312156104cd576104cc6107ef565b5b60006104db868287016103d6565b93505060206104ec868287016103d6565b92505060406104fd868287016103d6565b9150509250925092565b6000610512826105fe565b61051c8185610609565b935061052c8185602086016106bd565b610535816107f4565b840191505092915050565b610549816106a4565b82525050565b60006020820190506105646000830184610540565b92915050565b600060608201905061057f6000830186610540565b81810360208301526105918185610507565b90506105a06040830184610540565b949350505050565b60006105b26105c3565b90506105be8282610722565b919050565b6000604051905090565b600067ffffffffffffffff8211156105e8576105e76107b1565b5b6105f1826107f4565b9050602081019050919050565b600081519050919050565b600082825260208201905092915050565b6000610625826106a4565b9150610630836106a4565b9250827fffffffffffffffffffffffffffffffffffffffffffffffffffffffffffffffff0382111561066557610664610753565b5b828201905092915050565b600061067b826106a4565b9150610686836106a4565b92508282101561069957610698610753565b5b828203905092915050565b6000819050919050565b82818337600083830152505050565b60005b838110156106db5780820151818401526020810190506106c0565b838111156106ea576000848401525b50505050565b6000600282049050600182168061070857607f821691505b6020821081141561071c5761071b610782565b5b50919050565b61072b826107f4565b810181811067ffffffffffffffff8211171561074a576107496107b1565b5b80604052505050565b7f4e487b7100000000000000000000000000000000000000000000000000000000600052601160045260246000fd5b7f4e487b7100000000000000000000000000000000000000000000000000000000600052602260045260246000fd5b7f4e487b7100000000000000000000000000000000000000000000000000000000600052604160045260246000fd5b600080fd5b600080fd5b600080fd5b600080fd5b6000601f19601f8301169050919050565b61080e816106a4565b811461081957600080fd5b5056fea26469706673582212209e050d83891c6f1c8f0cfdaeed23e1f99ead17649091da6181d5b0dccc22932f64736f6c63430008070033",
					"opcodes": "PUSH1 0x80 PUSH1 0x40 MSTORE PUSH1 0x1 DUP1 SSTORE CALLVALUE DUP1 ISZERO PUSH2 0x14 JUMPI PUSH1 0x0 DUP1 REVERT JUMPDEST POP PUSH2 0x852 DUP1 PUSH2 0x24 PUSH1 0x0 CODECOPY PUSH1 0x0 RETURN INVALID PUSH1 0x80 PUSH1 0x40 MSTORE CALLVALUE DUP1 ISZERO PUSH2 0x10 JUMPI PUSH1 0x0 DUP1 REVERT JUMPDEST POP PUSH1 0x4 CALLDATASIZE LT PUSH2 0x57 JUMPI PUSH1 0x0 CALLDATALOAD PUSH1 0xE0 SHR DUP1 PUSH4 0x5180237 EQ PUSH2 0x5C JUMPI DUP1 PUSH4 0x36828B3C EQ PUSH2 0x7A JUMPI DUP1 PUSH4 0x6586ACE6 EQ PUSH2 0x96 JUMPI DUP1 PUSH4 0x94111360 EQ PUSH2 0xB2 JUMPI DUP1 PUSH4 0xD0E1375C EQ PUSH2 0xE4 JUMPI JUMPDEST PUSH1 0x0 DUP1 REVERT JUMPDEST PUSH2 0x64 PUSH2 0x100 JUMP JUMPDEST PUSH1 0x40 MLOAD PUSH2 0x71 SWAP2 SWAP1 PUSH2 0x54F JUMP JUMPDEST PUSH1 0x40 MLOAD DUP1 SWAP2 SUB SWAP1 RETURN JUMPDEST PUSH2 0x94 PUSH1 0x4 DUP1 CALLDATASIZE SUB DUP2 ADD SWAP1 PUSH2 0x8F SWAP2 SWAP1 PUSH2 0x474 JUMP JUMPDEST PUSH2 0x106 JUMP JUMPDEST STOP JUMPDEST PUSH2 0xB0 PUSH1 0x4 DUP1 CALLDATASIZE SUB DUP2 ADD SWAP1 PUSH2 0xAB SWAP2 SWAP1 PUSH2 0x3EB JUMP JUMPDEST PUSH2 0x136 JUMP JUMPDEST STOP JUMPDEST PUSH2 0xCC PUSH1 0x4 DUP1 CALLDATASIZE SUB DUP2 ADD SWAP1 PUSH2 0xC7 SWAP2 SWAP1 PUSH2 0x447 JUMP JUMPDEST PUSH2 0x1B4 JUMP JUMPDEST PUSH1 0x40 MLOAD PUSH2 0xDB SWAP4 SWAP3 SWAP2 SWAP1 PUSH2 0x56A JUMP JUMPDEST PUSH1 0x40 MLOAD DUP1 SWAP2 SUB SWAP1 RETURN JUMPDEST PUSH2 0xFE PUSH1 0x4 DUP1 CALLDATASIZE SUB DUP2 ADD SWAP1 PUSH2 0xF9 SWAP2 SWAP1 PUSH2 0x4B4 JUMP JUMPDEST PUSH2 0x266 JUMP JUMPDEST STOP JUMPDEST PUSH1 0x1 SLOAD DUP2 JUMP JUMPDEST DUP1 PUSH1 0x0 DUP1 DUP5 DUP2 MSTORE PUSH1 0x20 ADD SWAP1 DUP2 MSTORE PUSH1 0x20 ADD PUSH1 0x0 KECCAK256 PUSH1 0x2 ADD PUSH1 0x0 DUP3 DUP3 SLOAD PUSH2 0x12B SWAP2 SWAP1 PUSH2 0x61A JUMP JUMPDEST SWAP3 POP POP DUP2 SWAP1 SSTORE POP POP POP JUMP JUMPDEST PUSH1 0x1 SLOAD PUSH1 0x0 DUP1 PUSH1 0x1 SLOAD DUP2 MSTORE PUSH1 0x20 ADD SWAP1 DUP2 MSTORE PUSH1 0x20 ADD PUSH1 0x0 KECCAK256 PUSH1 0x0 ADD DUP2 SWAP1 SSTORE POP DUP2 PUSH1 0x0 DUP1 PUSH1 0x1 SLOAD DUP2 MSTORE PUSH1 0x20 ADD SWAP1 DUP2 MSTORE PUSH1 0x20 ADD PUSH1 0x0 KECCAK256 PUSH1 0x1 ADD SWAP1 DUP1 MLOAD SWAP1 PUSH1 0x20 ADD SWAP1 PUSH2 0x17F SWAP3 SWAP2 SWAP1 PUSH2 0x2C3 JUMP JUMPDEST POP DUP1 PUSH1 0x0 DUP1 PUSH1 0x1 SLOAD DUP2 MSTORE PUSH1 0x20 ADD SWAP1 DUP2 MSTORE PUSH1 0x20 ADD PUSH1 0x0 KECCAK256 PUSH1 0x2 ADD DUP2 SWAP1 SSTORE POP PUSH1 0x1 DUP1 SLOAD PUSH2 0x1AA SWAP2 SWAP1 PUSH2 0x61A JUMP JUMPDEST PUSH1 0x1 DUP2 SWAP1 SSTORE POP POP POP JUMP JUMPDEST PUSH1 0x0 PUSH1 0x20 MSTORE DUP1 PUSH1 0x0 MSTORE PUSH1 0x40 PUSH1 0x0 KECCAK256 PUSH1 0x0 SWAP2 POP SWAP1 POP DUP1 PUSH1 0x0 ADD SLOAD SWAP1 DUP1 PUSH1 0x1 ADD DUP1 SLOAD PUSH2 0x1DD SWAP1 PUSH2 0x6F0 JUMP JUMPDEST DUP1 PUSH1 0x1F ADD PUSH1 0x20 DUP1 SWAP2 DIV MUL PUSH1 0x20 ADD PUSH1 0x40 MLOAD SWAP1 DUP2 ADD PUSH1 0x40 MSTORE DUP1 SWAP3 SWAP2 SWAP1 DUP2 DUP2 MSTORE PUSH1 0x20 ADD DUP3 DUP1 SLOAD PUSH2 0x209 SWAP1 PUSH2 0x6F0 JUMP JUMPDEST DUP1 ISZERO PUSH2 0x256 JUMPI DUP1 PUSH1 0x1F LT PUSH2 0x22B JUMPI PUSH2 0x100 DUP1 DUP4 SLOAD DIV MUL DUP4 MSTORE SWAP2 PUSH1 0x20 ADD SWAP2 PUSH2 0x256 JUMP JUMPDEST DUP3 ADD SWAP2 SWAP1 PUSH1 0x0 MSTORE PUSH1 0x20 PUSH1 0x0 KECCAK256 SWAP1 JUMPDEST DUP2 SLOAD DUP2 MSTORE SWAP1 PUSH1 0x1 ADD SWAP1 PUSH1 0x20 ADD DUP1 DUP4 GT PUSH2 0x239 JUMPI DUP3 SWAP1 SUB PUSH1 0x1F AND DUP3 ADD SWAP2 JUMPDEST POP POP POP POP POP SWAP1 DUP1 PUSH1 0x2 ADD SLOAD SWAP1 POP DUP4 JUMP JUMPDEST DUP2 PUSH1 0x0 DUP1 DUP6 DUP2 MSTORE PUSH1 0x20 ADD SWAP1 DUP2 MSTORE PUSH1 0x20 ADD PUSH1 0x0 KECCAK256 PUSH1 0x2 ADD PUSH1 0x0 DUP3 DUP3 SLOAD PUSH2 0x28B SWAP2 SWAP1 PUSH2 0x670 JUMP JUMPDEST SWAP3 POP POP DUP2 SWAP1 SSTORE POP DUP2 PUSH1 0x0 DUP1 DUP4 DUP2 MSTORE PUSH1 0x20 ADD SWAP1 DUP2 MSTORE PUSH1 0x20 ADD PUSH1 0x0 KECCAK256 PUSH1 0x2 ADD PUSH1 0x0 DUP3 DUP3 SLOAD PUSH2 0x2B7 SWAP2 SWAP1 PUSH2 0x61A JUMP JUMPDEST SWAP3 POP POP DUP2 SWAP1 SSTORE POP POP POP POP JUMP JUMPDEST DUP3 DUP1 SLOAD PUSH2 0x2CF SWAP1 PUSH2 0x6F0 JUMP JUMPDEST SWAP1 PUSH1 0x0 MSTORE PUSH1 0x20 PUSH1 0x0 KECCAK256 SWAP1 PUSH1 0x1F ADD PUSH1 0x20 SWAP1 DIV DUP2 ADD SWAP3 DUP3 PUSH2 0x2F1 JUMPI PUSH1 0x0 DUP6 SSTORE PUSH2 0x338 JUMP JUMPDEST DUP3 PUSH1 0x1F LT PUSH2 0x30A JUMPI DUP1 MLOAD PUSH1 0xFF NOT AND DUP4 DUP1 ADD OR DUP6 SSTORE PUSH2 0x338 JUMP JUMPDEST DUP3 DUP1 ADD PUSH1 0x1 ADD DUP6 SSTORE DUP3 ISZERO PUSH2 0x338 JUMPI SWAP2 DUP3 ADD JUMPDEST DUP3 DUP2 GT ISZERO PUSH2 0x337 JUMPI DUP3 MLOAD DUP3 SSTORE SWAP2 PUSH1 0x20 ADD SWAP2 SWAP1 PUSH1 0x1 ADD SWAP1 PUSH2 0x31C JUMP JUMPDEST JUMPDEST POP SWAP1 POP PUSH2 0x345 SWAP2 SWAP1 PUSH2 0x349 JUMP JUMPDEST POP SWAP1 JUMP JUMPDEST JUMPDEST DUP1 DUP3 GT ISZERO PUSH2 0x362 JUMPI PUSH1 0x0 DUP2 PUSH1 0x0 SWAP1 SSTORE POP PUSH1 0x1 ADD PUSH2 0x34A JUMP JUMPDEST POP SWAP1 JUMP JUMPDEST PUSH1 0x0 PUSH2 0x379 PUSH2 0x374 DUP5 PUSH2 0x5CD JUMP JUMPDEST PUSH2 0x5A8 JUMP JUMPDEST SWAP1 POP DUP3 DUP2 MSTORE PUSH1 0x20 DUP2 ADD DUP5 DUP5 DUP5 ADD GT ISZERO PUSH2 0x395 JUMPI PUSH2 0x394 PUSH2 0x7E5 JUMP JUMPDEST JUMPDEST PUSH2 0x3A0 DUP5 DUP3 DUP6 PUSH2 0x6AE JUMP JUMPDEST POP SWAP4 SWAP3 POP POP POP JUMP JUMPDEST PUSH1 0x0 DUP3 PUSH1 0x1F DUP4 ADD SLT PUSH2 0x3BD JUMPI PUSH2 0x3BC PUSH2 0x7E0 JUMP JUMPDEST JUMPDEST DUP2 CALLDATALOAD PUSH2 0x3CD DUP5 DUP3 PUSH1 0x20 DUP7 ADD PUSH2 0x366 JUMP JUMPDEST SWAP2 POP POP SWAP3 SWAP2 POP POP JUMP JUMPDEST PUSH1 0x0 DUP2 CALLDATALOAD SWAP1 POP PUSH2 0x3E5 DUP2 PUSH2 0x805 JUMP JUMPDEST SWAP3 SWAP2 POP POP JUMP JUMPDEST PUSH1 0x0 DUP1 PUSH1 0x40 DUP4 DUP6 SUB SLT ISZERO PUSH2 0x402 JUMPI PUSH2 0x401 PUSH2 0x7EF JUMP JUMPDEST JUMPDEST PUSH1 0x0 DUP4 ADD CALLDATALOAD PUSH8 0xFFFFFFFFFFFFFFFF DUP2 GT ISZERO PUSH2 0x420 JUMPI PUSH2 0x41F PUSH2 0x7EA JUMP JUMPDEST JUMPDEST PUSH2 0x42C DUP6 DUP3 DUP7 ADD PUSH2 0x3A8 JUMP JUMPDEST SWAP3 POP POP PUSH1 0x20 PUSH2 0x43D DUP6 DUP3 DUP7 ADD PUSH2 0x3D6 JUMP JUMPDEST SWAP2 POP POP SWAP3 POP SWAP3 SWAP1 POP JUMP JUMPDEST PUSH1 0x0 PUSH1 0x20 DUP3 DUP5 SUB SLT ISZERO PUSH2 0x45D JUMPI PUSH2 0x45C PUSH2 0x7EF JUMP JUMPDEST JUMPDEST PUSH1 0x0 PUSH2 0x46B DUP5 DUP3 DUP6 ADD PUSH2 0x3D6 JUMP JUMPDEST SWAP2 POP POP SWAP3 SWAP2 POP POP JUMP JUMPDEST PUSH1 0x0 DUP1 PUSH1 0x40 DUP4 DUP6 SUB SLT ISZERO PUSH2 0x48B JUMPI PUSH2 0x48A PUSH2 0x7EF JUMP JUMPDEST JUMPDEST PUSH1 0x0 PUSH2 0x499 DUP6 DUP3 DUP7 ADD PUSH2 0x3D6 JUMP JUMPDEST SWAP3 POP POP PUSH1 0x20 PUSH2 0x4AA DUP6 DUP3 DUP7 ADD PUSH2 0x3D6 JUMP JUMPDEST SWAP2 POP POP SWAP3 POP SWAP3 SWAP1 POP JUMP JUMPDEST PUSH1 0x0 DUP1 PUSH1 0x0 PUSH1 0x60 DUP5 DUP7 SUB SLT ISZERO PUSH2 0x4CD JUMPI PUSH2 0x4CC PUSH2 0x7EF JUMP JUMPDEST JUMPDEST PUSH1 0x0 PUSH2 0x4DB DUP7 DUP3 DUP8 ADD PUSH2 0x3D6 JUMP JUMPDEST SWAP4 POP POP PUSH1 0x20 PUSH2 0x4EC DUP7 DUP3 DUP8 ADD PUSH2 0x3D6 JUMP JUMPDEST SWAP3 POP POP PUSH1 0x40 PUSH2 0x4FD DUP7 DUP3 DUP8 ADD PUSH2 0x3D6 JUMP JUMPDEST SWAP2 POP POP SWAP3 POP SWAP3 POP SWAP3 JUMP JUMPDEST PUSH1 0x0 PUSH2 0x512 DUP3 PUSH2 0x5FE JUMP JUMPDEST PUSH2 0x51C DUP2 DUP6 PUSH2 0x609 JUMP JUMPDEST SWAP4 POP PUSH2 0x52C DUP2 DUP6 PUSH1 0x20 DUP7 ADD PUSH2 0x6BD JUMP JUMPDEST PUSH2 0x535 DUP2 PUSH2 0x7F4 JUMP JUMPDEST DUP5 ADD SWAP2 POP POP SWAP3 SWAP2 POP POP JUMP JUMPDEST PUSH2 0x549 DUP2 PUSH2 0x6A4 JUMP JUMPDEST DUP3 MSTORE POP POP JUMP JUMPDEST PUSH1 0x0 PUSH1 0x20 DUP3 ADD SWAP1 POP PUSH2 0x564 PUSH1 0x0 DUP4 ADD DUP5 PUSH2 0x540 JUMP JUMPDEST SWAP3 SWAP2 POP POP JUMP JUMPDEST PUSH1 0x0 PUSH1 0x60 DUP3 ADD SWAP1 POP PUSH2 0x57F PUSH1 0x0 DUP4 ADD DUP7 PUSH2 0x540 JUMP JUMPDEST DUP2 DUP2 SUB PUSH1 0x20 DUP4 ADD MSTORE PUSH2 0x591 DUP2 DUP6 PUSH2 0x507 JUMP JUMPDEST SWAP1 POP PUSH2 0x5A0 PUSH1 0x40 DUP4 ADD DUP5 PUSH2 0x540 JUMP JUMPDEST SWAP5 SWAP4 POP POP POP POP JUMP JUMPDEST PUSH1 0x0 PUSH2 0x5B2 PUSH2 0x5C3 JUMP JUMPDEST SWAP1 POP PUSH2 0x5BE DUP3 DUP3 PUSH2 0x722 JUMP JUMPDEST SWAP2 SWAP1 POP JUMP JUMPDEST PUSH1 0x0 PUSH1 0x40 MLOAD SWAP1 POP SWAP1 JUMP JUMPDEST PUSH1 0x0 PUSH8 0xFFFFFFFFFFFFFFFF DUP3 GT ISZERO PUSH2 0x5E8 JUMPI PUSH2 0x5E7 PUSH2 0x7B1 JUMP JUMPDEST JUMPDEST PUSH2 0x5F1 DUP3 PUSH2 0x7F4 JUMP JUMPDEST SWAP1 POP PUSH1 0x20 DUP2 ADD SWAP1 POP SWAP2 SWAP1 POP JUMP JUMPDEST PUSH1 0x0 DUP2 MLOAD SWAP1 POP SWAP2 SWAP1 POP JUMP JUMPDEST PUSH1 0x0 DUP3 DUP3 MSTORE PUSH1 0x20 DUP3 ADD SWAP1 POP SWAP3 SWAP2 POP POP JUMP JUMPDEST PUSH1 0x0 PUSH2 0x625 DUP3 PUSH2 0x6A4 JUMP JUMPDEST SWAP2 POP PUSH2 0x630 DUP4 PUSH2 0x6A4 JUMP JUMPDEST SWAP3 POP DUP3 PUSH32 0xFFFFFFFFFFFFFFFFFFFFFFFFFFFFFFFFFFFFFFFFFFFFFFFFFFFFFFFFFFFFFFFF SUB DUP3 GT ISZERO PUSH2 0x665 JUMPI PUSH2 0x664 PUSH2 0x753 JUMP JUMPDEST JUMPDEST DUP3 DUP3 ADD SWAP1 POP SWAP3 SWAP2 POP POP JUMP JUMPDEST PUSH1 0x0 PUSH2 0x67B DUP3 PUSH2 0x6A4 JUMP JUMPDEST SWAP2 POP PUSH2 0x686 DUP4 PUSH2 0x6A4 JUMP JUMPDEST SWAP3 POP DUP3 DUP3 LT ISZERO PUSH2 0x699 JUMPI PUSH2 0x698 PUSH2 0x753 JUMP JUMPDEST JUMPDEST DUP3 DUP3 SUB SWAP1 POP SWAP3 SWAP2 POP POP JUMP JUMPDEST PUSH1 0x0 DUP2 SWAP1 POP SWAP2 SWAP1 POP JUMP JUMPDEST DUP3 DUP2 DUP4 CALLDATACOPY PUSH1 0x0 DUP4 DUP4 ADD MSTORE POP POP POP JUMP JUMPDEST PUSH1 0x0 JUMPDEST DUP4 DUP2 LT ISZERO PUSH2 0x6DB JUMPI DUP1 DUP3 ADD MLOAD DUP2 DUP5 ADD MSTORE PUSH1 0x20 DUP2 ADD SWAP1 POP PUSH2 0x6C0 JUMP JUMPDEST DUP4 DUP2 GT ISZERO PUSH2 0x6EA JUMPI PUSH1 0x0 DUP5 DUP5 ADD MSTORE JUMPDEST POP POP POP POP JUMP JUMPDEST PUSH1 0x0 PUSH1 0x2 DUP3 DIV SWAP1 POP PUSH1 0x1 DUP3 AND DUP1 PUSH2 0x708 JUMPI PUSH1 0x7F DUP3 AND SWAP2 POP JUMPDEST PUSH1 0x20 DUP3 LT DUP2 EQ ISZERO PUSH2 0x71C JUMPI PUSH2 0x71B PUSH2 0x782 JUMP JUMPDEST JUMPDEST POP SWAP2 SWAP1 POP JUMP JUMPDEST PUSH2 0x72B DUP3 PUSH2 0x7F4 JUMP JUMPDEST DUP2 ADD DUP2 DUP2 LT PUSH8 0xFFFFFFFFFFFFFFFF DUP3 GT OR ISZERO PUSH2 0x74A JUMPI PUSH2 0x749 PUSH2 0x7B1 JUMP JUMPDEST JUMPDEST DUP1 PUSH1 0x40 MSTORE POP POP POP JUMP JUMPDEST PUSH32 0x4E487B7100000000000000000000000000000000000000000000000000000000 PUSH1 0x0 MSTORE PUSH1 0x11 PUSH1 0x4 MSTORE PUSH1 0x24 PUSH1 0x0 REVERT JUMPDEST PUSH32 0x4E487B7100000000000000000000000000000000000000000000000000000000 PUSH1 0x0 MSTORE PUSH1 0x22 PUSH1 0x4 MSTORE PUSH1 0x24 PUSH1 0x0 REVERT JUMPDEST PUSH32 0x4E487B7100000000000000000000000000000000000000000000000000000000 PUSH1 0x0 MSTORE PUSH1 0x41 PUSH1 0x4 MSTORE PUSH1 0x24 PUSH1 0x0 REVERT JUMPDEST PUSH1 0x0 DUP1 REVERT JUMPDEST PUSH1 0x0 DUP1 REVERT JUMPDEST PUSH1 0x0 DUP1 REVERT JUMPDEST PUSH1 0x0 DUP1 REVERT JUMPDEST PUSH1 0x0 PUSH1 0x1F NOT PUSH1 0x1F DUP4 ADD AND SWAP1 POP SWAP2 SWAP1 POP JUMP JUMPDEST PUSH2 0x80E DUP2 PUSH2 0x6A4 JUMP JUMPDEST DUP2 EQ PUSH2 0x819 JUMPI PUSH1 0x0 DUP1 REVERT JUMPDEST POP JUMP INVALID LOG2 PUSH5 0x6970667358 0x22 SLT KECCAK256 SWAP15 SDIV 0xD DUP4 DUP10 SHR PUSH16 0x1C8F0CFDAEED23E1F99EAD17649091DA PUSH2 0x81D5 0xB0 0xDC 0xCC 0x22 SWAP4 0x2F PUSH5 0x736F6C6343 STOP ADDMOD SMOD STOP CALLER "
				},
				"gasEstimates": {
					"creation": {
						"codeDepositCost": "426000",
						"executionCost": "22567",
						"totalCost": "448567"
					},
					"external": {
						"_id()": "2407",
						"createAccount(string,uint256)": "infinite",
						"depositMoney(uint256,uint256)": "infinite",
						"transfarmoney(uint256,uint256,uint256)": "infinite",
						"userDatabase(uint256)": "infinite"
					}
				},
				"methodIdentifiers": {
					"_id()": "05180237",
					"createAccount(string,uint256)": "6586ace6",
					"depositMoney(uint256,uint256)": "36828b3c",
					"transfarmoney(uint256,uint256,uint256)": "d0e1375c",
					"userDatabase(uint256)": "94111360"
				}
			},
			"storageLayout": {
				"storage": [
					{
						"astId": 13,
						"contract": "contracts/LaxmiChitFund.sol:LaxmichitFundBank",
						"label": "userDatabase",
						"offset": 0,
						"slot": "0",
						"type": "t_mapping(t_uint256,t_struct(User)8_storage)"
					},
					{
						"astId": 16,
						"contract": "contracts/LaxmiChitFund.sol:LaxmichitFundBank",
						"label": "_id",
						"offset": 0,
						"slot": "1",
						"type": "t_uint256"
					}
				],
				"types": {
					"t_mapping(t_uint256,t_struct(User)8_storage)": {
						"encoding": "mapping",
						"key": "t_uint256",
						"label": "mapping(uint256 => struct LaxmichitFundBank.User)",
						"numberOfBytes": "32",
						"value": "t_struct(User)8_storage"
					},
					"t_string_storage": {
						"encoding": "bytes",
						"label": "string",
						"numberOfBytes": "32"
					},
					"t_struct(User)8_storage": {
						"encoding": "inplace",
						"label": "struct LaxmichitFundBank.User",
						"members": [
							{
								"astId": 3,
								"contract": "contracts/LaxmiChitFund.sol:LaxmichitFundBank",
								"label": "id",
								"offset": 0,
								"slot": "0",
								"type": "t_uint256"
							},
							{
								"astId": 5,
								"contract": "contracts/LaxmiChitFund.sol:LaxmichitFundBank",
								"label": "name",
								"offset": 0,
								"slot": "1",
								"type": "t_string_storage"
							},
							{
								"astId": 7,
								"contract": "contracts/LaxmiChitFund.sol:LaxmichitFundBank",
								"label": "balance",
								"offset": 0,
								"slot": "2",
								"type": "t_uint256"
							}
						],
						"numberOfBytes": "96"
					},
					"t_uint256": {
						"encoding": "inplace",
						"label": "uint256",
						"numberOfBytes": "32"
					}
				}
			},
			"userdoc": {
				"kind": "user",
				"methods": {},
				"version": 1
			}
		}
	}
}