{
	"contracts/LaxmiChitFund.sol": {
		"LaxmichitFundBank": {
			"abi": [
				{
					"inputs": [
						{
							"internalType": "string",
							"name": "_name",
							"type": "string"
						},
						{
							"internalType": "uint256",
							"name": "_balance",
							"type": "uint256"
						}
					],
					"name": "createAccount",
					"outputs": [],
					"stateMutability": "nonpayable",
					"type": "function"
				},
				{
					"inputs": [
						{
							"internalType": "uint256",
							"name": "id",
							"type": "uint256"
						},
						{
							"internalType": "uint256",
							"name": "depositedMoney",
							"type": "uint256"
						}
					],
					"name": "depositMoney",
					"outputs": [],
					"stateMutability": "nonpayable",
					"type": "function"
				},
				{
					"inputs": [
						{
							"internalType": "uint256",
							"name": "",
							"type": "uint256"
						}
					],
					"name": "userDatabase",
					"outputs": [
						{
							"internalType": "uint256",
							"name": "id",
							"type": "uint256"
						},
						{
							"internalType": "string",
							"name": "name",
							"type": "string"
						},
						{
							"internalType": "uint256",
							"name": "balance",
							"type": "uint256"
						}
					],
					"stateMutability": "view",
					"type": "function"
				}
			],
			"devdoc": {
				"kind": "dev",
				"methods": {},
				"version": 1
			},
			"evm": {
				"assembly": "    /* \"contracts/LaxmiChitFund.sol\":67:483  contract LaxmichitFundBank{\r... */\n  mstore(0x40, 0x80)\n    /* \"contracts/LaxmiChitFund.sol\":202:203  1 */\n  0x01\n    /* \"contracts/LaxmiChitFund.sol\":193:203  uint _id=1 */\n  dup1\n  sstore\n    /* \"contracts/LaxmiChitFund.sol\":67:483  contract LaxmichitFundBank{\r... */\n  callvalue\n  dup1\n  iszero\n  tag_1\n  jumpi\n  0x00\n  dup1\n  revert\ntag_1:\n  pop\n  dataSize(sub_0)\n  dup1\n  dataOffset(sub_0)\n  0x00\n  codecopy\n  0x00\n  return\nstop\n\nsub_0: assembly {\n        /* \"contracts/LaxmiChitFund.sol\":67:483  contract LaxmichitFundBank{\r... */\n      mstore(0x40, 0x80)\n      callvalue\n      dup1\n      iszero\n      tag_1\n      jumpi\n      0x00\n      dup1\n      revert\n    tag_1:\n      pop\n      jumpi(tag_2, lt(calldatasize, 0x04))\n      shr(0xe0, calldataload(0x00))\n      dup1\n      0x36828b3c\n      eq\n      tag_3\n      jumpi\n      dup1\n      0x6586ace6\n      eq\n      tag_4\n      jumpi\n      dup1\n      0x94111360\n      eq\n      tag_5\n      jumpi\n    tag_2:\n      0x00\n      dup1\n      revert\n        /* \"contracts/LaxmiChitFund.sol\":371:480  function depositMoney(uint id, uint depositedMoney )public{\r... */\n    tag_3:\n      tag_6\n      0x04\n      dup1\n      calldatasize\n      sub\n      dup2\n      add\n      swap1\n      tag_7\n      swap2\n      swap1\n      tag_8\n      jump\t// in\n    tag_7:\n      tag_9\n      jump\t// in\n    tag_6:\n      stop\n        /* \"contracts/LaxmiChitFund.sol\":206:369  function createAccount(string memory _name,uint _balance )public{\r... */\n    tag_4:\n      tag_10\n      0x04\n      dup1\n      calldatasize\n      sub\n      dup2\n      add\n      swap1\n      tag_11\n      swap2\n      swap1\n      tag_12\n      jump\t// in\n    tag_11:\n      tag_13\n      jump\t// in\n    tag_10:\n      stop\n        /* \"contracts/LaxmiChitFund.sol\":152:190  mapping(uint=>User)public userDatabase */\n    tag_5:\n      tag_14\n      0x04\n      dup1\n      calldatasize\n      sub\n      dup2\n      add\n      swap1\n      tag_15\n      swap2\n      swap1\n      tag_16\n      jump\t// in\n    tag_15:\n      tag_17\n      jump\t// in\n    tag_14:\n      mload(0x40)\n      tag_18\n      swap4\n      swap3\n      swap2\n      swap1\n      tag_19\n      jump\t// in\n    tag_18:\n      mload(0x40)\n      dup1\n      swap2\n      sub\n      swap1\n      return\n        /* \"contracts/LaxmiChitFund.sol\":371:480  function depositMoney(uint id, uint depositedMoney )public{\r... */\n    tag_9:\n        /* \"contracts/LaxmiChitFund.sol\":461:475  depositedMoney */\n      dup1\n        /* \"contracts/LaxmiChitFund.sol\":435:447  userDatabase */\n      0x00\n        /* \"contracts/LaxmiChitFund.sol\":435:451  userDatabase[id] */\n      dup1\n        /* \"contracts/LaxmiChitFund.sol\":448:450  id */\n      dup5\n        /* \"contracts/LaxmiChitFund.sol\":435:451  userDatabase[id] */\n      dup2\n      mstore\n      0x20\n      add\n      swap1\n      dup2\n      mstore\n      0x20\n      add\n      0x00\n      keccak256\n        /* \"contracts/LaxmiChitFund.sol\":435:459  userDatabase[id].balance */\n      0x02\n      add\n      0x00\n        /* \"contracts/LaxmiChitFund.sol\":435:475  userDatabase[id].balance+=depositedMoney */\n      dup3\n      dup3\n      sload\n      tag_21\n      swap2\n      swap1\n      tag_22\n      jump\t// in\n    tag_21:\n      swap3\n      pop\n      pop\n      dup2\n      swap1\n      sstore\n      pop\n        /* \"contracts/LaxmiChitFund.sol\":371:480  function depositMoney(uint id, uint depositedMoney )public{\r... */\n      pop\n      pop\n      jump\t// out\n        /* \"contracts/LaxmiChitFund.sol\":206:369  function createAccount(string memory _name,uint _balance )public{\r... */\n    tag_13:\n        /* \"contracts/LaxmiChitFund.sol\":294:297  _id */\n      sload(0x01)\n        /* \"contracts/LaxmiChitFund.sol\":273:285  userDatabase */\n      0x00\n        /* \"contracts/LaxmiChitFund.sol\":273:290  userDatabase[_id] */\n      dup1\n        /* \"contracts/LaxmiChitFund.sol\":286:289  _id */\n      sload(0x01)\n        /* \"contracts/LaxmiChitFund.sol\":273:290  userDatabase[_id] */\n      dup2\n      mstore\n      0x20\n      add\n      swap1\n      dup2\n      mstore\n      0x20\n      add\n      0x00\n      keccak256\n        /* \"contracts/LaxmiChitFund.sol\":273:293  userDatabase[_id].id */\n      0x00\n      add\n        /* \"contracts/LaxmiChitFund.sol\":273:297  userDatabase[_id].id=_id */\n      dup2\n      swap1\n      sstore\n      pop\n        /* \"contracts/LaxmiChitFund.sol\":323:328  _name */\n      dup2\n        /* \"contracts/LaxmiChitFund.sol\":300:312  userDatabase */\n      0x00\n        /* \"contracts/LaxmiChitFund.sol\":300:317  userDatabase[_id] */\n      dup1\n        /* \"contracts/LaxmiChitFund.sol\":313:316  _id */\n      sload(0x01)\n        /* \"contracts/LaxmiChitFund.sol\":300:317  userDatabase[_id] */\n      dup2\n      mstore\n      0x20\n      add\n      swap1\n      dup2\n      mstore\n      0x20\n      add\n      0x00\n      keccak256\n        /* \"contracts/LaxmiChitFund.sol\":300:322  userDatabase[_id].name */\n      0x01\n      add\n        /* \"contracts/LaxmiChitFund.sol\":300:328  userDatabase[_id].name=_name */\n      swap1\n      dup1\n      mload\n      swap1\n      0x20\n      add\n      swap1\n      tag_24\n      swap3\n      swap2\n      swap1\n      tag_25\n      jump\t// in\n    tag_24:\n      pop\n        /* \"contracts/LaxmiChitFund.sol\":357:365  _balance */\n      dup1\n        /* \"contracts/LaxmiChitFund.sol\":331:343  userDatabase */\n      0x00\n        /* \"contracts/LaxmiChitFund.sol\":331:348  userDatabase[_id] */\n      dup1\n        /* \"contracts/LaxmiChitFund.sol\":344:347  _id */\n      sload(0x01)\n        /* \"contracts/LaxmiChitFund.sol\":331:348  userDatabase[_id] */\n      dup2\n      mstore\n      0x20\n      add\n      swap1\n      dup2\n      mstore\n      0x20\n      add\n      0x00\n      keccak256\n        /* \"contracts/LaxmiChitFund.sol\":331:356  userDatabase[_id].balance */\n      0x02\n      add\n        /* \"contracts/LaxmiChitFund.sol\":331:365  userDatabase[_id].balance=_balance */\n      dup2\n      swap1\n      sstore\n      pop\n        /* \"contracts/LaxmiChitFund.sol\":206:369  function createAccount(string memory _name,uint _balance )public{\r... */\n      pop\n      pop\n      jump\t// out\n        /* \"contracts/LaxmiChitFund.sol\":152:190  mapping(uint=>User)public userDatabase */\n    tag_17:\n      mstore(0x20, 0x00)\n      dup1\n      0x00\n      mstore\n      keccak256(0x00, 0x40)\n      0x00\n      swap2\n      pop\n      swap1\n      pop\n      dup1\n      0x00\n      add\n      sload\n      swap1\n      dup1\n      0x01\n      add\n      dup1\n      sload\n      tag_26\n      swap1\n      tag_27\n      jump\t// in\n    tag_26:\n      dup1\n      0x1f\n      add\n      0x20\n      dup1\n      swap2\n      div\n      mul\n      0x20\n      add\n      mload(0x40)\n      swap1\n      dup2\n      add\n      0x40\n      mstore\n      dup1\n      swap3\n      swap2\n      swap1\n      dup2\n      dup2\n      mstore\n      0x20\n      add\n      dup3\n      dup1\n      sload\n      tag_28\n      swap1\n      tag_27\n      jump\t// in\n    tag_28:\n      dup1\n      iszero\n      tag_29\n      jumpi\n      dup1\n      0x1f\n      lt\n      tag_30\n      jumpi\n      0x0100\n      dup1\n      dup4\n      sload\n      div\n      mul\n      dup4\n      mstore\n      swap2\n      0x20\n      add\n      swap2\n      jump(tag_29)\n    tag_30:\n      dup3\n      add\n      swap2\n      swap1\n      0x00\n      mstore\n      keccak256(0x00, 0x20)\n      swap1\n    tag_31:\n      dup2\n      sload\n      dup2\n      mstore\n      swap1\n      0x01\n      add\n      swap1\n      0x20\n      add\n      dup1\n      dup4\n      gt\n      tag_31\n      jumpi\n      dup3\n      swap1\n      sub\n      0x1f\n      and\n      dup3\n      add\n      swap2\n    tag_29:\n      pop\n      pop\n      pop\n      pop\n      pop\n      swap1\n      dup1\n      0x02\n      add\n      sload\n      swap1\n      pop\n      dup4\n      jump\t// out\n    tag_25:\n      dup3\n      dup1\n      sload\n      tag_32\n      swap1\n      tag_27\n      jump\t// in\n    tag_32:\n      swap1\n      0x00\n      mstore\n      keccak256(0x00, 0x20)\n      swap1\n      0x1f\n      add\n      0x20\n      swap1\n      div\n      dup2\n      add\n      swap3\n      dup3\n      tag_34\n      jumpi\n      0x00\n      dup6\n      sstore\n      jump(tag_33)\n    tag_34:\n      dup3\n      0x1f\n      lt\n      tag_35\n      jumpi\n      dup1\n      mload\n      not(0xff)\n      and\n      dup4\n      dup1\n      add\n      or\n      dup6\n      sstore\n      jump(tag_33)\n    tag_35:\n      dup3\n      dup1\n      add\n      0x01\n      add\n      dup6\n      sstore\n      dup3\n      iszero\n      tag_33\n      jumpi\n      swap2\n      dup3\n      add\n    tag_36:\n      dup3\n      dup2\n      gt\n      iszero\n      tag_37\n      jumpi\n      dup3\n      mload\n      dup3\n      sstore\n      swap2\n      0x20\n      add\n      swap2\n      swap1\n      0x01\n      add\n      swap1\n      jump(tag_36)\n    tag_37:\n    tag_33:\n      pop\n      swap1\n      pop\n      tag_38\n      swap2\n      swap1\n      tag_39\n      jump\t// in\n    tag_38:\n      pop\n      swap1\n      jump\t// out\n    tag_39:\n    tag_40:\n      dup1\n      dup3\n      gt\n      iszero\n      tag_41\n      jumpi\n      0x00\n      dup2\n      0x00\n      swap1\n      sstore\n      pop\n      0x01\n      add\n      jump(tag_40)\n    tag_41:\n      pop\n      swap1\n      jump\t// out\n        /* \"#utility.yul\":7:419   */\n    tag_43:\n        /* \"#utility.yul\":85:90   */\n      0x00\n        /* \"#utility.yul\":110:176   */\n      tag_45\n        /* \"#utility.yul\":126:175   */\n      tag_46\n        /* \"#utility.yul\":168:174   */\n      dup5\n        /* \"#utility.yul\":126:175   */\n      tag_47\n      jump\t// in\n    tag_46:\n        /* \"#utility.yul\":110:176   */\n      tag_48\n      jump\t// in\n    tag_45:\n        /* \"#utility.yul\":101:176   */\n      swap1\n      pop\n        /* \"#utility.yul\":199:205   */\n      dup3\n        /* \"#utility.yul\":192:197   */\n      dup2\n        /* \"#utility.yul\":185:206   */\n      mstore\n        /* \"#utility.yul\":237:241   */\n      0x20\n        /* \"#utility.yul\":230:235   */\n      dup2\n        /* \"#utility.yul\":226:242   */\n      add\n        /* \"#utility.yul\":275:278   */\n      dup5\n        /* \"#utility.yul\":266:272   */\n      dup5\n        /* \"#utility.yul\":261:264   */\n      dup5\n        /* \"#utility.yul\":257:273   */\n      add\n        /* \"#utility.yul\":254:279   */\n      gt\n        /* \"#utility.yul\":251:363   */\n      iszero\n      tag_49\n      jumpi\n        /* \"#utility.yul\":282:361   */\n      tag_50\n      tag_51\n      jump\t// in\n    tag_50:\n        /* \"#utility.yul\":251:363   */\n    tag_49:\n        /* \"#utility.yul\":372:413   */\n      tag_52\n        /* \"#utility.yul\":406:412   */\n      dup5\n        /* \"#utility.yul\":401:404   */\n      dup3\n        /* \"#utility.yul\":396:399   */\n      dup6\n        /* \"#utility.yul\":372:413   */\n      tag_53\n      jump\t// in\n    tag_52:\n        /* \"#utility.yul\":91:419   */\n      pop\n        /* \"#utility.yul\":7:419   */\n      swap4\n      swap3\n      pop\n      pop\n      pop\n      jump\t// out\n        /* \"#utility.yul\":439:779   */\n    tag_54:\n        /* \"#utility.yul\":495:500   */\n      0x00\n        /* \"#utility.yul\":544:547   */\n      dup3\n        /* \"#utility.yul\":537:541   */\n      0x1f\n        /* \"#utility.yul\":529:535   */\n      dup4\n        /* \"#utility.yul\":525:542   */\n      add\n        /* \"#utility.yul\":521:548   */\n      slt\n        /* \"#utility.yul\":511:633   */\n      tag_56\n      jumpi\n        /* \"#utility.yul\":552:631   */\n      tag_57\n      tag_58\n      jump\t// in\n    tag_57:\n        /* \"#utility.yul\":511:633   */\n    tag_56:\n        /* \"#utility.yul\":669:675   */\n      dup2\n        /* \"#utility.yul\":656:676   */\n      calldataload\n        /* \"#utility.yul\":694:773   */\n      tag_59\n        /* \"#utility.yul\":769:772   */\n      dup5\n        /* \"#utility.yul\":761:767   */\n      dup3\n        /* \"#utility.yul\":754:758   */\n      0x20\n        /* \"#utility.yul\":746:752   */\n      dup7\n        /* \"#utility.yul\":742:759   */\n      add\n        /* \"#utility.yul\":694:773   */\n      tag_43\n      jump\t// in\n    tag_59:\n        /* \"#utility.yul\":685:773   */\n      swap2\n      pop\n        /* \"#utility.yul\":501:779   */\n      pop\n        /* \"#utility.yul\":439:779   */\n      swap3\n      swap2\n      pop\n      pop\n      jump\t// out\n        /* \"#utility.yul\":785:924   */\n    tag_60:\n        /* \"#utility.yul\":831:836   */\n      0x00\n        /* \"#utility.yul\":869:875   */\n      dup2\n        /* \"#utility.yul\":856:876   */\n      calldataload\n        /* \"#utility.yul\":847:876   */\n      swap1\n      pop\n        /* \"#utility.yul\":885:918   */\n      tag_62\n        /* \"#utility.yul\":912:917   */\n      dup2\n        /* \"#utility.yul\":885:918   */\n      tag_63\n      jump\t// in\n    tag_62:\n        /* \"#utility.yul\":785:924   */\n      swap3\n      swap2\n      pop\n      pop\n      jump\t// out\n        /* \"#utility.yul\":930:1584   */\n    tag_12:\n        /* \"#utility.yul\":1008:1014   */\n      0x00\n        /* \"#utility.yul\":1016:1022   */\n      dup1\n        /* \"#utility.yul\":1065:1067   */\n      0x40\n        /* \"#utility.yul\":1053:1062   */\n      dup4\n        /* \"#utility.yul\":1044:1051   */\n      dup6\n        /* \"#utility.yul\":1040:1063   */\n      sub\n        /* \"#utility.yul\":1036:1068   */\n      slt\n        /* \"#utility.yul\":1033:1152   */\n      iszero\n      tag_65\n      jumpi\n        /* \"#utility.yul\":1071:1150   */\n      tag_66\n      tag_67\n      jump\t// in\n    tag_66:\n        /* \"#utility.yul\":1033:1152   */\n    tag_65:\n        /* \"#utility.yul\":1219:1220   */\n      0x00\n        /* \"#utility.yul\":1208:1217   */\n      dup4\n        /* \"#utility.yul\":1204:1221   */\n      add\n        /* \"#utility.yul\":1191:1222   */\n      calldataload\n        /* \"#utility.yul\":1249:1267   */\n      0xffffffffffffffff\n        /* \"#utility.yul\":1241:1247   */\n      dup2\n        /* \"#utility.yul\":1238:1268   */\n      gt\n        /* \"#utility.yul\":1235:1352   */\n      iszero\n      tag_68\n      jumpi\n        /* \"#utility.yul\":1271:1350   */\n      tag_69\n      tag_70\n      jump\t// in\n    tag_69:\n        /* \"#utility.yul\":1235:1352   */\n    tag_68:\n        /* \"#utility.yul\":1376:1439   */\n      tag_71\n        /* \"#utility.yul\":1431:1438   */\n      dup6\n        /* \"#utility.yul\":1422:1428   */\n      dup3\n        /* \"#utility.yul\":1411:1420   */\n      dup7\n        /* \"#utility.yul\":1407:1429   */\n      add\n        /* \"#utility.yul\":1376:1439   */\n      tag_54\n      jump\t// in\n    tag_71:\n        /* \"#utility.yul\":1366:1439   */\n      swap3\n      pop\n        /* \"#utility.yul\":1162:1449   */\n      pop\n        /* \"#utility.yul\":1488:1490   */\n      0x20\n        /* \"#utility.yul\":1514:1567   */\n      tag_72\n        /* \"#utility.yul\":1559:1566   */\n      dup6\n        /* \"#utility.yul\":1550:1556   */\n      dup3\n        /* \"#utility.yul\":1539:1548   */\n      dup7\n        /* \"#utility.yul\":1535:1557   */\n      add\n        /* \"#utility.yul\":1514:1567   */\n      tag_60\n      jump\t// in\n    tag_72:\n        /* \"#utility.yul\":1504:1567   */\n      swap2\n      pop\n        /* \"#utility.yul\":1459:1577   */\n      pop\n        /* \"#utility.yul\":930:1584   */\n      swap3\n      pop\n      swap3\n      swap1\n      pop\n      jump\t// out\n        /* \"#utility.yul\":1590:1919   */\n    tag_16:\n        /* \"#utility.yul\":1649:1655   */\n      0x00\n        /* \"#utility.yul\":1698:1700   */\n      0x20\n        /* \"#utility.yul\":1686:1695   */\n      dup3\n        /* \"#utility.yul\":1677:1684   */\n      dup5\n        /* \"#utility.yul\":1673:1696   */\n      sub\n        /* \"#utility.yul\":1669:1701   */\n      slt\n        /* \"#utility.yul\":1666:1785   */\n      iszero\n      tag_74\n      jumpi\n        /* \"#utility.yul\":1704:1783   */\n      tag_75\n      tag_67\n      jump\t// in\n    tag_75:\n        /* \"#utility.yul\":1666:1785   */\n    tag_74:\n        /* \"#utility.yul\":1824:1825   */\n      0x00\n        /* \"#utility.yul\":1849:1902   */\n      tag_76\n        /* \"#utility.yul\":1894:1901   */\n      dup5\n        /* \"#utility.yul\":1885:1891   */\n      dup3\n        /* \"#utility.yul\":1874:1883   */\n      dup6\n        /* \"#utility.yul\":1870:1892   */\n      add\n        /* \"#utility.yul\":1849:1902   */\n      tag_60\n      jump\t// in\n    tag_76:\n        /* \"#utility.yul\":1839:1902   */\n      swap2\n      pop\n        /* \"#utility.yul\":1795:1912   */\n      pop\n        /* \"#utility.yul\":1590:1919   */\n      swap3\n      swap2\n      pop\n      pop\n      jump\t// out\n        /* \"#utility.yul\":1925:2399   */\n    tag_8:\n        /* \"#utility.yul\":1993:1999   */\n      0x00\n        /* \"#utility.yul\":2001:2007   */\n      dup1\n        /* \"#utility.yul\":2050:2052   */\n      0x40\n        /* \"#utility.yul\":2038:2047   */\n      dup4\n        /* \"#utility.yul\":2029:2036   */\n      dup6\n        /* \"#utility.yul\":2025:2048   */\n      sub\n        /* \"#utility.yul\":2021:2053   */\n      slt\n        /* \"#utility.yul\":2018:2137   */\n      iszero\n      tag_78\n      jumpi\n        /* \"#utility.yul\":2056:2135   */\n      tag_79\n      tag_67\n      jump\t// in\n    tag_79:\n        /* \"#utility.yul\":2018:2137   */\n    tag_78:\n        /* \"#utility.yul\":2176:2177   */\n      0x00\n        /* \"#utility.yul\":2201:2254   */\n      tag_80\n        /* \"#utility.yul\":2246:2253   */\n      dup6\n        /* \"#utility.yul\":2237:2243   */\n      dup3\n        /* \"#utility.yul\":2226:2235   */\n      dup7\n        /* \"#utility.yul\":2222:2244   */\n      add\n        /* \"#utility.yul\":2201:2254   */\n      tag_60\n      jump\t// in\n    tag_80:\n        /* \"#utility.yul\":2191:2254   */\n      swap3\n      pop\n        /* \"#utility.yul\":2147:2264   */\n      pop\n        /* \"#utility.yul\":2303:2305   */\n      0x20\n        /* \"#utility.yul\":2329:2382   */\n      tag_81\n        /* \"#utility.yul\":2374:2381   */\n      dup6\n        /* \"#utility.yul\":2365:2371   */\n      dup3\n        /* \"#utility.yul\":2354:2363   */\n      dup7\n        /* \"#utility.yul\":2350:2372   */\n      add\n        /* \"#utility.yul\":2329:2382   */\n      tag_60\n      jump\t// in\n    tag_81:\n        /* \"#utility.yul\":2319:2382   */\n      swap2\n      pop\n        /* \"#utility.yul\":2274:2392   */\n      pop\n        /* \"#utility.yul\":1925:2399   */\n      swap3\n      pop\n      swap3\n      swap1\n      pop\n      jump\t// out\n        /* \"#utility.yul\":2405:2769   */\n    tag_82:\n        /* \"#utility.yul\":2493:2496   */\n      0x00\n        /* \"#utility.yul\":2521:2560   */\n      tag_84\n        /* \"#utility.yul\":2554:2559   */\n      dup3\n        /* \"#utility.yul\":2521:2560   */\n      tag_85\n      jump\t// in\n    tag_84:\n        /* \"#utility.yul\":2576:2647   */\n      tag_86\n        /* \"#utility.yul\":2640:2646   */\n      dup2\n        /* \"#utility.yul\":2635:2638   */\n      dup6\n        /* \"#utility.yul\":2576:2647   */\n      tag_87\n      jump\t// in\n    tag_86:\n        /* \"#utility.yul\":2569:2647   */\n      swap4\n      pop\n        /* \"#utility.yul\":2656:2708   */\n      tag_88\n        /* \"#utility.yul\":2701:2707   */\n      dup2\n        /* \"#utility.yul\":2696:2699   */\n      dup6\n        /* \"#utility.yul\":2689:2693   */\n      0x20\n        /* \"#utility.yul\":2682:2687   */\n      dup7\n        /* \"#utility.yul\":2678:2694   */\n      add\n        /* \"#utility.yul\":2656:2708   */\n      tag_89\n      jump\t// in\n    tag_88:\n        /* \"#utility.yul\":2733:2762   */\n      tag_90\n        /* \"#utility.yul\":2755:2761   */\n      dup2\n        /* \"#utility.yul\":2733:2762   */\n      tag_91\n      jump\t// in\n    tag_90:\n        /* \"#utility.yul\":2728:2731   */\n      dup5\n        /* \"#utility.yul\":2724:2763   */\n      add\n        /* \"#utility.yul\":2717:2763   */\n      swap2\n      pop\n        /* \"#utility.yul\":2497:2769   */\n      pop\n        /* \"#utility.yul\":2405:2769   */\n      swap3\n      swap2\n      pop\n      pop\n      jump\t// out\n        /* \"#utility.yul\":2775:2893   */\n    tag_92:\n        /* \"#utility.yul\":2862:2886   */\n      tag_94\n        /* \"#utility.yul\":2880:2885   */\n      dup2\n        /* \"#utility.yul\":2862:2886   */\n      tag_95\n      jump\t// in\n    tag_94:\n        /* \"#utility.yul\":2857:2860   */\n      dup3\n        /* \"#utility.yul\":2850:2887   */\n      mstore\n        /* \"#utility.yul\":2775:2893   */\n      pop\n      pop\n      jump\t// out\n        /* \"#utility.yul\":2899:3432   */\n    tag_19:\n        /* \"#utility.yul\":3068:3072   */\n      0x00\n        /* \"#utility.yul\":3106:3108   */\n      0x60\n        /* \"#utility.yul\":3095:3104   */\n      dup3\n        /* \"#utility.yul\":3091:3109   */\n      add\n        /* \"#utility.yul\":3083:3109   */\n      swap1\n      pop\n        /* \"#utility.yul\":3119:3190   */\n      tag_97\n        /* \"#utility.yul\":3187:3188   */\n      0x00\n        /* \"#utility.yul\":3176:3185   */\n      dup4\n        /* \"#utility.yul\":3172:3189   */\n      add\n        /* \"#utility.yul\":3163:3169   */\n      dup7\n        /* \"#utility.yul\":3119:3190   */\n      tag_92\n      jump\t// in\n    tag_97:\n        /* \"#utility.yul\":3237:3246   */\n      dup2\n        /* \"#utility.yul\":3231:3235   */\n      dup2\n        /* \"#utility.yul\":3227:3247   */\n      sub\n        /* \"#utility.yul\":3222:3224   */\n      0x20\n        /* \"#utility.yul\":3211:3220   */\n      dup4\n        /* \"#utility.yul\":3207:3225   */\n      add\n        /* \"#utility.yul\":3200:3248   */\n      mstore\n        /* \"#utility.yul\":3265:3343   */\n      tag_98\n        /* \"#utility.yul\":3338:3342   */\n      dup2\n        /* \"#utility.yul\":3329:3335   */\n      dup6\n        /* \"#utility.yul\":3265:3343   */\n      tag_82\n      jump\t// in\n    tag_98:\n        /* \"#utility.yul\":3257:3343   */\n      swap1\n      pop\n        /* \"#utility.yul\":3353:3425   */\n      tag_99\n        /* \"#utility.yul\":3421:3423   */\n      0x40\n        /* \"#utility.yul\":3410:3419   */\n      dup4\n        /* \"#utility.yul\":3406:3424   */\n      add\n        /* \"#utility.yul\":3397:3403   */\n      dup5\n        /* \"#utility.yul\":3353:3425   */\n      tag_92\n      jump\t// in\n    tag_99:\n        /* \"#utility.yul\":2899:3432   */\n      swap5\n      swap4\n      pop\n      pop\n      pop\n      pop\n      jump\t// out\n        /* \"#utility.yul\":3438:3567   */\n    tag_48:\n        /* \"#utility.yul\":3472:3478   */\n      0x00\n        /* \"#utility.yul\":3499:3519   */\n      tag_101\n      tag_102\n      jump\t// in\n    tag_101:\n        /* \"#utility.yul\":3489:3519   */\n      swap1\n      pop\n        /* \"#utility.yul\":3528:3561   */\n      tag_103\n        /* \"#utility.yul\":3556:3560   */\n      dup3\n        /* \"#utility.yul\":3548:3554   */\n      dup3\n        /* \"#utility.yul\":3528:3561   */\n      tag_104\n      jump\t// in\n    tag_103:\n        /* \"#utility.yul\":3438:3567   */\n      swap2\n      swap1\n      pop\n      jump\t// out\n        /* \"#utility.yul\":3573:3648   */\n    tag_102:\n        /* \"#utility.yul\":3606:3612   */\n      0x00\n        /* \"#utility.yul\":3639:3641   */\n      0x40\n        /* \"#utility.yul\":3633:3642   */\n      mload\n        /* \"#utility.yul\":3623:3642   */\n      swap1\n      pop\n        /* \"#utility.yul\":3573:3648   */\n      swap1\n      jump\t// out\n        /* \"#utility.yul\":3654:3962   */\n    tag_47:\n        /* \"#utility.yul\":3716:3720   */\n      0x00\n        /* \"#utility.yul\":3806:3824   */\n      0xffffffffffffffff\n        /* \"#utility.yul\":3798:3804   */\n      dup3\n        /* \"#utility.yul\":3795:3825   */\n      gt\n        /* \"#utility.yul\":3792:3848   */\n      iszero\n      tag_107\n      jumpi\n        /* \"#utility.yul\":3828:3846   */\n      tag_108\n      tag_109\n      jump\t// in\n    tag_108:\n        /* \"#utility.yul\":3792:3848   */\n    tag_107:\n        /* \"#utility.yul\":3866:3895   */\n      tag_110\n        /* \"#utility.yul\":3888:3894   */\n      dup3\n        /* \"#utility.yul\":3866:3895   */\n      tag_91\n      jump\t// in\n    tag_110:\n        /* \"#utility.yul\":3858:3895   */\n      swap1\n      pop\n        /* \"#utility.yul\":3950:3954   */\n      0x20\n        /* \"#utility.yul\":3944:3948   */\n      dup2\n        /* \"#utility.yul\":3940:3955   */\n      add\n        /* \"#utility.yul\":3932:3955   */\n      swap1\n      pop\n        /* \"#utility.yul\":3654:3962   */\n      swap2\n      swap1\n      pop\n      jump\t// out\n        /* \"#utility.yul\":3968:4067   */\n    tag_85:\n        /* \"#utility.yul\":4020:4026   */\n      0x00\n        /* \"#utility.yul\":4054:4059   */\n      dup2\n        /* \"#utility.yul\":4048:4060   */\n      mload\n        /* \"#utility.yul\":4038:4060   */\n      swap1\n      pop\n        /* \"#utility.yul\":3968:4067   */\n      swap2\n      swap1\n      pop\n      jump\t// out\n        /* \"#utility.yul\":4073:4242   */\n    tag_87:\n        /* \"#utility.yul\":4157:4168   */\n      0x00\n        /* \"#utility.yul\":4191:4197   */\n      dup3\n        /* \"#utility.yul\":4186:4189   */\n      dup3\n        /* \"#utility.yul\":4179:4198   */\n      mstore\n        /* \"#utility.yul\":4231:4235   */\n      0x20\n        /* \"#utility.yul\":4226:4229   */\n      dup3\n        /* \"#utility.yul\":4222:4236   */\n      add\n        /* \"#utility.yul\":4207:4236   */\n      swap1\n      pop\n        /* \"#utility.yul\":4073:4242   */\n      swap3\n      swap2\n      pop\n      pop\n      jump\t// out\n        /* \"#utility.yul\":4248:4553   */\n    tag_22:\n        /* \"#utility.yul\":4288:4291   */\n      0x00\n        /* \"#utility.yul\":4307:4327   */\n      tag_114\n        /* \"#utility.yul\":4325:4326   */\n      dup3\n        /* \"#utility.yul\":4307:4327   */\n      tag_95\n      jump\t// in\n    tag_114:\n        /* \"#utility.yul\":4302:4327   */\n      swap2\n      pop\n        /* \"#utility.yul\":4341:4361   */\n      tag_115\n        /* \"#utility.yul\":4359:4360   */\n      dup4\n        /* \"#utility.yul\":4341:4361   */\n      tag_95\n      jump\t// in\n    tag_115:\n        /* \"#utility.yul\":4336:4361   */\n      swap3\n      pop\n        /* \"#utility.yul\":4495:4496   */\n      dup3\n        /* \"#utility.yul\":4427:4493   */\n      0xffffffffffffffffffffffffffffffffffffffffffffffffffffffffffffffff\n        /* \"#utility.yul\":4423:4497   */\n      sub\n        /* \"#utility.yul\":4420:4421   */\n      dup3\n        /* \"#utility.yul\":4417:4498   */\n      gt\n        /* \"#utility.yul\":4414:4521   */\n      iszero\n      tag_116\n      jumpi\n        /* \"#utility.yul\":4501:4519   */\n      tag_117\n      tag_118\n      jump\t// in\n    tag_117:\n        /* \"#utility.yul\":4414:4521   */\n    tag_116:\n        /* \"#utility.yul\":4545:4546   */\n      dup3\n        /* \"#utility.yul\":4542:4543   */\n      dup3\n        /* \"#utility.yul\":4538:4547   */\n      add\n        /* \"#utility.yul\":4531:4547   */\n      swap1\n      pop\n        /* \"#utility.yul\":4248:4553   */\n      swap3\n      swap2\n      pop\n      pop\n      jump\t// out\n        /* \"#utility.yul\":4559:4636   */\n    tag_95:\n        /* \"#utility.yul\":4596:4603   */\n      0x00\n        /* \"#utility.yul\":4625:4630   */\n      dup2\n        /* \"#utility.yul\":4614:4630   */\n      swap1\n      pop\n        /* \"#utility.yul\":4559:4636   */\n      swap2\n      swap1\n      pop\n      jump\t// out\n        /* \"#utility.yul\":4642:4796   */\n    tag_53:\n        /* \"#utility.yul\":4726:4732   */\n      dup3\n        /* \"#utility.yul\":4721:4724   */\n      dup2\n        /* \"#utility.yul\":4716:4719   */\n      dup4\n        /* \"#utility.yul\":4703:4733   */\n      calldatacopy\n        /* \"#utility.yul\":4788:4789   */\n      0x00\n        /* \"#utility.yul\":4779:4785   */\n      dup4\n        /* \"#utility.yul\":4774:4777   */\n      dup4\n        /* \"#utility.yul\":4770:4786   */\n      add\n        /* \"#utility.yul\":4763:4790   */\n      mstore\n        /* \"#utility.yul\":4642:4796   */\n      pop\n      pop\n      pop\n      jump\t// out\n        /* \"#utility.yul\":4802:5109   */\n    tag_89:\n        /* \"#utility.yul\":4870:4871   */\n      0x00\n        /* \"#utility.yul\":4880:4993   */\n    tag_122:\n        /* \"#utility.yul\":4894:4900   */\n      dup4\n        /* \"#utility.yul\":4891:4892   */\n      dup2\n        /* \"#utility.yul\":4888:4901   */\n      lt\n        /* \"#utility.yul\":4880:4993   */\n      iszero\n      tag_124\n      jumpi\n        /* \"#utility.yul\":4979:4980   */\n      dup1\n        /* \"#utility.yul\":4974:4977   */\n      dup3\n        /* \"#utility.yul\":4970:4981   */\n      add\n        /* \"#utility.yul\":4964:4982   */\n      mload\n        /* \"#utility.yul\":4960:4961   */\n      dup2\n        /* \"#utility.yul\":4955:4958   */\n      dup5\n        /* \"#utility.yul\":4951:4962   */\n      add\n        /* \"#utility.yul\":4944:4983   */\n      mstore\n        /* \"#utility.yul\":4916:4918   */\n      0x20\n        /* \"#utility.yul\":4913:4914   */\n      dup2\n        /* \"#utility.yul\":4909:4919   */\n      add\n        /* \"#utility.yul\":4904:4919   */\n      swap1\n      pop\n        /* \"#utility.yul\":4880:4993   */\n      jump(tag_122)\n    tag_124:\n        /* \"#utility.yul\":5011:5017   */\n      dup4\n        /* \"#utility.yul\":5008:5009   */\n      dup2\n        /* \"#utility.yul\":5005:5018   */\n      gt\n        /* \"#utility.yul\":5002:5103   */\n      iszero\n      tag_125\n      jumpi\n        /* \"#utility.yul\":5091:5092   */\n      0x00\n        /* \"#utility.yul\":5082:5088   */\n      dup5\n        /* \"#utility.yul\":5077:5080   */\n      dup5\n        /* \"#utility.yul\":5073:5089   */\n      add\n        /* \"#utility.yul\":5066:5093   */\n      mstore\n        /* \"#utility.yul\":5002:5103   */\n    tag_125:\n        /* \"#utility.yul\":4851:5109   */\n      pop\n        /* \"#utility.yul\":4802:5109   */\n      pop\n      pop\n      pop\n      jump\t// out\n        /* \"#utility.yul\":5115:5435   */\n    tag_27:\n        /* \"#utility.yul\":5159:5165   */\n      0x00\n        /* \"#utility.yul\":5196:5197   */\n      0x02\n        /* \"#utility.yul\":5190:5194   */\n      dup3\n        /* \"#utility.yul\":5186:5198   */\n      div\n        /* \"#utility.yul\":5176:5198   */\n      swap1\n      pop\n        /* \"#utility.yul\":5243:5244   */\n      0x01\n        /* \"#utility.yul\":5237:5241   */\n      dup3\n        /* \"#utility.yul\":5233:5245   */\n      and\n        /* \"#utility.yul\":5264:5282   */\n      dup1\n        /* \"#utility.yul\":5254:5335   */\n      tag_127\n      jumpi\n        /* \"#utility.yul\":5320:5324   */\n      0x7f\n        /* \"#utility.yul\":5312:5318   */\n      dup3\n        /* \"#utility.yul\":5308:5325   */\n      and\n        /* \"#utility.yul\":5298:5325   */\n      swap2\n      pop\n        /* \"#utility.yul\":5254:5335   */\n    tag_127:\n        /* \"#utility.yul\":5382:5384   */\n      0x20\n        /* \"#utility.yul\":5374:5380   */\n      dup3\n        /* \"#utility.yul\":5371:5385   */\n      lt\n        /* \"#utility.yul\":5351:5369   */\n      dup2\n        /* \"#utility.yul\":5348:5386   */\n      eq\n        /* \"#utility.yul\":5345:5429   */\n      iszero\n      tag_128\n      jumpi\n        /* \"#utility.yul\":5401:5419   */\n      tag_129\n      tag_130\n      jump\t// in\n    tag_129:\n        /* \"#utility.yul\":5345:5429   */\n    tag_128:\n        /* \"#utility.yul\":5166:5435   */\n      pop\n        /* \"#utility.yul\":5115:5435   */\n      swap2\n      swap1\n      pop\n      jump\t// out\n        /* \"#utility.yul\":5441:5722   */\n    tag_104:\n        /* \"#utility.yul\":5524:5551   */\n      tag_132\n        /* \"#utility.yul\":5546:5550   */\n      dup3\n        /* \"#utility.yul\":5524:5551   */\n      tag_91\n      jump\t// in\n    tag_132:\n        /* \"#utility.yul\":5516:5522   */\n      dup2\n        /* \"#utility.yul\":5512:5552   */\n      add\n        /* \"#utility.yul\":5654:5660   */\n      dup2\n        /* \"#utility.yul\":5642:5652   */\n      dup2\n        /* \"#utility.yul\":5639:5661   */\n      lt\n        /* \"#utility.yul\":5618:5636   */\n      0xffffffffffffffff\n        /* \"#utility.yul\":5606:5616   */\n      dup3\n        /* \"#utility.yul\":5603:5637   */\n      gt\n        /* \"#utility.yul\":5600:5662   */\n      or\n        /* \"#utility.yul\":5597:5685   */\n      iszero\n      tag_133\n      jumpi\n        /* \"#utility.yul\":5665:5683   */\n      tag_134\n      tag_109\n      jump\t// in\n    tag_134:\n        /* \"#utility.yul\":5597:5685   */\n    tag_133:\n        /* \"#utility.yul\":5705:5715   */\n      dup1\n        /* \"#utility.yul\":5701:5703   */\n      0x40\n        /* \"#utility.yul\":5694:5716   */\n      mstore\n        /* \"#utility.yul\":5484:5722   */\n      pop\n        /* \"#utility.yul\":5441:5722   */\n      pop\n      pop\n      jump\t// out\n        /* \"#utility.yul\":5728:5908   */\n    tag_118:\n        /* \"#utility.yul\":5776:5853   */\n      0x4e487b7100000000000000000000000000000000000000000000000000000000\n        /* \"#utility.yul\":5773:5774   */\n      0x00\n        /* \"#utility.yul\":5766:5854   */\n      mstore\n        /* \"#utility.yul\":5873:5877   */\n      0x11\n        /* \"#utility.yul\":5870:5871   */\n      0x04\n        /* \"#utility.yul\":5863:5878   */\n      mstore\n        /* \"#utility.yul\":5897:5901   */\n      0x24\n        /* \"#utility.yul\":5894:5895   */\n      0x00\n        /* \"#utility.yul\":5887:5902   */\n      revert\n        /* \"#utility.yul\":5914:6094   */\n    tag_130:\n        /* \"#utility.yul\":5962:6039   */\n      0x4e487b7100000000000000000000000000000000000000000000000000000000\n        /* \"#utility.yul\":5959:5960   */\n      0x00\n        /* \"#utility.yul\":5952:6040   */\n      mstore\n        /* \"#utility.yul\":6059:6063   */\n      0x22\n        /* \"#utility.yul\":6056:6057   */\n      0x04\n        /* \"#utility.yul\":6049:6064   */\n      mstore\n        /* \"#utility.yul\":6083:6087   */\n      0x24\n        /* \"#utility.yul\":6080:6081   */\n      0x00\n        /* \"#utility.yul\":6073:6088   */\n      revert\n        /* \"#utility.yul\":6100:6280   */\n    tag_109:\n        /* \"#utility.yul\":6148:6225   */\n      0x4e487b7100000000000000000000000000000000000000000000000000000000\n        /* \"#utility.yul\":6145:6146   */\n      0x00\n        /* \"#utility.yul\":6138:6226   */\n      mstore\n        /* \"#utility.yul\":6245:6249   */\n      0x41\n        /* \"#utility.yul\":6242:6243   */\n      0x04\n        /* \"#utility.yul\":6235:6250   */\n      mstore\n        /* \"#utility.yul\":6269:6273   */\n      0x24\n        /* \"#utility.yul\":6266:6267   */\n      0x00\n        /* \"#utility.yul\":6259:6274   */\n      revert\n        /* \"#utility.yul\":6286:6403   */\n    tag_58:\n        /* \"#utility.yul\":6395:6396   */\n      0x00\n        /* \"#utility.yul\":6392:6393   */\n      dup1\n        /* \"#utility.yul\":6385:6397   */\n      revert\n        /* \"#utility.yul\":6409:6526   */\n    tag_51:\n        /* \"#utility.yul\":6518:6519   */\n      0x00\n        /* \"#utility.yul\":6515:6516   */\n      dup1\n        /* \"#utility.yul\":6508:6520   */\n      revert\n        /* \"#utility.yul\":6532:6649   */\n    tag_70:\n        /* \"#utility.yul\":6641:6642   */\n      0x00\n        /* \"#utility.yul\":6638:6639   */\n      dup1\n        /* \"#utility.yul\":6631:6643   */\n      revert\n        /* \"#utility.yul\":6655:6772   */\n    tag_67:\n        /* \"#utility.yul\":6764:6765   */\n      0x00\n        /* \"#utility.yul\":6761:6762   */\n      dup1\n        /* \"#utility.yul\":6754:6766   */\n      revert\n        /* \"#utility.yul\":6778:6880   */\n    tag_91:\n        /* \"#utility.yul\":6819:6825   */\n      0x00\n        /* \"#utility.yul\":6870:6872   */\n      0x1f\n        /* \"#utility.yul\":6866:6873   */\n      not\n        /* \"#utility.yul\":6861:6863   */\n      0x1f\n        /* \"#utility.yul\":6854:6859   */\n      dup4\n        /* \"#utility.yul\":6850:6864   */\n      add\n        /* \"#utility.yul\":6846:6874   */\n      and\n        /* \"#utility.yul\":6836:6874   */\n      swap1\n      pop\n        /* \"#utility.yul\":6778:6880   */\n      swap2\n      swap1\n      pop\n      jump\t// out\n        /* \"#utility.yul\":6886:7008   */\n    tag_63:\n        /* \"#utility.yul\":6959:6983   */\n      tag_144\n        /* \"#utility.yul\":6977:6982   */\n      dup2\n        /* \"#utility.yul\":6959:6983   */\n      tag_95\n      jump\t// in\n    tag_144:\n        /* \"#utility.yul\":6952:6957   */\n      dup2\n        /* \"#utility.yul\":6949:6984   */\n      eq\n        /* \"#utility.yul\":6939:7002   */\n      tag_145\n      jumpi\n        /* \"#utility.yul\":6998:6999   */\n      0x00\n        /* \"#utility.yul\":6995:6996   */\n      dup1\n        /* \"#utility.yul\":6988:7000   */\n      revert\n        /* \"#utility.yul\":6939:7002   */\n    tag_145:\n        /* \"#utility.yul\":6886:7008   */\n      pop\n      jump\t// out\n\n    auxdata: 0xa2646970667358221220fe72e1804b76785d5fb3482c99d2d730336d97fa1c791a66afdd9e1748156f4d64736f6c63430008070033\n}\n",
				"bytecode": {
					"linkReferences": {},
					"object": "60806040526001805534801561001457600080fd5b506106e9806100246000396000f3fe608060405234801561001057600080fd5b50600436106100415760003560e01c806336828b3c146100465780636586ace614610062578063941113601461007e575b600080fd5b610060600480360381019061005b91906103ad565b6100b0565b005b61007c60048036038101906100779190610324565b6100e0565b005b61009860048036038101906100939190610380565b61014a565b6040516100a793929190610435565b60405180910390f35b8060008084815260200190815260200160002060020160008282546100d591906104e5565b925050819055505050565b60015460008060015481526020019081526020016000206000018190555081600080600154815260200190815260200160002060010190805190602001906101299291906101fc565b50806000806001548152602001908152602001600020600201819055505050565b600060205280600052604060002060009150905080600001549080600101805461017390610587565b80601f016020809104026020016040519081016040528092919081815260200182805461019f90610587565b80156101ec5780601f106101c1576101008083540402835291602001916101ec565b820191906000526020600020905b8154815290600101906020018083116101cf57829003601f168201915b5050505050908060020154905083565b82805461020890610587565b90600052602060002090601f01602090048101928261022a5760008555610271565b82601f1061024357805160ff1916838001178555610271565b82800160010185558215610271579182015b82811115610270578251825591602001919060010190610255565b5b50905061027e9190610282565b5090565b5b8082111561029b576000816000905550600101610283565b5090565b60006102b26102ad84610498565b610473565b9050828152602081018484840111156102ce576102cd61067c565b5b6102d9848285610545565b509392505050565b600082601f8301126102f6576102f5610677565b5b813561030684826020860161029f565b91505092915050565b60008135905061031e8161069c565b92915050565b6000806040838503121561033b5761033a610686565b5b600083013567ffffffffffffffff81111561035957610358610681565b5b610365858286016102e1565b92505060206103768582860161030f565b9150509250929050565b60006020828403121561039657610395610686565b5b60006103a48482850161030f565b91505092915050565b600080604083850312156103c4576103c3610686565b5b60006103d28582860161030f565b92505060206103e38582860161030f565b9150509250929050565b60006103f8826104c9565b61040281856104d4565b9350610412818560208601610554565b61041b8161068b565b840191505092915050565b61042f8161053b565b82525050565b600060608201905061044a6000830186610426565b818103602083015261045c81856103ed565b905061046b6040830184610426565b949350505050565b600061047d61048e565b905061048982826105b9565b919050565b6000604051905090565b600067ffffffffffffffff8211156104b3576104b2610648565b5b6104bc8261068b565b9050602081019050919050565b600081519050919050565b600082825260208201905092915050565b60006104f08261053b565b91506104fb8361053b565b9250827fffffffffffffffffffffffffffffffffffffffffffffffffffffffffffffffff038211156105305761052f6105ea565b5b828201905092915050565b6000819050919050565b82818337600083830152505050565b60005b83811015610572578082015181840152602081019050610557565b83811115610581576000848401525b50505050565b6000600282049050600182168061059f57607f821691505b602082108114156105b3576105b2610619565b5b50919050565b6105c28261068b565b810181811067ffffffffffffffff821117156105e1576105e0610648565b5b80604052505050565b7f4e487b7100000000000000000000000000000000000000000000000000000000600052601160045260246000fd5b7f4e487b7100000000000000000000000000000000000000000000000000000000600052602260045260246000fd5b7f4e487b7100000000000000000000000000000000000000000000000000000000600052604160045260246000fd5b600080fd5b600080fd5b600080fd5b600080fd5b6000601f19601f8301169050919050565b6106a58161053b565b81146106b057600080fd5b5056fea2646970667358221220fe72e1804b76785d5fb3482c99d2d730336d97fa1c791a66afdd9e1748156f4d64736f6c63430008070033",
					"opcodes": "PUSH1 0x80 PUSH1 0x40 MSTORE PUSH1 0x1 DUP1 SSTORE CALLVALUE DUP1 ISZERO PUSH2 0x14 JUMPI PUSH1 0x0 DUP1 REVERT JUMPDEST POP PUSH2 0x6E9 DUP1 PUSH2 0x24 PUSH1 0x0 CODECOPY PUSH1 0x0 RETURN INVALID PUSH1 0x80 PUSH1 0x40 MSTORE CALLVALUE DUP1 ISZERO PUSH2 0x10 JUMPI PUSH1 0x0 DUP1 REVERT JUMPDEST POP PUSH1 0x4 CALLDATASIZE LT PUSH2 0x41 JUMPI PUSH1 0x0 CALLDATALOAD PUSH1 0xE0 SHR DUP1 PUSH4 0x36828B3C EQ PUSH2 0x46 JUMPI DUP1 PUSH4 0x6586ACE6 EQ PUSH2 0x62 JUMPI DUP1 PUSH4 0x94111360 EQ PUSH2 0x7E JUMPI JUMPDEST PUSH1 0x0 DUP1 REVERT JUMPDEST PUSH2 0x60 PUSH1 0x4 DUP1 CALLDATASIZE SUB DUP2 ADD SWAP1 PUSH2 0x5B SWAP2 SWAP1 PUSH2 0x3AD JUMP JUMPDEST PUSH2 0xB0 JUMP JUMPDEST STOP JUMPDEST PUSH2 0x7C PUSH1 0x4 DUP1 CALLDATASIZE SUB DUP2 ADD SWAP1 PUSH2 0x77 SWAP2 SWAP1 PUSH2 0x324 JUMP JUMPDEST PUSH2 0xE0 JUMP JUMPDEST STOP JUMPDEST PUSH2 0x98 PUSH1 0x4 DUP1 CALLDATASIZE SUB DUP2 ADD SWAP1 PUSH2 0x93 SWAP2 SWAP1 PUSH2 0x380 JUMP JUMPDEST PUSH2 0x14A JUMP JUMPDEST PUSH1 0x40 MLOAD PUSH2 0xA7 SWAP4 SWAP3 SWAP2 SWAP1 PUSH2 0x435 JUMP JUMPDEST PUSH1 0x40 MLOAD DUP1 SWAP2 SUB SWAP1 RETURN JUMPDEST DUP1 PUSH1 0x0 DUP1 DUP5 DUP2 MSTORE PUSH1 0x20 ADD SWAP1 DUP2 MSTORE PUSH1 0x20 ADD PUSH1 0x0 KECCAK256 PUSH1 0x2 ADD PUSH1 0x0 DUP3 DUP3 SLOAD PUSH2 0xD5 SWAP2 SWAP1 PUSH2 0x4E5 JUMP JUMPDEST SWAP3 POP POP DUP2 SWAP1 SSTORE POP POP POP JUMP JUMPDEST PUSH1 0x1 SLOAD PUSH1 0x0 DUP1 PUSH1 0x1 SLOAD DUP2 MSTORE PUSH1 0x20 ADD SWAP1 DUP2 MSTORE PUSH1 0x20 ADD PUSH1 0x0 KECCAK256 PUSH1 0x0 ADD DUP2 SWAP1 SSTORE POP DUP2 PUSH1 0x0 DUP1 PUSH1 0x1 SLOAD DUP2 MSTORE PUSH1 0x20 ADD SWAP1 DUP2 MSTORE PUSH1 0x20 ADD PUSH1 0x0 KECCAK256 PUSH1 0x1 ADD SWAP1 DUP1 MLOAD SWAP1 PUSH1 0x20 ADD SWAP1 PUSH2 0x129 SWAP3 SWAP2 SWAP1 PUSH2 0x1FC JUMP JUMPDEST POP DUP1 PUSH1 0x0 DUP1 PUSH1 0x1 SLOAD DUP2 MSTORE PUSH1 0x20 ADD SWAP1 DUP2 MSTORE PUSH1 0x20 ADD PUSH1 0x0 KECCAK256 PUSH1 0x2 ADD DUP2 SWAP1 SSTORE POP POP POP JUMP JUMPDEST PUSH1 0x0 PUSH1 0x20 MSTORE DUP1 PUSH1 0x0 MSTORE PUSH1 0x40 PUSH1 0x0 KECCAK256 PUSH1 0x0 SWAP2 POP SWAP1 POP DUP1 PUSH1 0x0 ADD SLOAD SWAP1 DUP1 PUSH1 0x1 ADD DUP1 SLOAD PUSH2 0x173 SWAP1 PUSH2 0x587 JUMP JUMPDEST DUP1 PUSH1 0x1F ADD PUSH1 0x20 DUP1 SWAP2 DIV MUL PUSH1 0x20 ADD PUSH1 0x40 MLOAD SWAP1 DUP2 ADD PUSH1 0x40 MSTORE DUP1 SWAP3 SWAP2 SWAP1 DUP2 DUP2 MSTORE PUSH1 0x20 ADD DUP3 DUP1 SLOAD PUSH2 0x19F SWAP1 PUSH2 0x587 JUMP JUMPDEST DUP1 ISZERO PUSH2 0x1EC JUMPI DUP1 PUSH1 0x1F LT PUSH2 0x1C1 JUMPI PUSH2 0x100 DUP1 DUP4 SLOAD DIV MUL DUP4 MSTORE SWAP2 PUSH1 0x20 ADD SWAP2 PUSH2 0x1EC JUMP JUMPDEST DUP3 ADD SWAP2 SWAP1 PUSH1 0x0 MSTORE PUSH1 0x20 PUSH1 0x0 KECCAK256 SWAP1 JUMPDEST DUP2 SLOAD DUP2 MSTORE SWAP1 PUSH1 0x1 ADD SWAP1 PUSH1 0x20 ADD DUP1 DUP4 GT PUSH2 0x1CF JUMPI DUP3 SWAP1 SUB PUSH1 0x1F AND DUP3 ADD SWAP2 JUMPDEST POP POP POP POP POP SWAP1 DUP1 PUSH1 0x2 ADD SLOAD SWAP1 POP DUP4 JUMP JUMPDEST DUP3 DUP1 SLOAD PUSH2 0x208 SWAP1 PUSH2 0x587 JUMP JUMPDEST SWAP1 PUSH1 0x0 MSTORE PUSH1 0x20 PUSH1 0x0 KECCAK256 SWAP1 PUSH1 0x1F ADD PUSH1 0x20 SWAP1 DIV DUP2 ADD SWAP3 DUP3 PUSH2 0x22A JUMPI PUSH1 0x0 DUP6 SSTORE PUSH2 0x271 JUMP JUMPDEST DUP3 PUSH1 0x1F LT PUSH2 0x243 JUMPI DUP1 MLOAD PUSH1 0xFF NOT AND DUP4 DUP1 ADD OR DUP6 SSTORE PUSH2 0x271 JUMP JUMPDEST DUP3 DUP1 ADD PUSH1 0x1 ADD DUP6 SSTORE DUP3 ISZERO PUSH2 0x271 JUMPI SWAP2 DUP3 ADD JUMPDEST DUP3 DUP2 GT ISZERO PUSH2 0x270 JUMPI DUP3 MLOAD DUP3 SSTORE SWAP2 PUSH1 0x20 ADD SWAP2 SWAP1 PUSH1 0x1 ADD SWAP1 PUSH2 0x255 JUMP JUMPDEST JUMPDEST POP SWAP1 POP PUSH2 0x27E SWAP2 SWAP1 PUSH2 0x282 JUMP JUMPDEST POP SWAP1 JUMP JUMPDEST JUMPDEST DUP1 DUP3 GT ISZERO PUSH2 0x29B JUMPI PUSH1 0x0 DUP2 PUSH1 0x0 SWAP1 SSTORE POP PUSH1 0x1 ADD PUSH2 0x283 JUMP JUMPDEST POP SWAP1 JUMP JUMPDEST PUSH1 0x0 PUSH2 0x2B2 PUSH2 0x2AD DUP5 PUSH2 0x498 JUMP JUMPDEST PUSH2 0x473 JUMP JUMPDEST SWAP1 POP DUP3 DUP2 MSTORE PUSH1 0x20 DUP2 ADD DUP5 DUP5 DUP5 ADD GT ISZERO PUSH2 0x2CE JUMPI PUSH2 0x2CD PUSH2 0x67C JUMP JUMPDEST JUMPDEST PUSH2 0x2D9 DUP5 DUP3 DUP6 PUSH2 0x545 JUMP JUMPDEST POP SWAP4 SWAP3 POP POP POP JUMP JUMPDEST PUSH1 0x0 DUP3 PUSH1 0x1F DUP4 ADD SLT PUSH2 0x2F6 JUMPI PUSH2 0x2F5 PUSH2 0x677 JUMP JUMPDEST JUMPDEST DUP2 CALLDATALOAD PUSH2 0x306 DUP5 DUP3 PUSH1 0x20 DUP7 ADD PUSH2 0x29F JUMP JUMPDEST SWAP2 POP POP SWAP3 SWAP2 POP POP JUMP JUMPDEST PUSH1 0x0 DUP2 CALLDATALOAD SWAP1 POP PUSH2 0x31E DUP2 PUSH2 0x69C JUMP JUMPDEST SWAP3 SWAP2 POP POP JUMP JUMPDEST PUSH1 0x0 DUP1 PUSH1 0x40 DUP4 DUP6 SUB SLT ISZERO PUSH2 0x33B JUMPI PUSH2 0x33A PUSH2 0x686 JUMP JUMPDEST JUMPDEST PUSH1 0x0 DUP4 ADD CALLDATALOAD PUSH8 0xFFFFFFFFFFFFFFFF DUP2 GT ISZERO PUSH2 0x359 JUMPI PUSH2 0x358 PUSH2 0x681 JUMP JUMPDEST JUMPDEST PUSH2 0x365 DUP6 DUP3 DUP7 ADD PUSH2 0x2E1 JUMP JUMPDEST SWAP3 POP POP PUSH1 0x20 PUSH2 0x376 DUP6 DUP3 DUP7 ADD PUSH2 0x30F JUMP JUMPDEST SWAP2 POP POP SWAP3 POP SWAP3 SWAP1 POP JUMP JUMPDEST PUSH1 0x0 PUSH1 0x20 DUP3 DUP5 SUB SLT ISZERO PUSH2 0x396 JUMPI PUSH2 0x395 PUSH2 0x686 JUMP JUMPDEST JUMPDEST PUSH1 0x0 PUSH2 0x3A4 DUP5 DUP3 DUP6 ADD PUSH2 0x30F JUMP JUMPDEST SWAP2 POP POP SWAP3 SWAP2 POP POP JUMP JUMPDEST PUSH1 0x0 DUP1 PUSH1 0x40 DUP4 DUP6 SUB SLT ISZERO PUSH2 0x3C4 JUMPI PUSH2 0x3C3 PUSH2 0x686 JUMP JUMPDEST JUMPDEST PUSH1 0x0 PUSH2 0x3D2 DUP6 DUP3 DUP7 ADD PUSH2 0x30F JUMP JUMPDEST SWAP3 POP POP PUSH1 0x20 PUSH2 0x3E3 DUP6 DUP3 DUP7 ADD PUSH2 0x30F JUMP JUMPDEST SWAP2 POP POP SWAP3 POP SWAP3 SWAP1 POP JUMP JUMPDEST PUSH1 0x0 PUSH2 0x3F8 DUP3 PUSH2 0x4C9 JUMP JUMPDEST PUSH2 0x402 DUP2 DUP6 PUSH2 0x4D4 JUMP JUMPDEST SWAP4 POP PUSH2 0x412 DUP2 DUP6 PUSH1 0x20 DUP7 ADD PUSH2 0x554 JUMP JUMPDEST PUSH2 0x41B DUP2 PUSH2 0x68B JUMP JUMPDEST DUP5 ADD SWAP2 POP POP SWAP3 SWAP2 POP POP JUMP JUMPDEST PUSH2 0x42F DUP2 PUSH2 0x53B JUMP JUMPDEST DUP3 MSTORE POP POP JUMP JUMPDEST PUSH1 0x0 PUSH1 0x60 DUP3 ADD SWAP1 POP PUSH2 0x44A PUSH1 0x0 DUP4 ADD DUP7 PUSH2 0x426 JUMP JUMPDEST DUP2 DUP2 SUB PUSH1 0x20 DUP4 ADD MSTORE PUSH2 0x45C DUP2 DUP6 PUSH2 0x3ED JUMP JUMPDEST SWAP1 POP PUSH2 0x46B PUSH1 0x40 DUP4 ADD DUP5 PUSH2 0x426 JUMP JUMPDEST SWAP5 SWAP4 POP POP POP POP JUMP JUMPDEST PUSH1 0x0 PUSH2 0x47D PUSH2 0x48E JUMP JUMPDEST SWAP1 POP PUSH2 0x489 DUP3 DUP3 PUSH2 0x5B9 JUMP JUMPDEST SWAP2 SWAP1 POP JUMP JUMPDEST PUSH1 0x0 PUSH1 0x40 MLOAD SWAP1 POP SWAP1 JUMP JUMPDEST PUSH1 0x0 PUSH8 0xFFFFFFFFFFFFFFFF DUP3 GT ISZERO PUSH2 0x4B3 JUMPI PUSH2 0x4B2 PUSH2 0x648 JUMP JUMPDEST JUMPDEST PUSH2 0x4BC DUP3 PUSH2 0x68B JUMP JUMPDEST SWAP1 POP PUSH1 0x20 DUP2 ADD SWAP1 POP SWAP2 SWAP1 POP JUMP JUMPDEST PUSH1 0x0 DUP2 MLOAD SWAP1 POP SWAP2 SWAP1 POP JUMP JUMPDEST PUSH1 0x0 DUP3 DUP3 MSTORE PUSH1 0x20 DUP3 ADD SWAP1 POP SWAP3 SWAP2 POP POP JUMP JUMPDEST PUSH1 0x0 PUSH2 0x4F0 DUP3 PUSH2 0x53B JUMP JUMPDEST SWAP2 POP PUSH2 0x4FB DUP4 PUSH2 0x53B JUMP JUMPDEST SWAP3 POP DUP3 PUSH32 0xFFFFFFFFFFFFFFFFFFFFFFFFFFFFFFFFFFFFFFFFFFFFFFFFFFFFFFFFFFFFFFFF SUB DUP3 GT ISZERO PUSH2 0x530 JUMPI PUSH2 0x52F PUSH2 0x5EA JUMP JUMPDEST JUMPDEST DUP3 DUP3 ADD SWAP1 POP SWAP3 SWAP2 POP POP JUMP JUMPDEST PUSH1 0x0 DUP2 SWAP1 POP SWAP2 SWAP1 POP JUMP JUMPDEST DUP3 DUP2 DUP4 CALLDATACOPY PUSH1 0x0 DUP4 DUP4 ADD MSTORE POP POP POP JUMP JUMPDEST PUSH1 0x0 JUMPDEST DUP4 DUP2 LT ISZERO PUSH2 0x572 JUMPI DUP1 DUP3 ADD MLOAD DUP2 DUP5 ADD MSTORE PUSH1 0x20 DUP2 ADD SWAP1 POP PUSH2 0x557 JUMP JUMPDEST DUP4 DUP2 GT ISZERO PUSH2 0x581 JUMPI PUSH1 0x0 DUP5 DUP5 ADD MSTORE JUMPDEST POP POP POP POP JUMP JUMPDEST PUSH1 0x0 PUSH1 0x2 DUP3 DIV SWAP1 POP PUSH1 0x1 DUP3 AND DUP1 PUSH2 0x59F JUMPI PUSH1 0x7F DUP3 AND SWAP2 POP JUMPDEST PUSH1 0x20 DUP3 LT DUP2 EQ ISZERO PUSH2 0x5B3 JUMPI PUSH2 0x5B2 PUSH2 0x619 JUMP JUMPDEST JUMPDEST POP SWAP2 SWAP1 POP JUMP JUMPDEST PUSH2 0x5C2 DUP3 PUSH2 0x68B JUMP JUMPDEST DUP2 ADD DUP2 DUP2 LT PUSH8 0xFFFFFFFFFFFFFFFF DUP3 GT OR ISZERO PUSH2 0x5E1 JUMPI PUSH2 0x5E0 PUSH2 0x648 JUMP JUMPDEST JUMPDEST DUP1 PUSH1 0x40 MSTORE POP POP POP JUMP JUMPDEST PUSH32 0x4E487B7100000000000000000000000000000000000000000000000000000000 PUSH1 0x0 MSTORE PUSH1 0x11 PUSH1 0x4 MSTORE PUSH1 0x24 PUSH1 0x0 REVERT JUMPDEST PUSH32 0x4E487B7100000000000000000000000000000000000000000000000000000000 PUSH1 0x0 MSTORE PUSH1 0x22 PUSH1 0x4 MSTORE PUSH1 0x24 PUSH1 0x0 REVERT JUMPDEST PUSH32 0x4E487B7100000000000000000000000000000000000000000000000000000000 PUSH1 0x0 MSTORE PUSH1 0x41 PUSH1 0x4 MSTORE PUSH1 0x24 PUSH1 0x0 REVERT JUMPDEST PUSH1 0x0 DUP1 REVERT JUMPDEST PUSH1 0x0 DUP1 REVERT JUMPDEST PUSH1 0x0 DUP1 REVERT JUMPDEST PUSH1 0x0 DUP1 REVERT JUMPDEST PUSH1 0x0 PUSH1 0x1F NOT PUSH1 0x1F DUP4 ADD AND SWAP1 POP SWAP2 SWAP1 POP JUMP JUMPDEST PUSH2 0x6A5 DUP2 PUSH2 0x53B JUMP JUMPDEST DUP2 EQ PUSH2 0x6B0 JUMPI PUSH1 0x0 DUP1 REVERT JUMPDEST POP JUMP INVALID LOG2 PUSH5 0x6970667358 0x22 SLT KECCAK256 INVALID PUSH19 0xE1804B76785D5FB3482C99D2D730336D97FA1C PUSH26 0x1A66AFDD9E1748156F4D64736F6C634300080700330000000000 "
				},
				"gasEstimates": {
					"creation": {
						"codeDepositCost": "353800",
						"executionCost": "22499",
						"totalCost": "376299"
					},
					"external": {
						"createAccount(string,uint256)": "infinite",
						"depositMoney(uint256,uint256)": "infinite",
						"userDatabase(uint256)": "infinite"
					}
				},
				"methodIdentifiers": {
					"createAccount(string,uint256)": "6586ace6",
					"depositMoney(uint256,uint256)": "36828b3c",
					"userDatabase(uint256)": "94111360"
				}
			},
			"storageLayout": {
				"storage": [
					{
						"astId": 13,
						"contract": "contracts/LaxmiChitFund.sol:LaxmichitFundBank",
						"label": "userDatabase",
						"offset": 0,
						"slot": "0",
						"type": "t_mapping(t_uint256,t_struct(User)8_storage)"
					},
					{
						"astId": 16,
						"contract": "contracts/LaxmiChitFund.sol:LaxmichitFundBank",
						"label": "_id",
						"offset": 0,
						"slot": "1",
						"type": "t_uint256"
					}
				],
				"types": {
					"t_mapping(t_uint256,t_struct(User)8_storage)": {
						"encoding": "mapping",
						"key": "t_uint256",
						"label": "mapping(uint256 => struct LaxmichitFundBank.User)",
						"numberOfBytes": "32",
						"value": "t_struct(User)8_storage"
					},
					"t_string_storage": {
						"encoding": "bytes",
						"label": "string",
						"numberOfBytes": "32"
					},
					"t_struct(User)8_storage": {
						"encoding": "inplace",
						"label": "struct LaxmichitFundBank.User",
						"members": [
							{
								"astId": 3,
								"contract": "contracts/LaxmiChitFund.sol:LaxmichitFundBank",
								"label": "id",
								"offset": 0,
								"slot": "0",
								"type": "t_uint256"
							},
							{
								"astId": 5,
								"contract": "contracts/LaxmiChitFund.sol:LaxmichitFundBank",
								"label": "name",
								"offset": 0,
								"slot": "1",
								"type": "t_string_storage"
							},
							{
								"astId": 7,
								"contract": "contracts/LaxmiChitFund.sol:LaxmichitFundBank",
								"label": "balance",
								"offset": 0,
								"slot": "2",
								"type": "t_uint256"
							}
						],
						"numberOfBytes": "96"
					},
					"t_uint256": {
						"encoding": "inplace",
						"label": "uint256",
						"numberOfBytes": "32"
					}
				}
			},
			"userdoc": {
				"kind": "user",
				"methods": {},
				"version": 1
			}
		}
	}
}