{
	"contracts/Vending_Machine.sol": {
		"VendingMachine": {
			"abi": [
				{
					"inputs": [],
					"stateMutability": "nonpayable",
					"type": "constructor"
				},
				{
					"inputs": [],
					"name": "Owner",
					"outputs": [
						{
							"internalType": "address",
							"name": "",
							"type": "address"
						}
					],
					"stateMutability": "view",
					"type": "function"
				},
				{
					"inputs": [
						{
							"internalType": "uint256",
							"name": "amount",
							"type": "uint256"
						}
					],
					"name": "Purchase",
					"outputs": [],
					"stateMutability": "payable",
					"type": "function"
				},
				{
					"inputs": [
						{
							"internalType": "address",
							"name": "",
							"type": "address"
						}
					],
					"name": "donutBalances",
					"outputs": [
						{
							"internalType": "uint256",
							"name": "",
							"type": "uint256"
						}
					],
					"stateMutability": "view",
					"type": "function"
				},
				{
					"inputs": [],
					"name": "getVendingMachineBalance",
					"outputs": [
						{
							"internalType": "uint256",
							"name": "",
							"type": "uint256"
						}
					],
					"stateMutability": "view",
					"type": "function"
				},
				{
					"inputs": [
						{
							"internalType": "uint256",
							"name": "amount",
							"type": "uint256"
						}
					],
					"name": "restoct",
					"outputs": [],
					"stateMutability": "nonpayable",
					"type": "function"
				}
			],
			"devdoc": {
				"kind": "dev",
				"methods": {},
				"version": 1
			},
			"evm": {
				"assembly": "    /* \"contracts/Vending_Machine.sol\":64:775  contract VendingMachine{... */\n  mstore(0x40, 0x80)\n    /* \"contracts/Vending_Machine.sol\":164:241  constructor(){... */\n  callvalue\n  dup1\n  iszero\n  tag_1\n  jumpi\n  0x00\n  dup1\n  revert\ntag_1:\n  pop\n    /* \"contracts/Vending_Machine.sol\":189:199  msg.sender */\n  caller\n    /* \"contracts/Vending_Machine.sol\":183:188  Owner */\n  0x00\n  dup1\n    /* \"contracts/Vending_Machine.sol\":183:199  Owner=msg.sender */\n  0x0100\n  exp\n  dup2\n  sload\n  dup2\n  0xffffffffffffffffffffffffffffffffffffffff\n  mul\n  not\n  and\n  swap1\n  dup4\n  0xffffffffffffffffffffffffffffffffffffffff\n  and\n  mul\n  or\n  swap1\n  sstore\n  pop\n    /* \"contracts/Vending_Machine.sol\":234:237  100 */\n  0x64\n    /* \"contracts/Vending_Machine.sol\":205:218  donutBalances */\n  0x01\n    /* \"contracts/Vending_Machine.sol\":205:233  donutBalances[address(this)] */\n  0x00\n    /* \"contracts/Vending_Machine.sol\":227:231  this */\n  address\n    /* \"contracts/Vending_Machine.sol\":205:233  donutBalances[address(this)] */\n  0xffffffffffffffffffffffffffffffffffffffff\n  and\n  0xffffffffffffffffffffffffffffffffffffffff\n  and\n  dup2\n  mstore\n  0x20\n  add\n  swap1\n  dup2\n  mstore\n  0x20\n  add\n  0x00\n  keccak256\n    /* \"contracts/Vending_Machine.sol\":205:237  donutBalances[address(this)]=100 */\n  dup2\n  swap1\n  sstore\n  pop\n    /* \"contracts/Vending_Machine.sol\":64:775  contract VendingMachine{... */\n  dataSize(sub_0)\n  dup1\n  dataOffset(sub_0)\n  0x00\n  codecopy\n  0x00\n  return\nstop\n\nsub_0: assembly {\n        /* \"contracts/Vending_Machine.sol\":64:775  contract VendingMachine{... */\n      mstore(0x40, 0x80)\n      jumpi(tag_1, lt(calldatasize, 0x04))\n      shr(0xe0, calldataload(0x00))\n      dup1\n      0x9a020d8a\n      eq\n      tag_2\n      jumpi\n      dup1\n      0xb4a99a4e\n      eq\n      tag_3\n      jumpi\n      dup1\n      0xb5039326\n      eq\n      tag_4\n      jumpi\n      dup1\n      0xe2aeb2ae\n      eq\n      tag_5\n      jumpi\n      dup1\n      0xe7644d34\n      eq\n      tag_6\n      jumpi\n    tag_1:\n      0x00\n      dup1\n      revert\n        /* \"contracts/Vending_Machine.sol\":119:162  mapping(address=>uint) public donutBalances */\n    tag_2:\n      callvalue\n      dup1\n      iszero\n      tag_7\n      jumpi\n      0x00\n      dup1\n      revert\n    tag_7:\n      pop\n      tag_8\n      0x04\n      dup1\n      calldatasize\n      sub\n      dup2\n      add\n      swap1\n      tag_9\n      swap2\n      swap1\n      tag_10\n      jump\t// in\n    tag_9:\n      tag_11\n      jump\t// in\n    tag_8:\n      mload(0x40)\n      tag_12\n      swap2\n      swap1\n      tag_13\n      jump\t// in\n    tag_12:\n      mload(0x40)\n      dup1\n      swap2\n      sub\n      swap1\n      return\n        /* \"contracts/Vending_Machine.sol\":93:113  address public Owner */\n    tag_3:\n      callvalue\n      dup1\n      iszero\n      tag_14\n      jumpi\n      0x00\n      dup1\n      revert\n    tag_14:\n      pop\n      tag_15\n      tag_16\n      jump\t// in\n    tag_15:\n      mload(0x40)\n      tag_17\n      swap2\n      swap1\n      tag_18\n      jump\t// in\n    tag_17:\n      mload(0x40)\n      dup1\n      swap2\n      sub\n      swap1\n      return\n        /* \"contracts/Vending_Machine.sol\":345:496  function restoct(uint amount) public {... */\n    tag_4:\n      callvalue\n      dup1\n      iszero\n      tag_19\n      jumpi\n      0x00\n      dup1\n      revert\n    tag_19:\n      pop\n      tag_20\n      0x04\n      dup1\n      calldatasize\n      sub\n      dup2\n      add\n      swap1\n      tag_21\n      swap2\n      swap1\n      tag_22\n      jump\t// in\n    tag_21:\n      tag_23\n      jump\t// in\n    tag_20:\n      stop\n        /* \"contracts/Vending_Machine.sol\":497:773  function Purchase(uint256 amount)public payable{... */\n    tag_5:\n      tag_24\n      0x04\n      dup1\n      calldatasize\n      sub\n      dup2\n      add\n      swap1\n      tag_25\n      swap2\n      swap1\n      tag_22\n      jump\t// in\n    tag_25:\n      tag_26\n      jump\t// in\n    tag_24:\n      stop\n        /* \"contracts/Vending_Machine.sol\":242:344  function getVendingMachineBalance() public view returns(uint){... */\n    tag_6:\n      callvalue\n      dup1\n      iszero\n      tag_27\n      jumpi\n      0x00\n      dup1\n      revert\n    tag_27:\n      pop\n      tag_28\n      tag_29\n      jump\t// in\n    tag_28:\n      mload(0x40)\n      tag_30\n      swap2\n      swap1\n      tag_13\n      jump\t// in\n    tag_30:\n      mload(0x40)\n      dup1\n      swap2\n      sub\n      swap1\n      return\n        /* \"contracts/Vending_Machine.sol\":119:162  mapping(address=>uint) public donutBalances */\n    tag_11:\n      mstore(0x20, 0x01)\n      dup1\n      0x00\n      mstore\n      keccak256(0x00, 0x40)\n      0x00\n      swap2\n      pop\n      swap1\n      pop\n      sload\n      dup2\n      jump\t// out\n        /* \"contracts/Vending_Machine.sol\":93:113  address public Owner */\n    tag_16:\n      0x00\n      dup1\n      sload\n      swap1\n      0x0100\n      exp\n      swap1\n      div\n      0xffffffffffffffffffffffffffffffffffffffff\n      and\n      dup2\n      jump\t// out\n        /* \"contracts/Vending_Machine.sol\":345:496  function restoct(uint amount) public {... */\n    tag_23:\n        /* \"contracts/Vending_Machine.sol\":408:413  Owner */\n      0x00\n      dup1\n      sload\n      swap1\n      0x0100\n      exp\n      swap1\n      div\n      0xffffffffffffffffffffffffffffffffffffffff\n      and\n        /* \"contracts/Vending_Machine.sol\":396:413  msg.sender==Owner */\n      0xffffffffffffffffffffffffffffffffffffffff\n      and\n        /* \"contracts/Vending_Machine.sol\":396:406  msg.sender */\n      caller\n        /* \"contracts/Vending_Machine.sol\":396:413  msg.sender==Owner */\n      0xffffffffffffffffffffffffffffffffffffffff\n      and\n      eq\n        /* \"contracts/Vending_Machine.sol\":388:451  require(msg.sender==Owner,\"Only Owner can restart the Machine\") */\n      tag_32\n      jumpi\n      mload(0x40)\n      0x08c379a000000000000000000000000000000000000000000000000000000000\n      dup2\n      mstore\n      0x04\n      add\n      tag_33\n      swap1\n      tag_34\n      jump\t// in\n    tag_33:\n      mload(0x40)\n      dup1\n      swap2\n      sub\n      swap1\n      revert\n    tag_32:\n        /* \"contracts/Vending_Machine.sol\":487:493  amount */\n      dup1\n        /* \"contracts/Vending_Machine.sol\":457:470  donutBalances */\n      0x01\n        /* \"contracts/Vending_Machine.sol\":457:485  donutBalances[address(this)] */\n      0x00\n        /* \"contracts/Vending_Machine.sol\":479:483  this */\n      address\n        /* \"contracts/Vending_Machine.sol\":457:485  donutBalances[address(this)] */\n      0xffffffffffffffffffffffffffffffffffffffff\n      and\n      0xffffffffffffffffffffffffffffffffffffffff\n      and\n      dup2\n      mstore\n      0x20\n      add\n      swap1\n      dup2\n      mstore\n      0x20\n      add\n      0x00\n      keccak256\n      0x00\n        /* \"contracts/Vending_Machine.sol\":457:493  donutBalances[address(this)]+=amount */\n      dup3\n      dup3\n      sload\n      tag_35\n      swap2\n      swap1\n      tag_36\n      jump\t// in\n    tag_35:\n      swap3\n      pop\n      pop\n      dup2\n      swap1\n      sstore\n      pop\n        /* \"contracts/Vending_Machine.sol\":345:496  function restoct(uint amount) public {... */\n      pop\n      jump\t// out\n        /* \"contracts/Vending_Machine.sol\":497:773  function Purchase(uint256 amount)public payable{... */\n    tag_26:\n        /* \"contracts/Vending_Machine.sol\":575:582  2 ether */\n      0x1bc16d674ec80000\n        /* \"contracts/Vending_Machine.sol\":568:574  amount */\n      dup2\n        /* \"contracts/Vending_Machine.sol\":568:582  amount*2 ether */\n      tag_38\n      swap2\n      swap1\n      tag_39\n      jump\t// in\n    tag_38:\n        /* \"contracts/Vending_Machine.sol\":558:567  msg.value */\n      callvalue\n        /* \"contracts/Vending_Machine.sol\":558:582  msg.value>amount*2 ether */\n      gt\n        /* \"contracts/Vending_Machine.sol\":550:608  require(msg.value>amount*2 ether,\"You must pay 2 ethers \") */\n      tag_40\n      jumpi\n      mload(0x40)\n      0x08c379a000000000000000000000000000000000000000000000000000000000\n      dup2\n      mstore\n      0x04\n      add\n      tag_41\n      swap1\n      tag_42\n      jump\t// in\n    tag_41:\n      mload(0x40)\n      dup1\n      swap2\n      sub\n      swap1\n      revert\n    tag_40:\n        /* \"contracts/Vending_Machine.sol\":651:657  amount */\n      dup1\n        /* \"contracts/Vending_Machine.sol\":622:635  donutBalances */\n      0x01\n        /* \"contracts/Vending_Machine.sol\":622:650  donutBalances[address(this)] */\n      0x00\n        /* \"contracts/Vending_Machine.sol\":644:648  this */\n      address\n        /* \"contracts/Vending_Machine.sol\":622:650  donutBalances[address(this)] */\n      0xffffffffffffffffffffffffffffffffffffffff\n      and\n      0xffffffffffffffffffffffffffffffffffffffff\n      and\n      dup2\n      mstore\n      0x20\n      add\n      swap1\n      dup2\n      mstore\n      0x20\n      add\n      0x00\n      keccak256\n      sload\n        /* \"contracts/Vending_Machine.sol\":622:657  donutBalances[address(this)]>amount */\n      gt\n        /* \"contracts/Vending_Machine.sol\":614:689  require(donutBalances[address(this)]>amount,\"We Don't have enough donuts \") */\n      tag_43\n      jumpi\n      mload(0x40)\n      0x08c379a000000000000000000000000000000000000000000000000000000000\n      dup2\n      mstore\n      0x04\n      add\n      tag_44\n      swap1\n      tag_45\n      jump\t// in\n    tag_44:\n      mload(0x40)\n      dup1\n      swap2\n      sub\n      swap1\n      revert\n    tag_43:\n        /* \"contracts/Vending_Machine.sol\":725:731  amount */\n      dup1\n        /* \"contracts/Vending_Machine.sol\":695:708  donutBalances */\n      0x01\n        /* \"contracts/Vending_Machine.sol\":695:723  donutBalances[address(this)] */\n      0x00\n        /* \"contracts/Vending_Machine.sol\":717:721  this */\n      address\n        /* \"contracts/Vending_Machine.sol\":695:723  donutBalances[address(this)] */\n      0xffffffffffffffffffffffffffffffffffffffff\n      and\n      0xffffffffffffffffffffffffffffffffffffffff\n      and\n      dup2\n      mstore\n      0x20\n      add\n      swap1\n      dup2\n      mstore\n      0x20\n      add\n      0x00\n      keccak256\n      0x00\n        /* \"contracts/Vending_Machine.sol\":695:731  donutBalances[address(this)]-=amount */\n      dup3\n      dup3\n      sload\n      tag_46\n      swap2\n      swap1\n      tag_47\n      jump\t// in\n    tag_46:\n      swap3\n      pop\n      pop\n      dup2\n      swap1\n      sstore\n      pop\n        /* \"contracts/Vending_Machine.sol\":764:770  amount */\n      dup1\n        /* \"contracts/Vending_Machine.sol\":737:750  donutBalances */\n      0x01\n        /* \"contracts/Vending_Machine.sol\":737:762  donutBalances[msg.sender] */\n      0x00\n        /* \"contracts/Vending_Machine.sol\":751:761  msg.sender */\n      caller\n        /* \"contracts/Vending_Machine.sol\":737:762  donutBalances[msg.sender] */\n      0xffffffffffffffffffffffffffffffffffffffff\n      and\n      0xffffffffffffffffffffffffffffffffffffffff\n      and\n      dup2\n      mstore\n      0x20\n      add\n      swap1\n      dup2\n      mstore\n      0x20\n      add\n      0x00\n      keccak256\n      0x00\n        /* \"contracts/Vending_Machine.sol\":737:770  donutBalances[msg.sender]+=amount */\n      dup3\n      dup3\n      sload\n      tag_48\n      swap2\n      swap1\n      tag_36\n      jump\t// in\n    tag_48:\n      swap3\n      pop\n      pop\n      dup2\n      swap1\n      sstore\n      pop\n        /* \"contracts/Vending_Machine.sol\":497:773  function Purchase(uint256 amount)public payable{... */\n      pop\n      jump\t// out\n        /* \"contracts/Vending_Machine.sol\":242:344  function getVendingMachineBalance() public view returns(uint){... */\n    tag_29:\n        /* \"contracts/Vending_Machine.sol\":298:302  uint */\n      0x00\n        /* \"contracts/Vending_Machine.sol\":312:325  donutBalances */\n      0x01\n        /* \"contracts/Vending_Machine.sol\":312:340  donutBalances[address(this)] */\n      0x00\n        /* \"contracts/Vending_Machine.sol\":334:338  this */\n      address\n        /* \"contracts/Vending_Machine.sol\":312:340  donutBalances[address(this)] */\n      0xffffffffffffffffffffffffffffffffffffffff\n      and\n      0xffffffffffffffffffffffffffffffffffffffff\n      and\n      dup2\n      mstore\n      0x20\n      add\n      swap1\n      dup2\n      mstore\n      0x20\n      add\n      0x00\n      keccak256\n      sload\n        /* \"contracts/Vending_Machine.sol\":305:340  return donutBalances[address(this)] */\n      swap1\n      pop\n        /* \"contracts/Vending_Machine.sol\":242:344  function getVendingMachineBalance() public view returns(uint){... */\n      swap1\n      jump\t// out\n        /* \"#utility.yul\":7:146   */\n    tag_51:\n        /* \"#utility.yul\":53:58   */\n      0x00\n        /* \"#utility.yul\":91:97   */\n      dup2\n        /* \"#utility.yul\":78:98   */\n      calldataload\n        /* \"#utility.yul\":69:98   */\n      swap1\n      pop\n        /* \"#utility.yul\":107:140   */\n      tag_53\n        /* \"#utility.yul\":134:139   */\n      dup2\n        /* \"#utility.yul\":107:140   */\n      tag_54\n      jump\t// in\n    tag_53:\n        /* \"#utility.yul\":7:146   */\n      swap3\n      swap2\n      pop\n      pop\n      jump\t// out\n        /* \"#utility.yul\":152:291   */\n    tag_55:\n        /* \"#utility.yul\":198:203   */\n      0x00\n        /* \"#utility.yul\":236:242   */\n      dup2\n        /* \"#utility.yul\":223:243   */\n      calldataload\n        /* \"#utility.yul\":214:243   */\n      swap1\n      pop\n        /* \"#utility.yul\":252:285   */\n      tag_57\n        /* \"#utility.yul\":279:284   */\n      dup2\n        /* \"#utility.yul\":252:285   */\n      tag_58\n      jump\t// in\n    tag_57:\n        /* \"#utility.yul\":152:291   */\n      swap3\n      swap2\n      pop\n      pop\n      jump\t// out\n        /* \"#utility.yul\":297:626   */\n    tag_10:\n        /* \"#utility.yul\":356:362   */\n      0x00\n        /* \"#utility.yul\":405:407   */\n      0x20\n        /* \"#utility.yul\":393:402   */\n      dup3\n        /* \"#utility.yul\":384:391   */\n      dup5\n        /* \"#utility.yul\":380:403   */\n      sub\n        /* \"#utility.yul\":376:408   */\n      slt\n        /* \"#utility.yul\":373:492   */\n      iszero\n      tag_60\n      jumpi\n        /* \"#utility.yul\":411:490   */\n      tag_61\n      tag_62\n      jump\t// in\n    tag_61:\n        /* \"#utility.yul\":373:492   */\n    tag_60:\n        /* \"#utility.yul\":531:532   */\n      0x00\n        /* \"#utility.yul\":556:609   */\n      tag_63\n        /* \"#utility.yul\":601:608   */\n      dup5\n        /* \"#utility.yul\":592:598   */\n      dup3\n        /* \"#utility.yul\":581:590   */\n      dup6\n        /* \"#utility.yul\":577:599   */\n      add\n        /* \"#utility.yul\":556:609   */\n      tag_51\n      jump\t// in\n    tag_63:\n        /* \"#utility.yul\":546:609   */\n      swap2\n      pop\n        /* \"#utility.yul\":502:619   */\n      pop\n        /* \"#utility.yul\":297:626   */\n      swap3\n      swap2\n      pop\n      pop\n      jump\t// out\n        /* \"#utility.yul\":632:961   */\n    tag_22:\n        /* \"#utility.yul\":691:697   */\n      0x00\n        /* \"#utility.yul\":740:742   */\n      0x20\n        /* \"#utility.yul\":728:737   */\n      dup3\n        /* \"#utility.yul\":719:726   */\n      dup5\n        /* \"#utility.yul\":715:738   */\n      sub\n        /* \"#utility.yul\":711:743   */\n      slt\n        /* \"#utility.yul\":708:827   */\n      iszero\n      tag_65\n      jumpi\n        /* \"#utility.yul\":746:825   */\n      tag_66\n      tag_62\n      jump\t// in\n    tag_66:\n        /* \"#utility.yul\":708:827   */\n    tag_65:\n        /* \"#utility.yul\":866:867   */\n      0x00\n        /* \"#utility.yul\":891:944   */\n      tag_67\n        /* \"#utility.yul\":936:943   */\n      dup5\n        /* \"#utility.yul\":927:933   */\n      dup3\n        /* \"#utility.yul\":916:925   */\n      dup6\n        /* \"#utility.yul\":912:934   */\n      add\n        /* \"#utility.yul\":891:944   */\n      tag_55\n      jump\t// in\n    tag_67:\n        /* \"#utility.yul\":881:944   */\n      swap2\n      pop\n        /* \"#utility.yul\":837:954   */\n      pop\n        /* \"#utility.yul\":632:961   */\n      swap3\n      swap2\n      pop\n      pop\n      jump\t// out\n        /* \"#utility.yul\":967:1085   */\n    tag_68:\n        /* \"#utility.yul\":1054:1078   */\n      tag_70\n        /* \"#utility.yul\":1072:1077   */\n      dup2\n        /* \"#utility.yul\":1054:1078   */\n      tag_71\n      jump\t// in\n    tag_70:\n        /* \"#utility.yul\":1049:1052   */\n      dup3\n        /* \"#utility.yul\":1042:1079   */\n      mstore\n        /* \"#utility.yul\":967:1085   */\n      pop\n      pop\n      jump\t// out\n        /* \"#utility.yul\":1091:1457   */\n    tag_72:\n        /* \"#utility.yul\":1233:1236   */\n      0x00\n        /* \"#utility.yul\":1254:1321   */\n      tag_74\n        /* \"#utility.yul\":1318:1320   */\n      0x1c\n        /* \"#utility.yul\":1313:1316   */\n      dup4\n        /* \"#utility.yul\":1254:1321   */\n      tag_75\n      jump\t// in\n    tag_74:\n        /* \"#utility.yul\":1247:1321   */\n      swap2\n      pop\n        /* \"#utility.yul\":1330:1423   */\n      tag_76\n        /* \"#utility.yul\":1419:1422   */\n      dup3\n        /* \"#utility.yul\":1330:1423   */\n      tag_77\n      jump\t// in\n    tag_76:\n        /* \"#utility.yul\":1448:1450   */\n      0x20\n        /* \"#utility.yul\":1443:1446   */\n      dup3\n        /* \"#utility.yul\":1439:1451   */\n      add\n        /* \"#utility.yul\":1432:1451   */\n      swap1\n      pop\n        /* \"#utility.yul\":1091:1457   */\n      swap2\n      swap1\n      pop\n      jump\t// out\n        /* \"#utility.yul\":1463:1829   */\n    tag_78:\n        /* \"#utility.yul\":1605:1608   */\n      0x00\n        /* \"#utility.yul\":1626:1693   */\n      tag_80\n        /* \"#utility.yul\":1690:1692   */\n      0x22\n        /* \"#utility.yul\":1685:1688   */\n      dup4\n        /* \"#utility.yul\":1626:1693   */\n      tag_75\n      jump\t// in\n    tag_80:\n        /* \"#utility.yul\":1619:1693   */\n      swap2\n      pop\n        /* \"#utility.yul\":1702:1795   */\n      tag_81\n        /* \"#utility.yul\":1791:1794   */\n      dup3\n        /* \"#utility.yul\":1702:1795   */\n      tag_82\n      jump\t// in\n    tag_81:\n        /* \"#utility.yul\":1820:1822   */\n      0x40\n        /* \"#utility.yul\":1815:1818   */\n      dup3\n        /* \"#utility.yul\":1811:1823   */\n      add\n        /* \"#utility.yul\":1804:1823   */\n      swap1\n      pop\n        /* \"#utility.yul\":1463:1829   */\n      swap2\n      swap1\n      pop\n      jump\t// out\n        /* \"#utility.yul\":1835:2201   */\n    tag_83:\n        /* \"#utility.yul\":1977:1980   */\n      0x00\n        /* \"#utility.yul\":1998:2065   */\n      tag_85\n        /* \"#utility.yul\":2062:2064   */\n      0x16\n        /* \"#utility.yul\":2057:2060   */\n      dup4\n        /* \"#utility.yul\":1998:2065   */\n      tag_75\n      jump\t// in\n    tag_85:\n        /* \"#utility.yul\":1991:2065   */\n      swap2\n      pop\n        /* \"#utility.yul\":2074:2167   */\n      tag_86\n        /* \"#utility.yul\":2163:2166   */\n      dup3\n        /* \"#utility.yul\":2074:2167   */\n      tag_87\n      jump\t// in\n    tag_86:\n        /* \"#utility.yul\":2192:2194   */\n      0x20\n        /* \"#utility.yul\":2187:2190   */\n      dup3\n        /* \"#utility.yul\":2183:2195   */\n      add\n        /* \"#utility.yul\":2176:2195   */\n      swap1\n      pop\n        /* \"#utility.yul\":1835:2201   */\n      swap2\n      swap1\n      pop\n      jump\t// out\n        /* \"#utility.yul\":2207:2325   */\n    tag_88:\n        /* \"#utility.yul\":2294:2318   */\n      tag_90\n        /* \"#utility.yul\":2312:2317   */\n      dup2\n        /* \"#utility.yul\":2294:2318   */\n      tag_91\n      jump\t// in\n    tag_90:\n        /* \"#utility.yul\":2289:2292   */\n      dup3\n        /* \"#utility.yul\":2282:2319   */\n      mstore\n        /* \"#utility.yul\":2207:2325   */\n      pop\n      pop\n      jump\t// out\n        /* \"#utility.yul\":2331:2553   */\n    tag_18:\n        /* \"#utility.yul\":2424:2428   */\n      0x00\n        /* \"#utility.yul\":2462:2464   */\n      0x20\n        /* \"#utility.yul\":2451:2460   */\n      dup3\n        /* \"#utility.yul\":2447:2465   */\n      add\n        /* \"#utility.yul\":2439:2465   */\n      swap1\n      pop\n        /* \"#utility.yul\":2475:2546   */\n      tag_93\n        /* \"#utility.yul\":2543:2544   */\n      0x00\n        /* \"#utility.yul\":2532:2541   */\n      dup4\n        /* \"#utility.yul\":2528:2545   */\n      add\n        /* \"#utility.yul\":2519:2525   */\n      dup5\n        /* \"#utility.yul\":2475:2546   */\n      tag_68\n      jump\t// in\n    tag_93:\n        /* \"#utility.yul\":2331:2553   */\n      swap3\n      swap2\n      pop\n      pop\n      jump\t// out\n        /* \"#utility.yul\":2559:2978   */\n    tag_45:\n        /* \"#utility.yul\":2725:2729   */\n      0x00\n        /* \"#utility.yul\":2763:2765   */\n      0x20\n        /* \"#utility.yul\":2752:2761   */\n      dup3\n        /* \"#utility.yul\":2748:2766   */\n      add\n        /* \"#utility.yul\":2740:2766   */\n      swap1\n      pop\n        /* \"#utility.yul\":2812:2821   */\n      dup2\n        /* \"#utility.yul\":2806:2810   */\n      dup2\n        /* \"#utility.yul\":2802:2822   */\n      sub\n        /* \"#utility.yul\":2798:2799   */\n      0x00\n        /* \"#utility.yul\":2787:2796   */\n      dup4\n        /* \"#utility.yul\":2783:2800   */\n      add\n        /* \"#utility.yul\":2776:2823   */\n      mstore\n        /* \"#utility.yul\":2840:2971   */\n      tag_95\n        /* \"#utility.yul\":2966:2970   */\n      dup2\n        /* \"#utility.yul\":2840:2971   */\n      tag_72\n      jump\t// in\n    tag_95:\n        /* \"#utility.yul\":2832:2971   */\n      swap1\n      pop\n        /* \"#utility.yul\":2559:2978   */\n      swap2\n      swap1\n      pop\n      jump\t// out\n        /* \"#utility.yul\":2984:3403   */\n    tag_34:\n        /* \"#utility.yul\":3150:3154   */\n      0x00\n        /* \"#utility.yul\":3188:3190   */\n      0x20\n        /* \"#utility.yul\":3177:3186   */\n      dup3\n        /* \"#utility.yul\":3173:3191   */\n      add\n        /* \"#utility.yul\":3165:3191   */\n      swap1\n      pop\n        /* \"#utility.yul\":3237:3246   */\n      dup2\n        /* \"#utility.yul\":3231:3235   */\n      dup2\n        /* \"#utility.yul\":3227:3247   */\n      sub\n        /* \"#utility.yul\":3223:3224   */\n      0x00\n        /* \"#utility.yul\":3212:3221   */\n      dup4\n        /* \"#utility.yul\":3208:3225   */\n      add\n        /* \"#utility.yul\":3201:3248   */\n      mstore\n        /* \"#utility.yul\":3265:3396   */\n      tag_97\n        /* \"#utility.yul\":3391:3395   */\n      dup2\n        /* \"#utility.yul\":3265:3396   */\n      tag_78\n      jump\t// in\n    tag_97:\n        /* \"#utility.yul\":3257:3396   */\n      swap1\n      pop\n        /* \"#utility.yul\":2984:3403   */\n      swap2\n      swap1\n      pop\n      jump\t// out\n        /* \"#utility.yul\":3409:3828   */\n    tag_42:\n        /* \"#utility.yul\":3575:3579   */\n      0x00\n        /* \"#utility.yul\":3613:3615   */\n      0x20\n        /* \"#utility.yul\":3602:3611   */\n      dup3\n        /* \"#utility.yul\":3598:3616   */\n      add\n        /* \"#utility.yul\":3590:3616   */\n      swap1\n      pop\n        /* \"#utility.yul\":3662:3671   */\n      dup2\n        /* \"#utility.yul\":3656:3660   */\n      dup2\n        /* \"#utility.yul\":3652:3672   */\n      sub\n        /* \"#utility.yul\":3648:3649   */\n      0x00\n        /* \"#utility.yul\":3637:3646   */\n      dup4\n        /* \"#utility.yul\":3633:3650   */\n      add\n        /* \"#utility.yul\":3626:3673   */\n      mstore\n        /* \"#utility.yul\":3690:3821   */\n      tag_99\n        /* \"#utility.yul\":3816:3820   */\n      dup2\n        /* \"#utility.yul\":3690:3821   */\n      tag_83\n      jump\t// in\n    tag_99:\n        /* \"#utility.yul\":3682:3821   */\n      swap1\n      pop\n        /* \"#utility.yul\":3409:3828   */\n      swap2\n      swap1\n      pop\n      jump\t// out\n        /* \"#utility.yul\":3834:4056   */\n    tag_13:\n        /* \"#utility.yul\":3927:3931   */\n      0x00\n        /* \"#utility.yul\":3965:3967   */\n      0x20\n        /* \"#utility.yul\":3954:3963   */\n      dup3\n        /* \"#utility.yul\":3950:3968   */\n      add\n        /* \"#utility.yul\":3942:3968   */\n      swap1\n      pop\n        /* \"#utility.yul\":3978:4049   */\n      tag_101\n        /* \"#utility.yul\":4046:4047   */\n      0x00\n        /* \"#utility.yul\":4035:4044   */\n      dup4\n        /* \"#utility.yul\":4031:4048   */\n      add\n        /* \"#utility.yul\":4022:4028   */\n      dup5\n        /* \"#utility.yul\":3978:4049   */\n      tag_88\n      jump\t// in\n    tag_101:\n        /* \"#utility.yul\":3834:4056   */\n      swap3\n      swap2\n      pop\n      pop\n      jump\t// out\n        /* \"#utility.yul\":4143:4312   */\n    tag_75:\n        /* \"#utility.yul\":4227:4238   */\n      0x00\n        /* \"#utility.yul\":4261:4267   */\n      dup3\n        /* \"#utility.yul\":4256:4259   */\n      dup3\n        /* \"#utility.yul\":4249:4268   */\n      mstore\n        /* \"#utility.yul\":4301:4305   */\n      0x20\n        /* \"#utility.yul\":4296:4299   */\n      dup3\n        /* \"#utility.yul\":4292:4306   */\n      add\n        /* \"#utility.yul\":4277:4306   */\n      swap1\n      pop\n        /* \"#utility.yul\":4143:4312   */\n      swap3\n      swap2\n      pop\n      pop\n      jump\t// out\n        /* \"#utility.yul\":4318:4623   */\n    tag_36:\n        /* \"#utility.yul\":4358:4361   */\n      0x00\n        /* \"#utility.yul\":4377:4397   */\n      tag_106\n        /* \"#utility.yul\":4395:4396   */\n      dup3\n        /* \"#utility.yul\":4377:4397   */\n      tag_91\n      jump\t// in\n    tag_106:\n        /* \"#utility.yul\":4372:4397   */\n      swap2\n      pop\n        /* \"#utility.yul\":4411:4431   */\n      tag_107\n        /* \"#utility.yul\":4429:4430   */\n      dup4\n        /* \"#utility.yul\":4411:4431   */\n      tag_91\n      jump\t// in\n    tag_107:\n        /* \"#utility.yul\":4406:4431   */\n      swap3\n      pop\n        /* \"#utility.yul\":4565:4566   */\n      dup3\n        /* \"#utility.yul\":4497:4563   */\n      0xffffffffffffffffffffffffffffffffffffffffffffffffffffffffffffffff\n        /* \"#utility.yul\":4493:4567   */\n      sub\n        /* \"#utility.yul\":4490:4491   */\n      dup3\n        /* \"#utility.yul\":4487:4568   */\n      gt\n        /* \"#utility.yul\":4484:4591   */\n      iszero\n      tag_108\n      jumpi\n        /* \"#utility.yul\":4571:4589   */\n      tag_109\n      tag_110\n      jump\t// in\n    tag_109:\n        /* \"#utility.yul\":4484:4591   */\n    tag_108:\n        /* \"#utility.yul\":4615:4616   */\n      dup3\n        /* \"#utility.yul\":4612:4613   */\n      dup3\n        /* \"#utility.yul\":4608:4617   */\n      add\n        /* \"#utility.yul\":4601:4617   */\n      swap1\n      pop\n        /* \"#utility.yul\":4318:4623   */\n      swap3\n      swap2\n      pop\n      pop\n      jump\t// out\n        /* \"#utility.yul\":4629:4977   */\n    tag_39:\n        /* \"#utility.yul\":4669:4676   */\n      0x00\n        /* \"#utility.yul\":4692:4712   */\n      tag_112\n        /* \"#utility.yul\":4710:4711   */\n      dup3\n        /* \"#utility.yul\":4692:4712   */\n      tag_91\n      jump\t// in\n    tag_112:\n        /* \"#utility.yul\":4687:4712   */\n      swap2\n      pop\n        /* \"#utility.yul\":4726:4746   */\n      tag_113\n        /* \"#utility.yul\":4744:4745   */\n      dup4\n        /* \"#utility.yul\":4726:4746   */\n      tag_91\n      jump\t// in\n    tag_113:\n        /* \"#utility.yul\":4721:4746   */\n      swap3\n      pop\n        /* \"#utility.yul\":4914:4915   */\n      dup2\n        /* \"#utility.yul\":4846:4912   */\n      0xffffffffffffffffffffffffffffffffffffffffffffffffffffffffffffffff\n        /* \"#utility.yul\":4842:4916   */\n      div\n        /* \"#utility.yul\":4839:4840   */\n      dup4\n        /* \"#utility.yul\":4836:4917   */\n      gt\n        /* \"#utility.yul\":4831:4832   */\n      dup3\n        /* \"#utility.yul\":4824:4833   */\n      iszero\n        /* \"#utility.yul\":4817:4834   */\n      iszero\n        /* \"#utility.yul\":4813:4918   */\n      and\n        /* \"#utility.yul\":4810:4941   */\n      iszero\n      tag_114\n      jumpi\n        /* \"#utility.yul\":4921:4939   */\n      tag_115\n      tag_110\n      jump\t// in\n    tag_115:\n        /* \"#utility.yul\":4810:4941   */\n    tag_114:\n        /* \"#utility.yul\":4969:4970   */\n      dup3\n        /* \"#utility.yul\":4966:4967   */\n      dup3\n        /* \"#utility.yul\":4962:4971   */\n      mul\n        /* \"#utility.yul\":4951:4971   */\n      swap1\n      pop\n        /* \"#utility.yul\":4629:4977   */\n      swap3\n      swap2\n      pop\n      pop\n      jump\t// out\n        /* \"#utility.yul\":4983:5174   */\n    tag_47:\n        /* \"#utility.yul\":5023:5027   */\n      0x00\n        /* \"#utility.yul\":5043:5063   */\n      tag_117\n        /* \"#utility.yul\":5061:5062   */\n      dup3\n        /* \"#utility.yul\":5043:5063   */\n      tag_91\n      jump\t// in\n    tag_117:\n        /* \"#utility.yul\":5038:5063   */\n      swap2\n      pop\n        /* \"#utility.yul\":5077:5097   */\n      tag_118\n        /* \"#utility.yul\":5095:5096   */\n      dup4\n        /* \"#utility.yul\":5077:5097   */\n      tag_91\n      jump\t// in\n    tag_118:\n        /* \"#utility.yul\":5072:5097   */\n      swap3\n      pop\n        /* \"#utility.yul\":5116:5117   */\n      dup3\n        /* \"#utility.yul\":5113:5114   */\n      dup3\n        /* \"#utility.yul\":5110:5118   */\n      lt\n        /* \"#utility.yul\":5107:5141   */\n      iszero\n      tag_119\n      jumpi\n        /* \"#utility.yul\":5121:5139   */\n      tag_120\n      tag_110\n      jump\t// in\n    tag_120:\n        /* \"#utility.yul\":5107:5141   */\n    tag_119:\n        /* \"#utility.yul\":5166:5167   */\n      dup3\n        /* \"#utility.yul\":5163:5164   */\n      dup3\n        /* \"#utility.yul\":5159:5168   */\n      sub\n        /* \"#utility.yul\":5151:5168   */\n      swap1\n      pop\n        /* \"#utility.yul\":4983:5174   */\n      swap3\n      swap2\n      pop\n      pop\n      jump\t// out\n        /* \"#utility.yul\":5180:5276   */\n    tag_71:\n        /* \"#utility.yul\":5217:5224   */\n      0x00\n        /* \"#utility.yul\":5246:5270   */\n      tag_122\n        /* \"#utility.yul\":5264:5269   */\n      dup3\n        /* \"#utility.yul\":5246:5270   */\n      tag_123\n      jump\t// in\n    tag_122:\n        /* \"#utility.yul\":5235:5270   */\n      swap1\n      pop\n        /* \"#utility.yul\":5180:5276   */\n      swap2\n      swap1\n      pop\n      jump\t// out\n        /* \"#utility.yul\":5282:5408   */\n    tag_123:\n        /* \"#utility.yul\":5319:5326   */\n      0x00\n        /* \"#utility.yul\":5359:5401   */\n      0xffffffffffffffffffffffffffffffffffffffff\n        /* \"#utility.yul\":5352:5357   */\n      dup3\n        /* \"#utility.yul\":5348:5402   */\n      and\n        /* \"#utility.yul\":5337:5402   */\n      swap1\n      pop\n        /* \"#utility.yul\":5282:5408   */\n      swap2\n      swap1\n      pop\n      jump\t// out\n        /* \"#utility.yul\":5414:5491   */\n    tag_91:\n        /* \"#utility.yul\":5451:5458   */\n      0x00\n        /* \"#utility.yul\":5480:5485   */\n      dup2\n        /* \"#utility.yul\":5469:5485   */\n      swap1\n      pop\n        /* \"#utility.yul\":5414:5491   */\n      swap2\n      swap1\n      pop\n      jump\t// out\n        /* \"#utility.yul\":5497:5677   */\n    tag_110:\n        /* \"#utility.yul\":5545:5622   */\n      0x4e487b7100000000000000000000000000000000000000000000000000000000\n        /* \"#utility.yul\":5542:5543   */\n      0x00\n        /* \"#utility.yul\":5535:5623   */\n      mstore\n        /* \"#utility.yul\":5642:5646   */\n      0x11\n        /* \"#utility.yul\":5639:5640   */\n      0x04\n        /* \"#utility.yul\":5632:5647   */\n      mstore\n        /* \"#utility.yul\":5666:5670   */\n      0x24\n        /* \"#utility.yul\":5663:5664   */\n      0x00\n        /* \"#utility.yul\":5656:5671   */\n      revert\n        /* \"#utility.yul\":5806:5923   */\n    tag_62:\n        /* \"#utility.yul\":5915:5916   */\n      0x00\n        /* \"#utility.yul\":5912:5913   */\n      dup1\n        /* \"#utility.yul\":5905:5917   */\n      revert\n        /* \"#utility.yul\":5929:6107   */\n    tag_77:\n        /* \"#utility.yul\":6069:6099   */\n      0x576520446f6e2774206861766520656e6f75676820646f6e7574732000000000\n        /* \"#utility.yul\":6065:6066   */\n      0x00\n        /* \"#utility.yul\":6057:6063   */\n      dup3\n        /* \"#utility.yul\":6053:6067   */\n      add\n        /* \"#utility.yul\":6046:6100   */\n      mstore\n        /* \"#utility.yul\":5929:6107   */\n      pop\n      jump\t// out\n        /* \"#utility.yul\":6113:6334   */\n    tag_82:\n        /* \"#utility.yul\":6253:6287   */\n      0x4f6e6c79204f776e65722063616e207265737461727420746865204d61636869\n        /* \"#utility.yul\":6249:6250   */\n      0x00\n        /* \"#utility.yul\":6241:6247   */\n      dup3\n        /* \"#utility.yul\":6237:6251   */\n      add\n        /* \"#utility.yul\":6230:6288   */\n      mstore\n        /* \"#utility.yul\":6322:6326   */\n      0x6e65000000000000000000000000000000000000000000000000000000000000\n        /* \"#utility.yul\":6317:6319   */\n      0x20\n        /* \"#utility.yul\":6309:6315   */\n      dup3\n        /* \"#utility.yul\":6305:6320   */\n      add\n        /* \"#utility.yul\":6298:6327   */\n      mstore\n        /* \"#utility.yul\":6113:6334   */\n      pop\n      jump\t// out\n        /* \"#utility.yul\":6340:6512   */\n    tag_87:\n        /* \"#utility.yul\":6480:6504   */\n      0x596f75206d757374207061792032206574686572732000000000000000000000\n        /* \"#utility.yul\":6476:6477   */\n      0x00\n        /* \"#utility.yul\":6468:6474   */\n      dup3\n        /* \"#utility.yul\":6464:6478   */\n      add\n        /* \"#utility.yul\":6457:6505   */\n      mstore\n        /* \"#utility.yul\":6340:6512   */\n      pop\n      jump\t// out\n        /* \"#utility.yul\":6518:6640   */\n    tag_54:\n        /* \"#utility.yul\":6591:6615   */\n      tag_134\n        /* \"#utility.yul\":6609:6614   */\n      dup2\n        /* \"#utility.yul\":6591:6615   */\n      tag_71\n      jump\t// in\n    tag_134:\n        /* \"#utility.yul\":6584:6589   */\n      dup2\n        /* \"#utility.yul\":6581:6616   */\n      eq\n        /* \"#utility.yul\":6571:6634   */\n      tag_135\n      jumpi\n        /* \"#utility.yul\":6630:6631   */\n      0x00\n        /* \"#utility.yul\":6627:6628   */\n      dup1\n        /* \"#utility.yul\":6620:6632   */\n      revert\n        /* \"#utility.yul\":6571:6634   */\n    tag_135:\n        /* \"#utility.yul\":6518:6640   */\n      pop\n      jump\t// out\n        /* \"#utility.yul\":6646:6768   */\n    tag_58:\n        /* \"#utility.yul\":6719:6743   */\n      tag_137\n        /* \"#utility.yul\":6737:6742   */\n      dup2\n        /* \"#utility.yul\":6719:6743   */\n      tag_91\n      jump\t// in\n    tag_137:\n        /* \"#utility.yul\":6712:6717   */\n      dup2\n        /* \"#utility.yul\":6709:6744   */\n      eq\n        /* \"#utility.yul\":6699:6762   */\n      tag_138\n      jumpi\n        /* \"#utility.yul\":6758:6759   */\n      0x00\n        /* \"#utility.yul\":6755:6756   */\n      dup1\n        /* \"#utility.yul\":6748:6760   */\n      revert\n        /* \"#utility.yul\":6699:6762   */\n    tag_138:\n        /* \"#utility.yul\":6646:6768   */\n      pop\n      jump\t// out\n\n    auxdata: 0xa264697066735822122080862c6cd8ad43b1c36fd38e7dc0c3ff4d96cd9806ecd6d474e556f1b861cdd864736f6c63430008070033\n}\n",
				"bytecode": {
					"linkReferences": {},
					"object": "608060405234801561001057600080fd5b50336000806101000a81548173ffffffffffffffffffffffffffffffffffffffff021916908373ffffffffffffffffffffffffffffffffffffffff1602179055506064600160003073ffffffffffffffffffffffffffffffffffffffff1673ffffffffffffffffffffffffffffffffffffffff16815260200190815260200160002081905550610821806100a56000396000f3fe60806040526004361061004a5760003560e01c80639a020d8a1461004f578063b4a99a4e1461008c578063b5039326146100b7578063e2aeb2ae146100e0578063e7644d34146100fc575b600080fd5b34801561005b57600080fd5b5061007660048036038101906100719190610440565b610127565b604051610083919061059c565b60405180910390f35b34801561009857600080fd5b506100a161013f565b6040516100ae9190610521565b60405180910390f35b3480156100c357600080fd5b506100de60048036038101906100d9919061046d565b610163565b005b6100fa60048036038101906100f5919061046d565b61024a565b005b34801561010857600080fd5b506101116103cf565b60405161011e919061059c565b60405180910390f35b60016020528060005260406000206000915090505481565b60008054906101000a900473ffffffffffffffffffffffffffffffffffffffff1681565b60008054906101000a900473ffffffffffffffffffffffffffffffffffffffff1673ffffffffffffffffffffffffffffffffffffffff163373ffffffffffffffffffffffffffffffffffffffff16146101f1576040517f08c379a00000000000000000000000000000000000000000000000000000000081526004016101e89061055c565b60405180910390fd5b80600160003073ffffffffffffffffffffffffffffffffffffffff1673ffffffffffffffffffffffffffffffffffffffff168152602001908152602001600020600082825461024091906105c8565b9250508190555050565b671bc16d674ec800008161025e919061061e565b341161029f576040517f08c379a00000000000000000000000000000000000000000000000000000000081526004016102969061057c565b60405180910390fd5b80600160003073ffffffffffffffffffffffffffffffffffffffff1673ffffffffffffffffffffffffffffffffffffffff1681526020019081526020016000205411610320576040517f08c379a00000000000000000000000000000000000000000000000000000000081526004016103179061053c565b60405180910390fd5b80600160003073ffffffffffffffffffffffffffffffffffffffff1673ffffffffffffffffffffffffffffffffffffffff168152602001908152602001600020600082825461036f9190610678565b9250508190555080600160003373ffffffffffffffffffffffffffffffffffffffff1673ffffffffffffffffffffffffffffffffffffffff16815260200190815260200160002060008282546103c591906105c8565b9250508190555050565b6000600160003073ffffffffffffffffffffffffffffffffffffffff1673ffffffffffffffffffffffffffffffffffffffff16815260200190815260200160002054905090565b600081359050610425816107bd565b92915050565b60008135905061043a816107d4565b92915050565b60006020828403121561045657610455610717565b5b600061046484828501610416565b91505092915050565b60006020828403121561048357610482610717565b5b60006104918482850161042b565b91505092915050565b6104a3816106ac565b82525050565b60006104b6601c836105b7565b91506104c18261071c565b602082019050919050565b60006104d96022836105b7565b91506104e482610745565b604082019050919050565b60006104fc6016836105b7565b915061050782610794565b602082019050919050565b61051b816106de565b82525050565b6000602082019050610536600083018461049a565b92915050565b60006020820190508181036000830152610555816104a9565b9050919050565b60006020820190508181036000830152610575816104cc565b9050919050565b60006020820190508181036000830152610595816104ef565b9050919050565b60006020820190506105b16000830184610512565b92915050565b600082825260208201905092915050565b60006105d3826106de565b91506105de836106de565b9250827fffffffffffffffffffffffffffffffffffffffffffffffffffffffffffffffff03821115610613576106126106e8565b5b828201905092915050565b6000610629826106de565b9150610634836106de565b9250817fffffffffffffffffffffffffffffffffffffffffffffffffffffffffffffffff048311821515161561066d5761066c6106e8565b5b828202905092915050565b6000610683826106de565b915061068e836106de565b9250828210156106a1576106a06106e8565b5b828203905092915050565b60006106b7826106be565b9050919050565b600073ffffffffffffffffffffffffffffffffffffffff82169050919050565b6000819050919050565b7f4e487b7100000000000000000000000000000000000000000000000000000000600052601160045260246000fd5b600080fd5b7f576520446f6e2774206861766520656e6f75676820646f6e7574732000000000600082015250565b7f4f6e6c79204f776e65722063616e207265737461727420746865204d6163686960008201527f6e65000000000000000000000000000000000000000000000000000000000000602082015250565b7f596f75206d757374207061792032206574686572732000000000000000000000600082015250565b6107c6816106ac565b81146107d157600080fd5b50565b6107dd816106de565b81146107e857600080fd5b5056fea264697066735822122080862c6cd8ad43b1c36fd38e7dc0c3ff4d96cd9806ecd6d474e556f1b861cdd864736f6c63430008070033",
					"opcodes": "PUSH1 0x80 PUSH1 0x40 MSTORE CALLVALUE DUP1 ISZERO PUSH2 0x10 JUMPI PUSH1 0x0 DUP1 REVERT JUMPDEST POP CALLER PUSH1 0x0 DUP1 PUSH2 0x100 EXP DUP2 SLOAD DUP2 PUSH20 0xFFFFFFFFFFFFFFFFFFFFFFFFFFFFFFFFFFFFFFFF MUL NOT AND SWAP1 DUP4 PUSH20 0xFFFFFFFFFFFFFFFFFFFFFFFFFFFFFFFFFFFFFFFF AND MUL OR SWAP1 SSTORE POP PUSH1 0x64 PUSH1 0x1 PUSH1 0x0 ADDRESS PUSH20 0xFFFFFFFFFFFFFFFFFFFFFFFFFFFFFFFFFFFFFFFF AND PUSH20 0xFFFFFFFFFFFFFFFFFFFFFFFFFFFFFFFFFFFFFFFF AND DUP2 MSTORE PUSH1 0x20 ADD SWAP1 DUP2 MSTORE PUSH1 0x20 ADD PUSH1 0x0 KECCAK256 DUP2 SWAP1 SSTORE POP PUSH2 0x821 DUP1 PUSH2 0xA5 PUSH1 0x0 CODECOPY PUSH1 0x0 RETURN INVALID PUSH1 0x80 PUSH1 0x40 MSTORE PUSH1 0x4 CALLDATASIZE LT PUSH2 0x4A JUMPI PUSH1 0x0 CALLDATALOAD PUSH1 0xE0 SHR DUP1 PUSH4 0x9A020D8A EQ PUSH2 0x4F JUMPI DUP1 PUSH4 0xB4A99A4E EQ PUSH2 0x8C JUMPI DUP1 PUSH4 0xB5039326 EQ PUSH2 0xB7 JUMPI DUP1 PUSH4 0xE2AEB2AE EQ PUSH2 0xE0 JUMPI DUP1 PUSH4 0xE7644D34 EQ PUSH2 0xFC JUMPI JUMPDEST PUSH1 0x0 DUP1 REVERT JUMPDEST CALLVALUE DUP1 ISZERO PUSH2 0x5B JUMPI PUSH1 0x0 DUP1 REVERT JUMPDEST POP PUSH2 0x76 PUSH1 0x4 DUP1 CALLDATASIZE SUB DUP2 ADD SWAP1 PUSH2 0x71 SWAP2 SWAP1 PUSH2 0x440 JUMP JUMPDEST PUSH2 0x127 JUMP JUMPDEST PUSH1 0x40 MLOAD PUSH2 0x83 SWAP2 SWAP1 PUSH2 0x59C JUMP JUMPDEST PUSH1 0x40 MLOAD DUP1 SWAP2 SUB SWAP1 RETURN JUMPDEST CALLVALUE DUP1 ISZERO PUSH2 0x98 JUMPI PUSH1 0x0 DUP1 REVERT JUMPDEST POP PUSH2 0xA1 PUSH2 0x13F JUMP JUMPDEST PUSH1 0x40 MLOAD PUSH2 0xAE SWAP2 SWAP1 PUSH2 0x521 JUMP JUMPDEST PUSH1 0x40 MLOAD DUP1 SWAP2 SUB SWAP1 RETURN JUMPDEST CALLVALUE DUP1 ISZERO PUSH2 0xC3 JUMPI PUSH1 0x0 DUP1 REVERT JUMPDEST POP PUSH2 0xDE PUSH1 0x4 DUP1 CALLDATASIZE SUB DUP2 ADD SWAP1 PUSH2 0xD9 SWAP2 SWAP1 PUSH2 0x46D JUMP JUMPDEST PUSH2 0x163 JUMP JUMPDEST STOP JUMPDEST PUSH2 0xFA PUSH1 0x4 DUP1 CALLDATASIZE SUB DUP2 ADD SWAP1 PUSH2 0xF5 SWAP2 SWAP1 PUSH2 0x46D JUMP JUMPDEST PUSH2 0x24A JUMP JUMPDEST STOP JUMPDEST CALLVALUE DUP1 ISZERO PUSH2 0x108 JUMPI PUSH1 0x0 DUP1 REVERT JUMPDEST POP PUSH2 0x111 PUSH2 0x3CF JUMP JUMPDEST PUSH1 0x40 MLOAD PUSH2 0x11E SWAP2 SWAP1 PUSH2 0x59C JUMP JUMPDEST PUSH1 0x40 MLOAD DUP1 SWAP2 SUB SWAP1 RETURN JUMPDEST PUSH1 0x1 PUSH1 0x20 MSTORE DUP1 PUSH1 0x0 MSTORE PUSH1 0x40 PUSH1 0x0 KECCAK256 PUSH1 0x0 SWAP2 POP SWAP1 POP SLOAD DUP2 JUMP JUMPDEST PUSH1 0x0 DUP1 SLOAD SWAP1 PUSH2 0x100 EXP SWAP1 DIV PUSH20 0xFFFFFFFFFFFFFFFFFFFFFFFFFFFFFFFFFFFFFFFF AND DUP2 JUMP JUMPDEST PUSH1 0x0 DUP1 SLOAD SWAP1 PUSH2 0x100 EXP SWAP1 DIV PUSH20 0xFFFFFFFFFFFFFFFFFFFFFFFFFFFFFFFFFFFFFFFF AND PUSH20 0xFFFFFFFFFFFFFFFFFFFFFFFFFFFFFFFFFFFFFFFF AND CALLER PUSH20 0xFFFFFFFFFFFFFFFFFFFFFFFFFFFFFFFFFFFFFFFF AND EQ PUSH2 0x1F1 JUMPI PUSH1 0x40 MLOAD PUSH32 0x8C379A000000000000000000000000000000000000000000000000000000000 DUP2 MSTORE PUSH1 0x4 ADD PUSH2 0x1E8 SWAP1 PUSH2 0x55C JUMP JUMPDEST PUSH1 0x40 MLOAD DUP1 SWAP2 SUB SWAP1 REVERT JUMPDEST DUP1 PUSH1 0x1 PUSH1 0x0 ADDRESS PUSH20 0xFFFFFFFFFFFFFFFFFFFFFFFFFFFFFFFFFFFFFFFF AND PUSH20 0xFFFFFFFFFFFFFFFFFFFFFFFFFFFFFFFFFFFFFFFF AND DUP2 MSTORE PUSH1 0x20 ADD SWAP1 DUP2 MSTORE PUSH1 0x20 ADD PUSH1 0x0 KECCAK256 PUSH1 0x0 DUP3 DUP3 SLOAD PUSH2 0x240 SWAP2 SWAP1 PUSH2 0x5C8 JUMP JUMPDEST SWAP3 POP POP DUP2 SWAP1 SSTORE POP POP JUMP JUMPDEST PUSH8 0x1BC16D674EC80000 DUP2 PUSH2 0x25E SWAP2 SWAP1 PUSH2 0x61E JUMP JUMPDEST CALLVALUE GT PUSH2 0x29F JUMPI PUSH1 0x40 MLOAD PUSH32 0x8C379A000000000000000000000000000000000000000000000000000000000 DUP2 MSTORE PUSH1 0x4 ADD PUSH2 0x296 SWAP1 PUSH2 0x57C JUMP JUMPDEST PUSH1 0x40 MLOAD DUP1 SWAP2 SUB SWAP1 REVERT JUMPDEST DUP1 PUSH1 0x1 PUSH1 0x0 ADDRESS PUSH20 0xFFFFFFFFFFFFFFFFFFFFFFFFFFFFFFFFFFFFFFFF AND PUSH20 0xFFFFFFFFFFFFFFFFFFFFFFFFFFFFFFFFFFFFFFFF AND DUP2 MSTORE PUSH1 0x20 ADD SWAP1 DUP2 MSTORE PUSH1 0x20 ADD PUSH1 0x0 KECCAK256 SLOAD GT PUSH2 0x320 JUMPI PUSH1 0x40 MLOAD PUSH32 0x8C379A000000000000000000000000000000000000000000000000000000000 DUP2 MSTORE PUSH1 0x4 ADD PUSH2 0x317 SWAP1 PUSH2 0x53C JUMP JUMPDEST PUSH1 0x40 MLOAD DUP1 SWAP2 SUB SWAP1 REVERT JUMPDEST DUP1 PUSH1 0x1 PUSH1 0x0 ADDRESS PUSH20 0xFFFFFFFFFFFFFFFFFFFFFFFFFFFFFFFFFFFFFFFF AND PUSH20 0xFFFFFFFFFFFFFFFFFFFFFFFFFFFFFFFFFFFFFFFF AND DUP2 MSTORE PUSH1 0x20 ADD SWAP1 DUP2 MSTORE PUSH1 0x20 ADD PUSH1 0x0 KECCAK256 PUSH1 0x0 DUP3 DUP3 SLOAD PUSH2 0x36F SWAP2 SWAP1 PUSH2 0x678 JUMP JUMPDEST SWAP3 POP POP DUP2 SWAP1 SSTORE POP DUP1 PUSH1 0x1 PUSH1 0x0 CALLER PUSH20 0xFFFFFFFFFFFFFFFFFFFFFFFFFFFFFFFFFFFFFFFF AND PUSH20 0xFFFFFFFFFFFFFFFFFFFFFFFFFFFFFFFFFFFFFFFF AND DUP2 MSTORE PUSH1 0x20 ADD SWAP1 DUP2 MSTORE PUSH1 0x20 ADD PUSH1 0x0 KECCAK256 PUSH1 0x0 DUP3 DUP3 SLOAD PUSH2 0x3C5 SWAP2 SWAP1 PUSH2 0x5C8 JUMP JUMPDEST SWAP3 POP POP DUP2 SWAP1 SSTORE POP POP JUMP JUMPDEST PUSH1 0x0 PUSH1 0x1 PUSH1 0x0 ADDRESS PUSH20 0xFFFFFFFFFFFFFFFFFFFFFFFFFFFFFFFFFFFFFFFF AND PUSH20 0xFFFFFFFFFFFFFFFFFFFFFFFFFFFFFFFFFFFFFFFF AND DUP2 MSTORE PUSH1 0x20 ADD SWAP1 DUP2 MSTORE PUSH1 0x20 ADD PUSH1 0x0 KECCAK256 SLOAD SWAP1 POP SWAP1 JUMP JUMPDEST PUSH1 0x0 DUP2 CALLDATALOAD SWAP1 POP PUSH2 0x425 DUP2 PUSH2 0x7BD JUMP JUMPDEST SWAP3 SWAP2 POP POP JUMP JUMPDEST PUSH1 0x0 DUP2 CALLDATALOAD SWAP1 POP PUSH2 0x43A DUP2 PUSH2 0x7D4 JUMP JUMPDEST SWAP3 SWAP2 POP POP JUMP JUMPDEST PUSH1 0x0 PUSH1 0x20 DUP3 DUP5 SUB SLT ISZERO PUSH2 0x456 JUMPI PUSH2 0x455 PUSH2 0x717 JUMP JUMPDEST JUMPDEST PUSH1 0x0 PUSH2 0x464 DUP5 DUP3 DUP6 ADD PUSH2 0x416 JUMP JUMPDEST SWAP2 POP POP SWAP3 SWAP2 POP POP JUMP JUMPDEST PUSH1 0x0 PUSH1 0x20 DUP3 DUP5 SUB SLT ISZERO PUSH2 0x483 JUMPI PUSH2 0x482 PUSH2 0x717 JUMP JUMPDEST JUMPDEST PUSH1 0x0 PUSH2 0x491 DUP5 DUP3 DUP6 ADD PUSH2 0x42B JUMP JUMPDEST SWAP2 POP POP SWAP3 SWAP2 POP POP JUMP JUMPDEST PUSH2 0x4A3 DUP2 PUSH2 0x6AC JUMP JUMPDEST DUP3 MSTORE POP POP JUMP JUMPDEST PUSH1 0x0 PUSH2 0x4B6 PUSH1 0x1C DUP4 PUSH2 0x5B7 JUMP JUMPDEST SWAP2 POP PUSH2 0x4C1 DUP3 PUSH2 0x71C JUMP JUMPDEST PUSH1 0x20 DUP3 ADD SWAP1 POP SWAP2 SWAP1 POP JUMP JUMPDEST PUSH1 0x0 PUSH2 0x4D9 PUSH1 0x22 DUP4 PUSH2 0x5B7 JUMP JUMPDEST SWAP2 POP PUSH2 0x4E4 DUP3 PUSH2 0x745 JUMP JUMPDEST PUSH1 0x40 DUP3 ADD SWAP1 POP SWAP2 SWAP1 POP JUMP JUMPDEST PUSH1 0x0 PUSH2 0x4FC PUSH1 0x16 DUP4 PUSH2 0x5B7 JUMP JUMPDEST SWAP2 POP PUSH2 0x507 DUP3 PUSH2 0x794 JUMP JUMPDEST PUSH1 0x20 DUP3 ADD SWAP1 POP SWAP2 SWAP1 POP JUMP JUMPDEST PUSH2 0x51B DUP2 PUSH2 0x6DE JUMP JUMPDEST DUP3 MSTORE POP POP JUMP JUMPDEST PUSH1 0x0 PUSH1 0x20 DUP3 ADD SWAP1 POP PUSH2 0x536 PUSH1 0x0 DUP4 ADD DUP5 PUSH2 0x49A JUMP JUMPDEST SWAP3 SWAP2 POP POP JUMP JUMPDEST PUSH1 0x0 PUSH1 0x20 DUP3 ADD SWAP1 POP DUP2 DUP2 SUB PUSH1 0x0 DUP4 ADD MSTORE PUSH2 0x555 DUP2 PUSH2 0x4A9 JUMP JUMPDEST SWAP1 POP SWAP2 SWAP1 POP JUMP JUMPDEST PUSH1 0x0 PUSH1 0x20 DUP3 ADD SWAP1 POP DUP2 DUP2 SUB PUSH1 0x0 DUP4 ADD MSTORE PUSH2 0x575 DUP2 PUSH2 0x4CC JUMP JUMPDEST SWAP1 POP SWAP2 SWAP1 POP JUMP JUMPDEST PUSH1 0x0 PUSH1 0x20 DUP3 ADD SWAP1 POP DUP2 DUP2 SUB PUSH1 0x0 DUP4 ADD MSTORE PUSH2 0x595 DUP2 PUSH2 0x4EF JUMP JUMPDEST SWAP1 POP SWAP2 SWAP1 POP JUMP JUMPDEST PUSH1 0x0 PUSH1 0x20 DUP3 ADD SWAP1 POP PUSH2 0x5B1 PUSH1 0x0 DUP4 ADD DUP5 PUSH2 0x512 JUMP JUMPDEST SWAP3 SWAP2 POP POP JUMP JUMPDEST PUSH1 0x0 DUP3 DUP3 MSTORE PUSH1 0x20 DUP3 ADD SWAP1 POP SWAP3 SWAP2 POP POP JUMP JUMPDEST PUSH1 0x0 PUSH2 0x5D3 DUP3 PUSH2 0x6DE JUMP JUMPDEST SWAP2 POP PUSH2 0x5DE DUP4 PUSH2 0x6DE JUMP JUMPDEST SWAP3 POP DUP3 PUSH32 0xFFFFFFFFFFFFFFFFFFFFFFFFFFFFFFFFFFFFFFFFFFFFFFFFFFFFFFFFFFFFFFFF SUB DUP3 GT ISZERO PUSH2 0x613 JUMPI PUSH2 0x612 PUSH2 0x6E8 JUMP JUMPDEST JUMPDEST DUP3 DUP3 ADD SWAP1 POP SWAP3 SWAP2 POP POP JUMP JUMPDEST PUSH1 0x0 PUSH2 0x629 DUP3 PUSH2 0x6DE JUMP JUMPDEST SWAP2 POP PUSH2 0x634 DUP4 PUSH2 0x6DE JUMP JUMPDEST SWAP3 POP DUP2 PUSH32 0xFFFFFFFFFFFFFFFFFFFFFFFFFFFFFFFFFFFFFFFFFFFFFFFFFFFFFFFFFFFFFFFF DIV DUP4 GT DUP3 ISZERO ISZERO AND ISZERO PUSH2 0x66D JUMPI PUSH2 0x66C PUSH2 0x6E8 JUMP JUMPDEST JUMPDEST DUP3 DUP3 MUL SWAP1 POP SWAP3 SWAP2 POP POP JUMP JUMPDEST PUSH1 0x0 PUSH2 0x683 DUP3 PUSH2 0x6DE JUMP JUMPDEST SWAP2 POP PUSH2 0x68E DUP4 PUSH2 0x6DE JUMP JUMPDEST SWAP3 POP DUP3 DUP3 LT ISZERO PUSH2 0x6A1 JUMPI PUSH2 0x6A0 PUSH2 0x6E8 JUMP JUMPDEST JUMPDEST DUP3 DUP3 SUB SWAP1 POP SWAP3 SWAP2 POP POP JUMP JUMPDEST PUSH1 0x0 PUSH2 0x6B7 DUP3 PUSH2 0x6BE JUMP JUMPDEST SWAP1 POP SWAP2 SWAP1 POP JUMP JUMPDEST PUSH1 0x0 PUSH20 0xFFFFFFFFFFFFFFFFFFFFFFFFFFFFFFFFFFFFFFFF DUP3 AND SWAP1 POP SWAP2 SWAP1 POP JUMP JUMPDEST PUSH1 0x0 DUP2 SWAP1 POP SWAP2 SWAP1 POP JUMP JUMPDEST PUSH32 0x4E487B7100000000000000000000000000000000000000000000000000000000 PUSH1 0x0 MSTORE PUSH1 0x11 PUSH1 0x4 MSTORE PUSH1 0x24 PUSH1 0x0 REVERT JUMPDEST PUSH1 0x0 DUP1 REVERT JUMPDEST PUSH32 0x576520446F6E2774206861766520656E6F75676820646F6E7574732000000000 PUSH1 0x0 DUP3 ADD MSTORE POP JUMP JUMPDEST PUSH32 0x4F6E6C79204F776E65722063616E207265737461727420746865204D61636869 PUSH1 0x0 DUP3 ADD MSTORE PUSH32 0x6E65000000000000000000000000000000000000000000000000000000000000 PUSH1 0x20 DUP3 ADD MSTORE POP JUMP JUMPDEST PUSH32 0x596F75206D757374207061792032206574686572732000000000000000000000 PUSH1 0x0 DUP3 ADD MSTORE POP JUMP JUMPDEST PUSH2 0x7C6 DUP2 PUSH2 0x6AC JUMP JUMPDEST DUP2 EQ PUSH2 0x7D1 JUMPI PUSH1 0x0 DUP1 REVERT JUMPDEST POP JUMP JUMPDEST PUSH2 0x7DD DUP2 PUSH2 0x6DE JUMP JUMPDEST DUP2 EQ PUSH2 0x7E8 JUMPI PUSH1 0x0 DUP1 REVERT JUMPDEST POP JUMP INVALID LOG2 PUSH5 0x6970667358 0x22 SLT KECCAK256 DUP1 DUP7 0x2C PUSH13 0xD8AD43B1C36FD38E7DC0C3FF4D SWAP7 0xCD SWAP9 MOD 0xEC 0xD6 0xD4 PUSH21 0xE556F1B861CDD864736F6C63430008070033000000 "
				},
				"gasEstimates": {
					"creation": {
						"codeDepositCost": "416200",
						"executionCost": "46924",
						"totalCost": "463124"
					},
					"external": {
						"Owner()": "2511",
						"Purchase(uint256)": "infinite",
						"donutBalances(address)": "2792",
						"getVendingMachineBalance()": "2592",
						"restoct(uint256)": "infinite"
					}
				},
				"methodIdentifiers": {
					"Owner()": "b4a99a4e",
					"Purchase(uint256)": "e2aeb2ae",
					"donutBalances(address)": "9a020d8a",
					"getVendingMachineBalance()": "e7644d34",
					"restoct(uint256)": "b5039326"
				}
			},
			"storageLayout": {
				"storage": [
					{
						"astId": 3,
						"contract": "contracts/Vending_Machine.sol:VendingMachine",
						"label": "Owner",
						"offset": 0,
						"slot": "0",
						"type": "t_address"
					},
					{
						"astId": 7,
						"contract": "contracts/Vending_Machine.sol:VendingMachine",
						"label": "donutBalances",
						"offset": 0,
						"slot": "1",
						"type": "t_mapping(t_address,t_uint256)"
					}
				],
				"types": {
					"t_address": {
						"encoding": "inplace",
						"label": "address",
						"numberOfBytes": "20"
					},
					"t_mapping(t_address,t_uint256)": {
						"encoding": "mapping",
						"key": "t_address",
						"label": "mapping(address => uint256)",
						"numberOfBytes": "32",
						"value": "t_uint256"
					},
					"t_uint256": {
						"encoding": "inplace",
						"label": "uint256",
						"numberOfBytes": "32"
					}
				}
			},
			"userdoc": {
				"kind": "user",
				"methods": {},
				"version": 1
			}
		}
	}
}