{
	"contracts/LaxmiChitFund.sol": {
		"LaxmichitFundBank": {
			"abi": [
				{
					"inputs": [
						{
							"internalType": "string",
							"name": "_name",
							"type": "string"
						},
						{
							"internalType": "uint256",
							"name": "_balance",
							"type": "uint256"
						}
					],
					"name": "createAccount",
					"outputs": [],
					"stateMutability": "nonpayable",
					"type": "function"
				},
				{
					"inputs": [
						{
							"internalType": "uint256",
							"name": "",
							"type": "uint256"
						}
					],
					"name": "userDatabase",
					"outputs": [
						{
							"internalType": "uint256",
							"name": "id",
							"type": "uint256"
						},
						{
							"internalType": "string",
							"name": "name",
							"type": "string"
						},
						{
							"internalType": "uint256",
							"name": "balance",
							"type": "uint256"
						}
					],
					"stateMutability": "view",
					"type": "function"
				}
			],
			"devdoc": {
				"kind": "dev",
				"methods": {},
				"version": 1
			},
			"evm": {
				"assembly": "    /* \"contracts/LaxmiChitFund.sol\":67:367  contract LaxmichitFundBank{\r... */\n  mstore(0x40, 0x80)\n    /* \"contracts/LaxmiChitFund.sol\":201:202  1 */\n  0x01\n    /* \"contracts/LaxmiChitFund.sol\":193:202  uint id=1 */\n  dup1\n  sstore\n    /* \"contracts/LaxmiChitFund.sol\":67:367  contract LaxmichitFundBank{\r... */\n  callvalue\n  dup1\n  iszero\n  tag_1\n  jumpi\n  0x00\n  dup1\n  revert\ntag_1:\n  pop\n  dataSize(sub_0)\n  dup1\n  dataOffset(sub_0)\n  0x00\n  codecopy\n  0x00\n  return\nstop\n\nsub_0: assembly {\n        /* \"contracts/LaxmiChitFund.sol\":67:367  contract LaxmichitFundBank{\r... */\n      mstore(0x40, 0x80)\n      callvalue\n      dup1\n      iszero\n      tag_1\n      jumpi\n      0x00\n      dup1\n      revert\n    tag_1:\n      pop\n      jumpi(tag_2, lt(calldatasize, 0x04))\n      shr(0xe0, calldataload(0x00))\n      dup1\n      0x6586ace6\n      eq\n      tag_3\n      jumpi\n      dup1\n      0x94111360\n      eq\n      tag_4\n      jumpi\n    tag_2:\n      0x00\n      dup1\n      revert\n        /* \"contracts/LaxmiChitFund.sol\":205:364  function createAccount(string memory _name,uint _balance )public{\r... */\n    tag_3:\n      tag_5\n      0x04\n      dup1\n      calldatasize\n      sub\n      dup2\n      add\n      swap1\n      tag_6\n      swap2\n      swap1\n      tag_7\n      jump\t// in\n    tag_6:\n      tag_8\n      jump\t// in\n    tag_5:\n      stop\n        /* \"contracts/LaxmiChitFund.sol\":152:190  mapping(uint=>User)public userDatabase */\n    tag_4:\n      tag_9\n      0x04\n      dup1\n      calldatasize\n      sub\n      dup2\n      add\n      swap1\n      tag_10\n      swap2\n      swap1\n      tag_11\n      jump\t// in\n    tag_10:\n      tag_12\n      jump\t// in\n    tag_9:\n      mload(0x40)\n      tag_13\n      swap4\n      swap3\n      swap2\n      swap1\n      tag_14\n      jump\t// in\n    tag_13:\n      mload(0x40)\n      dup1\n      swap2\n      sub\n      swap1\n      return\n        /* \"contracts/LaxmiChitFund.sol\":205:364  function createAccount(string memory _name,uint _balance )public{\r... */\n    tag_8:\n        /* \"contracts/LaxmiChitFund.sol\":292:294  id */\n      sload(0x01)\n        /* \"contracts/LaxmiChitFund.sol\":272:284  userDatabase */\n      0x00\n        /* \"contracts/LaxmiChitFund.sol\":272:288  userDatabase[id] */\n      dup1\n        /* \"contracts/LaxmiChitFund.sol\":285:287  id */\n      sload(0x01)\n        /* \"contracts/LaxmiChitFund.sol\":272:288  userDatabase[id] */\n      dup2\n      mstore\n      0x20\n      add\n      swap1\n      dup2\n      mstore\n      0x20\n      add\n      0x00\n      keccak256\n        /* \"contracts/LaxmiChitFund.sol\":272:291  userDatabase[id].id */\n      0x00\n      add\n        /* \"contracts/LaxmiChitFund.sol\":272:294  userDatabase[id].id=id */\n      dup2\n      swap1\n      sstore\n      pop\n        /* \"contracts/LaxmiChitFund.sol\":319:324  _name */\n      dup2\n        /* \"contracts/LaxmiChitFund.sol\":297:309  userDatabase */\n      0x00\n        /* \"contracts/LaxmiChitFund.sol\":297:313  userDatabase[id] */\n      dup1\n        /* \"contracts/LaxmiChitFund.sol\":310:312  id */\n      sload(0x01)\n        /* \"contracts/LaxmiChitFund.sol\":297:313  userDatabase[id] */\n      dup2\n      mstore\n      0x20\n      add\n      swap1\n      dup2\n      mstore\n      0x20\n      add\n      0x00\n      keccak256\n        /* \"contracts/LaxmiChitFund.sol\":297:318  userDatabase[id].name */\n      0x01\n      add\n        /* \"contracts/LaxmiChitFund.sol\":297:324  userDatabase[id].name=_name */\n      swap1\n      dup1\n      mload\n      swap1\n      0x20\n      add\n      swap1\n      tag_16\n      swap3\n      swap2\n      swap1\n      tag_17\n      jump\t// in\n    tag_16:\n      pop\n        /* \"contracts/LaxmiChitFund.sol\":352:360  _balance */\n      dup1\n        /* \"contracts/LaxmiChitFund.sol\":327:339  userDatabase */\n      0x00\n        /* \"contracts/LaxmiChitFund.sol\":327:343  userDatabase[id] */\n      dup1\n        /* \"contracts/LaxmiChitFund.sol\":340:342  id */\n      sload(0x01)\n        /* \"contracts/LaxmiChitFund.sol\":327:343  userDatabase[id] */\n      dup2\n      mstore\n      0x20\n      add\n      swap1\n      dup2\n      mstore\n      0x20\n      add\n      0x00\n      keccak256\n        /* \"contracts/LaxmiChitFund.sol\":327:351  userDatabase[id].balance */\n      0x02\n      add\n        /* \"contracts/LaxmiChitFund.sol\":327:360  userDatabase[id].balance=_balance */\n      dup2\n      swap1\n      sstore\n      pop\n        /* \"contracts/LaxmiChitFund.sol\":205:364  function createAccount(string memory _name,uint _balance )public{\r... */\n      pop\n      pop\n      jump\t// out\n        /* \"contracts/LaxmiChitFund.sol\":152:190  mapping(uint=>User)public userDatabase */\n    tag_12:\n      mstore(0x20, 0x00)\n      dup1\n      0x00\n      mstore\n      keccak256(0x00, 0x40)\n      0x00\n      swap2\n      pop\n      swap1\n      pop\n      dup1\n      0x00\n      add\n      sload\n      swap1\n      dup1\n      0x01\n      add\n      dup1\n      sload\n      tag_18\n      swap1\n      tag_19\n      jump\t// in\n    tag_18:\n      dup1\n      0x1f\n      add\n      0x20\n      dup1\n      swap2\n      div\n      mul\n      0x20\n      add\n      mload(0x40)\n      swap1\n      dup2\n      add\n      0x40\n      mstore\n      dup1\n      swap3\n      swap2\n      swap1\n      dup2\n      dup2\n      mstore\n      0x20\n      add\n      dup3\n      dup1\n      sload\n      tag_20\n      swap1\n      tag_19\n      jump\t// in\n    tag_20:\n      dup1\n      iszero\n      tag_21\n      jumpi\n      dup1\n      0x1f\n      lt\n      tag_22\n      jumpi\n      0x0100\n      dup1\n      dup4\n      sload\n      div\n      mul\n      dup4\n      mstore\n      swap2\n      0x20\n      add\n      swap2\n      jump(tag_21)\n    tag_22:\n      dup3\n      add\n      swap2\n      swap1\n      0x00\n      mstore\n      keccak256(0x00, 0x20)\n      swap1\n    tag_23:\n      dup2\n      sload\n      dup2\n      mstore\n      swap1\n      0x01\n      add\n      swap1\n      0x20\n      add\n      dup1\n      dup4\n      gt\n      tag_23\n      jumpi\n      dup3\n      swap1\n      sub\n      0x1f\n      and\n      dup3\n      add\n      swap2\n    tag_21:\n      pop\n      pop\n      pop\n      pop\n      pop\n      swap1\n      dup1\n      0x02\n      add\n      sload\n      swap1\n      pop\n      dup4\n      jump\t// out\n    tag_17:\n      dup3\n      dup1\n      sload\n      tag_24\n      swap1\n      tag_19\n      jump\t// in\n    tag_24:\n      swap1\n      0x00\n      mstore\n      keccak256(0x00, 0x20)\n      swap1\n      0x1f\n      add\n      0x20\n      swap1\n      div\n      dup2\n      add\n      swap3\n      dup3\n      tag_26\n      jumpi\n      0x00\n      dup6\n      sstore\n      jump(tag_25)\n    tag_26:\n      dup3\n      0x1f\n      lt\n      tag_27\n      jumpi\n      dup1\n      mload\n      not(0xff)\n      and\n      dup4\n      dup1\n      add\n      or\n      dup6\n      sstore\n      jump(tag_25)\n    tag_27:\n      dup3\n      dup1\n      add\n      0x01\n      add\n      dup6\n      sstore\n      dup3\n      iszero\n      tag_25\n      jumpi\n      swap2\n      dup3\n      add\n    tag_28:\n      dup3\n      dup2\n      gt\n      iszero\n      tag_29\n      jumpi\n      dup3\n      mload\n      dup3\n      sstore\n      swap2\n      0x20\n      add\n      swap2\n      swap1\n      0x01\n      add\n      swap1\n      jump(tag_28)\n    tag_29:\n    tag_25:\n      pop\n      swap1\n      pop\n      tag_30\n      swap2\n      swap1\n      tag_31\n      jump\t// in\n    tag_30:\n      pop\n      swap1\n      jump\t// out\n    tag_31:\n    tag_32:\n      dup1\n      dup3\n      gt\n      iszero\n      tag_33\n      jumpi\n      0x00\n      dup2\n      0x00\n      swap1\n      sstore\n      pop\n      0x01\n      add\n      jump(tag_32)\n    tag_33:\n      pop\n      swap1\n      jump\t// out\n        /* \"#utility.yul\":7:419   */\n    tag_35:\n        /* \"#utility.yul\":85:90   */\n      0x00\n        /* \"#utility.yul\":110:176   */\n      tag_37\n        /* \"#utility.yul\":126:175   */\n      tag_38\n        /* \"#utility.yul\":168:174   */\n      dup5\n        /* \"#utility.yul\":126:175   */\n      tag_39\n      jump\t// in\n    tag_38:\n        /* \"#utility.yul\":110:176   */\n      tag_40\n      jump\t// in\n    tag_37:\n        /* \"#utility.yul\":101:176   */\n      swap1\n      pop\n        /* \"#utility.yul\":199:205   */\n      dup3\n        /* \"#utility.yul\":192:197   */\n      dup2\n        /* \"#utility.yul\":185:206   */\n      mstore\n        /* \"#utility.yul\":237:241   */\n      0x20\n        /* \"#utility.yul\":230:235   */\n      dup2\n        /* \"#utility.yul\":226:242   */\n      add\n        /* \"#utility.yul\":275:278   */\n      dup5\n        /* \"#utility.yul\":266:272   */\n      dup5\n        /* \"#utility.yul\":261:264   */\n      dup5\n        /* \"#utility.yul\":257:273   */\n      add\n        /* \"#utility.yul\":254:279   */\n      gt\n        /* \"#utility.yul\":251:363   */\n      iszero\n      tag_41\n      jumpi\n        /* \"#utility.yul\":282:361   */\n      tag_42\n      tag_43\n      jump\t// in\n    tag_42:\n        /* \"#utility.yul\":251:363   */\n    tag_41:\n        /* \"#utility.yul\":372:413   */\n      tag_44\n        /* \"#utility.yul\":406:412   */\n      dup5\n        /* \"#utility.yul\":401:404   */\n      dup3\n        /* \"#utility.yul\":396:399   */\n      dup6\n        /* \"#utility.yul\":372:413   */\n      tag_45\n      jump\t// in\n    tag_44:\n        /* \"#utility.yul\":91:419   */\n      pop\n        /* \"#utility.yul\":7:419   */\n      swap4\n      swap3\n      pop\n      pop\n      pop\n      jump\t// out\n        /* \"#utility.yul\":439:779   */\n    tag_46:\n        /* \"#utility.yul\":495:500   */\n      0x00\n        /* \"#utility.yul\":544:547   */\n      dup3\n        /* \"#utility.yul\":537:541   */\n      0x1f\n        /* \"#utility.yul\":529:535   */\n      dup4\n        /* \"#utility.yul\":525:542   */\n      add\n        /* \"#utility.yul\":521:548   */\n      slt\n        /* \"#utility.yul\":511:633   */\n      tag_48\n      jumpi\n        /* \"#utility.yul\":552:631   */\n      tag_49\n      tag_50\n      jump\t// in\n    tag_49:\n        /* \"#utility.yul\":511:633   */\n    tag_48:\n        /* \"#utility.yul\":669:675   */\n      dup2\n        /* \"#utility.yul\":656:676   */\n      calldataload\n        /* \"#utility.yul\":694:773   */\n      tag_51\n        /* \"#utility.yul\":769:772   */\n      dup5\n        /* \"#utility.yul\":761:767   */\n      dup3\n        /* \"#utility.yul\":754:758   */\n      0x20\n        /* \"#utility.yul\":746:752   */\n      dup7\n        /* \"#utility.yul\":742:759   */\n      add\n        /* \"#utility.yul\":694:773   */\n      tag_35\n      jump\t// in\n    tag_51:\n        /* \"#utility.yul\":685:773   */\n      swap2\n      pop\n        /* \"#utility.yul\":501:779   */\n      pop\n        /* \"#utility.yul\":439:779   */\n      swap3\n      swap2\n      pop\n      pop\n      jump\t// out\n        /* \"#utility.yul\":785:924   */\n    tag_52:\n        /* \"#utility.yul\":831:836   */\n      0x00\n        /* \"#utility.yul\":869:875   */\n      dup2\n        /* \"#utility.yul\":856:876   */\n      calldataload\n        /* \"#utility.yul\":847:876   */\n      swap1\n      pop\n        /* \"#utility.yul\":885:918   */\n      tag_54\n        /* \"#utility.yul\":912:917   */\n      dup2\n        /* \"#utility.yul\":885:918   */\n      tag_55\n      jump\t// in\n    tag_54:\n        /* \"#utility.yul\":785:924   */\n      swap3\n      swap2\n      pop\n      pop\n      jump\t// out\n        /* \"#utility.yul\":930:1584   */\n    tag_7:\n        /* \"#utility.yul\":1008:1014   */\n      0x00\n        /* \"#utility.yul\":1016:1022   */\n      dup1\n        /* \"#utility.yul\":1065:1067   */\n      0x40\n        /* \"#utility.yul\":1053:1062   */\n      dup4\n        /* \"#utility.yul\":1044:1051   */\n      dup6\n        /* \"#utility.yul\":1040:1063   */\n      sub\n        /* \"#utility.yul\":1036:1068   */\n      slt\n        /* \"#utility.yul\":1033:1152   */\n      iszero\n      tag_57\n      jumpi\n        /* \"#utility.yul\":1071:1150   */\n      tag_58\n      tag_59\n      jump\t// in\n    tag_58:\n        /* \"#utility.yul\":1033:1152   */\n    tag_57:\n        /* \"#utility.yul\":1219:1220   */\n      0x00\n        /* \"#utility.yul\":1208:1217   */\n      dup4\n        /* \"#utility.yul\":1204:1221   */\n      add\n        /* \"#utility.yul\":1191:1222   */\n      calldataload\n        /* \"#utility.yul\":1249:1267   */\n      0xffffffffffffffff\n        /* \"#utility.yul\":1241:1247   */\n      dup2\n        /* \"#utility.yul\":1238:1268   */\n      gt\n        /* \"#utility.yul\":1235:1352   */\n      iszero\n      tag_60\n      jumpi\n        /* \"#utility.yul\":1271:1350   */\n      tag_61\n      tag_62\n      jump\t// in\n    tag_61:\n        /* \"#utility.yul\":1235:1352   */\n    tag_60:\n        /* \"#utility.yul\":1376:1439   */\n      tag_63\n        /* \"#utility.yul\":1431:1438   */\n      dup6\n        /* \"#utility.yul\":1422:1428   */\n      dup3\n        /* \"#utility.yul\":1411:1420   */\n      dup7\n        /* \"#utility.yul\":1407:1429   */\n      add\n        /* \"#utility.yul\":1376:1439   */\n      tag_46\n      jump\t// in\n    tag_63:\n        /* \"#utility.yul\":1366:1439   */\n      swap3\n      pop\n        /* \"#utility.yul\":1162:1449   */\n      pop\n        /* \"#utility.yul\":1488:1490   */\n      0x20\n        /* \"#utility.yul\":1514:1567   */\n      tag_64\n        /* \"#utility.yul\":1559:1566   */\n      dup6\n        /* \"#utility.yul\":1550:1556   */\n      dup3\n        /* \"#utility.yul\":1539:1548   */\n      dup7\n        /* \"#utility.yul\":1535:1557   */\n      add\n        /* \"#utility.yul\":1514:1567   */\n      tag_52\n      jump\t// in\n    tag_64:\n        /* \"#utility.yul\":1504:1567   */\n      swap2\n      pop\n        /* \"#utility.yul\":1459:1577   */\n      pop\n        /* \"#utility.yul\":930:1584   */\n      swap3\n      pop\n      swap3\n      swap1\n      pop\n      jump\t// out\n        /* \"#utility.yul\":1590:1919   */\n    tag_11:\n        /* \"#utility.yul\":1649:1655   */\n      0x00\n        /* \"#utility.yul\":1698:1700   */\n      0x20\n        /* \"#utility.yul\":1686:1695   */\n      dup3\n        /* \"#utility.yul\":1677:1684   */\n      dup5\n        /* \"#utility.yul\":1673:1696   */\n      sub\n        /* \"#utility.yul\":1669:1701   */\n      slt\n        /* \"#utility.yul\":1666:1785   */\n      iszero\n      tag_66\n      jumpi\n        /* \"#utility.yul\":1704:1783   */\n      tag_67\n      tag_59\n      jump\t// in\n    tag_67:\n        /* \"#utility.yul\":1666:1785   */\n    tag_66:\n        /* \"#utility.yul\":1824:1825   */\n      0x00\n        /* \"#utility.yul\":1849:1902   */\n      tag_68\n        /* \"#utility.yul\":1894:1901   */\n      dup5\n        /* \"#utility.yul\":1885:1891   */\n      dup3\n        /* \"#utility.yul\":1874:1883   */\n      dup6\n        /* \"#utility.yul\":1870:1892   */\n      add\n        /* \"#utility.yul\":1849:1902   */\n      tag_52\n      jump\t// in\n    tag_68:\n        /* \"#utility.yul\":1839:1902   */\n      swap2\n      pop\n        /* \"#utility.yul\":1795:1912   */\n      pop\n        /* \"#utility.yul\":1590:1919   */\n      swap3\n      swap2\n      pop\n      pop\n      jump\t// out\n        /* \"#utility.yul\":1925:2289   */\n    tag_69:\n        /* \"#utility.yul\":2013:2016   */\n      0x00\n        /* \"#utility.yul\":2041:2080   */\n      tag_71\n        /* \"#utility.yul\":2074:2079   */\n      dup3\n        /* \"#utility.yul\":2041:2080   */\n      tag_72\n      jump\t// in\n    tag_71:\n        /* \"#utility.yul\":2096:2167   */\n      tag_73\n        /* \"#utility.yul\":2160:2166   */\n      dup2\n        /* \"#utility.yul\":2155:2158   */\n      dup6\n        /* \"#utility.yul\":2096:2167   */\n      tag_74\n      jump\t// in\n    tag_73:\n        /* \"#utility.yul\":2089:2167   */\n      swap4\n      pop\n        /* \"#utility.yul\":2176:2228   */\n      tag_75\n        /* \"#utility.yul\":2221:2227   */\n      dup2\n        /* \"#utility.yul\":2216:2219   */\n      dup6\n        /* \"#utility.yul\":2209:2213   */\n      0x20\n        /* \"#utility.yul\":2202:2207   */\n      dup7\n        /* \"#utility.yul\":2198:2214   */\n      add\n        /* \"#utility.yul\":2176:2228   */\n      tag_76\n      jump\t// in\n    tag_75:\n        /* \"#utility.yul\":2253:2282   */\n      tag_77\n        /* \"#utility.yul\":2275:2281   */\n      dup2\n        /* \"#utility.yul\":2253:2282   */\n      tag_78\n      jump\t// in\n    tag_77:\n        /* \"#utility.yul\":2248:2251   */\n      dup5\n        /* \"#utility.yul\":2244:2283   */\n      add\n        /* \"#utility.yul\":2237:2283   */\n      swap2\n      pop\n        /* \"#utility.yul\":2017:2289   */\n      pop\n        /* \"#utility.yul\":1925:2289   */\n      swap3\n      swap2\n      pop\n      pop\n      jump\t// out\n        /* \"#utility.yul\":2295:2413   */\n    tag_79:\n        /* \"#utility.yul\":2382:2406   */\n      tag_81\n        /* \"#utility.yul\":2400:2405   */\n      dup2\n        /* \"#utility.yul\":2382:2406   */\n      tag_82\n      jump\t// in\n    tag_81:\n        /* \"#utility.yul\":2377:2380   */\n      dup3\n        /* \"#utility.yul\":2370:2407   */\n      mstore\n        /* \"#utility.yul\":2295:2413   */\n      pop\n      pop\n      jump\t// out\n        /* \"#utility.yul\":2419:2952   */\n    tag_14:\n        /* \"#utility.yul\":2588:2592   */\n      0x00\n        /* \"#utility.yul\":2626:2628   */\n      0x60\n        /* \"#utility.yul\":2615:2624   */\n      dup3\n        /* \"#utility.yul\":2611:2629   */\n      add\n        /* \"#utility.yul\":2603:2629   */\n      swap1\n      pop\n        /* \"#utility.yul\":2639:2710   */\n      tag_84\n        /* \"#utility.yul\":2707:2708   */\n      0x00\n        /* \"#utility.yul\":2696:2705   */\n      dup4\n        /* \"#utility.yul\":2692:2709   */\n      add\n        /* \"#utility.yul\":2683:2689   */\n      dup7\n        /* \"#utility.yul\":2639:2710   */\n      tag_79\n      jump\t// in\n    tag_84:\n        /* \"#utility.yul\":2757:2766   */\n      dup2\n        /* \"#utility.yul\":2751:2755   */\n      dup2\n        /* \"#utility.yul\":2747:2767   */\n      sub\n        /* \"#utility.yul\":2742:2744   */\n      0x20\n        /* \"#utility.yul\":2731:2740   */\n      dup4\n        /* \"#utility.yul\":2727:2745   */\n      add\n        /* \"#utility.yul\":2720:2768   */\n      mstore\n        /* \"#utility.yul\":2785:2863   */\n      tag_85\n        /* \"#utility.yul\":2858:2862   */\n      dup2\n        /* \"#utility.yul\":2849:2855   */\n      dup6\n        /* \"#utility.yul\":2785:2863   */\n      tag_69\n      jump\t// in\n    tag_85:\n        /* \"#utility.yul\":2777:2863   */\n      swap1\n      pop\n        /* \"#utility.yul\":2873:2945   */\n      tag_86\n        /* \"#utility.yul\":2941:2943   */\n      0x40\n        /* \"#utility.yul\":2930:2939   */\n      dup4\n        /* \"#utility.yul\":2926:2944   */\n      add\n        /* \"#utility.yul\":2917:2923   */\n      dup5\n        /* \"#utility.yul\":2873:2945   */\n      tag_79\n      jump\t// in\n    tag_86:\n        /* \"#utility.yul\":2419:2952   */\n      swap5\n      swap4\n      pop\n      pop\n      pop\n      pop\n      jump\t// out\n        /* \"#utility.yul\":2958:3087   */\n    tag_40:\n        /* \"#utility.yul\":2992:2998   */\n      0x00\n        /* \"#utility.yul\":3019:3039   */\n      tag_88\n      tag_89\n      jump\t// in\n    tag_88:\n        /* \"#utility.yul\":3009:3039   */\n      swap1\n      pop\n        /* \"#utility.yul\":3048:3081   */\n      tag_90\n        /* \"#utility.yul\":3076:3080   */\n      dup3\n        /* \"#utility.yul\":3068:3074   */\n      dup3\n        /* \"#utility.yul\":3048:3081   */\n      tag_91\n      jump\t// in\n    tag_90:\n        /* \"#utility.yul\":2958:3087   */\n      swap2\n      swap1\n      pop\n      jump\t// out\n        /* \"#utility.yul\":3093:3168   */\n    tag_89:\n        /* \"#utility.yul\":3126:3132   */\n      0x00\n        /* \"#utility.yul\":3159:3161   */\n      0x40\n        /* \"#utility.yul\":3153:3162   */\n      mload\n        /* \"#utility.yul\":3143:3162   */\n      swap1\n      pop\n        /* \"#utility.yul\":3093:3168   */\n      swap1\n      jump\t// out\n        /* \"#utility.yul\":3174:3482   */\n    tag_39:\n        /* \"#utility.yul\":3236:3240   */\n      0x00\n        /* \"#utility.yul\":3326:3344   */\n      0xffffffffffffffff\n        /* \"#utility.yul\":3318:3324   */\n      dup3\n        /* \"#utility.yul\":3315:3345   */\n      gt\n        /* \"#utility.yul\":3312:3368   */\n      iszero\n      tag_94\n      jumpi\n        /* \"#utility.yul\":3348:3366   */\n      tag_95\n      tag_96\n      jump\t// in\n    tag_95:\n        /* \"#utility.yul\":3312:3368   */\n    tag_94:\n        /* \"#utility.yul\":3386:3415   */\n      tag_97\n        /* \"#utility.yul\":3408:3414   */\n      dup3\n        /* \"#utility.yul\":3386:3415   */\n      tag_78\n      jump\t// in\n    tag_97:\n        /* \"#utility.yul\":3378:3415   */\n      swap1\n      pop\n        /* \"#utility.yul\":3470:3474   */\n      0x20\n        /* \"#utility.yul\":3464:3468   */\n      dup2\n        /* \"#utility.yul\":3460:3475   */\n      add\n        /* \"#utility.yul\":3452:3475   */\n      swap1\n      pop\n        /* \"#utility.yul\":3174:3482   */\n      swap2\n      swap1\n      pop\n      jump\t// out\n        /* \"#utility.yul\":3488:3587   */\n    tag_72:\n        /* \"#utility.yul\":3540:3546   */\n      0x00\n        /* \"#utility.yul\":3574:3579   */\n      dup2\n        /* \"#utility.yul\":3568:3580   */\n      mload\n        /* \"#utility.yul\":3558:3580   */\n      swap1\n      pop\n        /* \"#utility.yul\":3488:3587   */\n      swap2\n      swap1\n      pop\n      jump\t// out\n        /* \"#utility.yul\":3593:3762   */\n    tag_74:\n        /* \"#utility.yul\":3677:3688   */\n      0x00\n        /* \"#utility.yul\":3711:3717   */\n      dup3\n        /* \"#utility.yul\":3706:3709   */\n      dup3\n        /* \"#utility.yul\":3699:3718   */\n      mstore\n        /* \"#utility.yul\":3751:3755   */\n      0x20\n        /* \"#utility.yul\":3746:3749   */\n      dup3\n        /* \"#utility.yul\":3742:3756   */\n      add\n        /* \"#utility.yul\":3727:3756   */\n      swap1\n      pop\n        /* \"#utility.yul\":3593:3762   */\n      swap3\n      swap2\n      pop\n      pop\n      jump\t// out\n        /* \"#utility.yul\":3768:3845   */\n    tag_82:\n        /* \"#utility.yul\":3805:3812   */\n      0x00\n        /* \"#utility.yul\":3834:3839   */\n      dup2\n        /* \"#utility.yul\":3823:3839   */\n      swap1\n      pop\n        /* \"#utility.yul\":3768:3845   */\n      swap2\n      swap1\n      pop\n      jump\t// out\n        /* \"#utility.yul\":3851:4005   */\n    tag_45:\n        /* \"#utility.yul\":3935:3941   */\n      dup3\n        /* \"#utility.yul\":3930:3933   */\n      dup2\n        /* \"#utility.yul\":3925:3928   */\n      dup4\n        /* \"#utility.yul\":3912:3942   */\n      calldatacopy\n        /* \"#utility.yul\":3997:3998   */\n      0x00\n        /* \"#utility.yul\":3988:3994   */\n      dup4\n        /* \"#utility.yul\":3983:3986   */\n      dup4\n        /* \"#utility.yul\":3979:3995   */\n      add\n        /* \"#utility.yul\":3972:3999   */\n      mstore\n        /* \"#utility.yul\":3851:4005   */\n      pop\n      pop\n      pop\n      jump\t// out\n        /* \"#utility.yul\":4011:4318   */\n    tag_76:\n        /* \"#utility.yul\":4079:4080   */\n      0x00\n        /* \"#utility.yul\":4089:4202   */\n    tag_103:\n        /* \"#utility.yul\":4103:4109   */\n      dup4\n        /* \"#utility.yul\":4100:4101   */\n      dup2\n        /* \"#utility.yul\":4097:4110   */\n      lt\n        /* \"#utility.yul\":4089:4202   */\n      iszero\n      tag_105\n      jumpi\n        /* \"#utility.yul\":4188:4189   */\n      dup1\n        /* \"#utility.yul\":4183:4186   */\n      dup3\n        /* \"#utility.yul\":4179:4190   */\n      add\n        /* \"#utility.yul\":4173:4191   */\n      mload\n        /* \"#utility.yul\":4169:4170   */\n      dup2\n        /* \"#utility.yul\":4164:4167   */\n      dup5\n        /* \"#utility.yul\":4160:4171   */\n      add\n        /* \"#utility.yul\":4153:4192   */\n      mstore\n        /* \"#utility.yul\":4125:4127   */\n      0x20\n        /* \"#utility.yul\":4122:4123   */\n      dup2\n        /* \"#utility.yul\":4118:4128   */\n      add\n        /* \"#utility.yul\":4113:4128   */\n      swap1\n      pop\n        /* \"#utility.yul\":4089:4202   */\n      jump(tag_103)\n    tag_105:\n        /* \"#utility.yul\":4220:4226   */\n      dup4\n        /* \"#utility.yul\":4217:4218   */\n      dup2\n        /* \"#utility.yul\":4214:4227   */\n      gt\n        /* \"#utility.yul\":4211:4312   */\n      iszero\n      tag_106\n      jumpi\n        /* \"#utility.yul\":4300:4301   */\n      0x00\n        /* \"#utility.yul\":4291:4297   */\n      dup5\n        /* \"#utility.yul\":4286:4289   */\n      dup5\n        /* \"#utility.yul\":4282:4298   */\n      add\n        /* \"#utility.yul\":4275:4302   */\n      mstore\n        /* \"#utility.yul\":4211:4312   */\n    tag_106:\n        /* \"#utility.yul\":4060:4318   */\n      pop\n        /* \"#utility.yul\":4011:4318   */\n      pop\n      pop\n      pop\n      jump\t// out\n        /* \"#utility.yul\":4324:4644   */\n    tag_19:\n        /* \"#utility.yul\":4368:4374   */\n      0x00\n        /* \"#utility.yul\":4405:4406   */\n      0x02\n        /* \"#utility.yul\":4399:4403   */\n      dup3\n        /* \"#utility.yul\":4395:4407   */\n      div\n        /* \"#utility.yul\":4385:4407   */\n      swap1\n      pop\n        /* \"#utility.yul\":4452:4453   */\n      0x01\n        /* \"#utility.yul\":4446:4450   */\n      dup3\n        /* \"#utility.yul\":4442:4454   */\n      and\n        /* \"#utility.yul\":4473:4491   */\n      dup1\n        /* \"#utility.yul\":4463:4544   */\n      tag_108\n      jumpi\n        /* \"#utility.yul\":4529:4533   */\n      0x7f\n        /* \"#utility.yul\":4521:4527   */\n      dup3\n        /* \"#utility.yul\":4517:4534   */\n      and\n        /* \"#utility.yul\":4507:4534   */\n      swap2\n      pop\n        /* \"#utility.yul\":4463:4544   */\n    tag_108:\n        /* \"#utility.yul\":4591:4593   */\n      0x20\n        /* \"#utility.yul\":4583:4589   */\n      dup3\n        /* \"#utility.yul\":4580:4594   */\n      lt\n        /* \"#utility.yul\":4560:4578   */\n      dup2\n        /* \"#utility.yul\":4557:4595   */\n      eq\n        /* \"#utility.yul\":4554:4638   */\n      iszero\n      tag_109\n      jumpi\n        /* \"#utility.yul\":4610:4628   */\n      tag_110\n      tag_111\n      jump\t// in\n    tag_110:\n        /* \"#utility.yul\":4554:4638   */\n    tag_109:\n        /* \"#utility.yul\":4375:4644   */\n      pop\n        /* \"#utility.yul\":4324:4644   */\n      swap2\n      swap1\n      pop\n      jump\t// out\n        /* \"#utility.yul\":4650:4931   */\n    tag_91:\n        /* \"#utility.yul\":4733:4760   */\n      tag_113\n        /* \"#utility.yul\":4755:4759   */\n      dup3\n        /* \"#utility.yul\":4733:4760   */\n      tag_78\n      jump\t// in\n    tag_113:\n        /* \"#utility.yul\":4725:4731   */\n      dup2\n        /* \"#utility.yul\":4721:4761   */\n      add\n        /* \"#utility.yul\":4863:4869   */\n      dup2\n        /* \"#utility.yul\":4851:4861   */\n      dup2\n        /* \"#utility.yul\":4848:4870   */\n      lt\n        /* \"#utility.yul\":4827:4845   */\n      0xffffffffffffffff\n        /* \"#utility.yul\":4815:4825   */\n      dup3\n        /* \"#utility.yul\":4812:4846   */\n      gt\n        /* \"#utility.yul\":4809:4871   */\n      or\n        /* \"#utility.yul\":4806:4894   */\n      iszero\n      tag_114\n      jumpi\n        /* \"#utility.yul\":4874:4892   */\n      tag_115\n      tag_96\n      jump\t// in\n    tag_115:\n        /* \"#utility.yul\":4806:4894   */\n    tag_114:\n        /* \"#utility.yul\":4914:4924   */\n      dup1\n        /* \"#utility.yul\":4910:4912   */\n      0x40\n        /* \"#utility.yul\":4903:4925   */\n      mstore\n        /* \"#utility.yul\":4693:4931   */\n      pop\n        /* \"#utility.yul\":4650:4931   */\n      pop\n      pop\n      jump\t// out\n        /* \"#utility.yul\":4937:5117   */\n    tag_111:\n        /* \"#utility.yul\":4985:5062   */\n      0x4e487b7100000000000000000000000000000000000000000000000000000000\n        /* \"#utility.yul\":4982:4983   */\n      0x00\n        /* \"#utility.yul\":4975:5063   */\n      mstore\n        /* \"#utility.yul\":5082:5086   */\n      0x22\n        /* \"#utility.yul\":5079:5080   */\n      0x04\n        /* \"#utility.yul\":5072:5087   */\n      mstore\n        /* \"#utility.yul\":5106:5110   */\n      0x24\n        /* \"#utility.yul\":5103:5104   */\n      0x00\n        /* \"#utility.yul\":5096:5111   */\n      revert\n        /* \"#utility.yul\":5123:5303   */\n    tag_96:\n        /* \"#utility.yul\":5171:5248   */\n      0x4e487b7100000000000000000000000000000000000000000000000000000000\n        /* \"#utility.yul\":5168:5169   */\n      0x00\n        /* \"#utility.yul\":5161:5249   */\n      mstore\n        /* \"#utility.yul\":5268:5272   */\n      0x41\n        /* \"#utility.yul\":5265:5266   */\n      0x04\n        /* \"#utility.yul\":5258:5273   */\n      mstore\n        /* \"#utility.yul\":5292:5296   */\n      0x24\n        /* \"#utility.yul\":5289:5290   */\n      0x00\n        /* \"#utility.yul\":5282:5297   */\n      revert\n        /* \"#utility.yul\":5309:5426   */\n    tag_50:\n        /* \"#utility.yul\":5418:5419   */\n      0x00\n        /* \"#utility.yul\":5415:5416   */\n      dup1\n        /* \"#utility.yul\":5408:5420   */\n      revert\n        /* \"#utility.yul\":5432:5549   */\n    tag_43:\n        /* \"#utility.yul\":5541:5542   */\n      0x00\n        /* \"#utility.yul\":5538:5539   */\n      dup1\n        /* \"#utility.yul\":5531:5543   */\n      revert\n        /* \"#utility.yul\":5555:5672   */\n    tag_62:\n        /* \"#utility.yul\":5664:5665   */\n      0x00\n        /* \"#utility.yul\":5661:5662   */\n      dup1\n        /* \"#utility.yul\":5654:5666   */\n      revert\n        /* \"#utility.yul\":5678:5795   */\n    tag_59:\n        /* \"#utility.yul\":5787:5788   */\n      0x00\n        /* \"#utility.yul\":5784:5785   */\n      dup1\n        /* \"#utility.yul\":5777:5789   */\n      revert\n        /* \"#utility.yul\":5801:5903   */\n    tag_78:\n        /* \"#utility.yul\":5842:5848   */\n      0x00\n        /* \"#utility.yul\":5893:5895   */\n      0x1f\n        /* \"#utility.yul\":5889:5896   */\n      not\n        /* \"#utility.yul\":5884:5886   */\n      0x1f\n        /* \"#utility.yul\":5877:5882   */\n      dup4\n        /* \"#utility.yul\":5873:5887   */\n      add\n        /* \"#utility.yul\":5869:5897   */\n      and\n        /* \"#utility.yul\":5859:5897   */\n      swap1\n      pop\n        /* \"#utility.yul\":5801:5903   */\n      swap2\n      swap1\n      pop\n      jump\t// out\n        /* \"#utility.yul\":5909:6031   */\n    tag_55:\n        /* \"#utility.yul\":5982:6006   */\n      tag_124\n        /* \"#utility.yul\":6000:6005   */\n      dup2\n        /* \"#utility.yul\":5982:6006   */\n      tag_82\n      jump\t// in\n    tag_124:\n        /* \"#utility.yul\":5975:5980   */\n      dup2\n        /* \"#utility.yul\":5972:6007   */\n      eq\n        /* \"#utility.yul\":5962:6025   */\n      tag_125\n      jumpi\n        /* \"#utility.yul\":6021:6022   */\n      0x00\n        /* \"#utility.yul\":6018:6019   */\n      dup1\n        /* \"#utility.yul\":6011:6023   */\n      revert\n        /* \"#utility.yul\":5962:6025   */\n    tag_125:\n        /* \"#utility.yul\":5909:6031   */\n      pop\n      jump\t// out\n\n    auxdata: 0xa26469706673582212204968e9cefb8f10b29d13504fb442509298cf1083ce34107e79194d408e511f9364736f6c63430008070033\n}\n",
				"bytecode": {
					"linkReferences": {},
					"object": "60806040526001805534801561001457600080fd5b506105cd806100246000396000f3fe608060405234801561001057600080fd5b50600436106100365760003560e01c80636586ace61461003b5780639411136014610057575b600080fd5b610055600480360381019061005091906102cd565b610089565b005b610071600480360381019061006c9190610329565b6100f3565b6040516100809392919061039e565b60405180910390f35b60015460008060015481526020019081526020016000206000018190555081600080600154815260200190815260200160002060010190805190602001906100d29291906101a5565b50806000806001548152602001908152602001600020600201819055505050565b600060205280600052604060002060009150905080600001549080600101805461011c9061049a565b80601f01602080910402602001604051908101604052809291908181526020018280546101489061049a565b80156101955780601f1061016a57610100808354040283529160200191610195565b820191906000526020600020905b81548152906001019060200180831161017857829003601f168201915b5050505050908060020154905083565b8280546101b19061049a565b90600052602060002090601f0160209004810192826101d3576000855561021a565b82601f106101ec57805160ff191683800117855561021a565b8280016001018555821561021a579182015b828111156102195782518255916020019190600101906101fe565b5b509050610227919061022b565b5090565b5b8082111561024457600081600090555060010161022c565b5090565b600061025b61025684610401565b6103dc565b90508281526020810184848401111561027757610276610560565b5b610282848285610458565b509392505050565b600082601f83011261029f5761029e61055b565b5b81356102af848260208601610248565b91505092915050565b6000813590506102c781610580565b92915050565b600080604083850312156102e4576102e361056a565b5b600083013567ffffffffffffffff81111561030257610301610565565b5b61030e8582860161028a565b925050602061031f858286016102b8565b9150509250929050565b60006020828403121561033f5761033e61056a565b5b600061034d848285016102b8565b91505092915050565b600061036182610432565b61036b818561043d565b935061037b818560208601610467565b6103848161056f565b840191505092915050565b6103988161044e565b82525050565b60006060820190506103b3600083018661038f565b81810360208301526103c58185610356565b90506103d4604083018461038f565b949350505050565b60006103e66103f7565b90506103f282826104cc565b919050565b6000604051905090565b600067ffffffffffffffff82111561041c5761041b61052c565b5b6104258261056f565b9050602081019050919050565b600081519050919050565b600082825260208201905092915050565b6000819050919050565b82818337600083830152505050565b60005b8381101561048557808201518184015260208101905061046a565b83811115610494576000848401525b50505050565b600060028204905060018216806104b257607f821691505b602082108114156104c6576104c56104fd565b5b50919050565b6104d58261056f565b810181811067ffffffffffffffff821117156104f4576104f361052c565b5b80604052505050565b7f4e487b7100000000000000000000000000000000000000000000000000000000600052602260045260246000fd5b7f4e487b7100000000000000000000000000000000000000000000000000000000600052604160045260246000fd5b600080fd5b600080fd5b600080fd5b600080fd5b6000601f19601f8301169050919050565b6105898161044e565b811461059457600080fd5b5056fea26469706673582212204968e9cefb8f10b29d13504fb442509298cf1083ce34107e79194d408e511f9364736f6c63430008070033",
					"opcodes": "PUSH1 0x80 PUSH1 0x40 MSTORE PUSH1 0x1 DUP1 SSTORE CALLVALUE DUP1 ISZERO PUSH2 0x14 JUMPI PUSH1 0x0 DUP1 REVERT JUMPDEST POP PUSH2 0x5CD DUP1 PUSH2 0x24 PUSH1 0x0 CODECOPY PUSH1 0x0 RETURN INVALID PUSH1 0x80 PUSH1 0x40 MSTORE CALLVALUE DUP1 ISZERO PUSH2 0x10 JUMPI PUSH1 0x0 DUP1 REVERT JUMPDEST POP PUSH1 0x4 CALLDATASIZE LT PUSH2 0x36 JUMPI PUSH1 0x0 CALLDATALOAD PUSH1 0xE0 SHR DUP1 PUSH4 0x6586ACE6 EQ PUSH2 0x3B JUMPI DUP1 PUSH4 0x94111360 EQ PUSH2 0x57 JUMPI JUMPDEST PUSH1 0x0 DUP1 REVERT JUMPDEST PUSH2 0x55 PUSH1 0x4 DUP1 CALLDATASIZE SUB DUP2 ADD SWAP1 PUSH2 0x50 SWAP2 SWAP1 PUSH2 0x2CD JUMP JUMPDEST PUSH2 0x89 JUMP JUMPDEST STOP JUMPDEST PUSH2 0x71 PUSH1 0x4 DUP1 CALLDATASIZE SUB DUP2 ADD SWAP1 PUSH2 0x6C SWAP2 SWAP1 PUSH2 0x329 JUMP JUMPDEST PUSH2 0xF3 JUMP JUMPDEST PUSH1 0x40 MLOAD PUSH2 0x80 SWAP4 SWAP3 SWAP2 SWAP1 PUSH2 0x39E JUMP JUMPDEST PUSH1 0x40 MLOAD DUP1 SWAP2 SUB SWAP1 RETURN JUMPDEST PUSH1 0x1 SLOAD PUSH1 0x0 DUP1 PUSH1 0x1 SLOAD DUP2 MSTORE PUSH1 0x20 ADD SWAP1 DUP2 MSTORE PUSH1 0x20 ADD PUSH1 0x0 KECCAK256 PUSH1 0x0 ADD DUP2 SWAP1 SSTORE POP DUP2 PUSH1 0x0 DUP1 PUSH1 0x1 SLOAD DUP2 MSTORE PUSH1 0x20 ADD SWAP1 DUP2 MSTORE PUSH1 0x20 ADD PUSH1 0x0 KECCAK256 PUSH1 0x1 ADD SWAP1 DUP1 MLOAD SWAP1 PUSH1 0x20 ADD SWAP1 PUSH2 0xD2 SWAP3 SWAP2 SWAP1 PUSH2 0x1A5 JUMP JUMPDEST POP DUP1 PUSH1 0x0 DUP1 PUSH1 0x1 SLOAD DUP2 MSTORE PUSH1 0x20 ADD SWAP1 DUP2 MSTORE PUSH1 0x20 ADD PUSH1 0x0 KECCAK256 PUSH1 0x2 ADD DUP2 SWAP1 SSTORE POP POP POP JUMP JUMPDEST PUSH1 0x0 PUSH1 0x20 MSTORE DUP1 PUSH1 0x0 MSTORE PUSH1 0x40 PUSH1 0x0 KECCAK256 PUSH1 0x0 SWAP2 POP SWAP1 POP DUP1 PUSH1 0x0 ADD SLOAD SWAP1 DUP1 PUSH1 0x1 ADD DUP1 SLOAD PUSH2 0x11C SWAP1 PUSH2 0x49A JUMP JUMPDEST DUP1 PUSH1 0x1F ADD PUSH1 0x20 DUP1 SWAP2 DIV MUL PUSH1 0x20 ADD PUSH1 0x40 MLOAD SWAP1 DUP2 ADD PUSH1 0x40 MSTORE DUP1 SWAP3 SWAP2 SWAP1 DUP2 DUP2 MSTORE PUSH1 0x20 ADD DUP3 DUP1 SLOAD PUSH2 0x148 SWAP1 PUSH2 0x49A JUMP JUMPDEST DUP1 ISZERO PUSH2 0x195 JUMPI DUP1 PUSH1 0x1F LT PUSH2 0x16A JUMPI PUSH2 0x100 DUP1 DUP4 SLOAD DIV MUL DUP4 MSTORE SWAP2 PUSH1 0x20 ADD SWAP2 PUSH2 0x195 JUMP JUMPDEST DUP3 ADD SWAP2 SWAP1 PUSH1 0x0 MSTORE PUSH1 0x20 PUSH1 0x0 KECCAK256 SWAP1 JUMPDEST DUP2 SLOAD DUP2 MSTORE SWAP1 PUSH1 0x1 ADD SWAP1 PUSH1 0x20 ADD DUP1 DUP4 GT PUSH2 0x178 JUMPI DUP3 SWAP1 SUB PUSH1 0x1F AND DUP3 ADD SWAP2 JUMPDEST POP POP POP POP POP SWAP1 DUP1 PUSH1 0x2 ADD SLOAD SWAP1 POP DUP4 JUMP JUMPDEST DUP3 DUP1 SLOAD PUSH2 0x1B1 SWAP1 PUSH2 0x49A JUMP JUMPDEST SWAP1 PUSH1 0x0 MSTORE PUSH1 0x20 PUSH1 0x0 KECCAK256 SWAP1 PUSH1 0x1F ADD PUSH1 0x20 SWAP1 DIV DUP2 ADD SWAP3 DUP3 PUSH2 0x1D3 JUMPI PUSH1 0x0 DUP6 SSTORE PUSH2 0x21A JUMP JUMPDEST DUP3 PUSH1 0x1F LT PUSH2 0x1EC JUMPI DUP1 MLOAD PUSH1 0xFF NOT AND DUP4 DUP1 ADD OR DUP6 SSTORE PUSH2 0x21A JUMP JUMPDEST DUP3 DUP1 ADD PUSH1 0x1 ADD DUP6 SSTORE DUP3 ISZERO PUSH2 0x21A JUMPI SWAP2 DUP3 ADD JUMPDEST DUP3 DUP2 GT ISZERO PUSH2 0x219 JUMPI DUP3 MLOAD DUP3 SSTORE SWAP2 PUSH1 0x20 ADD SWAP2 SWAP1 PUSH1 0x1 ADD SWAP1 PUSH2 0x1FE JUMP JUMPDEST JUMPDEST POP SWAP1 POP PUSH2 0x227 SWAP2 SWAP1 PUSH2 0x22B JUMP JUMPDEST POP SWAP1 JUMP JUMPDEST JUMPDEST DUP1 DUP3 GT ISZERO PUSH2 0x244 JUMPI PUSH1 0x0 DUP2 PUSH1 0x0 SWAP1 SSTORE POP PUSH1 0x1 ADD PUSH2 0x22C JUMP JUMPDEST POP SWAP1 JUMP JUMPDEST PUSH1 0x0 PUSH2 0x25B PUSH2 0x256 DUP5 PUSH2 0x401 JUMP JUMPDEST PUSH2 0x3DC JUMP JUMPDEST SWAP1 POP DUP3 DUP2 MSTORE PUSH1 0x20 DUP2 ADD DUP5 DUP5 DUP5 ADD GT ISZERO PUSH2 0x277 JUMPI PUSH2 0x276 PUSH2 0x560 JUMP JUMPDEST JUMPDEST PUSH2 0x282 DUP5 DUP3 DUP6 PUSH2 0x458 JUMP JUMPDEST POP SWAP4 SWAP3 POP POP POP JUMP JUMPDEST PUSH1 0x0 DUP3 PUSH1 0x1F DUP4 ADD SLT PUSH2 0x29F JUMPI PUSH2 0x29E PUSH2 0x55B JUMP JUMPDEST JUMPDEST DUP2 CALLDATALOAD PUSH2 0x2AF DUP5 DUP3 PUSH1 0x20 DUP7 ADD PUSH2 0x248 JUMP JUMPDEST SWAP2 POP POP SWAP3 SWAP2 POP POP JUMP JUMPDEST PUSH1 0x0 DUP2 CALLDATALOAD SWAP1 POP PUSH2 0x2C7 DUP2 PUSH2 0x580 JUMP JUMPDEST SWAP3 SWAP2 POP POP JUMP JUMPDEST PUSH1 0x0 DUP1 PUSH1 0x40 DUP4 DUP6 SUB SLT ISZERO PUSH2 0x2E4 JUMPI PUSH2 0x2E3 PUSH2 0x56A JUMP JUMPDEST JUMPDEST PUSH1 0x0 DUP4 ADD CALLDATALOAD PUSH8 0xFFFFFFFFFFFFFFFF DUP2 GT ISZERO PUSH2 0x302 JUMPI PUSH2 0x301 PUSH2 0x565 JUMP JUMPDEST JUMPDEST PUSH2 0x30E DUP6 DUP3 DUP7 ADD PUSH2 0x28A JUMP JUMPDEST SWAP3 POP POP PUSH1 0x20 PUSH2 0x31F DUP6 DUP3 DUP7 ADD PUSH2 0x2B8 JUMP JUMPDEST SWAP2 POP POP SWAP3 POP SWAP3 SWAP1 POP JUMP JUMPDEST PUSH1 0x0 PUSH1 0x20 DUP3 DUP5 SUB SLT ISZERO PUSH2 0x33F JUMPI PUSH2 0x33E PUSH2 0x56A JUMP JUMPDEST JUMPDEST PUSH1 0x0 PUSH2 0x34D DUP5 DUP3 DUP6 ADD PUSH2 0x2B8 JUMP JUMPDEST SWAP2 POP POP SWAP3 SWAP2 POP POP JUMP JUMPDEST PUSH1 0x0 PUSH2 0x361 DUP3 PUSH2 0x432 JUMP JUMPDEST PUSH2 0x36B DUP2 DUP6 PUSH2 0x43D JUMP JUMPDEST SWAP4 POP PUSH2 0x37B DUP2 DUP6 PUSH1 0x20 DUP7 ADD PUSH2 0x467 JUMP JUMPDEST PUSH2 0x384 DUP2 PUSH2 0x56F JUMP JUMPDEST DUP5 ADD SWAP2 POP POP SWAP3 SWAP2 POP POP JUMP JUMPDEST PUSH2 0x398 DUP2 PUSH2 0x44E JUMP JUMPDEST DUP3 MSTORE POP POP JUMP JUMPDEST PUSH1 0x0 PUSH1 0x60 DUP3 ADD SWAP1 POP PUSH2 0x3B3 PUSH1 0x0 DUP4 ADD DUP7 PUSH2 0x38F JUMP JUMPDEST DUP2 DUP2 SUB PUSH1 0x20 DUP4 ADD MSTORE PUSH2 0x3C5 DUP2 DUP6 PUSH2 0x356 JUMP JUMPDEST SWAP1 POP PUSH2 0x3D4 PUSH1 0x40 DUP4 ADD DUP5 PUSH2 0x38F JUMP JUMPDEST SWAP5 SWAP4 POP POP POP POP JUMP JUMPDEST PUSH1 0x0 PUSH2 0x3E6 PUSH2 0x3F7 JUMP JUMPDEST SWAP1 POP PUSH2 0x3F2 DUP3 DUP3 PUSH2 0x4CC JUMP JUMPDEST SWAP2 SWAP1 POP JUMP JUMPDEST PUSH1 0x0 PUSH1 0x40 MLOAD SWAP1 POP SWAP1 JUMP JUMPDEST PUSH1 0x0 PUSH8 0xFFFFFFFFFFFFFFFF DUP3 GT ISZERO PUSH2 0x41C JUMPI PUSH2 0x41B PUSH2 0x52C JUMP JUMPDEST JUMPDEST PUSH2 0x425 DUP3 PUSH2 0x56F JUMP JUMPDEST SWAP1 POP PUSH1 0x20 DUP2 ADD SWAP1 POP SWAP2 SWAP1 POP JUMP JUMPDEST PUSH1 0x0 DUP2 MLOAD SWAP1 POP SWAP2 SWAP1 POP JUMP JUMPDEST PUSH1 0x0 DUP3 DUP3 MSTORE PUSH1 0x20 DUP3 ADD SWAP1 POP SWAP3 SWAP2 POP POP JUMP JUMPDEST PUSH1 0x0 DUP2 SWAP1 POP SWAP2 SWAP1 POP JUMP JUMPDEST DUP3 DUP2 DUP4 CALLDATACOPY PUSH1 0x0 DUP4 DUP4 ADD MSTORE POP POP POP JUMP JUMPDEST PUSH1 0x0 JUMPDEST DUP4 DUP2 LT ISZERO PUSH2 0x485 JUMPI DUP1 DUP3 ADD MLOAD DUP2 DUP5 ADD MSTORE PUSH1 0x20 DUP2 ADD SWAP1 POP PUSH2 0x46A JUMP JUMPDEST DUP4 DUP2 GT ISZERO PUSH2 0x494 JUMPI PUSH1 0x0 DUP5 DUP5 ADD MSTORE JUMPDEST POP POP POP POP JUMP JUMPDEST PUSH1 0x0 PUSH1 0x2 DUP3 DIV SWAP1 POP PUSH1 0x1 DUP3 AND DUP1 PUSH2 0x4B2 JUMPI PUSH1 0x7F DUP3 AND SWAP2 POP JUMPDEST PUSH1 0x20 DUP3 LT DUP2 EQ ISZERO PUSH2 0x4C6 JUMPI PUSH2 0x4C5 PUSH2 0x4FD JUMP JUMPDEST JUMPDEST POP SWAP2 SWAP1 POP JUMP JUMPDEST PUSH2 0x4D5 DUP3 PUSH2 0x56F JUMP JUMPDEST DUP2 ADD DUP2 DUP2 LT PUSH8 0xFFFFFFFFFFFFFFFF DUP3 GT OR ISZERO PUSH2 0x4F4 JUMPI PUSH2 0x4F3 PUSH2 0x52C JUMP JUMPDEST JUMPDEST DUP1 PUSH1 0x40 MSTORE POP POP POP JUMP JUMPDEST PUSH32 0x4E487B7100000000000000000000000000000000000000000000000000000000 PUSH1 0x0 MSTORE PUSH1 0x22 PUSH1 0x4 MSTORE PUSH1 0x24 PUSH1 0x0 REVERT JUMPDEST PUSH32 0x4E487B7100000000000000000000000000000000000000000000000000000000 PUSH1 0x0 MSTORE PUSH1 0x41 PUSH1 0x4 MSTORE PUSH1 0x24 PUSH1 0x0 REVERT JUMPDEST PUSH1 0x0 DUP1 REVERT JUMPDEST PUSH1 0x0 DUP1 REVERT JUMPDEST PUSH1 0x0 DUP1 REVERT JUMPDEST PUSH1 0x0 DUP1 REVERT JUMPDEST PUSH1 0x0 PUSH1 0x1F NOT PUSH1 0x1F DUP4 ADD AND SWAP1 POP SWAP2 SWAP1 POP JUMP JUMPDEST PUSH2 0x589 DUP2 PUSH2 0x44E JUMP JUMPDEST DUP2 EQ PUSH2 0x594 JUMPI PUSH1 0x0 DUP1 REVERT JUMPDEST POP JUMP INVALID LOG2 PUSH5 0x6970667358 0x22 SLT KECCAK256 0x49 PUSH9 0xE9CEFB8F10B29D1350 0x4F 0xB4 TIMESTAMP POP SWAP3 SWAP9 0xCF LT DUP4 0xCE CALLVALUE LT PUSH31 0x79194D408E511F9364736F6C63430008070033000000000000000000000000 "
				},
				"gasEstimates": {
					"creation": {
						"codeDepositCost": "297000",
						"executionCost": "22443",
						"totalCost": "319443"
					},
					"external": {
						"createAccount(string,uint256)": "infinite",
						"userDatabase(uint256)": "infinite"
					}
				},
				"methodIdentifiers": {
					"createAccount(string,uint256)": "6586ace6",
					"userDatabase(uint256)": "94111360"
				}
			},
			"storageLayout": {
				"storage": [
					{
						"astId": 13,
						"contract": "contracts/LaxmiChitFund.sol:LaxmichitFundBank",
						"label": "userDatabase",
						"offset": 0,
						"slot": "0",
						"type": "t_mapping(t_uint256,t_struct(User)8_storage)"
					},
					{
						"astId": 16,
						"contract": "contracts/LaxmiChitFund.sol:LaxmichitFundBank",
						"label": "id",
						"offset": 0,
						"slot": "1",
						"type": "t_uint256"
					}
				],
				"types": {
					"t_mapping(t_uint256,t_struct(User)8_storage)": {
						"encoding": "mapping",
						"key": "t_uint256",
						"label": "mapping(uint256 => struct LaxmichitFundBank.User)",
						"numberOfBytes": "32",
						"value": "t_struct(User)8_storage"
					},
					"t_string_storage": {
						"encoding": "bytes",
						"label": "string",
						"numberOfBytes": "32"
					},
					"t_struct(User)8_storage": {
						"encoding": "inplace",
						"label": "struct LaxmichitFundBank.User",
						"members": [
							{
								"astId": 3,
								"contract": "contracts/LaxmiChitFund.sol:LaxmichitFundBank",
								"label": "id",
								"offset": 0,
								"slot": "0",
								"type": "t_uint256"
							},
							{
								"astId": 5,
								"contract": "contracts/LaxmiChitFund.sol:LaxmichitFundBank",
								"label": "name",
								"offset": 0,
								"slot": "1",
								"type": "t_string_storage"
							},
							{
								"astId": 7,
								"contract": "contracts/LaxmiChitFund.sol:LaxmichitFundBank",
								"label": "balance",
								"offset": 0,
								"slot": "2",
								"type": "t_uint256"
							}
						],
						"numberOfBytes": "96"
					},
					"t_uint256": {
						"encoding": "inplace",
						"label": "uint256",
						"numberOfBytes": "32"
					}
				}
			},
			"userdoc": {
				"kind": "user",
				"methods": {},
				"version": 1
			}
		}
	}
}