{
	"contracts/PropertyRegistry.sol": {
		"propertyRegistry": {
			"abi": [
				{
					"inputs": [
						{
							"internalType": "address",
							"name": "",
							"type": "address"
						}
					],
					"name": "PropertyDatabase",
					"outputs": [
						{
							"internalType": "string",
							"name": "Address",
							"type": "string"
						},
						{
							"internalType": "uint256",
							"name": "area",
							"type": "uint256"
						},
						{
							"internalType": "address",
							"name": "Owner",
							"type": "address"
						}
					],
					"stateMutability": "view",
					"type": "function"
				},
				{
					"inputs": [
						{
							"internalType": "string",
							"name": "_Address",
							"type": "string"
						},
						{
							"internalType": "uint256",
							"name": "_area",
							"type": "uint256"
						}
					],
					"name": "purchaseProperty",
					"outputs": [],
					"stateMutability": "nonpayable",
					"type": "function"
				}
			],
			"devdoc": {
				"kind": "dev",
				"methods": {},
				"version": 1
			},
			"evm": {
				"assembly": "    /* \"contracts/PropertyRegistry.sol\":69:550  contract propertyRegistry{\r... */\n  mstore(0x40, 0x80)\n    /* \"contracts/PropertyRegistry.sol\":219:228  tx.origin */\n  origin\n    /* \"contracts/PropertyRegistry.sol\":205:228  address Owner=tx.origin */\n  0x00\n  dup1\n  0x0100\n  exp\n  dup2\n  sload\n  dup2\n  0xffffffffffffffffffffffffffffffffffffffff\n  mul\n  not\n  and\n  swap1\n  dup4\n  0xffffffffffffffffffffffffffffffffffffffff\n  and\n  mul\n  or\n  swap1\n  sstore\n  pop\n    /* \"contracts/PropertyRegistry.sol\":69:550  contract propertyRegistry{\r... */\n  callvalue\n  dup1\n  iszero\n  tag_1\n  jumpi\n  0x00\n  dup1\n  revert\ntag_1:\n  pop\n  dataSize(sub_0)\n  dup1\n  dataOffset(sub_0)\n  0x00\n  codecopy\n  0x00\n  return\nstop\n\nsub_0: assembly {\n        /* \"contracts/PropertyRegistry.sol\":69:550  contract propertyRegistry{\r... */\n      mstore(0x40, 0x80)\n      callvalue\n      dup1\n      iszero\n      tag_1\n      jumpi\n      0x00\n      dup1\n      revert\n    tag_1:\n      pop\n      jumpi(tag_2, lt(calldatasize, 0x04))\n      shr(0xe0, calldataload(0x00))\n      dup1\n      0x7db0366a\n      eq\n      tag_3\n      jumpi\n      dup1\n      0xe5bc7e82\n      eq\n      tag_4\n      jumpi\n    tag_2:\n      0x00\n      dup1\n      revert\n        /* \"contracts/PropertyRegistry.sol\":295:544  function purchaseProperty(string memory _Address, uint _area)public{\r... */\n    tag_3:\n      tag_5\n      0x04\n      dup1\n      calldatasize\n      sub\n      dup2\n      add\n      swap1\n      tag_6\n      swap2\n      swap1\n      tag_7\n      jump\t// in\n    tag_6:\n      tag_8\n      jump\t// in\n    tag_5:\n      stop\n        /* \"contracts/PropertyRegistry.sol\":236:285  mapping(address=>Property)public PropertyDatabase */\n    tag_4:\n      tag_9\n      0x04\n      dup1\n      calldatasize\n      sub\n      dup2\n      add\n      swap1\n      tag_10\n      swap2\n      swap1\n      tag_11\n      jump\t// in\n    tag_10:\n      tag_12\n      jump\t// in\n    tag_9:\n      mload(0x40)\n      tag_13\n      swap4\n      swap3\n      swap2\n      swap1\n      tag_14\n      jump\t// in\n    tag_13:\n      mload(0x40)\n      dup1\n      swap2\n      sub\n      swap1\n      return\n        /* \"contracts/PropertyRegistry.sol\":295:544  function purchaseProperty(string memory _Address, uint _area)public{\r... */\n    tag_8:\n        /* \"contracts/PropertyRegistry.sol\":406:414  _Address */\n      dup2\n        /* \"contracts/PropertyRegistry.sol\":374:390  PropertyDatabase */\n      0x01\n        /* \"contracts/PropertyRegistry.sol\":374:397  PropertyDatabase[Owner] */\n      0x00\n        /* \"contracts/PropertyRegistry.sol\":391:396  Owner */\n      dup1\n      0x00\n      swap1\n      sload\n      swap1\n      0x0100\n      exp\n      swap1\n      div\n      0xffffffffffffffffffffffffffffffffffffffff\n      and\n        /* \"contracts/PropertyRegistry.sol\":374:397  PropertyDatabase[Owner] */\n      0xffffffffffffffffffffffffffffffffffffffff\n      and\n      0xffffffffffffffffffffffffffffffffffffffff\n      and\n      dup2\n      mstore\n      0x20\n      add\n      swap1\n      dup2\n      mstore\n      0x20\n      add\n      0x00\n      keccak256\n        /* \"contracts/PropertyRegistry.sol\":374:405  PropertyDatabase[Owner].Address */\n      0x00\n      add\n        /* \"contracts/PropertyRegistry.sol\":374:414  PropertyDatabase[Owner].Address=_Address */\n      swap1\n      dup1\n      mload\n      swap1\n      0x20\n      add\n      swap1\n      tag_16\n      swap3\n      swap2\n      swap1\n      tag_17\n      jump\t// in\n    tag_16:\n      pop\n        /* \"contracts/PropertyRegistry.sol\":455:460  _area */\n      dup1\n        /* \"contracts/PropertyRegistry.sol\":426:442  PropertyDatabase */\n      0x01\n        /* \"contracts/PropertyRegistry.sol\":426:449  PropertyDatabase[Owner] */\n      0x00\n        /* \"contracts/PropertyRegistry.sol\":443:448  Owner */\n      dup1\n      0x00\n      swap1\n      sload\n      swap1\n      0x0100\n      exp\n      swap1\n      div\n      0xffffffffffffffffffffffffffffffffffffffff\n      and\n        /* \"contracts/PropertyRegistry.sol\":426:449  PropertyDatabase[Owner] */\n      0xffffffffffffffffffffffffffffffffffffffff\n      and\n      0xffffffffffffffffffffffffffffffffffffffff\n      and\n      dup2\n      mstore\n      0x20\n      add\n      swap1\n      dup2\n      mstore\n      0x20\n      add\n      0x00\n      keccak256\n        /* \"contracts/PropertyRegistry.sol\":426:454  PropertyDatabase[Owner].area */\n      0x01\n      add\n        /* \"contracts/PropertyRegistry.sol\":426:460  PropertyDatabase[Owner].area=_area */\n      dup2\n      swap1\n      sstore\n      pop\n        /* \"contracts/PropertyRegistry.sol\":502:507  Owner */\n      0x00\n      dup1\n      sload\n      swap1\n      0x0100\n      exp\n      swap1\n      div\n      0xffffffffffffffffffffffffffffffffffffffff\n      and\n        /* \"contracts/PropertyRegistry.sol\":472:488  PropertyDatabase */\n      0x01\n        /* \"contracts/PropertyRegistry.sol\":472:495  PropertyDatabase[Owner] */\n      0x00\n        /* \"contracts/PropertyRegistry.sol\":489:494  Owner */\n      dup1\n      0x00\n      swap1\n      sload\n      swap1\n      0x0100\n      exp\n      swap1\n      div\n      0xffffffffffffffffffffffffffffffffffffffff\n      and\n        /* \"contracts/PropertyRegistry.sol\":472:495  PropertyDatabase[Owner] */\n      0xffffffffffffffffffffffffffffffffffffffff\n      and\n      0xffffffffffffffffffffffffffffffffffffffff\n      and\n      dup2\n      mstore\n      0x20\n      add\n      swap1\n      dup2\n      mstore\n      0x20\n      add\n      0x00\n      keccak256\n        /* \"contracts/PropertyRegistry.sol\":472:501  PropertyDatabase[Owner].Owner */\n      0x02\n      add\n      0x00\n        /* \"contracts/PropertyRegistry.sol\":472:507  PropertyDatabase[Owner].Owner=Owner */\n      0x0100\n      exp\n      dup2\n      sload\n      dup2\n      0xffffffffffffffffffffffffffffffffffffffff\n      mul\n      not\n      and\n      swap1\n      dup4\n      0xffffffffffffffffffffffffffffffffffffffff\n      and\n      mul\n      or\n      swap1\n      sstore\n      pop\n        /* \"contracts/PropertyRegistry.sol\":525:535  msg.sender */\n      caller\n        /* \"contracts/PropertyRegistry.sol\":519:524  Owner */\n      0x00\n      dup1\n        /* \"contracts/PropertyRegistry.sol\":519:535  Owner=msg.sender */\n      0x0100\n      exp\n      dup2\n      sload\n      dup2\n      0xffffffffffffffffffffffffffffffffffffffff\n      mul\n      not\n      and\n      swap1\n      dup4\n      0xffffffffffffffffffffffffffffffffffffffff\n      and\n      mul\n      or\n      swap1\n      sstore\n      pop\n        /* \"contracts/PropertyRegistry.sol\":295:544  function purchaseProperty(string memory _Address, uint _area)public{\r... */\n      pop\n      pop\n      jump\t// out\n        /* \"contracts/PropertyRegistry.sol\":236:285  mapping(address=>Property)public PropertyDatabase */\n    tag_12:\n      mstore(0x20, 0x01)\n      dup1\n      0x00\n      mstore\n      keccak256(0x00, 0x40)\n      0x00\n      swap2\n      pop\n      swap1\n      pop\n      dup1\n      0x00\n      add\n      dup1\n      sload\n      tag_18\n      swap1\n      tag_19\n      jump\t// in\n    tag_18:\n      dup1\n      0x1f\n      add\n      0x20\n      dup1\n      swap2\n      div\n      mul\n      0x20\n      add\n      mload(0x40)\n      swap1\n      dup2\n      add\n      0x40\n      mstore\n      dup1\n      swap3\n      swap2\n      swap1\n      dup2\n      dup2\n      mstore\n      0x20\n      add\n      dup3\n      dup1\n      sload\n      tag_20\n      swap1\n      tag_19\n      jump\t// in\n    tag_20:\n      dup1\n      iszero\n      tag_21\n      jumpi\n      dup1\n      0x1f\n      lt\n      tag_22\n      jumpi\n      0x0100\n      dup1\n      dup4\n      sload\n      div\n      mul\n      dup4\n      mstore\n      swap2\n      0x20\n      add\n      swap2\n      jump(tag_21)\n    tag_22:\n      dup3\n      add\n      swap2\n      swap1\n      0x00\n      mstore\n      keccak256(0x00, 0x20)\n      swap1\n    tag_23:\n      dup2\n      sload\n      dup2\n      mstore\n      swap1\n      0x01\n      add\n      swap1\n      0x20\n      add\n      dup1\n      dup4\n      gt\n      tag_23\n      jumpi\n      dup3\n      swap1\n      sub\n      0x1f\n      and\n      dup3\n      add\n      swap2\n    tag_21:\n      pop\n      pop\n      pop\n      pop\n      pop\n      swap1\n      dup1\n      0x01\n      add\n      sload\n      swap1\n      dup1\n      0x02\n      add\n      0x00\n      swap1\n      sload\n      swap1\n      0x0100\n      exp\n      swap1\n      div\n      0xffffffffffffffffffffffffffffffffffffffff\n      and\n      swap1\n      pop\n      dup4\n      jump\t// out\n    tag_17:\n      dup3\n      dup1\n      sload\n      tag_24\n      swap1\n      tag_19\n      jump\t// in\n    tag_24:\n      swap1\n      0x00\n      mstore\n      keccak256(0x00, 0x20)\n      swap1\n      0x1f\n      add\n      0x20\n      swap1\n      div\n      dup2\n      add\n      swap3\n      dup3\n      tag_26\n      jumpi\n      0x00\n      dup6\n      sstore\n      jump(tag_25)\n    tag_26:\n      dup3\n      0x1f\n      lt\n      tag_27\n      jumpi\n      dup1\n      mload\n      not(0xff)\n      and\n      dup4\n      dup1\n      add\n      or\n      dup6\n      sstore\n      jump(tag_25)\n    tag_27:\n      dup3\n      dup1\n      add\n      0x01\n      add\n      dup6\n      sstore\n      dup3\n      iszero\n      tag_25\n      jumpi\n      swap2\n      dup3\n      add\n    tag_28:\n      dup3\n      dup2\n      gt\n      iszero\n      tag_29\n      jumpi\n      dup3\n      mload\n      dup3\n      sstore\n      swap2\n      0x20\n      add\n      swap2\n      swap1\n      0x01\n      add\n      swap1\n      jump(tag_28)\n    tag_29:\n    tag_25:\n      pop\n      swap1\n      pop\n      tag_30\n      swap2\n      swap1\n      tag_31\n      jump\t// in\n    tag_30:\n      pop\n      swap1\n      jump\t// out\n    tag_31:\n    tag_32:\n      dup1\n      dup3\n      gt\n      iszero\n      tag_33\n      jumpi\n      0x00\n      dup2\n      0x00\n      swap1\n      sstore\n      pop\n      0x01\n      add\n      jump(tag_32)\n    tag_33:\n      pop\n      swap1\n      jump\t// out\n        /* \"#utility.yul\":7:419   */\n    tag_35:\n        /* \"#utility.yul\":85:90   */\n      0x00\n        /* \"#utility.yul\":110:176   */\n      tag_37\n        /* \"#utility.yul\":126:175   */\n      tag_38\n        /* \"#utility.yul\":168:174   */\n      dup5\n        /* \"#utility.yul\":126:175   */\n      tag_39\n      jump\t// in\n    tag_38:\n        /* \"#utility.yul\":110:176   */\n      tag_40\n      jump\t// in\n    tag_37:\n        /* \"#utility.yul\":101:176   */\n      swap1\n      pop\n        /* \"#utility.yul\":199:205   */\n      dup3\n        /* \"#utility.yul\":192:197   */\n      dup2\n        /* \"#utility.yul\":185:206   */\n      mstore\n        /* \"#utility.yul\":237:241   */\n      0x20\n        /* \"#utility.yul\":230:235   */\n      dup2\n        /* \"#utility.yul\":226:242   */\n      add\n        /* \"#utility.yul\":275:278   */\n      dup5\n        /* \"#utility.yul\":266:272   */\n      dup5\n        /* \"#utility.yul\":261:264   */\n      dup5\n        /* \"#utility.yul\":257:273   */\n      add\n        /* \"#utility.yul\":254:279   */\n      gt\n        /* \"#utility.yul\":251:363   */\n      iszero\n      tag_41\n      jumpi\n        /* \"#utility.yul\":282:361   */\n      tag_42\n      tag_43\n      jump\t// in\n    tag_42:\n        /* \"#utility.yul\":251:363   */\n    tag_41:\n        /* \"#utility.yul\":372:413   */\n      tag_44\n        /* \"#utility.yul\":406:412   */\n      dup5\n        /* \"#utility.yul\":401:404   */\n      dup3\n        /* \"#utility.yul\":396:399   */\n      dup6\n        /* \"#utility.yul\":372:413   */\n      tag_45\n      jump\t// in\n    tag_44:\n        /* \"#utility.yul\":91:419   */\n      pop\n        /* \"#utility.yul\":7:419   */\n      swap4\n      swap3\n      pop\n      pop\n      pop\n      jump\t// out\n        /* \"#utility.yul\":425:564   */\n    tag_46:\n        /* \"#utility.yul\":471:476   */\n      0x00\n        /* \"#utility.yul\":509:515   */\n      dup2\n        /* \"#utility.yul\":496:516   */\n      calldataload\n        /* \"#utility.yul\":487:516   */\n      swap1\n      pop\n        /* \"#utility.yul\":525:558   */\n      tag_48\n        /* \"#utility.yul\":552:557   */\n      dup2\n        /* \"#utility.yul\":525:558   */\n      tag_49\n      jump\t// in\n    tag_48:\n        /* \"#utility.yul\":425:564   */\n      swap3\n      swap2\n      pop\n      pop\n      jump\t// out\n        /* \"#utility.yul\":584:924   */\n    tag_50:\n        /* \"#utility.yul\":640:645   */\n      0x00\n        /* \"#utility.yul\":689:692   */\n      dup3\n        /* \"#utility.yul\":682:686   */\n      0x1f\n        /* \"#utility.yul\":674:680   */\n      dup4\n        /* \"#utility.yul\":670:687   */\n      add\n        /* \"#utility.yul\":666:693   */\n      slt\n        /* \"#utility.yul\":656:778   */\n      tag_52\n      jumpi\n        /* \"#utility.yul\":697:776   */\n      tag_53\n      tag_54\n      jump\t// in\n    tag_53:\n        /* \"#utility.yul\":656:778   */\n    tag_52:\n        /* \"#utility.yul\":814:820   */\n      dup2\n        /* \"#utility.yul\":801:821   */\n      calldataload\n        /* \"#utility.yul\":839:918   */\n      tag_55\n        /* \"#utility.yul\":914:917   */\n      dup5\n        /* \"#utility.yul\":906:912   */\n      dup3\n        /* \"#utility.yul\":899:903   */\n      0x20\n        /* \"#utility.yul\":891:897   */\n      dup7\n        /* \"#utility.yul\":887:904   */\n      add\n        /* \"#utility.yul\":839:918   */\n      tag_35\n      jump\t// in\n    tag_55:\n        /* \"#utility.yul\":830:918   */\n      swap2\n      pop\n        /* \"#utility.yul\":646:924   */\n      pop\n        /* \"#utility.yul\":584:924   */\n      swap3\n      swap2\n      pop\n      pop\n      jump\t// out\n        /* \"#utility.yul\":930:1069   */\n    tag_56:\n        /* \"#utility.yul\":976:981   */\n      0x00\n        /* \"#utility.yul\":1014:1020   */\n      dup2\n        /* \"#utility.yul\":1001:1021   */\n      calldataload\n        /* \"#utility.yul\":992:1021   */\n      swap1\n      pop\n        /* \"#utility.yul\":1030:1063   */\n      tag_58\n        /* \"#utility.yul\":1057:1062   */\n      dup2\n        /* \"#utility.yul\":1030:1063   */\n      tag_59\n      jump\t// in\n    tag_58:\n        /* \"#utility.yul\":930:1069   */\n      swap3\n      swap2\n      pop\n      pop\n      jump\t// out\n        /* \"#utility.yul\":1075:1404   */\n    tag_11:\n        /* \"#utility.yul\":1134:1140   */\n      0x00\n        /* \"#utility.yul\":1183:1185   */\n      0x20\n        /* \"#utility.yul\":1171:1180   */\n      dup3\n        /* \"#utility.yul\":1162:1169   */\n      dup5\n        /* \"#utility.yul\":1158:1181   */\n      sub\n        /* \"#utility.yul\":1154:1186   */\n      slt\n        /* \"#utility.yul\":1151:1270   */\n      iszero\n      tag_61\n      jumpi\n        /* \"#utility.yul\":1189:1268   */\n      tag_62\n      tag_63\n      jump\t// in\n    tag_62:\n        /* \"#utility.yul\":1151:1270   */\n    tag_61:\n        /* \"#utility.yul\":1309:1310   */\n      0x00\n        /* \"#utility.yul\":1334:1387   */\n      tag_64\n        /* \"#utility.yul\":1379:1386   */\n      dup5\n        /* \"#utility.yul\":1370:1376   */\n      dup3\n        /* \"#utility.yul\":1359:1368   */\n      dup6\n        /* \"#utility.yul\":1355:1377   */\n      add\n        /* \"#utility.yul\":1334:1387   */\n      tag_46\n      jump\t// in\n    tag_64:\n        /* \"#utility.yul\":1324:1387   */\n      swap2\n      pop\n        /* \"#utility.yul\":1280:1397   */\n      pop\n        /* \"#utility.yul\":1075:1404   */\n      swap3\n      swap2\n      pop\n      pop\n      jump\t// out\n        /* \"#utility.yul\":1410:2064   */\n    tag_7:\n        /* \"#utility.yul\":1488:1494   */\n      0x00\n        /* \"#utility.yul\":1496:1502   */\n      dup1\n        /* \"#utility.yul\":1545:1547   */\n      0x40\n        /* \"#utility.yul\":1533:1542   */\n      dup4\n        /* \"#utility.yul\":1524:1531   */\n      dup6\n        /* \"#utility.yul\":1520:1543   */\n      sub\n        /* \"#utility.yul\":1516:1548   */\n      slt\n        /* \"#utility.yul\":1513:1632   */\n      iszero\n      tag_66\n      jumpi\n        /* \"#utility.yul\":1551:1630   */\n      tag_67\n      tag_63\n      jump\t// in\n    tag_67:\n        /* \"#utility.yul\":1513:1632   */\n    tag_66:\n        /* \"#utility.yul\":1699:1700   */\n      0x00\n        /* \"#utility.yul\":1688:1697   */\n      dup4\n        /* \"#utility.yul\":1684:1701   */\n      add\n        /* \"#utility.yul\":1671:1702   */\n      calldataload\n        /* \"#utility.yul\":1729:1747   */\n      0xffffffffffffffff\n        /* \"#utility.yul\":1721:1727   */\n      dup2\n        /* \"#utility.yul\":1718:1748   */\n      gt\n        /* \"#utility.yul\":1715:1832   */\n      iszero\n      tag_68\n      jumpi\n        /* \"#utility.yul\":1751:1830   */\n      tag_69\n      tag_70\n      jump\t// in\n    tag_69:\n        /* \"#utility.yul\":1715:1832   */\n    tag_68:\n        /* \"#utility.yul\":1856:1919   */\n      tag_71\n        /* \"#utility.yul\":1911:1918   */\n      dup6\n        /* \"#utility.yul\":1902:1908   */\n      dup3\n        /* \"#utility.yul\":1891:1900   */\n      dup7\n        /* \"#utility.yul\":1887:1909   */\n      add\n        /* \"#utility.yul\":1856:1919   */\n      tag_50\n      jump\t// in\n    tag_71:\n        /* \"#utility.yul\":1846:1919   */\n      swap3\n      pop\n        /* \"#utility.yul\":1642:1929   */\n      pop\n        /* \"#utility.yul\":1968:1970   */\n      0x20\n        /* \"#utility.yul\":1994:2047   */\n      tag_72\n        /* \"#utility.yul\":2039:2046   */\n      dup6\n        /* \"#utility.yul\":2030:2036   */\n      dup3\n        /* \"#utility.yul\":2019:2028   */\n      dup7\n        /* \"#utility.yul\":2015:2037   */\n      add\n        /* \"#utility.yul\":1994:2047   */\n      tag_56\n      jump\t// in\n    tag_72:\n        /* \"#utility.yul\":1984:2047   */\n      swap2\n      pop\n        /* \"#utility.yul\":1939:2057   */\n      pop\n        /* \"#utility.yul\":1410:2064   */\n      swap3\n      pop\n      swap3\n      swap1\n      pop\n      jump\t// out\n        /* \"#utility.yul\":2070:2188   */\n    tag_73:\n        /* \"#utility.yul\":2157:2181   */\n      tag_75\n        /* \"#utility.yul\":2175:2180   */\n      dup2\n        /* \"#utility.yul\":2157:2181   */\n      tag_76\n      jump\t// in\n    tag_75:\n        /* \"#utility.yul\":2152:2155   */\n      dup3\n        /* \"#utility.yul\":2145:2182   */\n      mstore\n        /* \"#utility.yul\":2070:2188   */\n      pop\n      pop\n      jump\t// out\n        /* \"#utility.yul\":2194:2558   */\n    tag_77:\n        /* \"#utility.yul\":2282:2285   */\n      0x00\n        /* \"#utility.yul\":2310:2349   */\n      tag_79\n        /* \"#utility.yul\":2343:2348   */\n      dup3\n        /* \"#utility.yul\":2310:2349   */\n      tag_80\n      jump\t// in\n    tag_79:\n        /* \"#utility.yul\":2365:2436   */\n      tag_81\n        /* \"#utility.yul\":2429:2435   */\n      dup2\n        /* \"#utility.yul\":2424:2427   */\n      dup6\n        /* \"#utility.yul\":2365:2436   */\n      tag_82\n      jump\t// in\n    tag_81:\n        /* \"#utility.yul\":2358:2436   */\n      swap4\n      pop\n        /* \"#utility.yul\":2445:2497   */\n      tag_83\n        /* \"#utility.yul\":2490:2496   */\n      dup2\n        /* \"#utility.yul\":2485:2488   */\n      dup6\n        /* \"#utility.yul\":2478:2482   */\n      0x20\n        /* \"#utility.yul\":2471:2476   */\n      dup7\n        /* \"#utility.yul\":2467:2483   */\n      add\n        /* \"#utility.yul\":2445:2497   */\n      tag_84\n      jump\t// in\n    tag_83:\n        /* \"#utility.yul\":2522:2551   */\n      tag_85\n        /* \"#utility.yul\":2544:2550   */\n      dup2\n        /* \"#utility.yul\":2522:2551   */\n      tag_86\n      jump\t// in\n    tag_85:\n        /* \"#utility.yul\":2517:2520   */\n      dup5\n        /* \"#utility.yul\":2513:2552   */\n      add\n        /* \"#utility.yul\":2506:2552   */\n      swap2\n      pop\n        /* \"#utility.yul\":2286:2558   */\n      pop\n        /* \"#utility.yul\":2194:2558   */\n      swap3\n      swap2\n      pop\n      pop\n      jump\t// out\n        /* \"#utility.yul\":2564:2682   */\n    tag_87:\n        /* \"#utility.yul\":2651:2675   */\n      tag_89\n        /* \"#utility.yul\":2669:2674   */\n      dup2\n        /* \"#utility.yul\":2651:2675   */\n      tag_90\n      jump\t// in\n    tag_89:\n        /* \"#utility.yul\":2646:2649   */\n      dup3\n        /* \"#utility.yul\":2639:2676   */\n      mstore\n        /* \"#utility.yul\":2564:2682   */\n      pop\n      pop\n      jump\t// out\n        /* \"#utility.yul\":2688:3221   */\n    tag_14:\n        /* \"#utility.yul\":2857:2861   */\n      0x00\n        /* \"#utility.yul\":2895:2897   */\n      0x60\n        /* \"#utility.yul\":2884:2893   */\n      dup3\n        /* \"#utility.yul\":2880:2898   */\n      add\n        /* \"#utility.yul\":2872:2898   */\n      swap1\n      pop\n        /* \"#utility.yul\":2944:2953   */\n      dup2\n        /* \"#utility.yul\":2938:2942   */\n      dup2\n        /* \"#utility.yul\":2934:2954   */\n      sub\n        /* \"#utility.yul\":2930:2931   */\n      0x00\n        /* \"#utility.yul\":2919:2928   */\n      dup4\n        /* \"#utility.yul\":2915:2932   */\n      add\n        /* \"#utility.yul\":2908:2955   */\n      mstore\n        /* \"#utility.yul\":2972:3050   */\n      tag_92\n        /* \"#utility.yul\":3045:3049   */\n      dup2\n        /* \"#utility.yul\":3036:3042   */\n      dup7\n        /* \"#utility.yul\":2972:3050   */\n      tag_77\n      jump\t// in\n    tag_92:\n        /* \"#utility.yul\":2964:3050   */\n      swap1\n      pop\n        /* \"#utility.yul\":3060:3132   */\n      tag_93\n        /* \"#utility.yul\":3128:3130   */\n      0x20\n        /* \"#utility.yul\":3117:3126   */\n      dup4\n        /* \"#utility.yul\":3113:3131   */\n      add\n        /* \"#utility.yul\":3104:3110   */\n      dup6\n        /* \"#utility.yul\":3060:3132   */\n      tag_87\n      jump\t// in\n    tag_93:\n        /* \"#utility.yul\":3142:3214   */\n      tag_94\n        /* \"#utility.yul\":3210:3212   */\n      0x40\n        /* \"#utility.yul\":3199:3208   */\n      dup4\n        /* \"#utility.yul\":3195:3213   */\n      add\n        /* \"#utility.yul\":3186:3192   */\n      dup5\n        /* \"#utility.yul\":3142:3214   */\n      tag_73\n      jump\t// in\n    tag_94:\n        /* \"#utility.yul\":2688:3221   */\n      swap5\n      swap4\n      pop\n      pop\n      pop\n      pop\n      jump\t// out\n        /* \"#utility.yul\":3227:3356   */\n    tag_40:\n        /* \"#utility.yul\":3261:3267   */\n      0x00\n        /* \"#utility.yul\":3288:3308   */\n      tag_96\n      tag_97\n      jump\t// in\n    tag_96:\n        /* \"#utility.yul\":3278:3308   */\n      swap1\n      pop\n        /* \"#utility.yul\":3317:3350   */\n      tag_98\n        /* \"#utility.yul\":3345:3349   */\n      dup3\n        /* \"#utility.yul\":3337:3343   */\n      dup3\n        /* \"#utility.yul\":3317:3350   */\n      tag_99\n      jump\t// in\n    tag_98:\n        /* \"#utility.yul\":3227:3356   */\n      swap2\n      swap1\n      pop\n      jump\t// out\n        /* \"#utility.yul\":3362:3437   */\n    tag_97:\n        /* \"#utility.yul\":3395:3401   */\n      0x00\n        /* \"#utility.yul\":3428:3430   */\n      0x40\n        /* \"#utility.yul\":3422:3431   */\n      mload\n        /* \"#utility.yul\":3412:3431   */\n      swap1\n      pop\n        /* \"#utility.yul\":3362:3437   */\n      swap1\n      jump\t// out\n        /* \"#utility.yul\":3443:3751   */\n    tag_39:\n        /* \"#utility.yul\":3505:3509   */\n      0x00\n        /* \"#utility.yul\":3595:3613   */\n      0xffffffffffffffff\n        /* \"#utility.yul\":3587:3593   */\n      dup3\n        /* \"#utility.yul\":3584:3614   */\n      gt\n        /* \"#utility.yul\":3581:3637   */\n      iszero\n      tag_102\n      jumpi\n        /* \"#utility.yul\":3617:3635   */\n      tag_103\n      tag_104\n      jump\t// in\n    tag_103:\n        /* \"#utility.yul\":3581:3637   */\n    tag_102:\n        /* \"#utility.yul\":3655:3684   */\n      tag_105\n        /* \"#utility.yul\":3677:3683   */\n      dup3\n        /* \"#utility.yul\":3655:3684   */\n      tag_86\n      jump\t// in\n    tag_105:\n        /* \"#utility.yul\":3647:3684   */\n      swap1\n      pop\n        /* \"#utility.yul\":3739:3743   */\n      0x20\n        /* \"#utility.yul\":3733:3737   */\n      dup2\n        /* \"#utility.yul\":3729:3744   */\n      add\n        /* \"#utility.yul\":3721:3744   */\n      swap1\n      pop\n        /* \"#utility.yul\":3443:3751   */\n      swap2\n      swap1\n      pop\n      jump\t// out\n        /* \"#utility.yul\":3757:3856   */\n    tag_80:\n        /* \"#utility.yul\":3809:3815   */\n      0x00\n        /* \"#utility.yul\":3843:3848   */\n      dup2\n        /* \"#utility.yul\":3837:3849   */\n      mload\n        /* \"#utility.yul\":3827:3849   */\n      swap1\n      pop\n        /* \"#utility.yul\":3757:3856   */\n      swap2\n      swap1\n      pop\n      jump\t// out\n        /* \"#utility.yul\":3862:4031   */\n    tag_82:\n        /* \"#utility.yul\":3946:3957   */\n      0x00\n        /* \"#utility.yul\":3980:3986   */\n      dup3\n        /* \"#utility.yul\":3975:3978   */\n      dup3\n        /* \"#utility.yul\":3968:3987   */\n      mstore\n        /* \"#utility.yul\":4020:4024   */\n      0x20\n        /* \"#utility.yul\":4015:4018   */\n      dup3\n        /* \"#utility.yul\":4011:4025   */\n      add\n        /* \"#utility.yul\":3996:4025   */\n      swap1\n      pop\n        /* \"#utility.yul\":3862:4031   */\n      swap3\n      swap2\n      pop\n      pop\n      jump\t// out\n        /* \"#utility.yul\":4037:4133   */\n    tag_76:\n        /* \"#utility.yul\":4074:4081   */\n      0x00\n        /* \"#utility.yul\":4103:4127   */\n      tag_109\n        /* \"#utility.yul\":4121:4126   */\n      dup3\n        /* \"#utility.yul\":4103:4127   */\n      tag_110\n      jump\t// in\n    tag_109:\n        /* \"#utility.yul\":4092:4127   */\n      swap1\n      pop\n        /* \"#utility.yul\":4037:4133   */\n      swap2\n      swap1\n      pop\n      jump\t// out\n        /* \"#utility.yul\":4139:4265   */\n    tag_110:\n        /* \"#utility.yul\":4176:4183   */\n      0x00\n        /* \"#utility.yul\":4216:4258   */\n      0xffffffffffffffffffffffffffffffffffffffff\n        /* \"#utility.yul\":4209:4214   */\n      dup3\n        /* \"#utility.yul\":4205:4259   */\n      and\n        /* \"#utility.yul\":4194:4259   */\n      swap1\n      pop\n        /* \"#utility.yul\":4139:4265   */\n      swap2\n      swap1\n      pop\n      jump\t// out\n        /* \"#utility.yul\":4271:4348   */\n    tag_90:\n        /* \"#utility.yul\":4308:4315   */\n      0x00\n        /* \"#utility.yul\":4337:4342   */\n      dup2\n        /* \"#utility.yul\":4326:4342   */\n      swap1\n      pop\n        /* \"#utility.yul\":4271:4348   */\n      swap2\n      swap1\n      pop\n      jump\t// out\n        /* \"#utility.yul\":4354:4508   */\n    tag_45:\n        /* \"#utility.yul\":4438:4444   */\n      dup3\n        /* \"#utility.yul\":4433:4436   */\n      dup2\n        /* \"#utility.yul\":4428:4431   */\n      dup4\n        /* \"#utility.yul\":4415:4445   */\n      calldatacopy\n        /* \"#utility.yul\":4500:4501   */\n      0x00\n        /* \"#utility.yul\":4491:4497   */\n      dup4\n        /* \"#utility.yul\":4486:4489   */\n      dup4\n        /* \"#utility.yul\":4482:4498   */\n      add\n        /* \"#utility.yul\":4475:4502   */\n      mstore\n        /* \"#utility.yul\":4354:4508   */\n      pop\n      pop\n      pop\n      jump\t// out\n        /* \"#utility.yul\":4514:4821   */\n    tag_84:\n        /* \"#utility.yul\":4582:4583   */\n      0x00\n        /* \"#utility.yul\":4592:4705   */\n    tag_115:\n        /* \"#utility.yul\":4606:4612   */\n      dup4\n        /* \"#utility.yul\":4603:4604   */\n      dup2\n        /* \"#utility.yul\":4600:4613   */\n      lt\n        /* \"#utility.yul\":4592:4705   */\n      iszero\n      tag_117\n      jumpi\n        /* \"#utility.yul\":4691:4692   */\n      dup1\n        /* \"#utility.yul\":4686:4689   */\n      dup3\n        /* \"#utility.yul\":4682:4693   */\n      add\n        /* \"#utility.yul\":4676:4694   */\n      mload\n        /* \"#utility.yul\":4672:4673   */\n      dup2\n        /* \"#utility.yul\":4667:4670   */\n      dup5\n        /* \"#utility.yul\":4663:4674   */\n      add\n        /* \"#utility.yul\":4656:4695   */\n      mstore\n        /* \"#utility.yul\":4628:4630   */\n      0x20\n        /* \"#utility.yul\":4625:4626   */\n      dup2\n        /* \"#utility.yul\":4621:4631   */\n      add\n        /* \"#utility.yul\":4616:4631   */\n      swap1\n      pop\n        /* \"#utility.yul\":4592:4705   */\n      jump(tag_115)\n    tag_117:\n        /* \"#utility.yul\":4723:4729   */\n      dup4\n        /* \"#utility.yul\":4720:4721   */\n      dup2\n        /* \"#utility.yul\":4717:4730   */\n      gt\n        /* \"#utility.yul\":4714:4815   */\n      iszero\n      tag_118\n      jumpi\n        /* \"#utility.yul\":4803:4804   */\n      0x00\n        /* \"#utility.yul\":4794:4800   */\n      dup5\n        /* \"#utility.yul\":4789:4792   */\n      dup5\n        /* \"#utility.yul\":4785:4801   */\n      add\n        /* \"#utility.yul\":4778:4805   */\n      mstore\n        /* \"#utility.yul\":4714:4815   */\n    tag_118:\n        /* \"#utility.yul\":4563:4821   */\n      pop\n        /* \"#utility.yul\":4514:4821   */\n      pop\n      pop\n      pop\n      jump\t// out\n        /* \"#utility.yul\":4827:5147   */\n    tag_19:\n        /* \"#utility.yul\":4871:4877   */\n      0x00\n        /* \"#utility.yul\":4908:4909   */\n      0x02\n        /* \"#utility.yul\":4902:4906   */\n      dup3\n        /* \"#utility.yul\":4898:4910   */\n      div\n        /* \"#utility.yul\":4888:4910   */\n      swap1\n      pop\n        /* \"#utility.yul\":4955:4956   */\n      0x01\n        /* \"#utility.yul\":4949:4953   */\n      dup3\n        /* \"#utility.yul\":4945:4957   */\n      and\n        /* \"#utility.yul\":4976:4994   */\n      dup1\n        /* \"#utility.yul\":4966:5047   */\n      tag_120\n      jumpi\n        /* \"#utility.yul\":5032:5036   */\n      0x7f\n        /* \"#utility.yul\":5024:5030   */\n      dup3\n        /* \"#utility.yul\":5020:5037   */\n      and\n        /* \"#utility.yul\":5010:5037   */\n      swap2\n      pop\n        /* \"#utility.yul\":4966:5047   */\n    tag_120:\n        /* \"#utility.yul\":5094:5096   */\n      0x20\n        /* \"#utility.yul\":5086:5092   */\n      dup3\n        /* \"#utility.yul\":5083:5097   */\n      lt\n        /* \"#utility.yul\":5063:5081   */\n      dup2\n        /* \"#utility.yul\":5060:5098   */\n      eq\n        /* \"#utility.yul\":5057:5141   */\n      iszero\n      tag_121\n      jumpi\n        /* \"#utility.yul\":5113:5131   */\n      tag_122\n      tag_123\n      jump\t// in\n    tag_122:\n        /* \"#utility.yul\":5057:5141   */\n    tag_121:\n        /* \"#utility.yul\":4878:5147   */\n      pop\n        /* \"#utility.yul\":4827:5147   */\n      swap2\n      swap1\n      pop\n      jump\t// out\n        /* \"#utility.yul\":5153:5434   */\n    tag_99:\n        /* \"#utility.yul\":5236:5263   */\n      tag_125\n        /* \"#utility.yul\":5258:5262   */\n      dup3\n        /* \"#utility.yul\":5236:5263   */\n      tag_86\n      jump\t// in\n    tag_125:\n        /* \"#utility.yul\":5228:5234   */\n      dup2\n        /* \"#utility.yul\":5224:5264   */\n      add\n        /* \"#utility.yul\":5366:5372   */\n      dup2\n        /* \"#utility.yul\":5354:5364   */\n      dup2\n        /* \"#utility.yul\":5351:5373   */\n      lt\n        /* \"#utility.yul\":5330:5348   */\n      0xffffffffffffffff\n        /* \"#utility.yul\":5318:5328   */\n      dup3\n        /* \"#utility.yul\":5315:5349   */\n      gt\n        /* \"#utility.yul\":5312:5374   */\n      or\n        /* \"#utility.yul\":5309:5397   */\n      iszero\n      tag_126\n      jumpi\n        /* \"#utility.yul\":5377:5395   */\n      tag_127\n      tag_104\n      jump\t// in\n    tag_127:\n        /* \"#utility.yul\":5309:5397   */\n    tag_126:\n        /* \"#utility.yul\":5417:5427   */\n      dup1\n        /* \"#utility.yul\":5413:5415   */\n      0x40\n        /* \"#utility.yul\":5406:5428   */\n      mstore\n        /* \"#utility.yul\":5196:5434   */\n      pop\n        /* \"#utility.yul\":5153:5434   */\n      pop\n      pop\n      jump\t// out\n        /* \"#utility.yul\":5440:5620   */\n    tag_123:\n        /* \"#utility.yul\":5488:5565   */\n      0x4e487b7100000000000000000000000000000000000000000000000000000000\n        /* \"#utility.yul\":5485:5486   */\n      0x00\n        /* \"#utility.yul\":5478:5566   */\n      mstore\n        /* \"#utility.yul\":5585:5589   */\n      0x22\n        /* \"#utility.yul\":5582:5583   */\n      0x04\n        /* \"#utility.yul\":5575:5590   */\n      mstore\n        /* \"#utility.yul\":5609:5613   */\n      0x24\n        /* \"#utility.yul\":5606:5607   */\n      0x00\n        /* \"#utility.yul\":5599:5614   */\n      revert\n        /* \"#utility.yul\":5626:5806   */\n    tag_104:\n        /* \"#utility.yul\":5674:5751   */\n      0x4e487b7100000000000000000000000000000000000000000000000000000000\n        /* \"#utility.yul\":5671:5672   */\n      0x00\n        /* \"#utility.yul\":5664:5752   */\n      mstore\n        /* \"#utility.yul\":5771:5775   */\n      0x41\n        /* \"#utility.yul\":5768:5769   */\n      0x04\n        /* \"#utility.yul\":5761:5776   */\n      mstore\n        /* \"#utility.yul\":5795:5799   */\n      0x24\n        /* \"#utility.yul\":5792:5793   */\n      0x00\n        /* \"#utility.yul\":5785:5800   */\n      revert\n        /* \"#utility.yul\":5812:5929   */\n    tag_54:\n        /* \"#utility.yul\":5921:5922   */\n      0x00\n        /* \"#utility.yul\":5918:5919   */\n      dup1\n        /* \"#utility.yul\":5911:5923   */\n      revert\n        /* \"#utility.yul\":5935:6052   */\n    tag_43:\n        /* \"#utility.yul\":6044:6045   */\n      0x00\n        /* \"#utility.yul\":6041:6042   */\n      dup1\n        /* \"#utility.yul\":6034:6046   */\n      revert\n        /* \"#utility.yul\":6058:6175   */\n    tag_70:\n        /* \"#utility.yul\":6167:6168   */\n      0x00\n        /* \"#utility.yul\":6164:6165   */\n      dup1\n        /* \"#utility.yul\":6157:6169   */\n      revert\n        /* \"#utility.yul\":6181:6298   */\n    tag_63:\n        /* \"#utility.yul\":6290:6291   */\n      0x00\n        /* \"#utility.yul\":6287:6288   */\n      dup1\n        /* \"#utility.yul\":6280:6292   */\n      revert\n        /* \"#utility.yul\":6304:6406   */\n    tag_86:\n        /* \"#utility.yul\":6345:6351   */\n      0x00\n        /* \"#utility.yul\":6396:6398   */\n      0x1f\n        /* \"#utility.yul\":6392:6399   */\n      not\n        /* \"#utility.yul\":6387:6389   */\n      0x1f\n        /* \"#utility.yul\":6380:6385   */\n      dup4\n        /* \"#utility.yul\":6376:6390   */\n      add\n        /* \"#utility.yul\":6372:6400   */\n      and\n        /* \"#utility.yul\":6362:6400   */\n      swap1\n      pop\n        /* \"#utility.yul\":6304:6406   */\n      swap2\n      swap1\n      pop\n      jump\t// out\n        /* \"#utility.yul\":6412:6534   */\n    tag_49:\n        /* \"#utility.yul\":6485:6509   */\n      tag_136\n        /* \"#utility.yul\":6503:6508   */\n      dup2\n        /* \"#utility.yul\":6485:6509   */\n      tag_76\n      jump\t// in\n    tag_136:\n        /* \"#utility.yul\":6478:6483   */\n      dup2\n        /* \"#utility.yul\":6475:6510   */\n      eq\n        /* \"#utility.yul\":6465:6528   */\n      tag_137\n      jumpi\n        /* \"#utility.yul\":6524:6525   */\n      0x00\n        /* \"#utility.yul\":6521:6522   */\n      dup1\n        /* \"#utility.yul\":6514:6526   */\n      revert\n        /* \"#utility.yul\":6465:6528   */\n    tag_137:\n        /* \"#utility.yul\":6412:6534   */\n      pop\n      jump\t// out\n        /* \"#utility.yul\":6540:6662   */\n    tag_59:\n        /* \"#utility.yul\":6613:6637   */\n      tag_139\n        /* \"#utility.yul\":6631:6636   */\n      dup2\n        /* \"#utility.yul\":6613:6637   */\n      tag_90\n      jump\t// in\n    tag_139:\n        /* \"#utility.yul\":6606:6611   */\n      dup2\n        /* \"#utility.yul\":6603:6638   */\n      eq\n        /* \"#utility.yul\":6593:6656   */\n      tag_140\n      jumpi\n        /* \"#utility.yul\":6652:6653   */\n      0x00\n        /* \"#utility.yul\":6649:6650   */\n      dup1\n        /* \"#utility.yul\":6642:6654   */\n      revert\n        /* \"#utility.yul\":6593:6656   */\n    tag_140:\n        /* \"#utility.yul\":6540:6662   */\n      pop\n      jump\t// out\n\n    auxdata: 0xa2646970667358221220f97bd212823fcf2dac0ea4338d52f49fb69244b4e1312c350132ac20f5e41fe964736f6c63430008070033\n}\n",
				"bytecode": {
					"linkReferences": {},
					"object": "6080604052326000806101000a81548173ffffffffffffffffffffffffffffffffffffffff021916908373ffffffffffffffffffffffffffffffffffffffff16021790555034801561005057600080fd5b506107d6806100606000396000f3fe608060405234801561001057600080fd5b50600436106100365760003560e01c80637db0366a1461003b578063e5bc7e8214610057575b600080fd5b610055600480360381019061005091906104ab565b610089565b005b610071600480360381019061006c919061047e565b61026f565b6040516100809392919061055e565b60405180910390f35b81600160008060009054906101000a900473ffffffffffffffffffffffffffffffffffffffff1673ffffffffffffffffffffffffffffffffffffffff1673ffffffffffffffffffffffffffffffffffffffff1681526020019081526020016000206000019080519060200190610100929190610341565b5080600160008060009054906101000a900473ffffffffffffffffffffffffffffffffffffffff1673ffffffffffffffffffffffffffffffffffffffff1673ffffffffffffffffffffffffffffffffffffffff1681526020019081526020016000206001018190555060008054906101000a900473ffffffffffffffffffffffffffffffffffffffff16600160008060009054906101000a900473ffffffffffffffffffffffffffffffffffffffff1673ffffffffffffffffffffffffffffffffffffffff1673ffffffffffffffffffffffffffffffffffffffff16815260200190815260200160002060020160006101000a81548173ffffffffffffffffffffffffffffffffffffffff021916908373ffffffffffffffffffffffffffffffffffffffff160217905550336000806101000a81548173ffffffffffffffffffffffffffffffffffffffff021916908373ffffffffffffffffffffffffffffffffffffffff1602179055505050565b60016020528060005260406000206000915090508060000180546102929061068c565b80601f01602080910402602001604051908101604052809291908181526020018280546102be9061068c565b801561030b5780601f106102e05761010080835404028352916020019161030b565b820191906000526020600020905b8154815290600101906020018083116102ee57829003601f168201915b5050505050908060010154908060020160009054906101000a900473ffffffffffffffffffffffffffffffffffffffff16905083565b82805461034d9061068c565b90600052602060002090601f01602090048101928261036f57600085556103b6565b82601f1061038857805160ff19168380011785556103b6565b828001600101855582156103b6579182015b828111156103b557825182559160200191906001019061039a565b5b5090506103c391906103c7565b5090565b5b808211156103e05760008160009055506001016103c8565b5090565b60006103f76103f2846105c1565b61059c565b90508281526020810184848401111561041357610412610752565b5b61041e84828561064a565b509392505050565b60008135905061043581610772565b92915050565b600082601f8301126104505761044f61074d565b5b81356104608482602086016103e4565b91505092915050565b60008135905061047881610789565b92915050565b6000602082840312156104945761049361075c565b5b60006104a284828501610426565b91505092915050565b600080604083850312156104c2576104c161075c565b5b600083013567ffffffffffffffff8111156104e0576104df610757565b5b6104ec8582860161043b565b92505060206104fd85828601610469565b9150509250929050565b6105108161060e565b82525050565b6000610521826105f2565b61052b81856105fd565b935061053b818560208601610659565b61054481610761565b840191505092915050565b61055881610640565b82525050565b600060608201905081810360008301526105788186610516565b9050610587602083018561054f565b6105946040830184610507565b949350505050565b60006105a66105b7565b90506105b282826106be565b919050565b6000604051905090565b600067ffffffffffffffff8211156105dc576105db61071e565b5b6105e582610761565b9050602081019050919050565b600081519050919050565b600082825260208201905092915050565b600061061982610620565b9050919050565b600073ffffffffffffffffffffffffffffffffffffffff82169050919050565b6000819050919050565b82818337600083830152505050565b60005b8381101561067757808201518184015260208101905061065c565b83811115610686576000848401525b50505050565b600060028204905060018216806106a457607f821691505b602082108114156106b8576106b76106ef565b5b50919050565b6106c782610761565b810181811067ffffffffffffffff821117156106e6576106e561071e565b5b80604052505050565b7f4e487b7100000000000000000000000000000000000000000000000000000000600052602260045260246000fd5b7f4e487b7100000000000000000000000000000000000000000000000000000000600052604160045260246000fd5b600080fd5b600080fd5b600080fd5b600080fd5b6000601f19601f8301169050919050565b61077b8161060e565b811461078657600080fd5b50565b61079281610640565b811461079d57600080fd5b5056fea2646970667358221220f97bd212823fcf2dac0ea4338d52f49fb69244b4e1312c350132ac20f5e41fe964736f6c63430008070033",
					"opcodes": "PUSH1 0x80 PUSH1 0x40 MSTORE ORIGIN PUSH1 0x0 DUP1 PUSH2 0x100 EXP DUP2 SLOAD DUP2 PUSH20 0xFFFFFFFFFFFFFFFFFFFFFFFFFFFFFFFFFFFFFFFF MUL NOT AND SWAP1 DUP4 PUSH20 0xFFFFFFFFFFFFFFFFFFFFFFFFFFFFFFFFFFFFFFFF AND MUL OR SWAP1 SSTORE POP CALLVALUE DUP1 ISZERO PUSH2 0x50 JUMPI PUSH1 0x0 DUP1 REVERT JUMPDEST POP PUSH2 0x7D6 DUP1 PUSH2 0x60 PUSH1 0x0 CODECOPY PUSH1 0x0 RETURN INVALID PUSH1 0x80 PUSH1 0x40 MSTORE CALLVALUE DUP1 ISZERO PUSH2 0x10 JUMPI PUSH1 0x0 DUP1 REVERT JUMPDEST POP PUSH1 0x4 CALLDATASIZE LT PUSH2 0x36 JUMPI PUSH1 0x0 CALLDATALOAD PUSH1 0xE0 SHR DUP1 PUSH4 0x7DB0366A EQ PUSH2 0x3B JUMPI DUP1 PUSH4 0xE5BC7E82 EQ PUSH2 0x57 JUMPI JUMPDEST PUSH1 0x0 DUP1 REVERT JUMPDEST PUSH2 0x55 PUSH1 0x4 DUP1 CALLDATASIZE SUB DUP2 ADD SWAP1 PUSH2 0x50 SWAP2 SWAP1 PUSH2 0x4AB JUMP JUMPDEST PUSH2 0x89 JUMP JUMPDEST STOP JUMPDEST PUSH2 0x71 PUSH1 0x4 DUP1 CALLDATASIZE SUB DUP2 ADD SWAP1 PUSH2 0x6C SWAP2 SWAP1 PUSH2 0x47E JUMP JUMPDEST PUSH2 0x26F JUMP JUMPDEST PUSH1 0x40 MLOAD PUSH2 0x80 SWAP4 SWAP3 SWAP2 SWAP1 PUSH2 0x55E JUMP JUMPDEST PUSH1 0x40 MLOAD DUP1 SWAP2 SUB SWAP1 RETURN JUMPDEST DUP2 PUSH1 0x1 PUSH1 0x0 DUP1 PUSH1 0x0 SWAP1 SLOAD SWAP1 PUSH2 0x100 EXP SWAP1 DIV PUSH20 0xFFFFFFFFFFFFFFFFFFFFFFFFFFFFFFFFFFFFFFFF AND PUSH20 0xFFFFFFFFFFFFFFFFFFFFFFFFFFFFFFFFFFFFFFFF AND PUSH20 0xFFFFFFFFFFFFFFFFFFFFFFFFFFFFFFFFFFFFFFFF AND DUP2 MSTORE PUSH1 0x20 ADD SWAP1 DUP2 MSTORE PUSH1 0x20 ADD PUSH1 0x0 KECCAK256 PUSH1 0x0 ADD SWAP1 DUP1 MLOAD SWAP1 PUSH1 0x20 ADD SWAP1 PUSH2 0x100 SWAP3 SWAP2 SWAP1 PUSH2 0x341 JUMP JUMPDEST POP DUP1 PUSH1 0x1 PUSH1 0x0 DUP1 PUSH1 0x0 SWAP1 SLOAD SWAP1 PUSH2 0x100 EXP SWAP1 DIV PUSH20 0xFFFFFFFFFFFFFFFFFFFFFFFFFFFFFFFFFFFFFFFF AND PUSH20 0xFFFFFFFFFFFFFFFFFFFFFFFFFFFFFFFFFFFFFFFF AND PUSH20 0xFFFFFFFFFFFFFFFFFFFFFFFFFFFFFFFFFFFFFFFF AND DUP2 MSTORE PUSH1 0x20 ADD SWAP1 DUP2 MSTORE PUSH1 0x20 ADD PUSH1 0x0 KECCAK256 PUSH1 0x1 ADD DUP2 SWAP1 SSTORE POP PUSH1 0x0 DUP1 SLOAD SWAP1 PUSH2 0x100 EXP SWAP1 DIV PUSH20 0xFFFFFFFFFFFFFFFFFFFFFFFFFFFFFFFFFFFFFFFF AND PUSH1 0x1 PUSH1 0x0 DUP1 PUSH1 0x0 SWAP1 SLOAD SWAP1 PUSH2 0x100 EXP SWAP1 DIV PUSH20 0xFFFFFFFFFFFFFFFFFFFFFFFFFFFFFFFFFFFFFFFF AND PUSH20 0xFFFFFFFFFFFFFFFFFFFFFFFFFFFFFFFFFFFFFFFF AND PUSH20 0xFFFFFFFFFFFFFFFFFFFFFFFFFFFFFFFFFFFFFFFF AND DUP2 MSTORE PUSH1 0x20 ADD SWAP1 DUP2 MSTORE PUSH1 0x20 ADD PUSH1 0x0 KECCAK256 PUSH1 0x2 ADD PUSH1 0x0 PUSH2 0x100 EXP DUP2 SLOAD DUP2 PUSH20 0xFFFFFFFFFFFFFFFFFFFFFFFFFFFFFFFFFFFFFFFF MUL NOT AND SWAP1 DUP4 PUSH20 0xFFFFFFFFFFFFFFFFFFFFFFFFFFFFFFFFFFFFFFFF AND MUL OR SWAP1 SSTORE POP CALLER PUSH1 0x0 DUP1 PUSH2 0x100 EXP DUP2 SLOAD DUP2 PUSH20 0xFFFFFFFFFFFFFFFFFFFFFFFFFFFFFFFFFFFFFFFF MUL NOT AND SWAP1 DUP4 PUSH20 0xFFFFFFFFFFFFFFFFFFFFFFFFFFFFFFFFFFFFFFFF AND MUL OR SWAP1 SSTORE POP POP POP JUMP JUMPDEST PUSH1 0x1 PUSH1 0x20 MSTORE DUP1 PUSH1 0x0 MSTORE PUSH1 0x40 PUSH1 0x0 KECCAK256 PUSH1 0x0 SWAP2 POP SWAP1 POP DUP1 PUSH1 0x0 ADD DUP1 SLOAD PUSH2 0x292 SWAP1 PUSH2 0x68C JUMP JUMPDEST DUP1 PUSH1 0x1F ADD PUSH1 0x20 DUP1 SWAP2 DIV MUL PUSH1 0x20 ADD PUSH1 0x40 MLOAD SWAP1 DUP2 ADD PUSH1 0x40 MSTORE DUP1 SWAP3 SWAP2 SWAP1 DUP2 DUP2 MSTORE PUSH1 0x20 ADD DUP3 DUP1 SLOAD PUSH2 0x2BE SWAP1 PUSH2 0x68C JUMP JUMPDEST DUP1 ISZERO PUSH2 0x30B JUMPI DUP1 PUSH1 0x1F LT PUSH2 0x2E0 JUMPI PUSH2 0x100 DUP1 DUP4 SLOAD DIV MUL DUP4 MSTORE SWAP2 PUSH1 0x20 ADD SWAP2 PUSH2 0x30B JUMP JUMPDEST DUP3 ADD SWAP2 SWAP1 PUSH1 0x0 MSTORE PUSH1 0x20 PUSH1 0x0 KECCAK256 SWAP1 JUMPDEST DUP2 SLOAD DUP2 MSTORE SWAP1 PUSH1 0x1 ADD SWAP1 PUSH1 0x20 ADD DUP1 DUP4 GT PUSH2 0x2EE JUMPI DUP3 SWAP1 SUB PUSH1 0x1F AND DUP3 ADD SWAP2 JUMPDEST POP POP POP POP POP SWAP1 DUP1 PUSH1 0x1 ADD SLOAD SWAP1 DUP1 PUSH1 0x2 ADD PUSH1 0x0 SWAP1 SLOAD SWAP1 PUSH2 0x100 EXP SWAP1 DIV PUSH20 0xFFFFFFFFFFFFFFFFFFFFFFFFFFFFFFFFFFFFFFFF AND SWAP1 POP DUP4 JUMP JUMPDEST DUP3 DUP1 SLOAD PUSH2 0x34D SWAP1 PUSH2 0x68C JUMP JUMPDEST SWAP1 PUSH1 0x0 MSTORE PUSH1 0x20 PUSH1 0x0 KECCAK256 SWAP1 PUSH1 0x1F ADD PUSH1 0x20 SWAP1 DIV DUP2 ADD SWAP3 DUP3 PUSH2 0x36F JUMPI PUSH1 0x0 DUP6 SSTORE PUSH2 0x3B6 JUMP JUMPDEST DUP3 PUSH1 0x1F LT PUSH2 0x388 JUMPI DUP1 MLOAD PUSH1 0xFF NOT AND DUP4 DUP1 ADD OR DUP6 SSTORE PUSH2 0x3B6 JUMP JUMPDEST DUP3 DUP1 ADD PUSH1 0x1 ADD DUP6 SSTORE DUP3 ISZERO PUSH2 0x3B6 JUMPI SWAP2 DUP3 ADD JUMPDEST DUP3 DUP2 GT ISZERO PUSH2 0x3B5 JUMPI DUP3 MLOAD DUP3 SSTORE SWAP2 PUSH1 0x20 ADD SWAP2 SWAP1 PUSH1 0x1 ADD SWAP1 PUSH2 0x39A JUMP JUMPDEST JUMPDEST POP SWAP1 POP PUSH2 0x3C3 SWAP2 SWAP1 PUSH2 0x3C7 JUMP JUMPDEST POP SWAP1 JUMP JUMPDEST JUMPDEST DUP1 DUP3 GT ISZERO PUSH2 0x3E0 JUMPI PUSH1 0x0 DUP2 PUSH1 0x0 SWAP1 SSTORE POP PUSH1 0x1 ADD PUSH2 0x3C8 JUMP JUMPDEST POP SWAP1 JUMP JUMPDEST PUSH1 0x0 PUSH2 0x3F7 PUSH2 0x3F2 DUP5 PUSH2 0x5C1 JUMP JUMPDEST PUSH2 0x59C JUMP JUMPDEST SWAP1 POP DUP3 DUP2 MSTORE PUSH1 0x20 DUP2 ADD DUP5 DUP5 DUP5 ADD GT ISZERO PUSH2 0x413 JUMPI PUSH2 0x412 PUSH2 0x752 JUMP JUMPDEST JUMPDEST PUSH2 0x41E DUP5 DUP3 DUP6 PUSH2 0x64A JUMP JUMPDEST POP SWAP4 SWAP3 POP POP POP JUMP JUMPDEST PUSH1 0x0 DUP2 CALLDATALOAD SWAP1 POP PUSH2 0x435 DUP2 PUSH2 0x772 JUMP JUMPDEST SWAP3 SWAP2 POP POP JUMP JUMPDEST PUSH1 0x0 DUP3 PUSH1 0x1F DUP4 ADD SLT PUSH2 0x450 JUMPI PUSH2 0x44F PUSH2 0x74D JUMP JUMPDEST JUMPDEST DUP2 CALLDATALOAD PUSH2 0x460 DUP5 DUP3 PUSH1 0x20 DUP7 ADD PUSH2 0x3E4 JUMP JUMPDEST SWAP2 POP POP SWAP3 SWAP2 POP POP JUMP JUMPDEST PUSH1 0x0 DUP2 CALLDATALOAD SWAP1 POP PUSH2 0x478 DUP2 PUSH2 0x789 JUMP JUMPDEST SWAP3 SWAP2 POP POP JUMP JUMPDEST PUSH1 0x0 PUSH1 0x20 DUP3 DUP5 SUB SLT ISZERO PUSH2 0x494 JUMPI PUSH2 0x493 PUSH2 0x75C JUMP JUMPDEST JUMPDEST PUSH1 0x0 PUSH2 0x4A2 DUP5 DUP3 DUP6 ADD PUSH2 0x426 JUMP JUMPDEST SWAP2 POP POP SWAP3 SWAP2 POP POP JUMP JUMPDEST PUSH1 0x0 DUP1 PUSH1 0x40 DUP4 DUP6 SUB SLT ISZERO PUSH2 0x4C2 JUMPI PUSH2 0x4C1 PUSH2 0x75C JUMP JUMPDEST JUMPDEST PUSH1 0x0 DUP4 ADD CALLDATALOAD PUSH8 0xFFFFFFFFFFFFFFFF DUP2 GT ISZERO PUSH2 0x4E0 JUMPI PUSH2 0x4DF PUSH2 0x757 JUMP JUMPDEST JUMPDEST PUSH2 0x4EC DUP6 DUP3 DUP7 ADD PUSH2 0x43B JUMP JUMPDEST SWAP3 POP POP PUSH1 0x20 PUSH2 0x4FD DUP6 DUP3 DUP7 ADD PUSH2 0x469 JUMP JUMPDEST SWAP2 POP POP SWAP3 POP SWAP3 SWAP1 POP JUMP JUMPDEST PUSH2 0x510 DUP2 PUSH2 0x60E JUMP JUMPDEST DUP3 MSTORE POP POP JUMP JUMPDEST PUSH1 0x0 PUSH2 0x521 DUP3 PUSH2 0x5F2 JUMP JUMPDEST PUSH2 0x52B DUP2 DUP6 PUSH2 0x5FD JUMP JUMPDEST SWAP4 POP PUSH2 0x53B DUP2 DUP6 PUSH1 0x20 DUP7 ADD PUSH2 0x659 JUMP JUMPDEST PUSH2 0x544 DUP2 PUSH2 0x761 JUMP JUMPDEST DUP5 ADD SWAP2 POP POP SWAP3 SWAP2 POP POP JUMP JUMPDEST PUSH2 0x558 DUP2 PUSH2 0x640 JUMP JUMPDEST DUP3 MSTORE POP POP JUMP JUMPDEST PUSH1 0x0 PUSH1 0x60 DUP3 ADD SWAP1 POP DUP2 DUP2 SUB PUSH1 0x0 DUP4 ADD MSTORE PUSH2 0x578 DUP2 DUP7 PUSH2 0x516 JUMP JUMPDEST SWAP1 POP PUSH2 0x587 PUSH1 0x20 DUP4 ADD DUP6 PUSH2 0x54F JUMP JUMPDEST PUSH2 0x594 PUSH1 0x40 DUP4 ADD DUP5 PUSH2 0x507 JUMP JUMPDEST SWAP5 SWAP4 POP POP POP POP JUMP JUMPDEST PUSH1 0x0 PUSH2 0x5A6 PUSH2 0x5B7 JUMP JUMPDEST SWAP1 POP PUSH2 0x5B2 DUP3 DUP3 PUSH2 0x6BE JUMP JUMPDEST SWAP2 SWAP1 POP JUMP JUMPDEST PUSH1 0x0 PUSH1 0x40 MLOAD SWAP1 POP SWAP1 JUMP JUMPDEST PUSH1 0x0 PUSH8 0xFFFFFFFFFFFFFFFF DUP3 GT ISZERO PUSH2 0x5DC JUMPI PUSH2 0x5DB PUSH2 0x71E JUMP JUMPDEST JUMPDEST PUSH2 0x5E5 DUP3 PUSH2 0x761 JUMP JUMPDEST SWAP1 POP PUSH1 0x20 DUP2 ADD SWAP1 POP SWAP2 SWAP1 POP JUMP JUMPDEST PUSH1 0x0 DUP2 MLOAD SWAP1 POP SWAP2 SWAP1 POP JUMP JUMPDEST PUSH1 0x0 DUP3 DUP3 MSTORE PUSH1 0x20 DUP3 ADD SWAP1 POP SWAP3 SWAP2 POP POP JUMP JUMPDEST PUSH1 0x0 PUSH2 0x619 DUP3 PUSH2 0x620 JUMP JUMPDEST SWAP1 POP SWAP2 SWAP1 POP JUMP JUMPDEST PUSH1 0x0 PUSH20 0xFFFFFFFFFFFFFFFFFFFFFFFFFFFFFFFFFFFFFFFF DUP3 AND SWAP1 POP SWAP2 SWAP1 POP JUMP JUMPDEST PUSH1 0x0 DUP2 SWAP1 POP SWAP2 SWAP1 POP JUMP JUMPDEST DUP3 DUP2 DUP4 CALLDATACOPY PUSH1 0x0 DUP4 DUP4 ADD MSTORE POP POP POP JUMP JUMPDEST PUSH1 0x0 JUMPDEST DUP4 DUP2 LT ISZERO PUSH2 0x677 JUMPI DUP1 DUP3 ADD MLOAD DUP2 DUP5 ADD MSTORE PUSH1 0x20 DUP2 ADD SWAP1 POP PUSH2 0x65C JUMP JUMPDEST DUP4 DUP2 GT ISZERO PUSH2 0x686 JUMPI PUSH1 0x0 DUP5 DUP5 ADD MSTORE JUMPDEST POP POP POP POP JUMP JUMPDEST PUSH1 0x0 PUSH1 0x2 DUP3 DIV SWAP1 POP PUSH1 0x1 DUP3 AND DUP1 PUSH2 0x6A4 JUMPI PUSH1 0x7F DUP3 AND SWAP2 POP JUMPDEST PUSH1 0x20 DUP3 LT DUP2 EQ ISZERO PUSH2 0x6B8 JUMPI PUSH2 0x6B7 PUSH2 0x6EF JUMP JUMPDEST JUMPDEST POP SWAP2 SWAP1 POP JUMP JUMPDEST PUSH2 0x6C7 DUP3 PUSH2 0x761 JUMP JUMPDEST DUP2 ADD DUP2 DUP2 LT PUSH8 0xFFFFFFFFFFFFFFFF DUP3 GT OR ISZERO PUSH2 0x6E6 JUMPI PUSH2 0x6E5 PUSH2 0x71E JUMP JUMPDEST JUMPDEST DUP1 PUSH1 0x40 MSTORE POP POP POP JUMP JUMPDEST PUSH32 0x4E487B7100000000000000000000000000000000000000000000000000000000 PUSH1 0x0 MSTORE PUSH1 0x22 PUSH1 0x4 MSTORE PUSH1 0x24 PUSH1 0x0 REVERT JUMPDEST PUSH32 0x4E487B7100000000000000000000000000000000000000000000000000000000 PUSH1 0x0 MSTORE PUSH1 0x41 PUSH1 0x4 MSTORE PUSH1 0x24 PUSH1 0x0 REVERT JUMPDEST PUSH1 0x0 DUP1 REVERT JUMPDEST PUSH1 0x0 DUP1 REVERT JUMPDEST PUSH1 0x0 DUP1 REVERT JUMPDEST PUSH1 0x0 DUP1 REVERT JUMPDEST PUSH1 0x0 PUSH1 0x1F NOT PUSH1 0x1F DUP4 ADD AND SWAP1 POP SWAP2 SWAP1 POP JUMP JUMPDEST PUSH2 0x77B DUP2 PUSH2 0x60E JUMP JUMPDEST DUP2 EQ PUSH2 0x786 JUMPI PUSH1 0x0 DUP1 REVERT JUMPDEST POP JUMP JUMPDEST PUSH2 0x792 DUP2 PUSH2 0x640 JUMP JUMPDEST DUP2 EQ PUSH2 0x79D JUMPI PUSH1 0x0 DUP1 REVERT JUMPDEST POP JUMP INVALID LOG2 PUSH5 0x6970667358 0x22 SLT KECCAK256 0xF9 PUSH28 0xD212823FCF2DAC0EA4338D52F49FB69244B4E1312C350132AC20F5E4 0x1F 0xE9 PUSH5 0x736F6C6343 STOP ADDMOD SMOD STOP CALLER "
				},
				"gasEstimates": {
					"creation": {
						"codeDepositCost": "401200",
						"executionCost": "24702",
						"totalCost": "425902"
					},
					"external": {
						"PropertyDatabase(address)": "infinite",
						"purchaseProperty(string,uint256)": "infinite"
					}
				},
				"methodIdentifiers": {
					"PropertyDatabase(address)": "e5bc7e82",
					"purchaseProperty(string,uint256)": "7db0366a"
				}
			},
			"storageLayout": {
				"storage": [
					{
						"astId": 12,
						"contract": "contracts/PropertyRegistry.sol:propertyRegistry",
						"label": "Owner",
						"offset": 0,
						"slot": "0",
						"type": "t_address"
					},
					{
						"astId": 17,
						"contract": "contracts/PropertyRegistry.sol:propertyRegistry",
						"label": "PropertyDatabase",
						"offset": 0,
						"slot": "1",
						"type": "t_mapping(t_address,t_struct(Property)8_storage)"
					}
				],
				"types": {
					"t_address": {
						"encoding": "inplace",
						"label": "address",
						"numberOfBytes": "20"
					},
					"t_mapping(t_address,t_struct(Property)8_storage)": {
						"encoding": "mapping",
						"key": "t_address",
						"label": "mapping(address => struct propertyRegistry.Property)",
						"numberOfBytes": "32",
						"value": "t_struct(Property)8_storage"
					},
					"t_string_storage": {
						"encoding": "bytes",
						"label": "string",
						"numberOfBytes": "32"
					},
					"t_struct(Property)8_storage": {
						"encoding": "inplace",
						"label": "struct propertyRegistry.Property",
						"members": [
							{
								"astId": 3,
								"contract": "contracts/PropertyRegistry.sol:propertyRegistry",
								"label": "Address",
								"offset": 0,
								"slot": "0",
								"type": "t_string_storage"
							},
							{
								"astId": 5,
								"contract": "contracts/PropertyRegistry.sol:propertyRegistry",
								"label": "area",
								"offset": 0,
								"slot": "1",
								"type": "t_uint256"
							},
							{
								"astId": 7,
								"contract": "contracts/PropertyRegistry.sol:propertyRegistry",
								"label": "Owner",
								"offset": 0,
								"slot": "2",
								"type": "t_address"
							}
						],
						"numberOfBytes": "96"
					},
					"t_uint256": {
						"encoding": "inplace",
						"label": "uint256",
						"numberOfBytes": "32"
					}
				}
			},
			"userdoc": {
				"kind": "user",
				"methods": {},
				"version": 1
			}
		}
	}
}