{
	"contracts/Bank2.sol": {
		"Bank": {
			"abi": [
				{
					"anonymous": false,
					"inputs": [
						{
							"indexed": false,
							"internalType": "address",
							"name": "owner",
							"type": "address"
						},
						{
							"indexed": false,
							"internalType": "uint256",
							"name": "balance",
							"type": "uint256"
						},
						{
							"indexed": false,
							"internalType": "uint256",
							"name": "timestamp",
							"type": "uint256"
						}
					],
					"name": "balanceAdded",
					"type": "event"
				},
				{
					"anonymous": false,
					"inputs": [
						{
							"indexed": false,
							"internalType": "address",
							"name": "owner",
							"type": "address"
						},
						{
							"indexed": false,
							"internalType": "uint256",
							"name": "balance",
							"type": "uint256"
						},
						{
							"indexed": false,
							"internalType": "uint256",
							"name": "timestamp",
							"type": "uint256"
						}
					],
					"name": "withdrawlDone",
					"type": "event"
				},
				{
					"inputs": [],
					"name": "accountCreated",
					"outputs": [],
					"stateMutability": "payable",
					"type": "function"
				},
				{
					"inputs": [],
					"name": "balanceDeposited",
					"outputs": [],
					"stateMutability": "payable",
					"type": "function"
				},
				{
					"inputs": [
						{
							"internalType": "address",
							"name": "",
							"type": "address"
						}
					],
					"name": "bankDatabase",
					"outputs": [
						{
							"internalType": "address",
							"name": "owner",
							"type": "address"
						},
						{
							"internalType": "uint256",
							"name": "timecreated",
							"type": "uint256"
						},
						{
							"internalType": "uint256",
							"name": "balance",
							"type": "uint256"
						}
					],
					"stateMutability": "view",
					"type": "function"
				}
			],
			"devdoc": {
				"kind": "dev",
				"methods": {},
				"version": 1
			},
			"evm": {
				"assembly": "    /* \"contracts/Bank2.sol\":67:837  contract Bank{\r... */\n  mstore(0x40, 0x80)\n  callvalue\n  dup1\n  iszero\n  tag_1\n  jumpi\n  0x00\n  dup1\n  revert\ntag_1:\n  pop\n  dataSize(sub_0)\n  dup1\n  dataOffset(sub_0)\n  0x00\n  codecopy\n  0x00\n  return\nstop\n\nsub_0: assembly {\n        /* \"contracts/Bank2.sol\":67:837  contract Bank{\r... */\n      mstore(0x40, 0x80)\n      jumpi(tag_1, lt(calldatasize, 0x04))\n      shr(0xe0, calldataload(0x00))\n      dup1\n      0x70fb9196\n      eq\n      tag_2\n      jumpi\n      dup1\n      0xd7b8c4b5\n      eq\n      tag_3\n      jumpi\n      dup1\n      0xfa209fea\n      eq\n      tag_4\n      jumpi\n    tag_1:\n      0x00\n      dup1\n      revert\n        /* \"contracts/Bank2.sol\":164:206  mapping (address=>User)public bankDatabase */\n    tag_2:\n      callvalue\n      dup1\n      iszero\n      tag_5\n      jumpi\n      0x00\n      dup1\n      revert\n    tag_5:\n      pop\n      tag_6\n      0x04\n      dup1\n      calldatasize\n      sub\n      dup2\n      add\n      swap1\n      tag_7\n      swap2\n      swap1\n      tag_8\n      jump\t// in\n    tag_7:\n      tag_9\n      jump\t// in\n    tag_6:\n      mload(0x40)\n      tag_10\n      swap4\n      swap3\n      swap2\n      swap1\n      tag_11\n      jump\t// in\n    tag_10:\n      mload(0x40)\n      dup1\n      swap2\n      sub\n      swap1\n      return\n        /* \"contracts/Bank2.sol\":738:834  function balanceDeposited()public payable {\r... */\n    tag_3:\n      tag_12\n      tag_13\n      jump\t// in\n    tag_12:\n      stop\n        /* \"contracts/Bank2.sol\":460:714  function accountCreated() public payable minimum{\r... */\n    tag_4:\n      tag_14\n      tag_15\n      jump\t// in\n    tag_14:\n      stop\n        /* \"contracts/Bank2.sol\":164:206  mapping (address=>User)public bankDatabase */\n    tag_9:\n      mstore(0x20, 0x00)\n      dup1\n      0x00\n      mstore\n      keccak256(0x00, 0x40)\n      0x00\n      swap2\n      pop\n      swap1\n      pop\n      dup1\n      0x00\n      add\n      0x00\n      swap1\n      sload\n      swap1\n      0x0100\n      exp\n      swap1\n      div\n      0xffffffffffffffffffffffffffffffffffffffff\n      and\n      swap1\n      dup1\n      0x01\n      add\n      sload\n      swap1\n      dup1\n      0x02\n      add\n      sload\n      swap1\n      pop\n      dup4\n      jump\t// out\n        /* \"contracts/Bank2.sol\":738:834  function balanceDeposited()public payable {\r... */\n    tag_13:\n        /* \"contracts/Bank2.sol\":818:827  msg.value */\n      callvalue\n        /* \"contracts/Bank2.sol\":784:796  bankDatabase */\n      0x00\n        /* \"contracts/Bank2.sol\":784:808  bankDatabase[msg.sender] */\n      dup1\n        /* \"contracts/Bank2.sol\":797:807  msg.sender */\n      caller\n        /* \"contracts/Bank2.sol\":784:808  bankDatabase[msg.sender] */\n      0xffffffffffffffffffffffffffffffffffffffff\n      and\n      0xffffffffffffffffffffffffffffffffffffffff\n      and\n      dup2\n      mstore\n      0x20\n      add\n      swap1\n      dup2\n      mstore\n      0x20\n      add\n      0x00\n      keccak256\n        /* \"contracts/Bank2.sol\":784:816  bankDatabase[msg.sender].balance */\n      0x02\n      add\n      0x00\n        /* \"contracts/Bank2.sol\":784:827  bankDatabase[msg.sender].balance+=msg.value */\n      dup3\n      dup3\n      sload\n      tag_17\n      swap2\n      swap1\n      tag_18\n      jump\t// in\n    tag_17:\n      swap3\n      pop\n      pop\n      dup2\n      swap1\n      sstore\n      pop\n        /* \"contracts/Bank2.sol\":738:834  function balanceDeposited()public payable {\r... */\n      jump\t// out\n        /* \"contracts/Bank2.sol\":460:714  function accountCreated() public payable minimum{\r... */\n    tag_15:\n        /* \"contracts/Bank2.sol\":381:388  1 ether */\n      0x0de0b6b3a7640000\n        /* \"contracts/Bank2.sol\":370:379  msg.value */\n      callvalue\n        /* \"contracts/Bank2.sol\":370:388  msg.value>=1 ether */\n      lt\n      iszero\n        /* \"contracts/Bank2.sol\":362:423  require(msg.value>=1 ether,\"doesn't follow minimum criterai\") */\n      tag_20\n      jumpi\n      mload(0x40)\n      0x08c379a000000000000000000000000000000000000000000000000000000000\n      dup2\n      mstore\n      0x04\n      add\n      tag_21\n      swap1\n      tag_22\n      jump\t// in\n    tag_21:\n      mload(0x40)\n      dup1\n      swap2\n      sub\n      swap1\n      revert\n    tag_20:\n        /* \"contracts/Bank2.sol\":542:552  msg.sender */\n      caller\n        /* \"contracts/Bank2.sol\":511:523  bankDatabase */\n      0x00\n        /* \"contracts/Bank2.sol\":511:535  bankDatabase[msg.sender] */\n      dup1\n        /* \"contracts/Bank2.sol\":524:534  msg.sender */\n      caller\n        /* \"contracts/Bank2.sol\":511:535  bankDatabase[msg.sender] */\n      0xffffffffffffffffffffffffffffffffffffffff\n      and\n      0xffffffffffffffffffffffffffffffffffffffff\n      and\n      dup2\n      mstore\n      0x20\n      add\n      swap1\n      dup2\n      mstore\n      0x20\n      add\n      0x00\n      keccak256\n        /* \"contracts/Bank2.sol\":511:541  bankDatabase[msg.sender].owner */\n      0x00\n      add\n      0x00\n        /* \"contracts/Bank2.sol\":511:552  bankDatabase[msg.sender].owner=msg.sender */\n      0x0100\n      exp\n      dup2\n      sload\n      dup2\n      0xffffffffffffffffffffffffffffffffffffffff\n      mul\n      not\n      and\n      swap1\n      dup4\n      0xffffffffffffffffffffffffffffffffffffffff\n      and\n      mul\n      or\n      swap1\n      sstore\n      pop\n        /* \"contracts/Bank2.sol\":588:597  msg.value */\n      callvalue\n        /* \"contracts/Bank2.sol\":555:567  bankDatabase */\n      0x00\n        /* \"contracts/Bank2.sol\":555:579  bankDatabase[msg.sender] */\n      dup1\n        /* \"contracts/Bank2.sol\":568:578  msg.sender */\n      caller\n        /* \"contracts/Bank2.sol\":555:579  bankDatabase[msg.sender] */\n      0xffffffffffffffffffffffffffffffffffffffff\n      and\n      0xffffffffffffffffffffffffffffffffffffffff\n      and\n      dup2\n      mstore\n      0x20\n      add\n      swap1\n      dup2\n      mstore\n      0x20\n      add\n      0x00\n      keccak256\n        /* \"contracts/Bank2.sol\":555:587  bankDatabase[msg.sender].balance */\n      0x02\n      add\n        /* \"contracts/Bank2.sol\":555:597  bankDatabase[msg.sender].balance=msg.value */\n      dup2\n      swap1\n      sstore\n      pop\n        /* \"contracts/Bank2.sol\":637:652  block.timestamp */\n      timestamp\n        /* \"contracts/Bank2.sol\":600:612  bankDatabase */\n      0x00\n        /* \"contracts/Bank2.sol\":600:624  bankDatabase[msg.sender] */\n      dup1\n        /* \"contracts/Bank2.sol\":613:623  msg.sender */\n      caller\n        /* \"contracts/Bank2.sol\":600:624  bankDatabase[msg.sender] */\n      0xffffffffffffffffffffffffffffffffffffffff\n      and\n      0xffffffffffffffffffffffffffffffffffffffff\n      and\n      dup2\n      mstore\n      0x20\n      add\n      swap1\n      dup2\n      mstore\n      0x20\n      add\n      0x00\n      keccak256\n        /* \"contracts/Bank2.sol\":600:636  bankDatabase[msg.sender].timecreated */\n      0x01\n      add\n        /* \"contracts/Bank2.sol\":600:652  bankDatabase[msg.sender].timecreated=block.timestamp */\n      dup2\n      swap1\n      sstore\n      pop\n        /* \"contracts/Bank2.sol\":660:710  balanceAdded(msg.sender,msg.value,block.timestamp) */\n      0x2f8a6ec2d4b44b9eb188e85756710017b4b7d1d8c493867f691bf6046f05fa2e\n        /* \"contracts/Bank2.sol\":673:683  msg.sender */\n      caller\n        /* \"contracts/Bank2.sol\":684:693  msg.value */\n      callvalue\n        /* \"contracts/Bank2.sol\":694:709  block.timestamp */\n      timestamp\n        /* \"contracts/Bank2.sol\":660:710  balanceAdded(msg.sender,msg.value,block.timestamp) */\n      mload(0x40)\n      tag_24\n      swap4\n      swap3\n      swap2\n      swap1\n      tag_11\n      jump\t// in\n    tag_24:\n      mload(0x40)\n      dup1\n      swap2\n      sub\n      swap1\n      log1\n        /* \"contracts/Bank2.sol\":460:714  function accountCreated() public payable minimum{\r... */\n      jump\t// out\n        /* \"#utility.yul\":7:146   */\n    tag_26:\n        /* \"#utility.yul\":53:58   */\n      0x00\n        /* \"#utility.yul\":91:97   */\n      dup2\n        /* \"#utility.yul\":78:98   */\n      calldataload\n        /* \"#utility.yul\":69:98   */\n      swap1\n      pop\n        /* \"#utility.yul\":107:140   */\n      tag_28\n        /* \"#utility.yul\":134:139   */\n      dup2\n        /* \"#utility.yul\":107:140   */\n      tag_29\n      jump\t// in\n    tag_28:\n        /* \"#utility.yul\":7:146   */\n      swap3\n      swap2\n      pop\n      pop\n      jump\t// out\n        /* \"#utility.yul\":152:481   */\n    tag_8:\n        /* \"#utility.yul\":211:217   */\n      0x00\n        /* \"#utility.yul\":260:262   */\n      0x20\n        /* \"#utility.yul\":248:257   */\n      dup3\n        /* \"#utility.yul\":239:246   */\n      dup5\n        /* \"#utility.yul\":235:258   */\n      sub\n        /* \"#utility.yul\":231:263   */\n      slt\n        /* \"#utility.yul\":228:347   */\n      iszero\n      tag_31\n      jumpi\n        /* \"#utility.yul\":266:345   */\n      tag_32\n      tag_33\n      jump\t// in\n    tag_32:\n        /* \"#utility.yul\":228:347   */\n    tag_31:\n        /* \"#utility.yul\":386:387   */\n      0x00\n        /* \"#utility.yul\":411:464   */\n      tag_34\n        /* \"#utility.yul\":456:463   */\n      dup5\n        /* \"#utility.yul\":447:453   */\n      dup3\n        /* \"#utility.yul\":436:445   */\n      dup6\n        /* \"#utility.yul\":432:454   */\n      add\n        /* \"#utility.yul\":411:464   */\n      tag_26\n      jump\t// in\n    tag_34:\n        /* \"#utility.yul\":401:464   */\n      swap2\n      pop\n        /* \"#utility.yul\":357:474   */\n      pop\n        /* \"#utility.yul\":152:481   */\n      swap3\n      swap2\n      pop\n      pop\n      jump\t// out\n        /* \"#utility.yul\":487:605   */\n    tag_35:\n        /* \"#utility.yul\":574:598   */\n      tag_37\n        /* \"#utility.yul\":592:597   */\n      dup2\n        /* \"#utility.yul\":574:598   */\n      tag_38\n      jump\t// in\n    tag_37:\n        /* \"#utility.yul\":569:572   */\n      dup3\n        /* \"#utility.yul\":562:599   */\n      mstore\n        /* \"#utility.yul\":487:605   */\n      pop\n      pop\n      jump\t// out\n        /* \"#utility.yul\":611:977   */\n    tag_39:\n        /* \"#utility.yul\":753:756   */\n      0x00\n        /* \"#utility.yul\":774:841   */\n      tag_41\n        /* \"#utility.yul\":838:840   */\n      0x1f\n        /* \"#utility.yul\":833:836   */\n      dup4\n        /* \"#utility.yul\":774:841   */\n      tag_42\n      jump\t// in\n    tag_41:\n        /* \"#utility.yul\":767:841   */\n      swap2\n      pop\n        /* \"#utility.yul\":850:943   */\n      tag_43\n        /* \"#utility.yul\":939:942   */\n      dup3\n        /* \"#utility.yul\":850:943   */\n      tag_44\n      jump\t// in\n    tag_43:\n        /* \"#utility.yul\":968:970   */\n      0x20\n        /* \"#utility.yul\":963:966   */\n      dup3\n        /* \"#utility.yul\":959:971   */\n      add\n        /* \"#utility.yul\":952:971   */\n      swap1\n      pop\n        /* \"#utility.yul\":611:977   */\n      swap2\n      swap1\n      pop\n      jump\t// out\n        /* \"#utility.yul\":983:1101   */\n    tag_45:\n        /* \"#utility.yul\":1070:1094   */\n      tag_47\n        /* \"#utility.yul\":1088:1093   */\n      dup2\n        /* \"#utility.yul\":1070:1094   */\n      tag_48\n      jump\t// in\n    tag_47:\n        /* \"#utility.yul\":1065:1068   */\n      dup3\n        /* \"#utility.yul\":1058:1095   */\n      mstore\n        /* \"#utility.yul\":983:1101   */\n      pop\n      pop\n      jump\t// out\n        /* \"#utility.yul\":1107:1549   */\n    tag_11:\n        /* \"#utility.yul\":1256:1260   */\n      0x00\n        /* \"#utility.yul\":1294:1296   */\n      0x60\n        /* \"#utility.yul\":1283:1292   */\n      dup3\n        /* \"#utility.yul\":1279:1297   */\n      add\n        /* \"#utility.yul\":1271:1297   */\n      swap1\n      pop\n        /* \"#utility.yul\":1307:1378   */\n      tag_50\n        /* \"#utility.yul\":1375:1376   */\n      0x00\n        /* \"#utility.yul\":1364:1373   */\n      dup4\n        /* \"#utility.yul\":1360:1377   */\n      add\n        /* \"#utility.yul\":1351:1357   */\n      dup7\n        /* \"#utility.yul\":1307:1378   */\n      tag_35\n      jump\t// in\n    tag_50:\n        /* \"#utility.yul\":1388:1460   */\n      tag_51\n        /* \"#utility.yul\":1456:1458   */\n      0x20\n        /* \"#utility.yul\":1445:1454   */\n      dup4\n        /* \"#utility.yul\":1441:1459   */\n      add\n        /* \"#utility.yul\":1432:1438   */\n      dup6\n        /* \"#utility.yul\":1388:1460   */\n      tag_45\n      jump\t// in\n    tag_51:\n        /* \"#utility.yul\":1470:1542   */\n      tag_52\n        /* \"#utility.yul\":1538:1540   */\n      0x40\n        /* \"#utility.yul\":1527:1536   */\n      dup4\n        /* \"#utility.yul\":1523:1541   */\n      add\n        /* \"#utility.yul\":1514:1520   */\n      dup5\n        /* \"#utility.yul\":1470:1542   */\n      tag_45\n      jump\t// in\n    tag_52:\n        /* \"#utility.yul\":1107:1549   */\n      swap5\n      swap4\n      pop\n      pop\n      pop\n      pop\n      jump\t// out\n        /* \"#utility.yul\":1555:1974   */\n    tag_22:\n        /* \"#utility.yul\":1721:1725   */\n      0x00\n        /* \"#utility.yul\":1759:1761   */\n      0x20\n        /* \"#utility.yul\":1748:1757   */\n      dup3\n        /* \"#utility.yul\":1744:1762   */\n      add\n        /* \"#utility.yul\":1736:1762   */\n      swap1\n      pop\n        /* \"#utility.yul\":1808:1817   */\n      dup2\n        /* \"#utility.yul\":1802:1806   */\n      dup2\n        /* \"#utility.yul\":1798:1818   */\n      sub\n        /* \"#utility.yul\":1794:1795   */\n      0x00\n        /* \"#utility.yul\":1783:1792   */\n      dup4\n        /* \"#utility.yul\":1779:1796   */\n      add\n        /* \"#utility.yul\":1772:1819   */\n      mstore\n        /* \"#utility.yul\":1836:1967   */\n      tag_54\n        /* \"#utility.yul\":1962:1966   */\n      dup2\n        /* \"#utility.yul\":1836:1967   */\n      tag_39\n      jump\t// in\n    tag_54:\n        /* \"#utility.yul\":1828:1967   */\n      swap1\n      pop\n        /* \"#utility.yul\":1555:1974   */\n      swap2\n      swap1\n      pop\n      jump\t// out\n        /* \"#utility.yul\":2061:2230   */\n    tag_42:\n        /* \"#utility.yul\":2145:2156   */\n      0x00\n        /* \"#utility.yul\":2179:2185   */\n      dup3\n        /* \"#utility.yul\":2174:2177   */\n      dup3\n        /* \"#utility.yul\":2167:2186   */\n      mstore\n        /* \"#utility.yul\":2219:2223   */\n      0x20\n        /* \"#utility.yul\":2214:2217   */\n      dup3\n        /* \"#utility.yul\":2210:2224   */\n      add\n        /* \"#utility.yul\":2195:2224   */\n      swap1\n      pop\n        /* \"#utility.yul\":2061:2230   */\n      swap3\n      swap2\n      pop\n      pop\n      jump\t// out\n        /* \"#utility.yul\":2236:2541   */\n    tag_18:\n        /* \"#utility.yul\":2276:2279   */\n      0x00\n        /* \"#utility.yul\":2295:2315   */\n      tag_59\n        /* \"#utility.yul\":2313:2314   */\n      dup3\n        /* \"#utility.yul\":2295:2315   */\n      tag_48\n      jump\t// in\n    tag_59:\n        /* \"#utility.yul\":2290:2315   */\n      swap2\n      pop\n        /* \"#utility.yul\":2329:2349   */\n      tag_60\n        /* \"#utility.yul\":2347:2348   */\n      dup4\n        /* \"#utility.yul\":2329:2349   */\n      tag_48\n      jump\t// in\n    tag_60:\n        /* \"#utility.yul\":2324:2349   */\n      swap3\n      pop\n        /* \"#utility.yul\":2483:2484   */\n      dup3\n        /* \"#utility.yul\":2415:2481   */\n      0xffffffffffffffffffffffffffffffffffffffffffffffffffffffffffffffff\n        /* \"#utility.yul\":2411:2485   */\n      sub\n        /* \"#utility.yul\":2408:2409   */\n      dup3\n        /* \"#utility.yul\":2405:2486   */\n      gt\n        /* \"#utility.yul\":2402:2509   */\n      iszero\n      tag_61\n      jumpi\n        /* \"#utility.yul\":2489:2507   */\n      tag_62\n      tag_63\n      jump\t// in\n    tag_62:\n        /* \"#utility.yul\":2402:2509   */\n    tag_61:\n        /* \"#utility.yul\":2533:2534   */\n      dup3\n        /* \"#utility.yul\":2530:2531   */\n      dup3\n        /* \"#utility.yul\":2526:2535   */\n      add\n        /* \"#utility.yul\":2519:2535   */\n      swap1\n      pop\n        /* \"#utility.yul\":2236:2541   */\n      swap3\n      swap2\n      pop\n      pop\n      jump\t// out\n        /* \"#utility.yul\":2547:2643   */\n    tag_38:\n        /* \"#utility.yul\":2584:2591   */\n      0x00\n        /* \"#utility.yul\":2613:2637   */\n      tag_65\n        /* \"#utility.yul\":2631:2636   */\n      dup3\n        /* \"#utility.yul\":2613:2637   */\n      tag_66\n      jump\t// in\n    tag_65:\n        /* \"#utility.yul\":2602:2637   */\n      swap1\n      pop\n        /* \"#utility.yul\":2547:2643   */\n      swap2\n      swap1\n      pop\n      jump\t// out\n        /* \"#utility.yul\":2649:2775   */\n    tag_66:\n        /* \"#utility.yul\":2686:2693   */\n      0x00\n        /* \"#utility.yul\":2726:2768   */\n      0xffffffffffffffffffffffffffffffffffffffff\n        /* \"#utility.yul\":2719:2724   */\n      dup3\n        /* \"#utility.yul\":2715:2769   */\n      and\n        /* \"#utility.yul\":2704:2769   */\n      swap1\n      pop\n        /* \"#utility.yul\":2649:2775   */\n      swap2\n      swap1\n      pop\n      jump\t// out\n        /* \"#utility.yul\":2781:2858   */\n    tag_48:\n        /* \"#utility.yul\":2818:2825   */\n      0x00\n        /* \"#utility.yul\":2847:2852   */\n      dup2\n        /* \"#utility.yul\":2836:2852   */\n      swap1\n      pop\n        /* \"#utility.yul\":2781:2858   */\n      swap2\n      swap1\n      pop\n      jump\t// out\n        /* \"#utility.yul\":2864:3044   */\n    tag_63:\n        /* \"#utility.yul\":2912:2989   */\n      0x4e487b7100000000000000000000000000000000000000000000000000000000\n        /* \"#utility.yul\":2909:2910   */\n      0x00\n        /* \"#utility.yul\":2902:2990   */\n      mstore\n        /* \"#utility.yul\":3009:3013   */\n      0x11\n        /* \"#utility.yul\":3006:3007   */\n      0x04\n        /* \"#utility.yul\":2999:3014   */\n      mstore\n        /* \"#utility.yul\":3033:3037   */\n      0x24\n        /* \"#utility.yul\":3030:3031   */\n      0x00\n        /* \"#utility.yul\":3023:3038   */\n      revert\n        /* \"#utility.yul\":3173:3290   */\n    tag_33:\n        /* \"#utility.yul\":3282:3283   */\n      0x00\n        /* \"#utility.yul\":3279:3280   */\n      dup1\n        /* \"#utility.yul\":3272:3284   */\n      revert\n        /* \"#utility.yul\":3296:3477   */\n    tag_44:\n        /* \"#utility.yul\":3436:3469   */\n      0x646f65736e277420666f6c6c6f77206d696e696d756d20637269746572616900\n        /* \"#utility.yul\":3432:3433   */\n      0x00\n        /* \"#utility.yul\":3424:3430   */\n      dup3\n        /* \"#utility.yul\":3420:3434   */\n      add\n        /* \"#utility.yul\":3413:3470   */\n      mstore\n        /* \"#utility.yul\":3296:3477   */\n      pop\n      jump\t// out\n        /* \"#utility.yul\":3483:3605   */\n    tag_29:\n        /* \"#utility.yul\":3556:3580   */\n      tag_75\n        /* \"#utility.yul\":3574:3579   */\n      dup2\n        /* \"#utility.yul\":3556:3580   */\n      tag_38\n      jump\t// in\n    tag_75:\n        /* \"#utility.yul\":3549:3554   */\n      dup2\n        /* \"#utility.yul\":3546:3581   */\n      eq\n        /* \"#utility.yul\":3536:3599   */\n      tag_76\n      jumpi\n        /* \"#utility.yul\":3595:3596   */\n      0x00\n        /* \"#utility.yul\":3592:3593   */\n      dup1\n        /* \"#utility.yul\":3585:3597   */\n      revert\n        /* \"#utility.yul\":3536:3599   */\n    tag_76:\n        /* \"#utility.yul\":3483:3605   */\n      pop\n      jump\t// out\n\n    auxdata: 0xa2646970667358221220669324656f8cdd405d9f9087cff44f3dc8e80d1c0f9460c415ea9f515b69923264736f6c63430008070033\n}\n",
				"bytecode": {
					"linkReferences": {},
					"object": "608060405234801561001057600080fd5b506104eb806100206000396000f3fe6080604052600436106100345760003560e01c806370fb919614610039578063d7b8c4b514610078578063fa209fea14610082575b600080fd5b34801561004557600080fd5b50610060600480360381019061005b91906102d9565b61008c565b60405161006f93929190610347565b60405180910390f35b6100806100d6565b005b61008a610130565b005b60006020528060005260406000206000915090508060000160009054906101000a900473ffffffffffffffffffffffffffffffffffffffff16908060010154908060020154905083565b346000803373ffffffffffffffffffffffffffffffffffffffff1673ffffffffffffffffffffffffffffffffffffffff168152602001908152602001600020600201600082825461012791906103af565b92505081905550565b670de0b6b3a764000034101561017b576040517f08c379a00000000000000000000000000000000000000000000000000000000081526004016101729061037e565b60405180910390fd5b336000803373ffffffffffffffffffffffffffffffffffffffff1673ffffffffffffffffffffffffffffffffffffffff16815260200190815260200160002060000160006101000a81548173ffffffffffffffffffffffffffffffffffffffff021916908373ffffffffffffffffffffffffffffffffffffffff160217905550346000803373ffffffffffffffffffffffffffffffffffffffff1673ffffffffffffffffffffffffffffffffffffffff16815260200190815260200160002060020181905550426000803373ffffffffffffffffffffffffffffffffffffffff1673ffffffffffffffffffffffffffffffffffffffff168152602001908152602001600020600101819055507f2f8a6ec2d4b44b9eb188e85756710017b4b7d1d8c493867f691bf6046f05fa2e3334426040516102ba93929190610347565b60405180910390a1565b6000813590506102d38161049e565b92915050565b6000602082840312156102ef576102ee610470565b5b60006102fd848285016102c4565b91505092915050565b61030f81610405565b82525050565b6000610322601f8361039e565b915061032d82610475565b602082019050919050565b61034181610437565b82525050565b600060608201905061035c6000830186610306565b6103696020830185610338565b6103766040830184610338565b949350505050565b6000602082019050818103600083015261039781610315565b9050919050565b600082825260208201905092915050565b60006103ba82610437565b91506103c583610437565b9250827fffffffffffffffffffffffffffffffffffffffffffffffffffffffffffffffff038211156103fa576103f9610441565b5b828201905092915050565b600061041082610417565b9050919050565b600073ffffffffffffffffffffffffffffffffffffffff82169050919050565b6000819050919050565b7f4e487b7100000000000000000000000000000000000000000000000000000000600052601160045260246000fd5b600080fd5b7f646f65736e277420666f6c6c6f77206d696e696d756d20637269746572616900600082015250565b6104a781610405565b81146104b257600080fd5b5056fea2646970667358221220669324656f8cdd405d9f9087cff44f3dc8e80d1c0f9460c415ea9f515b69923264736f6c63430008070033",
					"opcodes": "PUSH1 0x80 PUSH1 0x40 MSTORE CALLVALUE DUP1 ISZERO PUSH2 0x10 JUMPI PUSH1 0x0 DUP1 REVERT JUMPDEST POP PUSH2 0x4EB DUP1 PUSH2 0x20 PUSH1 0x0 CODECOPY PUSH1 0x0 RETURN INVALID PUSH1 0x80 PUSH1 0x40 MSTORE PUSH1 0x4 CALLDATASIZE LT PUSH2 0x34 JUMPI PUSH1 0x0 CALLDATALOAD PUSH1 0xE0 SHR DUP1 PUSH4 0x70FB9196 EQ PUSH2 0x39 JUMPI DUP1 PUSH4 0xD7B8C4B5 EQ PUSH2 0x78 JUMPI DUP1 PUSH4 0xFA209FEA EQ PUSH2 0x82 JUMPI JUMPDEST PUSH1 0x0 DUP1 REVERT JUMPDEST CALLVALUE DUP1 ISZERO PUSH2 0x45 JUMPI PUSH1 0x0 DUP1 REVERT JUMPDEST POP PUSH2 0x60 PUSH1 0x4 DUP1 CALLDATASIZE SUB DUP2 ADD SWAP1 PUSH2 0x5B SWAP2 SWAP1 PUSH2 0x2D9 JUMP JUMPDEST PUSH2 0x8C JUMP JUMPDEST PUSH1 0x40 MLOAD PUSH2 0x6F SWAP4 SWAP3 SWAP2 SWAP1 PUSH2 0x347 JUMP JUMPDEST PUSH1 0x40 MLOAD DUP1 SWAP2 SUB SWAP1 RETURN JUMPDEST PUSH2 0x80 PUSH2 0xD6 JUMP JUMPDEST STOP JUMPDEST PUSH2 0x8A PUSH2 0x130 JUMP JUMPDEST STOP JUMPDEST PUSH1 0x0 PUSH1 0x20 MSTORE DUP1 PUSH1 0x0 MSTORE PUSH1 0x40 PUSH1 0x0 KECCAK256 PUSH1 0x0 SWAP2 POP SWAP1 POP DUP1 PUSH1 0x0 ADD PUSH1 0x0 SWAP1 SLOAD SWAP1 PUSH2 0x100 EXP SWAP1 DIV PUSH20 0xFFFFFFFFFFFFFFFFFFFFFFFFFFFFFFFFFFFFFFFF AND SWAP1 DUP1 PUSH1 0x1 ADD SLOAD SWAP1 DUP1 PUSH1 0x2 ADD SLOAD SWAP1 POP DUP4 JUMP JUMPDEST CALLVALUE PUSH1 0x0 DUP1 CALLER PUSH20 0xFFFFFFFFFFFFFFFFFFFFFFFFFFFFFFFFFFFFFFFF AND PUSH20 0xFFFFFFFFFFFFFFFFFFFFFFFFFFFFFFFFFFFFFFFF AND DUP2 MSTORE PUSH1 0x20 ADD SWAP1 DUP2 MSTORE PUSH1 0x20 ADD PUSH1 0x0 KECCAK256 PUSH1 0x2 ADD PUSH1 0x0 DUP3 DUP3 SLOAD PUSH2 0x127 SWAP2 SWAP1 PUSH2 0x3AF JUMP JUMPDEST SWAP3 POP POP DUP2 SWAP1 SSTORE POP JUMP JUMPDEST PUSH8 0xDE0B6B3A7640000 CALLVALUE LT ISZERO PUSH2 0x17B JUMPI PUSH1 0x40 MLOAD PUSH32 0x8C379A000000000000000000000000000000000000000000000000000000000 DUP2 MSTORE PUSH1 0x4 ADD PUSH2 0x172 SWAP1 PUSH2 0x37E JUMP JUMPDEST PUSH1 0x40 MLOAD DUP1 SWAP2 SUB SWAP1 REVERT JUMPDEST CALLER PUSH1 0x0 DUP1 CALLER PUSH20 0xFFFFFFFFFFFFFFFFFFFFFFFFFFFFFFFFFFFFFFFF AND PUSH20 0xFFFFFFFFFFFFFFFFFFFFFFFFFFFFFFFFFFFFFFFF AND DUP2 MSTORE PUSH1 0x20 ADD SWAP1 DUP2 MSTORE PUSH1 0x20 ADD PUSH1 0x0 KECCAK256 PUSH1 0x0 ADD PUSH1 0x0 PUSH2 0x100 EXP DUP2 SLOAD DUP2 PUSH20 0xFFFFFFFFFFFFFFFFFFFFFFFFFFFFFFFFFFFFFFFF MUL NOT AND SWAP1 DUP4 PUSH20 0xFFFFFFFFFFFFFFFFFFFFFFFFFFFFFFFFFFFFFFFF AND MUL OR SWAP1 SSTORE POP CALLVALUE PUSH1 0x0 DUP1 CALLER PUSH20 0xFFFFFFFFFFFFFFFFFFFFFFFFFFFFFFFFFFFFFFFF AND PUSH20 0xFFFFFFFFFFFFFFFFFFFFFFFFFFFFFFFFFFFFFFFF AND DUP2 MSTORE PUSH1 0x20 ADD SWAP1 DUP2 MSTORE PUSH1 0x20 ADD PUSH1 0x0 KECCAK256 PUSH1 0x2 ADD DUP2 SWAP1 SSTORE POP TIMESTAMP PUSH1 0x0 DUP1 CALLER PUSH20 0xFFFFFFFFFFFFFFFFFFFFFFFFFFFFFFFFFFFFFFFF AND PUSH20 0xFFFFFFFFFFFFFFFFFFFFFFFFFFFFFFFFFFFFFFFF AND DUP2 MSTORE PUSH1 0x20 ADD SWAP1 DUP2 MSTORE PUSH1 0x20 ADD PUSH1 0x0 KECCAK256 PUSH1 0x1 ADD DUP2 SWAP1 SSTORE POP PUSH32 0x2F8A6EC2D4B44B9EB188E85756710017B4B7D1D8C493867F691BF6046F05FA2E CALLER CALLVALUE TIMESTAMP PUSH1 0x40 MLOAD PUSH2 0x2BA SWAP4 SWAP3 SWAP2 SWAP1 PUSH2 0x347 JUMP JUMPDEST PUSH1 0x40 MLOAD DUP1 SWAP2 SUB SWAP1 LOG1 JUMP JUMPDEST PUSH1 0x0 DUP2 CALLDATALOAD SWAP1 POP PUSH2 0x2D3 DUP2 PUSH2 0x49E JUMP JUMPDEST SWAP3 SWAP2 POP POP JUMP JUMPDEST PUSH1 0x0 PUSH1 0x20 DUP3 DUP5 SUB SLT ISZERO PUSH2 0x2EF JUMPI PUSH2 0x2EE PUSH2 0x470 JUMP JUMPDEST JUMPDEST PUSH1 0x0 PUSH2 0x2FD DUP5 DUP3 DUP6 ADD PUSH2 0x2C4 JUMP JUMPDEST SWAP2 POP POP SWAP3 SWAP2 POP POP JUMP JUMPDEST PUSH2 0x30F DUP2 PUSH2 0x405 JUMP JUMPDEST DUP3 MSTORE POP POP JUMP JUMPDEST PUSH1 0x0 PUSH2 0x322 PUSH1 0x1F DUP4 PUSH2 0x39E JUMP JUMPDEST SWAP2 POP PUSH2 0x32D DUP3 PUSH2 0x475 JUMP JUMPDEST PUSH1 0x20 DUP3 ADD SWAP1 POP SWAP2 SWAP1 POP JUMP JUMPDEST PUSH2 0x341 DUP2 PUSH2 0x437 JUMP JUMPDEST DUP3 MSTORE POP POP JUMP JUMPDEST PUSH1 0x0 PUSH1 0x60 DUP3 ADD SWAP1 POP PUSH2 0x35C PUSH1 0x0 DUP4 ADD DUP7 PUSH2 0x306 JUMP JUMPDEST PUSH2 0x369 PUSH1 0x20 DUP4 ADD DUP6 PUSH2 0x338 JUMP JUMPDEST PUSH2 0x376 PUSH1 0x40 DUP4 ADD DUP5 PUSH2 0x338 JUMP JUMPDEST SWAP5 SWAP4 POP POP POP POP JUMP JUMPDEST PUSH1 0x0 PUSH1 0x20 DUP3 ADD SWAP1 POP DUP2 DUP2 SUB PUSH1 0x0 DUP4 ADD MSTORE PUSH2 0x397 DUP2 PUSH2 0x315 JUMP JUMPDEST SWAP1 POP SWAP2 SWAP1 POP JUMP JUMPDEST PUSH1 0x0 DUP3 DUP3 MSTORE PUSH1 0x20 DUP3 ADD SWAP1 POP SWAP3 SWAP2 POP POP JUMP JUMPDEST PUSH1 0x0 PUSH2 0x3BA DUP3 PUSH2 0x437 JUMP JUMPDEST SWAP2 POP PUSH2 0x3C5 DUP4 PUSH2 0x437 JUMP JUMPDEST SWAP3 POP DUP3 PUSH32 0xFFFFFFFFFFFFFFFFFFFFFFFFFFFFFFFFFFFFFFFFFFFFFFFFFFFFFFFFFFFFFFFF SUB DUP3 GT ISZERO PUSH2 0x3FA JUMPI PUSH2 0x3F9 PUSH2 0x441 JUMP JUMPDEST JUMPDEST DUP3 DUP3 ADD SWAP1 POP SWAP3 SWAP2 POP POP JUMP JUMPDEST PUSH1 0x0 PUSH2 0x410 DUP3 PUSH2 0x417 JUMP JUMPDEST SWAP1 POP SWAP2 SWAP1 POP JUMP JUMPDEST PUSH1 0x0 PUSH20 0xFFFFFFFFFFFFFFFFFFFFFFFFFFFFFFFFFFFFFFFF DUP3 AND SWAP1 POP SWAP2 SWAP1 POP JUMP JUMPDEST PUSH1 0x0 DUP2 SWAP1 POP SWAP2 SWAP1 POP JUMP JUMPDEST PUSH32 0x4E487B7100000000000000000000000000000000000000000000000000000000 PUSH1 0x0 MSTORE PUSH1 0x11 PUSH1 0x4 MSTORE PUSH1 0x24 PUSH1 0x0 REVERT JUMPDEST PUSH1 0x0 DUP1 REVERT JUMPDEST PUSH32 0x646F65736E277420666F6C6C6F77206D696E696D756D20637269746572616900 PUSH1 0x0 DUP3 ADD MSTORE POP JUMP JUMPDEST PUSH2 0x4A7 DUP2 PUSH2 0x405 JUMP JUMPDEST DUP2 EQ PUSH2 0x4B2 JUMPI PUSH1 0x0 DUP1 REVERT JUMPDEST POP JUMP INVALID LOG2 PUSH5 0x6970667358 0x22 SLT KECCAK256 PUSH7 0x9324656F8CDD40 0x5D SWAP16 SWAP1 DUP8 0xCF DELEGATECALL 0x4F RETURNDATASIZE 0xC8 0xE8 0xD SHR 0xF SWAP5 PUSH1 0xC4 ISZERO 0xEA SWAP16 MLOAD JUMPDEST PUSH10 0x923264736F6C63430008 SMOD STOP CALLER "
				},
				"gasEstimates": {
					"creation": {
						"codeDepositCost": "251800",
						"executionCost": "294",
						"totalCost": "252094"
					},
					"external": {
						"accountCreated()": "infinite",
						"balanceDeposited()": "infinite",
						"bankDatabase(address)": "infinite"
					}
				},
				"methodIdentifiers": {
					"accountCreated()": "fa209fea",
					"balanceDeposited()": "d7b8c4b5",
					"bankDatabase(address)": "70fb9196"
				}
			},
			"storageLayout": {
				"storage": [
					{
						"astId": 13,
						"contract": "contracts/Bank2.sol:Bank",
						"label": "bankDatabase",
						"offset": 0,
						"slot": "0",
						"type": "t_mapping(t_address,t_struct(User)8_storage)"
					}
				],
				"types": {
					"t_address": {
						"encoding": "inplace",
						"label": "address",
						"numberOfBytes": "20"
					},
					"t_mapping(t_address,t_struct(User)8_storage)": {
						"encoding": "mapping",
						"key": "t_address",
						"label": "mapping(address => struct Bank.User)",
						"numberOfBytes": "32",
						"value": "t_struct(User)8_storage"
					},
					"t_struct(User)8_storage": {
						"encoding": "inplace",
						"label": "struct Bank.User",
						"members": [
							{
								"astId": 3,
								"contract": "contracts/Bank2.sol:Bank",
								"label": "owner",
								"offset": 0,
								"slot": "0",
								"type": "t_address"
							},
							{
								"astId": 5,
								"contract": "contracts/Bank2.sol:Bank",
								"label": "timecreated",
								"offset": 0,
								"slot": "1",
								"type": "t_uint256"
							},
							{
								"astId": 7,
								"contract": "contracts/Bank2.sol:Bank",
								"label": "balance",
								"offset": 0,
								"slot": "2",
								"type": "t_uint256"
							}
						],
						"numberOfBytes": "96"
					},
					"t_uint256": {
						"encoding": "inplace",
						"label": "uint256",
						"numberOfBytes": "32"
					}
				}
			},
			"userdoc": {
				"kind": "user",
				"methods": {},
				"version": 1
			}
		}
	}
}