{
	"contracts/Property.sol": {
		"Property": {
			"abi": [
				{
					"anonymous": false,
					"inputs": [
						{
							"indexed": false,
							"internalType": "string",
							"name": "name",
							"type": "string"
						},
						{
							"indexed": false,
							"internalType": "string",
							"name": "email",
							"type": "string"
						},
						{
							"indexed": false,
							"internalType": "uint256",
							"name": "timeStamp",
							"type": "uint256"
						}
					],
					"name": "studentAdded",
					"type": "event"
				},
				{
					"inputs": [
						{
							"internalType": "uint256",
							"name": "",
							"type": "uint256"
						}
					],
					"name": "StudentDataBase",
					"outputs": [
						{
							"internalType": "string",
							"name": "name",
							"type": "string"
						},
						{
							"internalType": "uint256",
							"name": "age",
							"type": "uint256"
						},
						{
							"internalType": "string",
							"name": "email",
							"type": "string"
						},
						{
							"internalType": "uint256",
							"name": "phoneNo",
							"type": "uint256"
						},
						{
							"internalType": "uint256",
							"name": "rollno",
							"type": "uint256"
						},
						{
							"internalType": "uint256",
							"name": "timeStamp",
							"type": "uint256"
						}
					],
					"stateMutability": "view",
					"type": "function"
				},
				{
					"inputs": [
						{
							"internalType": "string",
							"name": "_name",
							"type": "string"
						},
						{
							"internalType": "string",
							"name": "_email",
							"type": "string"
						},
						{
							"internalType": "uint256",
							"name": "_age",
							"type": "uint256"
						},
						{
							"internalType": "uint256",
							"name": "_phoneNo",
							"type": "uint256"
						}
					],
					"name": "addStudent",
					"outputs": [],
					"stateMutability": "nonpayable",
					"type": "function"
				}
			],
			"devdoc": {
				"kind": "dev",
				"methods": {},
				"version": 1
			},
			"evm": {
				"assembly": "    /* \"contracts/Property.sol\":67:746  contract Property{\r... */\n  mstore(0x40, 0x80)\n    /* \"contracts/Property.sol\":244:245  1 */\n  0x01\n    /* \"contracts/Property.sol\":228:245  uint256 _rollno=1 */\n  0x00\n  sstore\n    /* \"contracts/Property.sol\":67:746  contract Property{\r... */\n  callvalue\n  dup1\n  iszero\n  tag_1\n  jumpi\n  0x00\n  dup1\n  revert\ntag_1:\n  pop\n  dataSize(sub_0)\n  dup1\n  dataOffset(sub_0)\n  0x00\n  codecopy\n  0x00\n  return\nstop\n\nsub_0: assembly {\n        /* \"contracts/Property.sol\":67:746  contract Property{\r... */\n      mstore(0x40, 0x80)\n      callvalue\n      dup1\n      iszero\n      tag_1\n      jumpi\n      0x00\n      dup1\n      revert\n    tag_1:\n      pop\n      jumpi(tag_2, lt(calldatasize, 0x04))\n      shr(0xe0, calldataload(0x00))\n      dup1\n      0x78529ead\n      eq\n      tag_3\n      jumpi\n      dup1\n      0x8668b9be\n      eq\n      tag_4\n      jumpi\n    tag_2:\n      0x00\n      dup1\n      revert\n        /* \"contracts/Property.sol\":373:741  function addStudent(string memory _name, string memory _email, uint _age, uint _phoneNo ) public{\r... */\n    tag_3:\n      tag_5\n      0x04\n      dup1\n      calldatasize\n      sub\n      dup2\n      add\n      swap1\n      tag_6\n      swap2\n      swap1\n      tag_7\n      jump\t// in\n    tag_6:\n      tag_8\n      jump\t// in\n    tag_5:\n      stop\n        /* \"contracts/Property.sol\":248:296  mapping(uint256=>Student) public StudentDataBase */\n    tag_4:\n      tag_9\n      0x04\n      dup1\n      calldatasize\n      sub\n      dup2\n      add\n      swap1\n      tag_10\n      swap2\n      swap1\n      tag_11\n      jump\t// in\n    tag_10:\n      tag_12\n      jump\t// in\n    tag_9:\n      mload(0x40)\n      tag_13\n      swap7\n      swap6\n      swap5\n      swap4\n      swap3\n      swap2\n      swap1\n      tag_14\n      jump\t// in\n    tag_13:\n      mload(0x40)\n      dup1\n      swap2\n      sub\n      swap1\n      return\n        /* \"contracts/Property.sol\":373:741  function addStudent(string memory _name, string memory _email, uint _age, uint _phoneNo ) public{\r... */\n    tag_8:\n        /* \"contracts/Property.sol\":502:507  _name */\n      dup4\n        /* \"contracts/Property.sol\":472:487  StudentDataBase */\n      0x01\n        /* \"contracts/Property.sol\":472:496  StudentDataBase[_rollno] */\n      0x00\n        /* \"contracts/Property.sol\":488:495  _rollno */\n      dup1\n      sload\n        /* \"contracts/Property.sol\":472:496  StudentDataBase[_rollno] */\n      dup2\n      mstore\n      0x20\n      add\n      swap1\n      dup2\n      mstore\n      0x20\n      add\n      0x00\n      keccak256\n        /* \"contracts/Property.sol\":472:501  StudentDataBase[_rollno].name */\n      0x00\n      add\n        /* \"contracts/Property.sol\":472:507  StudentDataBase[_rollno].name=_name */\n      swap1\n      dup1\n      mload\n      swap1\n      0x20\n      add\n      swap1\n      tag_16\n      swap3\n      swap2\n      swap1\n      tag_17\n      jump\t// in\n    tag_16:\n      pop\n        /* \"contracts/Property.sol\":541:547  _email */\n      dup3\n        /* \"contracts/Property.sol\":510:525  StudentDataBase */\n      0x01\n        /* \"contracts/Property.sol\":510:534  StudentDataBase[_rollno] */\n      0x00\n        /* \"contracts/Property.sol\":526:533  _rollno */\n      dup1\n      sload\n        /* \"contracts/Property.sol\":510:534  StudentDataBase[_rollno] */\n      dup2\n      mstore\n      0x20\n      add\n      swap1\n      dup2\n      mstore\n      0x20\n      add\n      0x00\n      keccak256\n        /* \"contracts/Property.sol\":510:540  StudentDataBase[_rollno].email */\n      0x02\n      add\n        /* \"contracts/Property.sol\":510:547  StudentDataBase[_rollno].email=_email */\n      swap1\n      dup1\n      mload\n      swap1\n      0x20\n      add\n      swap1\n      tag_18\n      swap3\n      swap2\n      swap1\n      tag_17\n      jump\t// in\n    tag_18:\n      pop\n        /* \"contracts/Property.sol\":579:583  _age */\n      dup2\n        /* \"contracts/Property.sol\":550:565  StudentDataBase */\n      0x01\n        /* \"contracts/Property.sol\":550:574  StudentDataBase[_rollno] */\n      0x00\n        /* \"contracts/Property.sol\":566:573  _rollno */\n      dup1\n      sload\n        /* \"contracts/Property.sol\":550:574  StudentDataBase[_rollno] */\n      dup2\n      mstore\n      0x20\n      add\n      swap1\n      dup2\n      mstore\n      0x20\n      add\n      0x00\n      keccak256\n        /* \"contracts/Property.sol\":550:578  StudentDataBase[_rollno].age */\n      0x01\n      add\n        /* \"contracts/Property.sol\":550:583  StudentDataBase[_rollno].age=_age */\n      dup2\n      swap1\n      sstore\n      pop\n        /* \"contracts/Property.sol\":619:627  _phoneNo */\n      dup1\n        /* \"contracts/Property.sol\":586:601  StudentDataBase */\n      0x01\n        /* \"contracts/Property.sol\":586:610  StudentDataBase[_rollno] */\n      0x00\n        /* \"contracts/Property.sol\":602:609  _rollno */\n      dup1\n      sload\n        /* \"contracts/Property.sol\":586:610  StudentDataBase[_rollno] */\n      dup2\n      mstore\n      0x20\n      add\n      swap1\n      dup2\n      mstore\n      0x20\n      add\n      0x00\n      keccak256\n        /* \"contracts/Property.sol\":586:618  StudentDataBase[_rollno].phoneNo */\n      0x03\n      add\n        /* \"contracts/Property.sol\":586:627  StudentDataBase[_rollno].phoneNo=_phoneNo */\n      dup2\n      swap1\n      sstore\n      pop\n        /* \"contracts/Property.sol\":662:669  _rollno */\n      sload(0x00)\n        /* \"contracts/Property.sol\":630:645  StudentDataBase */\n      0x01\n        /* \"contracts/Property.sol\":630:654  StudentDataBase[_rollno] */\n      0x00\n        /* \"contracts/Property.sol\":646:653  _rollno */\n      dup1\n      sload\n        /* \"contracts/Property.sol\":630:654  StudentDataBase[_rollno] */\n      dup2\n      mstore\n      0x20\n      add\n      swap1\n      dup2\n      mstore\n      0x20\n      add\n      0x00\n      keccak256\n        /* \"contracts/Property.sol\":630:661  StudentDataBase[_rollno].rollno */\n      0x04\n      add\n        /* \"contracts/Property.sol\":630:669  StudentDataBase[_rollno].rollno=_rollno */\n      dup2\n      swap1\n      sstore\n      pop\n        /* \"contracts/Property.sol\":707:722  block.timestamp */\n      timestamp\n        /* \"contracts/Property.sol\":672:687  StudentDataBase */\n      0x01\n        /* \"contracts/Property.sol\":672:696  StudentDataBase[_rollno] */\n      0x00\n        /* \"contracts/Property.sol\":688:695  _rollno */\n      dup1\n      sload\n        /* \"contracts/Property.sol\":672:696  StudentDataBase[_rollno] */\n      dup2\n      mstore\n      0x20\n      add\n      swap1\n      dup2\n      mstore\n      0x20\n      add\n      0x00\n      keccak256\n        /* \"contracts/Property.sol\":672:706  StudentDataBase[_rollno].timeStamp */\n      0x05\n      add\n        /* \"contracts/Property.sol\":672:722  StudentDataBase[_rollno].timeStamp=block.timestamp */\n      dup2\n      swap1\n      sstore\n      pop\n        /* \"contracts/Property.sol\":734:735  1 */\n      0x01\n        /* \"contracts/Property.sol\":725:732  _rollno */\n      0x00\n      dup1\n        /* \"contracts/Property.sol\":725:735  _rollno+=1 */\n      dup3\n      dup3\n      sload\n      tag_19\n      swap2\n      swap1\n      tag_20\n      jump\t// in\n    tag_19:\n      swap3\n      pop\n      pop\n      dup2\n      swap1\n      sstore\n      pop\n        /* \"contracts/Property.sol\":373:741  function addStudent(string memory _name, string memory _email, uint _age, uint _phoneNo ) public{\r... */\n      pop\n      pop\n      pop\n      pop\n      jump\t// out\n        /* \"contracts/Property.sol\":248:296  mapping(uint256=>Student) public StudentDataBase */\n    tag_12:\n      mstore(0x20, 0x01)\n      dup1\n      0x00\n      mstore\n      keccak256(0x00, 0x40)\n      0x00\n      swap2\n      pop\n      swap1\n      pop\n      dup1\n      0x00\n      add\n      dup1\n      sload\n      tag_21\n      swap1\n      tag_22\n      jump\t// in\n    tag_21:\n      dup1\n      0x1f\n      add\n      0x20\n      dup1\n      swap2\n      div\n      mul\n      0x20\n      add\n      mload(0x40)\n      swap1\n      dup2\n      add\n      0x40\n      mstore\n      dup1\n      swap3\n      swap2\n      swap1\n      dup2\n      dup2\n      mstore\n      0x20\n      add\n      dup3\n      dup1\n      sload\n      tag_23\n      swap1\n      tag_22\n      jump\t// in\n    tag_23:\n      dup1\n      iszero\n      tag_24\n      jumpi\n      dup1\n      0x1f\n      lt\n      tag_25\n      jumpi\n      0x0100\n      dup1\n      dup4\n      sload\n      div\n      mul\n      dup4\n      mstore\n      swap2\n      0x20\n      add\n      swap2\n      jump(tag_24)\n    tag_25:\n      dup3\n      add\n      swap2\n      swap1\n      0x00\n      mstore\n      keccak256(0x00, 0x20)\n      swap1\n    tag_26:\n      dup2\n      sload\n      dup2\n      mstore\n      swap1\n      0x01\n      add\n      swap1\n      0x20\n      add\n      dup1\n      dup4\n      gt\n      tag_26\n      jumpi\n      dup3\n      swap1\n      sub\n      0x1f\n      and\n      dup3\n      add\n      swap2\n    tag_24:\n      pop\n      pop\n      pop\n      pop\n      pop\n      swap1\n      dup1\n      0x01\n      add\n      sload\n      swap1\n      dup1\n      0x02\n      add\n      dup1\n      sload\n      tag_27\n      swap1\n      tag_22\n      jump\t// in\n    tag_27:\n      dup1\n      0x1f\n      add\n      0x20\n      dup1\n      swap2\n      div\n      mul\n      0x20\n      add\n      mload(0x40)\n      swap1\n      dup2\n      add\n      0x40\n      mstore\n      dup1\n      swap3\n      swap2\n      swap1\n      dup2\n      dup2\n      mstore\n      0x20\n      add\n      dup3\n      dup1\n      sload\n      tag_28\n      swap1\n      tag_22\n      jump\t// in\n    tag_28:\n      dup1\n      iszero\n      tag_29\n      jumpi\n      dup1\n      0x1f\n      lt\n      tag_30\n      jumpi\n      0x0100\n      dup1\n      dup4\n      sload\n      div\n      mul\n      dup4\n      mstore\n      swap2\n      0x20\n      add\n      swap2\n      jump(tag_29)\n    tag_30:\n      dup3\n      add\n      swap2\n      swap1\n      0x00\n      mstore\n      keccak256(0x00, 0x20)\n      swap1\n    tag_31:\n      dup2\n      sload\n      dup2\n      mstore\n      swap1\n      0x01\n      add\n      swap1\n      0x20\n      add\n      dup1\n      dup4\n      gt\n      tag_31\n      jumpi\n      dup3\n      swap1\n      sub\n      0x1f\n      and\n      dup3\n      add\n      swap2\n    tag_29:\n      pop\n      pop\n      pop\n      pop\n      pop\n      swap1\n      dup1\n      0x03\n      add\n      sload\n      swap1\n      dup1\n      0x04\n      add\n      sload\n      swap1\n      dup1\n      0x05\n      add\n      sload\n      swap1\n      pop\n      dup7\n      jump\t// out\n    tag_17:\n      dup3\n      dup1\n      sload\n      tag_32\n      swap1\n      tag_22\n      jump\t// in\n    tag_32:\n      swap1\n      0x00\n      mstore\n      keccak256(0x00, 0x20)\n      swap1\n      0x1f\n      add\n      0x20\n      swap1\n      div\n      dup2\n      add\n      swap3\n      dup3\n      tag_34\n      jumpi\n      0x00\n      dup6\n      sstore\n      jump(tag_33)\n    tag_34:\n      dup3\n      0x1f\n      lt\n      tag_35\n      jumpi\n      dup1\n      mload\n      not(0xff)\n      and\n      dup4\n      dup1\n      add\n      or\n      dup6\n      sstore\n      jump(tag_33)\n    tag_35:\n      dup3\n      dup1\n      add\n      0x01\n      add\n      dup6\n      sstore\n      dup3\n      iszero\n      tag_33\n      jumpi\n      swap2\n      dup3\n      add\n    tag_36:\n      dup3\n      dup2\n      gt\n      iszero\n      tag_37\n      jumpi\n      dup3\n      mload\n      dup3\n      sstore\n      swap2\n      0x20\n      add\n      swap2\n      swap1\n      0x01\n      add\n      swap1\n      jump(tag_36)\n    tag_37:\n    tag_33:\n      pop\n      swap1\n      pop\n      tag_38\n      swap2\n      swap1\n      tag_39\n      jump\t// in\n    tag_38:\n      pop\n      swap1\n      jump\t// out\n    tag_39:\n    tag_40:\n      dup1\n      dup3\n      gt\n      iszero\n      tag_41\n      jumpi\n      0x00\n      dup2\n      0x00\n      swap1\n      sstore\n      pop\n      0x01\n      add\n      jump(tag_40)\n    tag_41:\n      pop\n      swap1\n      jump\t// out\n        /* \"#utility.yul\":7:419   */\n    tag_43:\n        /* \"#utility.yul\":85:90   */\n      0x00\n        /* \"#utility.yul\":110:176   */\n      tag_45\n        /* \"#utility.yul\":126:175   */\n      tag_46\n        /* \"#utility.yul\":168:174   */\n      dup5\n        /* \"#utility.yul\":126:175   */\n      tag_47\n      jump\t// in\n    tag_46:\n        /* \"#utility.yul\":110:176   */\n      tag_48\n      jump\t// in\n    tag_45:\n        /* \"#utility.yul\":101:176   */\n      swap1\n      pop\n        /* \"#utility.yul\":199:205   */\n      dup3\n        /* \"#utility.yul\":192:197   */\n      dup2\n        /* \"#utility.yul\":185:206   */\n      mstore\n        /* \"#utility.yul\":237:241   */\n      0x20\n        /* \"#utility.yul\":230:235   */\n      dup2\n        /* \"#utility.yul\":226:242   */\n      add\n        /* \"#utility.yul\":275:278   */\n      dup5\n        /* \"#utility.yul\":266:272   */\n      dup5\n        /* \"#utility.yul\":261:264   */\n      dup5\n        /* \"#utility.yul\":257:273   */\n      add\n        /* \"#utility.yul\":254:279   */\n      gt\n        /* \"#utility.yul\":251:363   */\n      iszero\n      tag_49\n      jumpi\n        /* \"#utility.yul\":282:361   */\n      tag_50\n      tag_51\n      jump\t// in\n    tag_50:\n        /* \"#utility.yul\":251:363   */\n    tag_49:\n        /* \"#utility.yul\":372:413   */\n      tag_52\n        /* \"#utility.yul\":406:412   */\n      dup5\n        /* \"#utility.yul\":401:404   */\n      dup3\n        /* \"#utility.yul\":396:399   */\n      dup6\n        /* \"#utility.yul\":372:413   */\n      tag_53\n      jump\t// in\n    tag_52:\n        /* \"#utility.yul\":91:419   */\n      pop\n        /* \"#utility.yul\":7:419   */\n      swap4\n      swap3\n      pop\n      pop\n      pop\n      jump\t// out\n        /* \"#utility.yul\":439:779   */\n    tag_54:\n        /* \"#utility.yul\":495:500   */\n      0x00\n        /* \"#utility.yul\":544:547   */\n      dup3\n        /* \"#utility.yul\":537:541   */\n      0x1f\n        /* \"#utility.yul\":529:535   */\n      dup4\n        /* \"#utility.yul\":525:542   */\n      add\n        /* \"#utility.yul\":521:548   */\n      slt\n        /* \"#utility.yul\":511:633   */\n      tag_56\n      jumpi\n        /* \"#utility.yul\":552:631   */\n      tag_57\n      tag_58\n      jump\t// in\n    tag_57:\n        /* \"#utility.yul\":511:633   */\n    tag_56:\n        /* \"#utility.yul\":669:675   */\n      dup2\n        /* \"#utility.yul\":656:676   */\n      calldataload\n        /* \"#utility.yul\":694:773   */\n      tag_59\n        /* \"#utility.yul\":769:772   */\n      dup5\n        /* \"#utility.yul\":761:767   */\n      dup3\n        /* \"#utility.yul\":754:758   */\n      0x20\n        /* \"#utility.yul\":746:752   */\n      dup7\n        /* \"#utility.yul\":742:759   */\n      add\n        /* \"#utility.yul\":694:773   */\n      tag_43\n      jump\t// in\n    tag_59:\n        /* \"#utility.yul\":685:773   */\n      swap2\n      pop\n        /* \"#utility.yul\":501:779   */\n      pop\n        /* \"#utility.yul\":439:779   */\n      swap3\n      swap2\n      pop\n      pop\n      jump\t// out\n        /* \"#utility.yul\":785:924   */\n    tag_60:\n        /* \"#utility.yul\":831:836   */\n      0x00\n        /* \"#utility.yul\":869:875   */\n      dup2\n        /* \"#utility.yul\":856:876   */\n      calldataload\n        /* \"#utility.yul\":847:876   */\n      swap1\n      pop\n        /* \"#utility.yul\":885:918   */\n      tag_62\n        /* \"#utility.yul\":912:917   */\n      dup2\n        /* \"#utility.yul\":885:918   */\n      tag_63\n      jump\t// in\n    tag_62:\n        /* \"#utility.yul\":785:924   */\n      swap3\n      swap2\n      pop\n      pop\n      jump\t// out\n        /* \"#utility.yul\":930:2055   */\n    tag_7:\n        /* \"#utility.yul\":1036:1042   */\n      0x00\n        /* \"#utility.yul\":1044:1050   */\n      dup1\n        /* \"#utility.yul\":1052:1058   */\n      0x00\n        /* \"#utility.yul\":1060:1066   */\n      dup1\n        /* \"#utility.yul\":1109:1112   */\n      0x80\n        /* \"#utility.yul\":1097:1106   */\n      dup6\n        /* \"#utility.yul\":1088:1095   */\n      dup8\n        /* \"#utility.yul\":1084:1107   */\n      sub\n        /* \"#utility.yul\":1080:1113   */\n      slt\n        /* \"#utility.yul\":1077:1197   */\n      iszero\n      tag_65\n      jumpi\n        /* \"#utility.yul\":1116:1195   */\n      tag_66\n      tag_67\n      jump\t// in\n    tag_66:\n        /* \"#utility.yul\":1077:1197   */\n    tag_65:\n        /* \"#utility.yul\":1264:1265   */\n      0x00\n        /* \"#utility.yul\":1253:1262   */\n      dup6\n        /* \"#utility.yul\":1249:1266   */\n      add\n        /* \"#utility.yul\":1236:1267   */\n      calldataload\n        /* \"#utility.yul\":1294:1312   */\n      0xffffffffffffffff\n        /* \"#utility.yul\":1286:1292   */\n      dup2\n        /* \"#utility.yul\":1283:1313   */\n      gt\n        /* \"#utility.yul\":1280:1397   */\n      iszero\n      tag_68\n      jumpi\n        /* \"#utility.yul\":1316:1395   */\n      tag_69\n      tag_70\n      jump\t// in\n    tag_69:\n        /* \"#utility.yul\":1280:1397   */\n    tag_68:\n        /* \"#utility.yul\":1421:1484   */\n      tag_71\n        /* \"#utility.yul\":1476:1483   */\n      dup8\n        /* \"#utility.yul\":1467:1473   */\n      dup3\n        /* \"#utility.yul\":1456:1465   */\n      dup9\n        /* \"#utility.yul\":1452:1474   */\n      add\n        /* \"#utility.yul\":1421:1484   */\n      tag_54\n      jump\t// in\n    tag_71:\n        /* \"#utility.yul\":1411:1484   */\n      swap5\n      pop\n        /* \"#utility.yul\":1207:1494   */\n      pop\n        /* \"#utility.yul\":1561:1563   */\n      0x20\n        /* \"#utility.yul\":1550:1559   */\n      dup6\n        /* \"#utility.yul\":1546:1564   */\n      add\n        /* \"#utility.yul\":1533:1565   */\n      calldataload\n        /* \"#utility.yul\":1592:1610   */\n      0xffffffffffffffff\n        /* \"#utility.yul\":1584:1590   */\n      dup2\n        /* \"#utility.yul\":1581:1611   */\n      gt\n        /* \"#utility.yul\":1578:1695   */\n      iszero\n      tag_72\n      jumpi\n        /* \"#utility.yul\":1614:1693   */\n      tag_73\n      tag_70\n      jump\t// in\n    tag_73:\n        /* \"#utility.yul\":1578:1695   */\n    tag_72:\n        /* \"#utility.yul\":1719:1782   */\n      tag_74\n        /* \"#utility.yul\":1774:1781   */\n      dup8\n        /* \"#utility.yul\":1765:1771   */\n      dup3\n        /* \"#utility.yul\":1754:1763   */\n      dup9\n        /* \"#utility.yul\":1750:1772   */\n      add\n        /* \"#utility.yul\":1719:1782   */\n      tag_54\n      jump\t// in\n    tag_74:\n        /* \"#utility.yul\":1709:1782   */\n      swap4\n      pop\n        /* \"#utility.yul\":1504:1792   */\n      pop\n        /* \"#utility.yul\":1831:1833   */\n      0x40\n        /* \"#utility.yul\":1857:1910   */\n      tag_75\n        /* \"#utility.yul\":1902:1909   */\n      dup8\n        /* \"#utility.yul\":1893:1899   */\n      dup3\n        /* \"#utility.yul\":1882:1891   */\n      dup9\n        /* \"#utility.yul\":1878:1900   */\n      add\n        /* \"#utility.yul\":1857:1910   */\n      tag_60\n      jump\t// in\n    tag_75:\n        /* \"#utility.yul\":1847:1910   */\n      swap3\n      pop\n        /* \"#utility.yul\":1802:1920   */\n      pop\n        /* \"#utility.yul\":1959:1961   */\n      0x60\n        /* \"#utility.yul\":1985:2038   */\n      tag_76\n        /* \"#utility.yul\":2030:2037   */\n      dup8\n        /* \"#utility.yul\":2021:2027   */\n      dup3\n        /* \"#utility.yul\":2010:2019   */\n      dup9\n        /* \"#utility.yul\":2006:2028   */\n      add\n        /* \"#utility.yul\":1985:2038   */\n      tag_60\n      jump\t// in\n    tag_76:\n        /* \"#utility.yul\":1975:2038   */\n      swap2\n      pop\n        /* \"#utility.yul\":1930:2048   */\n      pop\n        /* \"#utility.yul\":930:2055   */\n      swap3\n      swap6\n      swap2\n      swap5\n      pop\n      swap3\n      pop\n      jump\t// out\n        /* \"#utility.yul\":2061:2390   */\n    tag_11:\n        /* \"#utility.yul\":2120:2126   */\n      0x00\n        /* \"#utility.yul\":2169:2171   */\n      0x20\n        /* \"#utility.yul\":2157:2166   */\n      dup3\n        /* \"#utility.yul\":2148:2155   */\n      dup5\n        /* \"#utility.yul\":2144:2167   */\n      sub\n        /* \"#utility.yul\":2140:2172   */\n      slt\n        /* \"#utility.yul\":2137:2256   */\n      iszero\n      tag_78\n      jumpi\n        /* \"#utility.yul\":2175:2254   */\n      tag_79\n      tag_67\n      jump\t// in\n    tag_79:\n        /* \"#utility.yul\":2137:2256   */\n    tag_78:\n        /* \"#utility.yul\":2295:2296   */\n      0x00\n        /* \"#utility.yul\":2320:2373   */\n      tag_80\n        /* \"#utility.yul\":2365:2372   */\n      dup5\n        /* \"#utility.yul\":2356:2362   */\n      dup3\n        /* \"#utility.yul\":2345:2354   */\n      dup6\n        /* \"#utility.yul\":2341:2363   */\n      add\n        /* \"#utility.yul\":2320:2373   */\n      tag_60\n      jump\t// in\n    tag_80:\n        /* \"#utility.yul\":2310:2373   */\n      swap2\n      pop\n        /* \"#utility.yul\":2266:2383   */\n      pop\n        /* \"#utility.yul\":2061:2390   */\n      swap3\n      swap2\n      pop\n      pop\n      jump\t// out\n        /* \"#utility.yul\":2396:2760   */\n    tag_81:\n        /* \"#utility.yul\":2484:2487   */\n      0x00\n        /* \"#utility.yul\":2512:2551   */\n      tag_83\n        /* \"#utility.yul\":2545:2550   */\n      dup3\n        /* \"#utility.yul\":2512:2551   */\n      tag_84\n      jump\t// in\n    tag_83:\n        /* \"#utility.yul\":2567:2638   */\n      tag_85\n        /* \"#utility.yul\":2631:2637   */\n      dup2\n        /* \"#utility.yul\":2626:2629   */\n      dup6\n        /* \"#utility.yul\":2567:2638   */\n      tag_86\n      jump\t// in\n    tag_85:\n        /* \"#utility.yul\":2560:2638   */\n      swap4\n      pop\n        /* \"#utility.yul\":2647:2699   */\n      tag_87\n        /* \"#utility.yul\":2692:2698   */\n      dup2\n        /* \"#utility.yul\":2687:2690   */\n      dup6\n        /* \"#utility.yul\":2680:2684   */\n      0x20\n        /* \"#utility.yul\":2673:2678   */\n      dup7\n        /* \"#utility.yul\":2669:2685   */\n      add\n        /* \"#utility.yul\":2647:2699   */\n      tag_88\n      jump\t// in\n    tag_87:\n        /* \"#utility.yul\":2724:2753   */\n      tag_89\n        /* \"#utility.yul\":2746:2752   */\n      dup2\n        /* \"#utility.yul\":2724:2753   */\n      tag_90\n      jump\t// in\n    tag_89:\n        /* \"#utility.yul\":2719:2722   */\n      dup5\n        /* \"#utility.yul\":2715:2754   */\n      add\n        /* \"#utility.yul\":2708:2754   */\n      swap2\n      pop\n        /* \"#utility.yul\":2488:2760   */\n      pop\n        /* \"#utility.yul\":2396:2760   */\n      swap3\n      swap2\n      pop\n      pop\n      jump\t// out\n        /* \"#utility.yul\":2766:2884   */\n    tag_91:\n        /* \"#utility.yul\":2853:2877   */\n      tag_93\n        /* \"#utility.yul\":2871:2876   */\n      dup2\n        /* \"#utility.yul\":2853:2877   */\n      tag_94\n      jump\t// in\n    tag_93:\n        /* \"#utility.yul\":2848:2851   */\n      dup3\n        /* \"#utility.yul\":2841:2878   */\n      mstore\n        /* \"#utility.yul\":2766:2884   */\n      pop\n      pop\n      jump\t// out\n        /* \"#utility.yul\":2890:3847   */\n    tag_14:\n        /* \"#utility.yul\":3163:3167   */\n      0x00\n        /* \"#utility.yul\":3201:3204   */\n      0xc0\n        /* \"#utility.yul\":3190:3199   */\n      dup3\n        /* \"#utility.yul\":3186:3205   */\n      add\n        /* \"#utility.yul\":3178:3205   */\n      swap1\n      pop\n        /* \"#utility.yul\":3251:3260   */\n      dup2\n        /* \"#utility.yul\":3245:3249   */\n      dup2\n        /* \"#utility.yul\":3241:3261   */\n      sub\n        /* \"#utility.yul\":3237:3238   */\n      0x00\n        /* \"#utility.yul\":3226:3235   */\n      dup4\n        /* \"#utility.yul\":3222:3239   */\n      add\n        /* \"#utility.yul\":3215:3262   */\n      mstore\n        /* \"#utility.yul\":3279:3357   */\n      tag_96\n        /* \"#utility.yul\":3352:3356   */\n      dup2\n        /* \"#utility.yul\":3343:3349   */\n      dup10\n        /* \"#utility.yul\":3279:3357   */\n      tag_81\n      jump\t// in\n    tag_96:\n        /* \"#utility.yul\":3271:3357   */\n      swap1\n      pop\n        /* \"#utility.yul\":3367:3439   */\n      tag_97\n        /* \"#utility.yul\":3435:3437   */\n      0x20\n        /* \"#utility.yul\":3424:3433   */\n      dup4\n        /* \"#utility.yul\":3420:3438   */\n      add\n        /* \"#utility.yul\":3411:3417   */\n      dup9\n        /* \"#utility.yul\":3367:3439   */\n      tag_91\n      jump\t// in\n    tag_97:\n        /* \"#utility.yul\":3486:3495   */\n      dup2\n        /* \"#utility.yul\":3480:3484   */\n      dup2\n        /* \"#utility.yul\":3476:3496   */\n      sub\n        /* \"#utility.yul\":3471:3473   */\n      0x40\n        /* \"#utility.yul\":3460:3469   */\n      dup4\n        /* \"#utility.yul\":3456:3474   */\n      add\n        /* \"#utility.yul\":3449:3497   */\n      mstore\n        /* \"#utility.yul\":3514:3592   */\n      tag_98\n        /* \"#utility.yul\":3587:3591   */\n      dup2\n        /* \"#utility.yul\":3578:3584   */\n      dup8\n        /* \"#utility.yul\":3514:3592   */\n      tag_81\n      jump\t// in\n    tag_98:\n        /* \"#utility.yul\":3506:3592   */\n      swap1\n      pop\n        /* \"#utility.yul\":3602:3674   */\n      tag_99\n        /* \"#utility.yul\":3670:3672   */\n      0x60\n        /* \"#utility.yul\":3659:3668   */\n      dup4\n        /* \"#utility.yul\":3655:3673   */\n      add\n        /* \"#utility.yul\":3646:3652   */\n      dup7\n        /* \"#utility.yul\":3602:3674   */\n      tag_91\n      jump\t// in\n    tag_99:\n        /* \"#utility.yul\":3684:3757   */\n      tag_100\n        /* \"#utility.yul\":3752:3755   */\n      0x80\n        /* \"#utility.yul\":3741:3750   */\n      dup4\n        /* \"#utility.yul\":3737:3756   */\n      add\n        /* \"#utility.yul\":3728:3734   */\n      dup6\n        /* \"#utility.yul\":3684:3757   */\n      tag_91\n      jump\t// in\n    tag_100:\n        /* \"#utility.yul\":3767:3840   */\n      tag_101\n        /* \"#utility.yul\":3835:3838   */\n      0xa0\n        /* \"#utility.yul\":3824:3833   */\n      dup4\n        /* \"#utility.yul\":3820:3839   */\n      add\n        /* \"#utility.yul\":3811:3817   */\n      dup5\n        /* \"#utility.yul\":3767:3840   */\n      tag_91\n      jump\t// in\n    tag_101:\n        /* \"#utility.yul\":2890:3847   */\n      swap8\n      swap7\n      pop\n      pop\n      pop\n      pop\n      pop\n      pop\n      pop\n      jump\t// out\n        /* \"#utility.yul\":3853:3982   */\n    tag_48:\n        /* \"#utility.yul\":3887:3893   */\n      0x00\n        /* \"#utility.yul\":3914:3934   */\n      tag_103\n      tag_104\n      jump\t// in\n    tag_103:\n        /* \"#utility.yul\":3904:3934   */\n      swap1\n      pop\n        /* \"#utility.yul\":3943:3976   */\n      tag_105\n        /* \"#utility.yul\":3971:3975   */\n      dup3\n        /* \"#utility.yul\":3963:3969   */\n      dup3\n        /* \"#utility.yul\":3943:3976   */\n      tag_106\n      jump\t// in\n    tag_105:\n        /* \"#utility.yul\":3853:3982   */\n      swap2\n      swap1\n      pop\n      jump\t// out\n        /* \"#utility.yul\":3988:4063   */\n    tag_104:\n        /* \"#utility.yul\":4021:4027   */\n      0x00\n        /* \"#utility.yul\":4054:4056   */\n      0x40\n        /* \"#utility.yul\":4048:4057   */\n      mload\n        /* \"#utility.yul\":4038:4057   */\n      swap1\n      pop\n        /* \"#utility.yul\":3988:4063   */\n      swap1\n      jump\t// out\n        /* \"#utility.yul\":4069:4377   */\n    tag_47:\n        /* \"#utility.yul\":4131:4135   */\n      0x00\n        /* \"#utility.yul\":4221:4239   */\n      0xffffffffffffffff\n        /* \"#utility.yul\":4213:4219   */\n      dup3\n        /* \"#utility.yul\":4210:4240   */\n      gt\n        /* \"#utility.yul\":4207:4263   */\n      iszero\n      tag_109\n      jumpi\n        /* \"#utility.yul\":4243:4261   */\n      tag_110\n      tag_111\n      jump\t// in\n    tag_110:\n        /* \"#utility.yul\":4207:4263   */\n    tag_109:\n        /* \"#utility.yul\":4281:4310   */\n      tag_112\n        /* \"#utility.yul\":4303:4309   */\n      dup3\n        /* \"#utility.yul\":4281:4310   */\n      tag_90\n      jump\t// in\n    tag_112:\n        /* \"#utility.yul\":4273:4310   */\n      swap1\n      pop\n        /* \"#utility.yul\":4365:4369   */\n      0x20\n        /* \"#utility.yul\":4359:4363   */\n      dup2\n        /* \"#utility.yul\":4355:4370   */\n      add\n        /* \"#utility.yul\":4347:4370   */\n      swap1\n      pop\n        /* \"#utility.yul\":4069:4377   */\n      swap2\n      swap1\n      pop\n      jump\t// out\n        /* \"#utility.yul\":4383:4482   */\n    tag_84:\n        /* \"#utility.yul\":4435:4441   */\n      0x00\n        /* \"#utility.yul\":4469:4474   */\n      dup2\n        /* \"#utility.yul\":4463:4475   */\n      mload\n        /* \"#utility.yul\":4453:4475   */\n      swap1\n      pop\n        /* \"#utility.yul\":4383:4482   */\n      swap2\n      swap1\n      pop\n      jump\t// out\n        /* \"#utility.yul\":4488:4657   */\n    tag_86:\n        /* \"#utility.yul\":4572:4583   */\n      0x00\n        /* \"#utility.yul\":4606:4612   */\n      dup3\n        /* \"#utility.yul\":4601:4604   */\n      dup3\n        /* \"#utility.yul\":4594:4613   */\n      mstore\n        /* \"#utility.yul\":4646:4650   */\n      0x20\n        /* \"#utility.yul\":4641:4644   */\n      dup3\n        /* \"#utility.yul\":4637:4651   */\n      add\n        /* \"#utility.yul\":4622:4651   */\n      swap1\n      pop\n        /* \"#utility.yul\":4488:4657   */\n      swap3\n      swap2\n      pop\n      pop\n      jump\t// out\n        /* \"#utility.yul\":4663:4968   */\n    tag_20:\n        /* \"#utility.yul\":4703:4706   */\n      0x00\n        /* \"#utility.yul\":4722:4742   */\n      tag_116\n        /* \"#utility.yul\":4740:4741   */\n      dup3\n        /* \"#utility.yul\":4722:4742   */\n      tag_94\n      jump\t// in\n    tag_116:\n        /* \"#utility.yul\":4717:4742   */\n      swap2\n      pop\n        /* \"#utility.yul\":4756:4776   */\n      tag_117\n        /* \"#utility.yul\":4774:4775   */\n      dup4\n        /* \"#utility.yul\":4756:4776   */\n      tag_94\n      jump\t// in\n    tag_117:\n        /* \"#utility.yul\":4751:4776   */\n      swap3\n      pop\n        /* \"#utility.yul\":4910:4911   */\n      dup3\n        /* \"#utility.yul\":4842:4908   */\n      0xffffffffffffffffffffffffffffffffffffffffffffffffffffffffffffffff\n        /* \"#utility.yul\":4838:4912   */\n      sub\n        /* \"#utility.yul\":4835:4836   */\n      dup3\n        /* \"#utility.yul\":4832:4913   */\n      gt\n        /* \"#utility.yul\":4829:4936   */\n      iszero\n      tag_118\n      jumpi\n        /* \"#utility.yul\":4916:4934   */\n      tag_119\n      tag_120\n      jump\t// in\n    tag_119:\n        /* \"#utility.yul\":4829:4936   */\n    tag_118:\n        /* \"#utility.yul\":4960:4961   */\n      dup3\n        /* \"#utility.yul\":4957:4958   */\n      dup3\n        /* \"#utility.yul\":4953:4962   */\n      add\n        /* \"#utility.yul\":4946:4962   */\n      swap1\n      pop\n        /* \"#utility.yul\":4663:4968   */\n      swap3\n      swap2\n      pop\n      pop\n      jump\t// out\n        /* \"#utility.yul\":4974:5051   */\n    tag_94:\n        /* \"#utility.yul\":5011:5018   */\n      0x00\n        /* \"#utility.yul\":5040:5045   */\n      dup2\n        /* \"#utility.yul\":5029:5045   */\n      swap1\n      pop\n        /* \"#utility.yul\":4974:5051   */\n      swap2\n      swap1\n      pop\n      jump\t// out\n        /* \"#utility.yul\":5057:5211   */\n    tag_53:\n        /* \"#utility.yul\":5141:5147   */\n      dup3\n        /* \"#utility.yul\":5136:5139   */\n      dup2\n        /* \"#utility.yul\":5131:5134   */\n      dup4\n        /* \"#utility.yul\":5118:5148   */\n      calldatacopy\n        /* \"#utility.yul\":5203:5204   */\n      0x00\n        /* \"#utility.yul\":5194:5200   */\n      dup4\n        /* \"#utility.yul\":5189:5192   */\n      dup4\n        /* \"#utility.yul\":5185:5201   */\n      add\n        /* \"#utility.yul\":5178:5205   */\n      mstore\n        /* \"#utility.yul\":5057:5211   */\n      pop\n      pop\n      pop\n      jump\t// out\n        /* \"#utility.yul\":5217:5524   */\n    tag_88:\n        /* \"#utility.yul\":5285:5286   */\n      0x00\n        /* \"#utility.yul\":5295:5408   */\n    tag_124:\n        /* \"#utility.yul\":5309:5315   */\n      dup4\n        /* \"#utility.yul\":5306:5307   */\n      dup2\n        /* \"#utility.yul\":5303:5316   */\n      lt\n        /* \"#utility.yul\":5295:5408   */\n      iszero\n      tag_126\n      jumpi\n        /* \"#utility.yul\":5394:5395   */\n      dup1\n        /* \"#utility.yul\":5389:5392   */\n      dup3\n        /* \"#utility.yul\":5385:5396   */\n      add\n        /* \"#utility.yul\":5379:5397   */\n      mload\n        /* \"#utility.yul\":5375:5376   */\n      dup2\n        /* \"#utility.yul\":5370:5373   */\n      dup5\n        /* \"#utility.yul\":5366:5377   */\n      add\n        /* \"#utility.yul\":5359:5398   */\n      mstore\n        /* \"#utility.yul\":5331:5333   */\n      0x20\n        /* \"#utility.yul\":5328:5329   */\n      dup2\n        /* \"#utility.yul\":5324:5334   */\n      add\n        /* \"#utility.yul\":5319:5334   */\n      swap1\n      pop\n        /* \"#utility.yul\":5295:5408   */\n      jump(tag_124)\n    tag_126:\n        /* \"#utility.yul\":5426:5432   */\n      dup4\n        /* \"#utility.yul\":5423:5424   */\n      dup2\n        /* \"#utility.yul\":5420:5433   */\n      gt\n        /* \"#utility.yul\":5417:5518   */\n      iszero\n      tag_127\n      jumpi\n        /* \"#utility.yul\":5506:5507   */\n      0x00\n        /* \"#utility.yul\":5497:5503   */\n      dup5\n        /* \"#utility.yul\":5492:5495   */\n      dup5\n        /* \"#utility.yul\":5488:5504   */\n      add\n        /* \"#utility.yul\":5481:5508   */\n      mstore\n        /* \"#utility.yul\":5417:5518   */\n    tag_127:\n        /* \"#utility.yul\":5266:5524   */\n      pop\n        /* \"#utility.yul\":5217:5524   */\n      pop\n      pop\n      pop\n      jump\t// out\n        /* \"#utility.yul\":5530:5850   */\n    tag_22:\n        /* \"#utility.yul\":5574:5580   */\n      0x00\n        /* \"#utility.yul\":5611:5612   */\n      0x02\n        /* \"#utility.yul\":5605:5609   */\n      dup3\n        /* \"#utility.yul\":5601:5613   */\n      div\n        /* \"#utility.yul\":5591:5613   */\n      swap1\n      pop\n        /* \"#utility.yul\":5658:5659   */\n      0x01\n        /* \"#utility.yul\":5652:5656   */\n      dup3\n        /* \"#utility.yul\":5648:5660   */\n      and\n        /* \"#utility.yul\":5679:5697   */\n      dup1\n        /* \"#utility.yul\":5669:5750   */\n      tag_129\n      jumpi\n        /* \"#utility.yul\":5735:5739   */\n      0x7f\n        /* \"#utility.yul\":5727:5733   */\n      dup3\n        /* \"#utility.yul\":5723:5740   */\n      and\n        /* \"#utility.yul\":5713:5740   */\n      swap2\n      pop\n        /* \"#utility.yul\":5669:5750   */\n    tag_129:\n        /* \"#utility.yul\":5797:5799   */\n      0x20\n        /* \"#utility.yul\":5789:5795   */\n      dup3\n        /* \"#utility.yul\":5786:5800   */\n      lt\n        /* \"#utility.yul\":5766:5784   */\n      dup2\n        /* \"#utility.yul\":5763:5801   */\n      eq\n        /* \"#utility.yul\":5760:5844   */\n      iszero\n      tag_130\n      jumpi\n        /* \"#utility.yul\":5816:5834   */\n      tag_131\n      tag_132\n      jump\t// in\n    tag_131:\n        /* \"#utility.yul\":5760:5844   */\n    tag_130:\n        /* \"#utility.yul\":5581:5850   */\n      pop\n        /* \"#utility.yul\":5530:5850   */\n      swap2\n      swap1\n      pop\n      jump\t// out\n        /* \"#utility.yul\":5856:6137   */\n    tag_106:\n        /* \"#utility.yul\":5939:5966   */\n      tag_134\n        /* \"#utility.yul\":5961:5965   */\n      dup3\n        /* \"#utility.yul\":5939:5966   */\n      tag_90\n      jump\t// in\n    tag_134:\n        /* \"#utility.yul\":5931:5937   */\n      dup2\n        /* \"#utility.yul\":5927:5967   */\n      add\n        /* \"#utility.yul\":6069:6075   */\n      dup2\n        /* \"#utility.yul\":6057:6067   */\n      dup2\n        /* \"#utility.yul\":6054:6076   */\n      lt\n        /* \"#utility.yul\":6033:6051   */\n      0xffffffffffffffff\n        /* \"#utility.yul\":6021:6031   */\n      dup3\n        /* \"#utility.yul\":6018:6052   */\n      gt\n        /* \"#utility.yul\":6015:6077   */\n      or\n        /* \"#utility.yul\":6012:6100   */\n      iszero\n      tag_135\n      jumpi\n        /* \"#utility.yul\":6080:6098   */\n      tag_136\n      tag_111\n      jump\t// in\n    tag_136:\n        /* \"#utility.yul\":6012:6100   */\n    tag_135:\n        /* \"#utility.yul\":6120:6130   */\n      dup1\n        /* \"#utility.yul\":6116:6118   */\n      0x40\n        /* \"#utility.yul\":6109:6131   */\n      mstore\n        /* \"#utility.yul\":5899:6137   */\n      pop\n        /* \"#utility.yul\":5856:6137   */\n      pop\n      pop\n      jump\t// out\n        /* \"#utility.yul\":6143:6323   */\n    tag_120:\n        /* \"#utility.yul\":6191:6268   */\n      0x4e487b7100000000000000000000000000000000000000000000000000000000\n        /* \"#utility.yul\":6188:6189   */\n      0x00\n        /* \"#utility.yul\":6181:6269   */\n      mstore\n        /* \"#utility.yul\":6288:6292   */\n      0x11\n        /* \"#utility.yul\":6285:6286   */\n      0x04\n        /* \"#utility.yul\":6278:6293   */\n      mstore\n        /* \"#utility.yul\":6312:6316   */\n      0x24\n        /* \"#utility.yul\":6309:6310   */\n      0x00\n        /* \"#utility.yul\":6302:6317   */\n      revert\n        /* \"#utility.yul\":6329:6509   */\n    tag_132:\n        /* \"#utility.yul\":6377:6454   */\n      0x4e487b7100000000000000000000000000000000000000000000000000000000\n        /* \"#utility.yul\":6374:6375   */\n      0x00\n        /* \"#utility.yul\":6367:6455   */\n      mstore\n        /* \"#utility.yul\":6474:6478   */\n      0x22\n        /* \"#utility.yul\":6471:6472   */\n      0x04\n        /* \"#utility.yul\":6464:6479   */\n      mstore\n        /* \"#utility.yul\":6498:6502   */\n      0x24\n        /* \"#utility.yul\":6495:6496   */\n      0x00\n        /* \"#utility.yul\":6488:6503   */\n      revert\n        /* \"#utility.yul\":6515:6695   */\n    tag_111:\n        /* \"#utility.yul\":6563:6640   */\n      0x4e487b7100000000000000000000000000000000000000000000000000000000\n        /* \"#utility.yul\":6560:6561   */\n      0x00\n        /* \"#utility.yul\":6553:6641   */\n      mstore\n        /* \"#utility.yul\":6660:6664   */\n      0x41\n        /* \"#utility.yul\":6657:6658   */\n      0x04\n        /* \"#utility.yul\":6650:6665   */\n      mstore\n        /* \"#utility.yul\":6684:6688   */\n      0x24\n        /* \"#utility.yul\":6681:6682   */\n      0x00\n        /* \"#utility.yul\":6674:6689   */\n      revert\n        /* \"#utility.yul\":6701:6818   */\n    tag_58:\n        /* \"#utility.yul\":6810:6811   */\n      0x00\n        /* \"#utility.yul\":6807:6808   */\n      dup1\n        /* \"#utility.yul\":6800:6812   */\n      revert\n        /* \"#utility.yul\":6824:6941   */\n    tag_51:\n        /* \"#utility.yul\":6933:6934   */\n      0x00\n        /* \"#utility.yul\":6930:6931   */\n      dup1\n        /* \"#utility.yul\":6923:6935   */\n      revert\n        /* \"#utility.yul\":6947:7064   */\n    tag_70:\n        /* \"#utility.yul\":7056:7057   */\n      0x00\n        /* \"#utility.yul\":7053:7054   */\n      dup1\n        /* \"#utility.yul\":7046:7058   */\n      revert\n        /* \"#utility.yul\":7070:7187   */\n    tag_67:\n        /* \"#utility.yul\":7179:7180   */\n      0x00\n        /* \"#utility.yul\":7176:7177   */\n      dup1\n        /* \"#utility.yul\":7169:7181   */\n      revert\n        /* \"#utility.yul\":7193:7295   */\n    tag_90:\n        /* \"#utility.yul\":7234:7240   */\n      0x00\n        /* \"#utility.yul\":7285:7287   */\n      0x1f\n        /* \"#utility.yul\":7281:7288   */\n      not\n        /* \"#utility.yul\":7276:7278   */\n      0x1f\n        /* \"#utility.yul\":7269:7274   */\n      dup4\n        /* \"#utility.yul\":7265:7279   */\n      add\n        /* \"#utility.yul\":7261:7289   */\n      and\n        /* \"#utility.yul\":7251:7289   */\n      swap1\n      pop\n        /* \"#utility.yul\":7193:7295   */\n      swap2\n      swap1\n      pop\n      jump\t// out\n        /* \"#utility.yul\":7301:7423   */\n    tag_63:\n        /* \"#utility.yul\":7374:7398   */\n      tag_146\n        /* \"#utility.yul\":7392:7397   */\n      dup2\n        /* \"#utility.yul\":7374:7398   */\n      tag_94\n      jump\t// in\n    tag_146:\n        /* \"#utility.yul\":7367:7372   */\n      dup2\n        /* \"#utility.yul\":7364:7399   */\n      eq\n        /* \"#utility.yul\":7354:7417   */\n      tag_147\n      jumpi\n        /* \"#utility.yul\":7413:7414   */\n      0x00\n        /* \"#utility.yul\":7410:7411   */\n      dup1\n        /* \"#utility.yul\":7403:7415   */\n      revert\n        /* \"#utility.yul\":7354:7417   */\n    tag_147:\n        /* \"#utility.yul\":7301:7423   */\n      pop\n      jump\t// out\n\n    auxdata: 0xa2646970667358221220fb9b7a8bc5a017d0bcc179141942e8af8b33cd60f676fc60db69853e0e61ed0264736f6c63430008070033\n}\n",
				"bytecode": {
					"linkReferences": {},
					"object": "6080604052600160005534801561001557600080fd5b506107e2806100256000396000f3fe608060405234801561001057600080fd5b50600436106100365760003560e01c806378529ead1461003b5780638668b9be14610057575b600080fd5b610055600480360381019061005091906103e9565b61008c565b005b610071600480360381019061006c9190610488565b610175565b604051610083969594939291906104fd565b60405180910390f35b83600160008054815260200190815260200160002060000190805190602001906100b79291906102c1565b5082600160008054815260200190815260200160002060020190805190602001906100e39291906102c1565b50816001600080548152602001908152602001600020600101819055508060016000805481526020019081526020016000206003018190555060005460016000805481526020019081526020016000206004018190555042600160008054815260200190815260200160002060050181905550600160008082825461016891906105de565b9250508190555050505050565b600160205280600052604060002060009150905080600001805461019890610680565b80601f01602080910402602001604051908101604052809291908181526020018280546101c490610680565b80156102115780601f106101e657610100808354040283529160200191610211565b820191906000526020600020905b8154815290600101906020018083116101f457829003601f168201915b50505050509080600101549080600201805461022c90610680565b80601f016020809104026020016040519081016040528092919081815260200182805461025890610680565b80156102a55780601f1061027a576101008083540402835291602001916102a5565b820191906000526020600020905b81548152906001019060200180831161028857829003601f168201915b5050505050908060030154908060040154908060050154905086565b8280546102cd90610680565b90600052602060002090601f0160209004810192826102ef5760008555610336565b82601f1061030857805160ff1916838001178555610336565b82800160010185558215610336579182015b8281111561033557825182559160200191906001019061031a565b5b5090506103439190610347565b5090565b5b80821115610360576000816000905550600101610348565b5090565b600061037761037284610591565b61056c565b90508281526020810184848401111561039357610392610775565b5b61039e84828561063e565b509392505050565b600082601f8301126103bb576103ba610770565b5b81356103cb848260208601610364565b91505092915050565b6000813590506103e381610795565b92915050565b600080600080608085870312156104035761040261077f565b5b600085013567ffffffffffffffff8111156104215761042061077a565b5b61042d878288016103a6565b945050602085013567ffffffffffffffff81111561044e5761044d61077a565b5b61045a878288016103a6565b935050604061046b878288016103d4565b925050606061047c878288016103d4565b91505092959194509250565b60006020828403121561049e5761049d61077f565b5b60006104ac848285016103d4565b91505092915050565b60006104c0826105c2565b6104ca81856105cd565b93506104da81856020860161064d565b6104e381610784565b840191505092915050565b6104f781610634565b82525050565b600060c082019050818103600083015261051781896104b5565b905061052660208301886104ee565b818103604083015261053881876104b5565b905061054760608301866104ee565b61055460808301856104ee565b61056160a08301846104ee565b979650505050505050565b6000610576610587565b905061058282826106b2565b919050565b6000604051905090565b600067ffffffffffffffff8211156105ac576105ab610741565b5b6105b582610784565b9050602081019050919050565b600081519050919050565b600082825260208201905092915050565b60006105e982610634565b91506105f483610634565b9250827fffffffffffffffffffffffffffffffffffffffffffffffffffffffffffffffff03821115610629576106286106e3565b5b828201905092915050565b6000819050919050565b82818337600083830152505050565b60005b8381101561066b578082015181840152602081019050610650565b8381111561067a576000848401525b50505050565b6000600282049050600182168061069857607f821691505b602082108114156106ac576106ab610712565b5b50919050565b6106bb82610784565b810181811067ffffffffffffffff821117156106da576106d9610741565b5b80604052505050565b7f4e487b7100000000000000000000000000000000000000000000000000000000600052601160045260246000fd5b7f4e487b7100000000000000000000000000000000000000000000000000000000600052602260045260246000fd5b7f4e487b7100000000000000000000000000000000000000000000000000000000600052604160045260246000fd5b600080fd5b600080fd5b600080fd5b600080fd5b6000601f19601f8301169050919050565b61079e81610634565b81146107a957600080fd5b5056fea2646970667358221220fb9b7a8bc5a017d0bcc179141942e8af8b33cd60f676fc60db69853e0e61ed0264736f6c63430008070033",
					"opcodes": "PUSH1 0x80 PUSH1 0x40 MSTORE PUSH1 0x1 PUSH1 0x0 SSTORE CALLVALUE DUP1 ISZERO PUSH2 0x15 JUMPI PUSH1 0x0 DUP1 REVERT JUMPDEST POP PUSH2 0x7E2 DUP1 PUSH2 0x25 PUSH1 0x0 CODECOPY PUSH1 0x0 RETURN INVALID PUSH1 0x80 PUSH1 0x40 MSTORE CALLVALUE DUP1 ISZERO PUSH2 0x10 JUMPI PUSH1 0x0 DUP1 REVERT JUMPDEST POP PUSH1 0x4 CALLDATASIZE LT PUSH2 0x36 JUMPI PUSH1 0x0 CALLDATALOAD PUSH1 0xE0 SHR DUP1 PUSH4 0x78529EAD EQ PUSH2 0x3B JUMPI DUP1 PUSH4 0x8668B9BE EQ PUSH2 0x57 JUMPI JUMPDEST PUSH1 0x0 DUP1 REVERT JUMPDEST PUSH2 0x55 PUSH1 0x4 DUP1 CALLDATASIZE SUB DUP2 ADD SWAP1 PUSH2 0x50 SWAP2 SWAP1 PUSH2 0x3E9 JUMP JUMPDEST PUSH2 0x8C JUMP JUMPDEST STOP JUMPDEST PUSH2 0x71 PUSH1 0x4 DUP1 CALLDATASIZE SUB DUP2 ADD SWAP1 PUSH2 0x6C SWAP2 SWAP1 PUSH2 0x488 JUMP JUMPDEST PUSH2 0x175 JUMP JUMPDEST PUSH1 0x40 MLOAD PUSH2 0x83 SWAP7 SWAP6 SWAP5 SWAP4 SWAP3 SWAP2 SWAP1 PUSH2 0x4FD JUMP JUMPDEST PUSH1 0x40 MLOAD DUP1 SWAP2 SUB SWAP1 RETURN JUMPDEST DUP4 PUSH1 0x1 PUSH1 0x0 DUP1 SLOAD DUP2 MSTORE PUSH1 0x20 ADD SWAP1 DUP2 MSTORE PUSH1 0x20 ADD PUSH1 0x0 KECCAK256 PUSH1 0x0 ADD SWAP1 DUP1 MLOAD SWAP1 PUSH1 0x20 ADD SWAP1 PUSH2 0xB7 SWAP3 SWAP2 SWAP1 PUSH2 0x2C1 JUMP JUMPDEST POP DUP3 PUSH1 0x1 PUSH1 0x0 DUP1 SLOAD DUP2 MSTORE PUSH1 0x20 ADD SWAP1 DUP2 MSTORE PUSH1 0x20 ADD PUSH1 0x0 KECCAK256 PUSH1 0x2 ADD SWAP1 DUP1 MLOAD SWAP1 PUSH1 0x20 ADD SWAP1 PUSH2 0xE3 SWAP3 SWAP2 SWAP1 PUSH2 0x2C1 JUMP JUMPDEST POP DUP2 PUSH1 0x1 PUSH1 0x0 DUP1 SLOAD DUP2 MSTORE PUSH1 0x20 ADD SWAP1 DUP2 MSTORE PUSH1 0x20 ADD PUSH1 0x0 KECCAK256 PUSH1 0x1 ADD DUP2 SWAP1 SSTORE POP DUP1 PUSH1 0x1 PUSH1 0x0 DUP1 SLOAD DUP2 MSTORE PUSH1 0x20 ADD SWAP1 DUP2 MSTORE PUSH1 0x20 ADD PUSH1 0x0 KECCAK256 PUSH1 0x3 ADD DUP2 SWAP1 SSTORE POP PUSH1 0x0 SLOAD PUSH1 0x1 PUSH1 0x0 DUP1 SLOAD DUP2 MSTORE PUSH1 0x20 ADD SWAP1 DUP2 MSTORE PUSH1 0x20 ADD PUSH1 0x0 KECCAK256 PUSH1 0x4 ADD DUP2 SWAP1 SSTORE POP TIMESTAMP PUSH1 0x1 PUSH1 0x0 DUP1 SLOAD DUP2 MSTORE PUSH1 0x20 ADD SWAP1 DUP2 MSTORE PUSH1 0x20 ADD PUSH1 0x0 KECCAK256 PUSH1 0x5 ADD DUP2 SWAP1 SSTORE POP PUSH1 0x1 PUSH1 0x0 DUP1 DUP3 DUP3 SLOAD PUSH2 0x168 SWAP2 SWAP1 PUSH2 0x5DE JUMP JUMPDEST SWAP3 POP POP DUP2 SWAP1 SSTORE POP POP POP POP POP JUMP JUMPDEST PUSH1 0x1 PUSH1 0x20 MSTORE DUP1 PUSH1 0x0 MSTORE PUSH1 0x40 PUSH1 0x0 KECCAK256 PUSH1 0x0 SWAP2 POP SWAP1 POP DUP1 PUSH1 0x0 ADD DUP1 SLOAD PUSH2 0x198 SWAP1 PUSH2 0x680 JUMP JUMPDEST DUP1 PUSH1 0x1F ADD PUSH1 0x20 DUP1 SWAP2 DIV MUL PUSH1 0x20 ADD PUSH1 0x40 MLOAD SWAP1 DUP2 ADD PUSH1 0x40 MSTORE DUP1 SWAP3 SWAP2 SWAP1 DUP2 DUP2 MSTORE PUSH1 0x20 ADD DUP3 DUP1 SLOAD PUSH2 0x1C4 SWAP1 PUSH2 0x680 JUMP JUMPDEST DUP1 ISZERO PUSH2 0x211 JUMPI DUP1 PUSH1 0x1F LT PUSH2 0x1E6 JUMPI PUSH2 0x100 DUP1 DUP4 SLOAD DIV MUL DUP4 MSTORE SWAP2 PUSH1 0x20 ADD SWAP2 PUSH2 0x211 JUMP JUMPDEST DUP3 ADD SWAP2 SWAP1 PUSH1 0x0 MSTORE PUSH1 0x20 PUSH1 0x0 KECCAK256 SWAP1 JUMPDEST DUP2 SLOAD DUP2 MSTORE SWAP1 PUSH1 0x1 ADD SWAP1 PUSH1 0x20 ADD DUP1 DUP4 GT PUSH2 0x1F4 JUMPI DUP3 SWAP1 SUB PUSH1 0x1F AND DUP3 ADD SWAP2 JUMPDEST POP POP POP POP POP SWAP1 DUP1 PUSH1 0x1 ADD SLOAD SWAP1 DUP1 PUSH1 0x2 ADD DUP1 SLOAD PUSH2 0x22C SWAP1 PUSH2 0x680 JUMP JUMPDEST DUP1 PUSH1 0x1F ADD PUSH1 0x20 DUP1 SWAP2 DIV MUL PUSH1 0x20 ADD PUSH1 0x40 MLOAD SWAP1 DUP2 ADD PUSH1 0x40 MSTORE DUP1 SWAP3 SWAP2 SWAP1 DUP2 DUP2 MSTORE PUSH1 0x20 ADD DUP3 DUP1 SLOAD PUSH2 0x258 SWAP1 PUSH2 0x680 JUMP JUMPDEST DUP1 ISZERO PUSH2 0x2A5 JUMPI DUP1 PUSH1 0x1F LT PUSH2 0x27A JUMPI PUSH2 0x100 DUP1 DUP4 SLOAD DIV MUL DUP4 MSTORE SWAP2 PUSH1 0x20 ADD SWAP2 PUSH2 0x2A5 JUMP JUMPDEST DUP3 ADD SWAP2 SWAP1 PUSH1 0x0 MSTORE PUSH1 0x20 PUSH1 0x0 KECCAK256 SWAP1 JUMPDEST DUP2 SLOAD DUP2 MSTORE SWAP1 PUSH1 0x1 ADD SWAP1 PUSH1 0x20 ADD DUP1 DUP4 GT PUSH2 0x288 JUMPI DUP3 SWAP1 SUB PUSH1 0x1F AND DUP3 ADD SWAP2 JUMPDEST POP POP POP POP POP SWAP1 DUP1 PUSH1 0x3 ADD SLOAD SWAP1 DUP1 PUSH1 0x4 ADD SLOAD SWAP1 DUP1 PUSH1 0x5 ADD SLOAD SWAP1 POP DUP7 JUMP JUMPDEST DUP3 DUP1 SLOAD PUSH2 0x2CD SWAP1 PUSH2 0x680 JUMP JUMPDEST SWAP1 PUSH1 0x0 MSTORE PUSH1 0x20 PUSH1 0x0 KECCAK256 SWAP1 PUSH1 0x1F ADD PUSH1 0x20 SWAP1 DIV DUP2 ADD SWAP3 DUP3 PUSH2 0x2EF JUMPI PUSH1 0x0 DUP6 SSTORE PUSH2 0x336 JUMP JUMPDEST DUP3 PUSH1 0x1F LT PUSH2 0x308 JUMPI DUP1 MLOAD PUSH1 0xFF NOT AND DUP4 DUP1 ADD OR DUP6 SSTORE PUSH2 0x336 JUMP JUMPDEST DUP3 DUP1 ADD PUSH1 0x1 ADD DUP6 SSTORE DUP3 ISZERO PUSH2 0x336 JUMPI SWAP2 DUP3 ADD JUMPDEST DUP3 DUP2 GT ISZERO PUSH2 0x335 JUMPI DUP3 MLOAD DUP3 SSTORE SWAP2 PUSH1 0x20 ADD SWAP2 SWAP1 PUSH1 0x1 ADD SWAP1 PUSH2 0x31A JUMP JUMPDEST JUMPDEST POP SWAP1 POP PUSH2 0x343 SWAP2 SWAP1 PUSH2 0x347 JUMP JUMPDEST POP SWAP1 JUMP JUMPDEST JUMPDEST DUP1 DUP3 GT ISZERO PUSH2 0x360 JUMPI PUSH1 0x0 DUP2 PUSH1 0x0 SWAP1 SSTORE POP PUSH1 0x1 ADD PUSH2 0x348 JUMP JUMPDEST POP SWAP1 JUMP JUMPDEST PUSH1 0x0 PUSH2 0x377 PUSH2 0x372 DUP5 PUSH2 0x591 JUMP JUMPDEST PUSH2 0x56C JUMP JUMPDEST SWAP1 POP DUP3 DUP2 MSTORE PUSH1 0x20 DUP2 ADD DUP5 DUP5 DUP5 ADD GT ISZERO PUSH2 0x393 JUMPI PUSH2 0x392 PUSH2 0x775 JUMP JUMPDEST JUMPDEST PUSH2 0x39E DUP5 DUP3 DUP6 PUSH2 0x63E JUMP JUMPDEST POP SWAP4 SWAP3 POP POP POP JUMP JUMPDEST PUSH1 0x0 DUP3 PUSH1 0x1F DUP4 ADD SLT PUSH2 0x3BB JUMPI PUSH2 0x3BA PUSH2 0x770 JUMP JUMPDEST JUMPDEST DUP2 CALLDATALOAD PUSH2 0x3CB DUP5 DUP3 PUSH1 0x20 DUP7 ADD PUSH2 0x364 JUMP JUMPDEST SWAP2 POP POP SWAP3 SWAP2 POP POP JUMP JUMPDEST PUSH1 0x0 DUP2 CALLDATALOAD SWAP1 POP PUSH2 0x3E3 DUP2 PUSH2 0x795 JUMP JUMPDEST SWAP3 SWAP2 POP POP JUMP JUMPDEST PUSH1 0x0 DUP1 PUSH1 0x0 DUP1 PUSH1 0x80 DUP6 DUP8 SUB SLT ISZERO PUSH2 0x403 JUMPI PUSH2 0x402 PUSH2 0x77F JUMP JUMPDEST JUMPDEST PUSH1 0x0 DUP6 ADD CALLDATALOAD PUSH8 0xFFFFFFFFFFFFFFFF DUP2 GT ISZERO PUSH2 0x421 JUMPI PUSH2 0x420 PUSH2 0x77A JUMP JUMPDEST JUMPDEST PUSH2 0x42D DUP8 DUP3 DUP9 ADD PUSH2 0x3A6 JUMP JUMPDEST SWAP5 POP POP PUSH1 0x20 DUP6 ADD CALLDATALOAD PUSH8 0xFFFFFFFFFFFFFFFF DUP2 GT ISZERO PUSH2 0x44E JUMPI PUSH2 0x44D PUSH2 0x77A JUMP JUMPDEST JUMPDEST PUSH2 0x45A DUP8 DUP3 DUP9 ADD PUSH2 0x3A6 JUMP JUMPDEST SWAP4 POP POP PUSH1 0x40 PUSH2 0x46B DUP8 DUP3 DUP9 ADD PUSH2 0x3D4 JUMP JUMPDEST SWAP3 POP POP PUSH1 0x60 PUSH2 0x47C DUP8 DUP3 DUP9 ADD PUSH2 0x3D4 JUMP JUMPDEST SWAP2 POP POP SWAP3 SWAP6 SWAP2 SWAP5 POP SWAP3 POP JUMP JUMPDEST PUSH1 0x0 PUSH1 0x20 DUP3 DUP5 SUB SLT ISZERO PUSH2 0x49E JUMPI PUSH2 0x49D PUSH2 0x77F JUMP JUMPDEST JUMPDEST PUSH1 0x0 PUSH2 0x4AC DUP5 DUP3 DUP6 ADD PUSH2 0x3D4 JUMP JUMPDEST SWAP2 POP POP SWAP3 SWAP2 POP POP JUMP JUMPDEST PUSH1 0x0 PUSH2 0x4C0 DUP3 PUSH2 0x5C2 JUMP JUMPDEST PUSH2 0x4CA DUP2 DUP6 PUSH2 0x5CD JUMP JUMPDEST SWAP4 POP PUSH2 0x4DA DUP2 DUP6 PUSH1 0x20 DUP7 ADD PUSH2 0x64D JUMP JUMPDEST PUSH2 0x4E3 DUP2 PUSH2 0x784 JUMP JUMPDEST DUP5 ADD SWAP2 POP POP SWAP3 SWAP2 POP POP JUMP JUMPDEST PUSH2 0x4F7 DUP2 PUSH2 0x634 JUMP JUMPDEST DUP3 MSTORE POP POP JUMP JUMPDEST PUSH1 0x0 PUSH1 0xC0 DUP3 ADD SWAP1 POP DUP2 DUP2 SUB PUSH1 0x0 DUP4 ADD MSTORE PUSH2 0x517 DUP2 DUP10 PUSH2 0x4B5 JUMP JUMPDEST SWAP1 POP PUSH2 0x526 PUSH1 0x20 DUP4 ADD DUP9 PUSH2 0x4EE JUMP JUMPDEST DUP2 DUP2 SUB PUSH1 0x40 DUP4 ADD MSTORE PUSH2 0x538 DUP2 DUP8 PUSH2 0x4B5 JUMP JUMPDEST SWAP1 POP PUSH2 0x547 PUSH1 0x60 DUP4 ADD DUP7 PUSH2 0x4EE JUMP JUMPDEST PUSH2 0x554 PUSH1 0x80 DUP4 ADD DUP6 PUSH2 0x4EE JUMP JUMPDEST PUSH2 0x561 PUSH1 0xA0 DUP4 ADD DUP5 PUSH2 0x4EE JUMP JUMPDEST SWAP8 SWAP7 POP POP POP POP POP POP POP JUMP JUMPDEST PUSH1 0x0 PUSH2 0x576 PUSH2 0x587 JUMP JUMPDEST SWAP1 POP PUSH2 0x582 DUP3 DUP3 PUSH2 0x6B2 JUMP JUMPDEST SWAP2 SWAP1 POP JUMP JUMPDEST PUSH1 0x0 PUSH1 0x40 MLOAD SWAP1 POP SWAP1 JUMP JUMPDEST PUSH1 0x0 PUSH8 0xFFFFFFFFFFFFFFFF DUP3 GT ISZERO PUSH2 0x5AC JUMPI PUSH2 0x5AB PUSH2 0x741 JUMP JUMPDEST JUMPDEST PUSH2 0x5B5 DUP3 PUSH2 0x784 JUMP JUMPDEST SWAP1 POP PUSH1 0x20 DUP2 ADD SWAP1 POP SWAP2 SWAP1 POP JUMP JUMPDEST PUSH1 0x0 DUP2 MLOAD SWAP1 POP SWAP2 SWAP1 POP JUMP JUMPDEST PUSH1 0x0 DUP3 DUP3 MSTORE PUSH1 0x20 DUP3 ADD SWAP1 POP SWAP3 SWAP2 POP POP JUMP JUMPDEST PUSH1 0x0 PUSH2 0x5E9 DUP3 PUSH2 0x634 JUMP JUMPDEST SWAP2 POP PUSH2 0x5F4 DUP4 PUSH2 0x634 JUMP JUMPDEST SWAP3 POP DUP3 PUSH32 0xFFFFFFFFFFFFFFFFFFFFFFFFFFFFFFFFFFFFFFFFFFFFFFFFFFFFFFFFFFFFFFFF SUB DUP3 GT ISZERO PUSH2 0x629 JUMPI PUSH2 0x628 PUSH2 0x6E3 JUMP JUMPDEST JUMPDEST DUP3 DUP3 ADD SWAP1 POP SWAP3 SWAP2 POP POP JUMP JUMPDEST PUSH1 0x0 DUP2 SWAP1 POP SWAP2 SWAP1 POP JUMP JUMPDEST DUP3 DUP2 DUP4 CALLDATACOPY PUSH1 0x0 DUP4 DUP4 ADD MSTORE POP POP POP JUMP JUMPDEST PUSH1 0x0 JUMPDEST DUP4 DUP2 LT ISZERO PUSH2 0x66B JUMPI DUP1 DUP3 ADD MLOAD DUP2 DUP5 ADD MSTORE PUSH1 0x20 DUP2 ADD SWAP1 POP PUSH2 0x650 JUMP JUMPDEST DUP4 DUP2 GT ISZERO PUSH2 0x67A JUMPI PUSH1 0x0 DUP5 DUP5 ADD MSTORE JUMPDEST POP POP POP POP JUMP JUMPDEST PUSH1 0x0 PUSH1 0x2 DUP3 DIV SWAP1 POP PUSH1 0x1 DUP3 AND DUP1 PUSH2 0x698 JUMPI PUSH1 0x7F DUP3 AND SWAP2 POP JUMPDEST PUSH1 0x20 DUP3 LT DUP2 EQ ISZERO PUSH2 0x6AC JUMPI PUSH2 0x6AB PUSH2 0x712 JUMP JUMPDEST JUMPDEST POP SWAP2 SWAP1 POP JUMP JUMPDEST PUSH2 0x6BB DUP3 PUSH2 0x784 JUMP JUMPDEST DUP2 ADD DUP2 DUP2 LT PUSH8 0xFFFFFFFFFFFFFFFF DUP3 GT OR ISZERO PUSH2 0x6DA JUMPI PUSH2 0x6D9 PUSH2 0x741 JUMP JUMPDEST JUMPDEST DUP1 PUSH1 0x40 MSTORE POP POP POP JUMP JUMPDEST PUSH32 0x4E487B7100000000000000000000000000000000000000000000000000000000 PUSH1 0x0 MSTORE PUSH1 0x11 PUSH1 0x4 MSTORE PUSH1 0x24 PUSH1 0x0 REVERT JUMPDEST PUSH32 0x4E487B7100000000000000000000000000000000000000000000000000000000 PUSH1 0x0 MSTORE PUSH1 0x22 PUSH1 0x4 MSTORE PUSH1 0x24 PUSH1 0x0 REVERT JUMPDEST PUSH32 0x4E487B7100000000000000000000000000000000000000000000000000000000 PUSH1 0x0 MSTORE PUSH1 0x41 PUSH1 0x4 MSTORE PUSH1 0x24 PUSH1 0x0 REVERT JUMPDEST PUSH1 0x0 DUP1 REVERT JUMPDEST PUSH1 0x0 DUP1 REVERT JUMPDEST PUSH1 0x0 DUP1 REVERT JUMPDEST PUSH1 0x0 DUP1 REVERT JUMPDEST PUSH1 0x0 PUSH1 0x1F NOT PUSH1 0x1F DUP4 ADD AND SWAP1 POP SWAP2 SWAP1 POP JUMP JUMPDEST PUSH2 0x79E DUP2 PUSH2 0x634 JUMP JUMPDEST DUP2 EQ PUSH2 0x7A9 JUMPI PUSH1 0x0 DUP1 REVERT JUMPDEST POP JUMP INVALID LOG2 PUSH5 0x6970667358 0x22 SLT KECCAK256 0xFB SWAP12 PUSH27 0x8BC5A017D0BCC179141942E8AF8B33CD60F676FC60DB69853E0E61 0xED MUL PUSH5 0x736F6C6343 STOP ADDMOD SMOD STOP CALLER "
				},
				"gasEstimates": {
					"creation": {
						"codeDepositCost": "403600",
						"executionCost": "22549",
						"totalCost": "426149"
					},
					"external": {
						"StudentDataBase(uint256)": "infinite",
						"addStudent(string,string,uint256,uint256)": "infinite"
					}
				},
				"methodIdentifiers": {
					"StudentDataBase(uint256)": "8668b9be",
					"addStudent(string,string,uint256,uint256)": "78529ead"
				}
			},
			"storageLayout": {
				"storage": [
					{
						"astId": 17,
						"contract": "contracts/Property.sol:Property",
						"label": "_rollno",
						"offset": 0,
						"slot": "0",
						"type": "t_uint256"
					},
					{
						"astId": 22,
						"contract": "contracts/Property.sol:Property",
						"label": "StudentDataBase",
						"offset": 0,
						"slot": "1",
						"type": "t_mapping(t_uint256,t_struct(Student)14_storage)"
					}
				],
				"types": {
					"t_mapping(t_uint256,t_struct(Student)14_storage)": {
						"encoding": "mapping",
						"key": "t_uint256",
						"label": "mapping(uint256 => struct Property.Student)",
						"numberOfBytes": "32",
						"value": "t_struct(Student)14_storage"
					},
					"t_string_storage": {
						"encoding": "bytes",
						"label": "string",
						"numberOfBytes": "32"
					},
					"t_struct(Student)14_storage": {
						"encoding": "inplace",
						"label": "struct Property.Student",
						"members": [
							{
								"astId": 3,
								"contract": "contracts/Property.sol:Property",
								"label": "name",
								"offset": 0,
								"slot": "0",
								"type": "t_string_storage"
							},
							{
								"astId": 5,
								"contract": "contracts/Property.sol:Property",
								"label": "age",
								"offset": 0,
								"slot": "1",
								"type": "t_uint256"
							},
							{
								"astId": 7,
								"contract": "contracts/Property.sol:Property",
								"label": "email",
								"offset": 0,
								"slot": "2",
								"type": "t_string_storage"
							},
							{
								"astId": 9,
								"contract": "contracts/Property.sol:Property",
								"label": "phoneNo",
								"offset": 0,
								"slot": "3",
								"type": "t_uint256"
							},
							{
								"astId": 11,
								"contract": "contracts/Property.sol:Property",
								"label": "rollno",
								"offset": 0,
								"slot": "4",
								"type": "t_uint256"
							},
							{
								"astId": 13,
								"contract": "contracts/Property.sol:Property",
								"label": "timeStamp",
								"offset": 0,
								"slot": "5",
								"type": "t_uint256"
							}
						],
						"numberOfBytes": "192"
					},
					"t_uint256": {
						"encoding": "inplace",
						"label": "uint256",
						"numberOfBytes": "32"
					}
				}
			},
			"userdoc": {
				"kind": "user",
				"methods": {},
				"version": 1
			}
		}
	}
}